{
  "_format": "hh-sol-artifact-1",
  "contractName": "PairMock",
  "sourceName": "contracts/automate/dex/mock/PairMock.sol",
  "abi": [
    {
      "inputs": [
        {
          "internalType": "address",
          "name": "_token0",
          "type": "address"
        },
        {
          "internalType": "address",
          "name": "_token1",
          "type": "address"
        }
      ],
      "stateMutability": "nonpayable",
      "type": "constructor"
    },
    {
      "anonymous": false,
      "inputs": [
        {
          "indexed": true,
          "internalType": "address",
          "name": "owner",
          "type": "address"
        },
        {
          "indexed": true,
          "internalType": "address",
          "name": "spender",
          "type": "address"
        },
        {
          "indexed": false,
          "internalType": "uint256",
          "name": "value",
          "type": "uint256"
        }
      ],
      "name": "Approval",
      "type": "event"
    },
    {
      "anonymous": false,
      "inputs": [
        {
          "indexed": true,
          "internalType": "address",
          "name": "from",
          "type": "address"
        },
        {
          "indexed": true,
          "internalType": "address",
          "name": "to",
          "type": "address"
        },
        {
          "indexed": false,
          "internalType": "uint256",
          "name": "value",
          "type": "uint256"
        }
      ],
      "name": "Transfer",
      "type": "event"
    },
    {
      "inputs": [
        {
          "internalType": "address",
          "name": "owner",
          "type": "address"
        },
        {
          "internalType": "address",
          "name": "spender",
          "type": "address"
        }
      ],
      "name": "allowance",
      "outputs": [
        {
          "internalType": "uint256",
          "name": "",
          "type": "uint256"
        }
      ],
      "stateMutability": "view",
      "type": "function"
    },
    {
      "inputs": [
        {
          "internalType": "address",
          "name": "spender",
          "type": "address"
        },
        {
          "internalType": "uint256",
          "name": "amount",
          "type": "uint256"
        }
      ],
      "name": "approve",
      "outputs": [
        {
          "internalType": "bool",
          "name": "",
          "type": "bool"
        }
      ],
      "stateMutability": "nonpayable",
      "type": "function"
    },
    {
      "inputs": [
        {
          "internalType": "address",
          "name": "account",
          "type": "address"
        }
      ],
      "name": "balanceOf",
      "outputs": [
        {
          "internalType": "uint256",
          "name": "",
          "type": "uint256"
        }
      ],
      "stateMutability": "view",
      "type": "function"
    },
    {
      "inputs": [],
      "name": "decimals",
      "outputs": [
        {
          "internalType": "uint8",
          "name": "",
          "type": "uint8"
        }
      ],
      "stateMutability": "view",
      "type": "function"
    },
    {
      "inputs": [
        {
          "internalType": "address",
          "name": "spender",
          "type": "address"
        },
        {
          "internalType": "uint256",
          "name": "subtractedValue",
          "type": "uint256"
        }
      ],
      "name": "decreaseAllowance",
      "outputs": [
        {
          "internalType": "bool",
          "name": "",
          "type": "bool"
        }
      ],
      "stateMutability": "nonpayable",
      "type": "function"
    },
    {
      "inputs": [
        {
          "internalType": "address",
          "name": "spender",
          "type": "address"
        },
        {
          "internalType": "uint256",
          "name": "addedValue",
          "type": "uint256"
        }
      ],
      "name": "increaseAllowance",
      "outputs": [
        {
          "internalType": "bool",
          "name": "",
          "type": "bool"
        }
      ],
      "stateMutability": "nonpayable",
      "type": "function"
    },
    {
      "inputs": [],
      "name": "name",
      "outputs": [
        {
          "internalType": "string",
          "name": "",
          "type": "string"
        }
      ],
      "stateMutability": "view",
      "type": "function"
    },
    {
      "inputs": [],
      "name": "symbol",
      "outputs": [
        {
          "internalType": "string",
          "name": "",
          "type": "string"
        }
      ],
      "stateMutability": "view",
      "type": "function"
    },
    {
      "inputs": [],
      "name": "token0",
      "outputs": [
        {
          "internalType": "address",
          "name": "",
          "type": "address"
        }
      ],
      "stateMutability": "view",
      "type": "function"
    },
    {
      "inputs": [],
      "name": "token1",
      "outputs": [
        {
          "internalType": "address",
          "name": "",
          "type": "address"
        }
      ],
      "stateMutability": "view",
      "type": "function"
    },
    {
      "inputs": [],
      "name": "totalSupply",
      "outputs": [
        {
          "internalType": "uint256",
          "name": "",
          "type": "uint256"
        }
      ],
      "stateMutability": "view",
      "type": "function"
    },
    {
      "inputs": [
        {
          "internalType": "address",
          "name": "recipient",
          "type": "address"
        },
        {
          "internalType": "uint256",
          "name": "amount",
          "type": "uint256"
        }
      ],
      "name": "transfer",
      "outputs": [
        {
          "internalType": "bool",
          "name": "",
          "type": "bool"
        }
      ],
      "stateMutability": "nonpayable",
      "type": "function"
    },
    {
      "inputs": [
        {
          "internalType": "address",
          "name": "sender",
          "type": "address"
        },
        {
          "internalType": "address",
          "name": "recipient",
          "type": "address"
        },
        {
          "internalType": "uint256",
          "name": "amount",
          "type": "uint256"
        }
      ],
      "name": "transferFrom",
      "outputs": [
        {
          "internalType": "bool",
          "name": "",
          "type": "bool"
        }
      ],
      "stateMutability": "nonpayable",
      "type": "function"
    }
  ],
  "bytecode": "0x60806040523480156200001157600080fd5b5060405162000c5e38038062000c5e83398101604081905262000034916200028a565b60408051808201825260048152632830b4b960e11b6020808301918252835180850190945260018452600560fc1b9084015281519192916200007991600391620001c7565b5080516200008f906004906020840190620001c7565b5050600580546001600160a01b038086166001600160a01b031992831617909255600680549285169290911691909117905550620000d73368056bc75e2d63100000620000df565b505062000326565b6001600160a01b0382166200013a5760405162461bcd60e51b815260206004820152601f60248201527f45524332303a206d696e7420746f20746865207a65726f206164647265737300604482015260640160405180910390fd5b80600260008282546200014e9190620002c2565b90915550506001600160a01b038216600090815260208190526040812080548392906200017d908490620002c2565b90915550506040518181526001600160a01b038316906000907fddf252ad1be2c89b69c2b068fc378daa952ba7f163c4a11628f55a4df523b3ef9060200160405180910390a35050565b828054620001d590620002e9565b90600052602060002090601f016020900481019282620001f9576000855562000244565b82601f106200021457805160ff191683800117855562000244565b8280016001018555821562000244579182015b828111156200024457825182559160200191906001019062000227565b506200025292915062000256565b5090565b5b8082111562000252576000815560010162000257565b80516001600160a01b03811681146200028557600080fd5b919050565b600080604083850312156200029e57600080fd5b620002a9836200026d565b9150620002b9602084016200026d565b90509250929050565b60008219821115620002e457634e487b7160e01b600052601160045260246000fd5b500190565b600181811c90821680620002fe57607f821691505b602082108114156200032057634e487b7160e01b600052602260045260246000fd5b50919050565b61092880620003366000396000f3fe608060405234801561001057600080fd5b50600436106100cf5760003560e01c8063395093511161008c578063a457c2d711610066578063a457c2d7146101b8578063a9059cbb146101cb578063d21220a7146101de578063dd62ed3e146101f157600080fd5b8063395093511461017457806370a082311461018757806395d89b41146101b057600080fd5b806306fdde03146100d4578063095ea7b3146100f25780630dfe16811461011557806318160ddd1461014057806323b872dd14610152578063313ce56714610165575b600080fd5b6100dc61022a565b6040516100e9919061083c565b60405180910390f35b610105610100366004610812565b6102bc565b60405190151581526020016100e9565b600554610128906001600160a01b031681565b6040516001600160a01b0390911681526020016100e9565b6002545b6040519081526020016100e9565b6101056101603660046107d6565b6102d2565b604051601281526020016100e9565b610105610182366004610812565b610381565b610144610195366004610781565b6001600160a01b031660009081526020819052604090205490565b6100dc6103bd565b6101056101c6366004610812565b6103cc565b6101056101d9366004610812565b610465565b600654610128906001600160a01b031681565b6101446101ff3660046107a3565b6001600160a01b03918216600090815260016020908152604080832093909416825291909152205490565b606060038054610239906108b7565b80601f0160208091040260200160405190810160405280929190818152602001828054610265906108b7565b80156102b25780601f10610287576101008083540402835291602001916102b2565b820191906000526020600020905b81548152906001019060200180831161029557829003601f168201915b5050505050905090565b60006102c9338484610472565b50600192915050565b60006102df848484610596565b6001600160a01b0384166000908152600160209081526040808320338452909152902054828110156103695760405162461bcd60e51b815260206004820152602860248201527f45524332303a207472616e7366657220616d6f756e74206578636565647320616044820152676c6c6f77616e636560c01b60648201526084015b60405180910390fd5b6103768533858403610472565b506001949350505050565b3360008181526001602090815260408083206001600160a01b038716845290915281205490916102c99185906103b8908690610891565b610472565b606060048054610239906108b7565b3360009081526001602090815260408083206001600160a01b03861684529091528120548281101561044e5760405162461bcd60e51b815260206004820152602560248201527f45524332303a2064656372656173656420616c6c6f77616e63652062656c6f77604482015264207a65726f60d81b6064820152608401610360565b61045b3385858403610472565b5060019392505050565b60006102c9338484610596565b6001600160a01b0383166104d45760405162461bcd60e51b8152602060048201526024808201527f45524332303a20617070726f76652066726f6d20746865207a65726f206164646044820152637265737360e01b6064820152608401610360565b6001600160a01b0382166105355760405162461bcd60e51b815260206004820152602260248201527f45524332303a20617070726f766520746f20746865207a65726f206164647265604482015261737360f01b6064820152608401610360565b6001600160a01b0383811660008181526001602090815260408083209487168084529482529182902085905590518481527f8c5be1e5ebec7d5bd14f71427d1e84f3dd0314c0f7b2291e5b200ac8c7c3b925910160405180910390a3505050565b6001600160a01b0383166105fa5760405162461bcd60e51b815260206004820152602560248201527f45524332303a207472616e736665722066726f6d20746865207a65726f206164604482015264647265737360d81b6064820152608401610360565b6001600160a01b03821661065c5760405162461bcd60e51b815260206004820152602360248201527f45524332303a207472616e7366657220746f20746865207a65726f206164647260448201526265737360e81b6064820152608401610360565b6001600160a01b038316600090815260208190526040902054818110156106d45760405162461bcd60e51b815260206004820152602660248201527f45524332303a207472616e7366657220616d6f756e7420657863656564732062604482015265616c616e636560d01b6064820152608401610360565b6001600160a01b0380851660009081526020819052604080822085850390559185168152908120805484929061070b908490610891565b92505081905550826001600160a01b0316846001600160a01b03167fddf252ad1be2c89b69c2b068fc378daa952ba7f163c4a11628f55a4df523b3ef8460405161075791815260200190565b60405180910390a350505050565b80356001600160a01b038116811461077c57600080fd5b919050565b60006020828403121561079357600080fd5b61079c82610765565b9392505050565b600080604083850312156107b657600080fd5b6107bf83610765565b91506107cd60208401610765565b90509250929050565b6000806000606084860312156107eb57600080fd5b6107f484610765565b925061080260208501610765565b9150604084013590509250925092565b6000806040838503121561082557600080fd5b61082e83610765565b946020939093013593505050565b600060208083528351808285015260005b818110156108695785810183015185820160400152820161084d565b8181111561087b576000604083870101525b50601f01601f1916929092016040019392505050565b600082198211156108b257634e487b7160e01b600052601160045260246000fd5b500190565b600181811c908216806108cb57607f821691505b602082108114156108ec57634e487b7160e01b600052602260045260246000fd5b5091905056fea2646970667358221220b6216969030d2d2ef41bcba4a1c26a6b0464d1e9a03b724ed0dab2e8c7ea102e64736f6c63430008060033",
  "linkReferences": {},
  "deployedLinkReferences": {}
}