{
  "address": "0x9a4Ec76B18F77AC4aDEE74e3B3A2AdDBae404BfF",
  "abi": [
    {
      "anonymous": false,
      "inputs": [
        {
          "indexed": false,
          "internalType": "address",
          "name": "oldAdmin",
          "type": "address"
        },
        {
          "indexed": false,
          "internalType": "address",
          "name": "newAdmin",
          "type": "address"
        }
      ],
      "name": "NewAdmin",
      "type": "event"
    },
    {
      "anonymous": false,
      "inputs": [
        {
          "indexed": false,
          "internalType": "address",
          "name": "oldImplementation",
          "type": "address"
        },
        {
          "indexed": false,
          "internalType": "address",
          "name": "newImplementation",
          "type": "address"
        }
      ],
      "name": "NewImplementation",
      "type": "event"
    },
    {
      "anonymous": false,
      "inputs": [
        {
          "indexed": false,
          "internalType": "address",
          "name": "oldPendingAdmin",
          "type": "address"
        },
        {
          "indexed": false,
          "internalType": "address",
          "name": "newPendingAdmin",
          "type": "address"
        }
      ],
      "name": "NewPendingAdmin",
      "type": "event"
    },
    {
      "anonymous": false,
      "inputs": [
        {
          "indexed": false,
          "internalType": "uint256",
          "name": "id",
          "type": "uint256"
        }
      ],
      "name": "ProposalCanceled",
      "type": "event"
    },
    {
      "anonymous": false,
      "inputs": [
        {
          "indexed": false,
          "internalType": "uint256",
          "name": "id",
          "type": "uint256"
        },
        {
          "indexed": false,
          "internalType": "address",
          "name": "proposer",
          "type": "address"
        },
        {
          "indexed": false,
          "internalType": "address[]",
          "name": "targets",
          "type": "address[]"
        },
        {
          "indexed": false,
          "internalType": "uint256[]",
          "name": "values",
          "type": "uint256[]"
        },
        {
          "indexed": false,
          "internalType": "string[]",
          "name": "signatures",
          "type": "string[]"
        },
        {
          "indexed": false,
          "internalType": "bytes[]",
          "name": "calldatas",
          "type": "bytes[]"
        },
        {
          "indexed": false,
          "internalType": "uint256",
          "name": "startBlock",
          "type": "uint256"
        },
        {
          "indexed": false,
          "internalType": "uint256",
          "name": "endBlock",
          "type": "uint256"
        },
        {
          "indexed": false,
          "internalType": "string",
          "name": "description",
          "type": "string"
        }
      ],
      "name": "ProposalCreated",
      "type": "event"
    },
    {
      "anonymous": false,
      "inputs": [
        {
          "indexed": false,
          "internalType": "uint256",
          "name": "id",
          "type": "uint256"
        }
      ],
      "name": "ProposalExecuted",
      "type": "event"
    },
    {
      "anonymous": false,
      "inputs": [
        {
          "indexed": false,
          "internalType": "uint256",
          "name": "id",
          "type": "uint256"
        },
        {
          "indexed": false,
          "internalType": "uint256",
          "name": "eta",
          "type": "uint256"
        }
      ],
      "name": "ProposalQueued",
      "type": "event"
    },
    {
      "anonymous": false,
      "inputs": [
        {
          "indexed": false,
          "internalType": "uint256",
          "name": "oldProposalThreshold",
          "type": "uint256"
        },
        {
          "indexed": false,
          "internalType": "uint256",
          "name": "newProposalThreshold",
          "type": "uint256"
        }
      ],
      "name": "ProposalThresholdSet",
      "type": "event"
    },
    {
      "anonymous": false,
      "inputs": [
        {
          "indexed": true,
          "internalType": "address",
          "name": "voter",
          "type": "address"
        },
        {
          "indexed": false,
          "internalType": "uint256",
          "name": "proposalId",
          "type": "uint256"
        },
        {
          "indexed": false,
          "internalType": "uint8",
          "name": "support",
          "type": "uint8"
        },
        {
          "indexed": false,
          "internalType": "uint256",
          "name": "votes",
          "type": "uint256"
        },
        {
          "indexed": false,
          "internalType": "string",
          "name": "reason",
          "type": "string"
        }
      ],
      "name": "VoteCast",
      "type": "event"
    },
    {
      "anonymous": false,
      "inputs": [
        {
          "indexed": false,
          "internalType": "uint256",
          "name": "oldVotingDelay",
          "type": "uint256"
        },
        {
          "indexed": false,
          "internalType": "uint256",
          "name": "newVotingDelay",
          "type": "uint256"
        }
      ],
      "name": "VotingDelaySet",
      "type": "event"
    },
    {
      "anonymous": false,
      "inputs": [
        {
          "indexed": false,
          "internalType": "uint256",
          "name": "oldVotingPeriod",
          "type": "uint256"
        },
        {
          "indexed": false,
          "internalType": "uint256",
          "name": "newVotingPeriod",
          "type": "uint256"
        }
      ],
      "name": "VotingPeriodSet",
      "type": "event"
    },
    {
      "inputs": [],
      "name": "BALLOT_TYPEHASH",
      "outputs": [
        {
          "internalType": "bytes32",
          "name": "",
          "type": "bytes32"
        }
      ],
      "stateMutability": "view",
      "type": "function"
    },
    {
      "inputs": [],
      "name": "DOMAIN_TYPEHASH",
      "outputs": [
        {
          "internalType": "bytes32",
          "name": "",
          "type": "bytes32"
        }
      ],
      "stateMutability": "view",
      "type": "function"
    },
    {
      "inputs": [],
      "name": "MAX_PROPOSAL_THRESHOLD",
      "outputs": [
        {
          "internalType": "uint256",
          "name": "",
          "type": "uint256"
        }
      ],
      "stateMutability": "view",
      "type": "function"
    },
    {
      "inputs": [],
      "name": "MAX_VOTING_DELAY",
      "outputs": [
        {
          "internalType": "uint256",
          "name": "",
          "type": "uint256"
        }
      ],
      "stateMutability": "view",
      "type": "function"
    },
    {
      "inputs": [],
      "name": "MAX_VOTING_PERIOD",
      "outputs": [
        {
          "internalType": "uint256",
          "name": "",
          "type": "uint256"
        }
      ],
      "stateMutability": "view",
      "type": "function"
    },
    {
      "inputs": [],
      "name": "MIN_PROPOSAL_THRESHOLD",
      "outputs": [
        {
          "internalType": "uint256",
          "name": "",
          "type": "uint256"
        }
      ],
      "stateMutability": "view",
      "type": "function"
    },
    {
      "inputs": [],
      "name": "MIN_VOTING_DELAY",
      "outputs": [
        {
          "internalType": "uint256",
          "name": "",
          "type": "uint256"
        }
      ],
      "stateMutability": "view",
      "type": "function"
    },
    {
      "inputs": [],
      "name": "MIN_VOTING_PERIOD",
      "outputs": [
        {
          "internalType": "uint256",
          "name": "",
          "type": "uint256"
        }
      ],
      "stateMutability": "view",
      "type": "function"
    },
    {
      "inputs": [],
      "name": "_acceptAdmin",
      "outputs": [],
      "stateMutability": "nonpayable",
      "type": "function"
    },
    {
      "inputs": [
        {
          "internalType": "address",
          "name": "newPendingAdmin",
          "type": "address"
        }
      ],
      "name": "_setPendingAdmin",
      "outputs": [],
      "stateMutability": "nonpayable",
      "type": "function"
    },
    {
      "inputs": [
        {
          "internalType": "uint256",
          "name": "newProposalThreshold",
          "type": "uint256"
        }
      ],
      "name": "_setProposalThreshold",
      "outputs": [],
      "stateMutability": "nonpayable",
      "type": "function"
    },
    {
      "inputs": [
        {
          "internalType": "uint256",
          "name": "newVotingDelay",
          "type": "uint256"
        }
      ],
      "name": "_setVotingDelay",
      "outputs": [],
      "stateMutability": "nonpayable",
      "type": "function"
    },
    {
      "inputs": [
        {
          "internalType": "uint256",
          "name": "newVotingPeriod",
          "type": "uint256"
        }
      ],
      "name": "_setVotingPeriod",
      "outputs": [],
      "stateMutability": "nonpayable",
      "type": "function"
    },
    {
      "inputs": [],
      "name": "admin",
      "outputs": [
        {
          "internalType": "address",
          "name": "",
          "type": "address"
        }
      ],
      "stateMutability": "view",
      "type": "function"
    },
    {
      "inputs": [
        {
          "internalType": "uint256",
          "name": "proposalId",
          "type": "uint256"
        }
      ],
      "name": "cancel",
      "outputs": [],
      "stateMutability": "nonpayable",
      "type": "function"
    },
    {
      "inputs": [
        {
          "internalType": "uint256",
          "name": "proposalId",
          "type": "uint256"
        },
        {
          "internalType": "uint8",
          "name": "support",
          "type": "uint8"
        }
      ],
      "name": "castVote",
      "outputs": [],
      "stateMutability": "nonpayable",
      "type": "function"
    },
    {
      "inputs": [
        {
          "internalType": "uint256",
          "name": "proposalId",
          "type": "uint256"
        },
        {
          "internalType": "uint8",
          "name": "support",
          "type": "uint8"
        },
        {
          "internalType": "uint8",
          "name": "v",
          "type": "uint8"
        },
        {
          "internalType": "bytes32",
          "name": "r",
          "type": "bytes32"
        },
        {
          "internalType": "bytes32",
          "name": "s",
          "type": "bytes32"
        }
      ],
      "name": "castVoteBySig",
      "outputs": [],
      "stateMutability": "nonpayable",
      "type": "function"
    },
    {
      "inputs": [
        {
          "internalType": "uint256",
          "name": "proposalId",
          "type": "uint256"
        },
        {
          "internalType": "uint8",
          "name": "support",
          "type": "uint8"
        },
        {
          "internalType": "string",
          "name": "reason",
          "type": "string"
        }
      ],
      "name": "castVoteWithReason",
      "outputs": [],
      "stateMutability": "nonpayable",
      "type": "function"
    },
    {
      "inputs": [
        {
          "internalType": "uint256",
          "name": "proposalId",
          "type": "uint256"
        }
      ],
      "name": "execute",
      "outputs": [],
      "stateMutability": "payable",
      "type": "function"
    },
    {
      "inputs": [
        {
          "internalType": "uint256",
          "name": "proposalId",
          "type": "uint256"
        }
      ],
      "name": "getActions",
      "outputs": [
        {
          "internalType": "address[]",
          "name": "targets",
          "type": "address[]"
        },
        {
          "internalType": "uint256[]",
          "name": "values",
          "type": "uint256[]"
        },
        {
          "internalType": "string[]",
          "name": "signatures",
          "type": "string[]"
        },
        {
          "internalType": "bytes[]",
          "name": "calldatas",
          "type": "bytes[]"
        }
      ],
      "stateMutability": "view",
      "type": "function"
    },
    {
      "inputs": [
        {
          "internalType": "uint256",
          "name": "proposalId",
          "type": "uint256"
        },
        {
          "internalType": "address",
          "name": "voter",
          "type": "address"
        }
      ],
      "name": "getReceipt",
      "outputs": [
        {
          "components": [
            {
              "internalType": "bool",
              "name": "hasVoted",
              "type": "bool"
            },
            {
              "internalType": "uint8",
              "name": "support",
              "type": "uint8"
            },
            {
              "internalType": "uint96",
              "name": "votes",
              "type": "uint96"
            }
          ],
          "internalType": "struct GovernorBravoDelegateStorageV1.Receipt",
          "name": "",
          "type": "tuple"
        }
      ],
      "stateMutability": "view",
      "type": "function"
    },
    {
      "inputs": [],
      "name": "governanceToken",
      "outputs": [
        {
          "internalType": "contract GovernanceTokenInterface",
          "name": "",
          "type": "address"
        }
      ],
      "stateMutability": "view",
      "type": "function"
    },
    {
      "inputs": [],
      "name": "implementation",
      "outputs": [
        {
          "internalType": "address",
          "name": "",
          "type": "address"
        }
      ],
      "stateMutability": "view",
      "type": "function"
    },
    {
      "inputs": [
        {
          "internalType": "address",
          "name": "timelock_",
          "type": "address"
        },
        {
          "internalType": "address",
          "name": "governanceToken_",
          "type": "address"
        },
        {
          "internalType": "uint256",
          "name": "votingPeriod_",
          "type": "uint256"
        },
        {
          "internalType": "uint256",
          "name": "votingDelay_",
          "type": "uint256"
        },
        {
          "internalType": "uint256",
          "name": "proposalThreshold_",
          "type": "uint256"
        }
      ],
      "name": "initialize",
      "outputs": [],
      "stateMutability": "nonpayable",
      "type": "function"
    },
    {
      "inputs": [
        {
          "internalType": "address",
          "name": "",
          "type": "address"
        }
      ],
      "name": "latestProposalIds",
      "outputs": [
        {
          "internalType": "uint256",
          "name": "",
          "type": "uint256"
        }
      ],
      "stateMutability": "view",
      "type": "function"
    },
    {
      "inputs": [],
      "name": "name",
      "outputs": [
        {
          "internalType": "string",
          "name": "",
          "type": "string"
        }
      ],
      "stateMutability": "view",
      "type": "function"
    },
    {
      "inputs": [],
      "name": "pendingAdmin",
      "outputs": [
        {
          "internalType": "address",
          "name": "",
          "type": "address"
        }
      ],
      "stateMutability": "view",
      "type": "function"
    },
    {
      "inputs": [],
      "name": "proposalCount",
      "outputs": [
        {
          "internalType": "uint256",
          "name": "",
          "type": "uint256"
        }
      ],
      "stateMutability": "view",
      "type": "function"
    },
    {
      "inputs": [],
      "name": "proposalMaxOperations",
      "outputs": [
        {
          "internalType": "uint256",
          "name": "",
          "type": "uint256"
        }
      ],
      "stateMutability": "view",
      "type": "function"
    },
    {
      "inputs": [],
      "name": "proposalThreshold",
      "outputs": [
        {
          "internalType": "uint256",
          "name": "",
          "type": "uint256"
        }
      ],
      "stateMutability": "view",
      "type": "function"
    },
    {
      "inputs": [
        {
          "internalType": "uint256",
          "name": "",
          "type": "uint256"
        }
      ],
      "name": "proposals",
      "outputs": [
        {
          "internalType": "uint256",
          "name": "id",
          "type": "uint256"
        },
        {
          "internalType": "address",
          "name": "proposer",
          "type": "address"
        },
        {
          "internalType": "uint256",
          "name": "eta",
          "type": "uint256"
        },
        {
          "internalType": "uint256",
          "name": "startBlock",
          "type": "uint256"
        },
        {
          "internalType": "uint256",
          "name": "endBlock",
          "type": "uint256"
        },
        {
          "internalType": "uint256",
          "name": "forVotes",
          "type": "uint256"
        },
        {
          "internalType": "uint256",
          "name": "againstVotes",
          "type": "uint256"
        },
        {
          "internalType": "uint256",
          "name": "abstainVotes",
          "type": "uint256"
        },
        {
          "internalType": "bool",
          "name": "canceled",
          "type": "bool"
        },
        {
          "internalType": "bool",
          "name": "executed",
          "type": "bool"
        }
      ],
      "stateMutability": "view",
      "type": "function"
    },
    {
      "inputs": [
        {
          "internalType": "address[]",
          "name": "targets",
          "type": "address[]"
        },
        {
          "internalType": "uint256[]",
          "name": "values",
          "type": "uint256[]"
        },
        {
          "internalType": "string[]",
          "name": "signatures",
          "type": "string[]"
        },
        {
          "internalType": "bytes[]",
          "name": "calldatas",
          "type": "bytes[]"
        },
        {
          "internalType": "string",
          "name": "description",
          "type": "string"
        }
      ],
      "name": "propose",
      "outputs": [
        {
          "internalType": "uint256",
          "name": "",
          "type": "uint256"
        }
      ],
      "stateMutability": "nonpayable",
      "type": "function"
    },
    {
      "inputs": [
        {
          "internalType": "uint256",
          "name": "proposalId",
          "type": "uint256"
        }
      ],
      "name": "queue",
      "outputs": [],
      "stateMutability": "nonpayable",
      "type": "function"
    },
    {
      "inputs": [],
      "name": "quorumVotes",
      "outputs": [
        {
          "internalType": "uint256",
          "name": "",
          "type": "uint256"
        }
      ],
      "stateMutability": "view",
      "type": "function"
    },
    {
      "inputs": [
        {
          "internalType": "uint256",
          "name": "proposalId",
          "type": "uint256"
        }
      ],
      "name": "state",
      "outputs": [
        {
          "internalType": "enum GovernorBravoDelegateStorageV1.ProposalState",
          "name": "",
          "type": "uint8"
        }
      ],
      "stateMutability": "view",
      "type": "function"
    },
    {
      "inputs": [],
      "name": "timelock",
      "outputs": [
        {
          "internalType": "contract TimelockInterface",
          "name": "",
          "type": "address"
        }
      ],
      "stateMutability": "view",
      "type": "function"
    },
    {
      "inputs": [],
      "name": "votingDelay",
      "outputs": [
        {
          "internalType": "uint256",
          "name": "",
          "type": "uint256"
        }
      ],
      "stateMutability": "view",
      "type": "function"
    },
    {
      "inputs": [],
      "name": "votingPeriod",
      "outputs": [
        {
          "internalType": "uint256",
          "name": "",
          "type": "uint256"
        }
      ],
      "stateMutability": "view",
      "type": "function"
    }
  ],
  "transactionHash": "0xc1a8fc0fb09ec803442bf390b77ca6e26bc231e81d051876b8d22bd90c326684",
  "args": [],
  "solcInputHash": "04251c67ac9196992590b29c2ba3ea0f",
  "bytecode": "0x608060405234801561001057600080fd5b506138f2806100206000396000f3fe6080604052600436106102255760003560e01c8063791f5d2311610123578063da35c664116100ab578063e48083fe1161006f578063e48083fe146107fb578063e9c714f214610810578063f851a44014610825578063f96dae0a14610845578063fe0d94c11461086557600080fd5b8063da35c664146106a7578063da95691a146106bd578063ddf0b009146106dd578063deaaa7cc146106fd578063e23a9a521461073157600080fd5b8063b1126263116100f2578063b11262631461061b578063b58131b014610631578063b71d1a0c14610647578063d13f90b414610667578063d33219b41461068757600080fd5b8063791f5d23146105b15780637b3c71d3146105cf5780637bdbe4d0146105ef578063a64e024a1461060457600080fd5b806324bc1a64116101b15780633bccf4fd116101755780633bccf4fd146105045780633e4f49e61461052457806340e58ee51461055157806356781388146105715780635c60da1b1461059157600080fd5b806324bc1a641461044a57806325fd935a146104685780632678224714610486578063328dd982146104be5780633932abb1146104ee57600080fd5b806317977c61116101f857806317977c611461039357806317ba1b8b146103c05780631dfb1b5a146103e057806320606b7014610400578063215809ca1461043457600080fd5b8063013cf08b1461022a57806302a251a31461030257806306fdde03146103265780630ea2d98c14610371575b600080fd5b34801561023657600080fd5b506102a761024536600461321c565b60096020819052600091825260409091208054600182015460028301546007840154600885015495850154600a860154600b870154600c9097015495976001600160a01b03909516969395929493919290919060ff808216916101009004168a565b604080519a8b526001600160a01b0390991660208b0152978901969096526060880194909452608087019290925260a086015260c085015260e084015215156101008301521515610120820152610140015b60405180910390f35b34801561030e57600080fd5b5061031860045481565b6040519081526020016102f9565b34801561033257600080fd5b506103646040518060400160405280601281526020017144464820476f7665726e6f7220427261766f60701b81525081565b6040516102f9919061361d565b34801561037d57600080fd5b5061039161038c36600461321c565b610878565b005b34801561039f57600080fd5b506103186103ae366004613030565b600a6020526000908152604090205481565b3480156103cc57600080fd5b506103916103db36600461321c565b6109b1565b3480156103ec57600080fd5b506103916103fb36600461321c565b610afa565b34801561040c57600080fd5b506103187f8cad95687ba82c2ce50e74f7b754645e5117c3a5bec8151c0726d5857980a86681565b34801561044057600080fd5b5061031861168081565b34801561045657600080fd5b506103186954b40b1f852bda00000081565b34801561047457600080fd5b5061031869152d02c7e14af680000081565b34801561049257600080fd5b506001546104a6906001600160a01b031681565b6040516001600160a01b0390911681526020016102f9565b3480156104ca57600080fd5b506104de6104d936600461321c565b610c21565b6040516102f9949392919061359d565b3480156104fa57600080fd5b5061031860035481565b34801561051057600080fd5b5061039161051f36600461330b565b610eb2565b34801561053057600080fd5b5061054461053f36600461321c565b61112a565b6040516102f991906135f5565b34801561055d57600080fd5b5061039161056c36600461321c565b6112ee565b34801561057d57600080fd5b5061039161058c366004613261565b61160d565b34801561059d57600080fd5b506002546104a6906001600160a01b031681565b3480156105bd57600080fd5b50610318690a968163f0a57b40000081565b3480156105db57600080fd5b506103916105ea366004613284565b611678565b3480156105fb57600080fd5b50610318600a81565b34801561061057600080fd5b5061031862013b0081565b34801561062757600080fd5b50610318619d8081565b34801561063d57600080fd5b5061031860055481565b34801561065357600080fd5b50610391610662366004613030565b6116c8565b34801561067357600080fd5b5061039161068236600461304b565b61178f565b34801561069357600080fd5b506007546104a6906001600160a01b031681565b3480156106b357600080fd5b5061031860065481565b3480156106c957600080fd5b506103186106d8366004613098565b611a62565b3480156106e957600080fd5b506103916106f836600461321c565b611fcf565b34801561070957600080fd5b506103187f150214d74d59b7d1e90c73fc22ef3d991dd0a76b046543d4d80ab92d2a50328f81565b34801561073d57600080fd5b506107cb61074c366004613235565b60408051606081018252600080825260208201819052918101919091525060009182526009602090815260408084206001600160a01b03939093168452600d9092018152918190208151606081018352905460ff8082161515835261010082041693820193909352620100009092046001600160601b03169082015290565b6040805182511515815260208084015160ff1690820152918101516001600160601b0316908201526060016102f9565b34801561080757600080fd5b50610318600181565b34801561081c57600080fd5b50610391612310565b34801561083157600080fd5b506000546104a6906001600160a01b031681565b34801561085157600080fd5b506008546104a6906001600160a01b031681565b61039161087336600461321c565b61243a565b6000546001600160a01b031633146108eb5760405162461bcd60e51b815260206004820152602b60248201527f476f7665726e6f72427261766f3a3a5f736574566f74696e67506572696f643a60448201526a2061646d696e206f6e6c7960a81b60648201526084015b60405180910390fd5b6116808110158015610900575062013b008111155b61096b5760405162461bcd60e51b815260206004820152603660248201527f476f7665726e6f72427261766f3a3a5f736574566f74696e67506572696f643a604482015275081a5b9d985b1a59081d9bdd1a5b99c81c195c9a5bd960521b60648201526084016108e2565b600480549082905560408051828152602081018490527f7e3f7f0708a84de9203036abaa450dccc85ad5ff52f78c170f3edb55cf5e882891015b60405180910390a15050565b6000546001600160a01b03163314610a245760405162461bcd60e51b815260206004820152603060248201527f476f7665726e6f72427261766f3a3a5f73657450726f706f73616c546872657360448201526f686f6c643a2061646d696e206f6e6c7960801b60648201526084016108e2565b690a968163f0a57b4000008110158015610a48575069152d02c7e14af68000008111155b610abc576040805162461bcd60e51b81526020600482015260248101919091527f476f7665726e6f72427261766f3a3a5f73657450726f706f73616c546872657360448201527f686f6c643a20696e76616c69642070726f706f73616c207468726573686f6c6460648201526084016108e2565b600580549082905560408051828152602081018490527fccb45da8d5717e6c4544694297c4ba5cf151d455c9bb0ed4fc7a38411bc0546191016109a5565b6000546001600160a01b03163314610b675760405162461bcd60e51b815260206004820152602a60248201527f476f7665726e6f72427261766f3a3a5f736574566f74696e6744656c61793a2060448201526961646d696e206f6e6c7960b01b60648201526084016108e2565b60018110158015610b7a5750619d808111155b610be35760405162461bcd60e51b815260206004820152603460248201527f476f7665726e6f72427261766f3a3a5f736574566f74696e6744656c61793a20604482015273696e76616c696420766f74696e672064656c617960601b60648201526084016108e2565b600380549082905560408051828152602081018490527fc565b045403dc03c2eea82b81a0465edad9e2e7fc4d97e11421c209da93d7a9391016109a5565b60608060608060006009600087815260200190815260200160002090508060030181600401826005018360060183805480602002602001604051908101604052809291908181526020018280548015610ca357602002820191906000526020600020905b81546001600160a01b03168152600190910190602001808311610c85575b5050505050935082805480602002602001604051908101604052809291908181526020018280548015610cf557602002820191906000526020600020905b815481526020019060010190808311610ce1575b5050505050925081805480602002602001604051908101604052809291908181526020016000905b82821015610dc9578382906000526020600020018054610d3c906137f4565b80601f0160208091040260200160405190810160405280929190818152602001828054610d68906137f4565b8015610db55780601f10610d8a57610100808354040283529160200191610db5565b820191906000526020600020905b815481529060010190602001808311610d9857829003601f168201915b505050505081526020019060010190610d1d565b50505050915080805480602002602001604051908101604052809291908181526020016000905b82821015610e9c578382906000526020600020018054610e0f906137f4565b80601f0160208091040260200160405190810160405280929190818152602001828054610e3b906137f4565b8015610e885780601f10610e5d57610100808354040283529160200191610e88565b820191906000526020600020905b815481529060010190602001808311610e6b57829003601f168201915b505050505081526020019060010190610df0565b5050505090509450945094509450509193509193565b604080518082018252601281527144464820476f7665726e6f7220427261766f60701b60209182015281517f8cad95687ba82c2ce50e74f7b754645e5117c3a5bec8151c0726d5857980a866818301527fab90ebd86f4e7b59de9def3b3a1843f9734e3d457608d13990d7511aae69207781840152466060820152306080808301919091528351808303909101815260a0820184528051908301207f150214d74d59b7d1e90c73fc22ef3d991dd0a76b046543d4d80ab92d2a50328f60c083015260e0820189905260ff8816610100808401919091528451808403909101815261012083019094528351939092019290922061190160f01b6101408401526101428301829052610162830181905290916000906101820160408051601f198184030181528282528051602091820120600080855291840180845281905260ff8a169284019290925260608301889052608083018790529092509060019060a0016020604051602081039080840390855afa158015611034573d6000803e3d6000fd5b5050604051601f1901519150506001600160a01b0381166110af5760405162461bcd60e51b815260206004820152602f60248201527f476f7665726e6f72427261766f3a3a63617374566f746542795369673a20696e60448201526e76616c6964207369676e617475726560881b60648201526084016108e2565b806001600160a01b03167fb8e138887d0aa13bab447e82de9d5c1777041ecd21ca36ba824ff1e6c07ddda48a8a6110e7858e8e612686565b6040805193845260ff90921660208401526001600160601b03169082015260806060820181905260009082015260a00160405180910390a2505050505050505050565b60008160065410156111905760405162461bcd60e51b815260206004820152602960248201527f476f7665726e6f72427261766f3a3a73746174653a20696e76616c69642070726044820152681bdc1bdcd85b081a5960ba1b60648201526084016108e2565b6000828152600960205260409020600c81015460ff16156111b45750600292915050565b806007015443116111c85750600092915050565b806008015443116111dc5750600192915050565b80600a0154816009015411158061120057506954b40b1f852bda0000008160090154105b1561120e5750600392915050565b60028101546112205750600492915050565b600c810154610100900460ff161561123b5750600792915050565b600760009054906101000a90046001600160a01b03166001600160a01b031663c1a287e26040518163ffffffff1660e01b815260040160206040518083038186803b15801561128957600080fd5b505afa15801561129d573d6000803e3d6000fd5b505050506040513d601f19601f820116820180604052508101906112c1919061318c565b81600201546112d09190613795565b42106112df5750600692915050565b50600592915050565b50919050565b60076112f98261112a565b600781111561130a5761130a61385a565b14156113775760405162461bcd60e51b815260206004820152603660248201527f476f7665726e6f72427261766f3a3a63616e63656c3a2063616e6e6f742063616044820152751b98d95b08195e1958dd5d1959081c1c9bdc1bdcd85b60521b60648201526084016108e2565b600081815260096020526040902060018101546001600160a01b031633148061144d57506005546008546001838101546001600160a01b039283169263782d6fe1929116906113c690436137ad565b6040516001600160e01b031960e085901b1681526001600160a01b039092166004830152602482015260440160206040518083038186803b15801561140a57600080fd5b505afa15801561141e573d6000803e3d6000fd5b505050506040513d601f19601f820116820180604052508101906114429190613359565b6001600160601b0316105b6114b15760405162461bcd60e51b815260206004820152602f60248201527f476f7665726e6f72427261766f3a3a63616e63656c3a2070726f706f7365722060448201526e18589bdd99481d1a1c995cda1bdb19608a1b60648201526084016108e2565b600c8101805460ff1916600117905560005b60038201548110156115dc576007546003830180546001600160a01b039092169163591fcdfe9190849081106114fb576114fb613870565b6000918252602090912001546004850180546001600160a01b03909216918590811061152957611529613870565b906000526020600020015485600501858154811061154957611549613870565b9060005260206000200186600601868154811061156857611568613870565b9060005260206000200187600201546040518663ffffffff1660e01b8152600401611597959493929190613564565b600060405180830381600087803b1580156115b157600080fd5b505af11580156115c5573d6000803e3d6000fd5b5050505080806115d490613829565b9150506114c3565b506040518281527f789cf55be980739dad1d0699b93b58e806b51c9d96619bfa8fe0a28abaa7b30c906020016109a5565b337fb8e138887d0aa13bab447e82de9d5c1777041ecd21ca36ba824ff1e6c07ddda4838361163c848383612686565b6040805193845260ff90921660208401526001600160601b03169082015260806060820181905260009082015260a00160405180910390a25050565b337fb8e138887d0aa13bab447e82de9d5c1777041ecd21ca36ba824ff1e6c07ddda485856116a7848383612686565b86866040516116ba9594939291906136c8565b60405180910390a250505050565b6000546001600160a01b031633146117355760405162461bcd60e51b815260206004820152602a60248201527f476f7665726e6f72427261766f3a5f73657450656e64696e6741646d696e3a2060448201526961646d696e206f6e6c7960b01b60648201526084016108e2565b600180546001600160a01b038381166001600160a01b031983168117909355604080519190921680825260208201939093527fca4f2f25d0898edd99413412fb94012f9e54ec8142f9b093e7720646a95b16a991016109a5565b6007546001600160a01b0316156118045760405162461bcd60e51b815260206004820152603360248201527f476f7665726e6f72427261766f3a3a696e697469616c697a653a2063616e206f6044820152726e6c7920696e697469616c697a65206f6e636560681b60648201526084016108e2565b6001600160a01b0385166118645760405162461bcd60e51b8152602060048201526033602482015260008051602061389d83398151915260448201527269642074696d656c6f636b206164647265737360681b60648201526084016108e2565b6001600160a01b0384166118ce5760405162461bcd60e51b815260206004820152603b602482015260008051602061389d83398151915260448201527f696420676f7665726e616e636520746f6b656e2061646472657373000000000060648201526084016108e2565b61168083101580156118e3575062013b008311155b6119365760405162461bcd60e51b8152602060048201526030602482015260008051602061389d83398151915260448201526f1a59081d9bdd1a5b99c81c195c9a5bd960821b60648201526084016108e2565b600182101580156119495750619d808211155b61199b5760405162461bcd60e51b815260206004820152602f602482015260008051602061389d83398151915260448201526e696420766f74696e672064656c617960881b60648201526084016108e2565b690a968163f0a57b40000081101580156119bf575069152d02c7e14af68000008111155b611a175760405162461bcd60e51b8152602060048201526035602482015260008051602061389d8339815191526044820152741a59081c1c9bdc1bdcd85b081d1a1c995cda1bdb19605a1b60648201526084016108e2565b600080546001600160a01b039687166001600160a01b031991821681179092556007805482169092179091556008805495909616941693909317909355600455600391909155600555565b600554600854600091906001600160a01b031663782d6fe133611a866001436137ad565b6040516001600160e01b031960e085901b1681526001600160a01b039092166004830152602482015260440160206040518083038186803b158015611aca57600080fd5b505afa158015611ade573d6000803e3d6000fd5b505050506040513d601f19601f82011682018060405250810190611b029190613359565b6001600160601b031611611b7e5760405162461bcd60e51b815260206004820152603f60248201527f476f7665726e6f72427261766f3a3a70726f706f73653a2070726f706f73657260448201527f20766f7465732062656c6f772070726f706f73616c207468726573686f6c640060648201526084016108e2565b84518651148015611b90575083518651145b8015611b9d575082518651145b611c1d5760405162461bcd60e51b8152602060048201526044602482018190527f476f7665726e6f72427261766f3a3a70726f706f73653a2070726f706f73616c908201527f2066756e6374696f6e20696e666f726d6174696f6e206172697479206d69736d6064820152630c2e8c6d60e31b608482015260a4016108e2565b8551611c805760405162461bcd60e51b815260206004820152602c60248201527f476f7665726e6f72427261766f3a3a70726f706f73653a206d7573742070726f60448201526b7669646520616374696f6e7360a01b60648201526084016108e2565b600a86511115611ce35760405162461bcd60e51b815260206004820152602860248201527f476f7665726e6f72427261766f3a3a70726f706f73653a20746f6f206d616e7960448201526720616374696f6e7360c01b60648201526084016108e2565b336000908152600a60205260409020548015611e64576000611d048261112a565b90506001816007811115611d1a57611d1a61385a565b1415611db45760405162461bcd60e51b815260206004820152605860248201527f476f7665726e6f72427261766f3a3a70726f706f73653a206f6e65206c69766560448201527f2070726f706f73616c207065722070726f706f7365722c20666f756e6420616e60648201527f20616c7265616479206163746976652070726f706f73616c0000000000000000608482015260a4016108e2565b6000816007811115611dc857611dc861385a565b1415611e625760405162461bcd60e51b815260206004820152605960248201527f476f7665726e6f72427261766f3a3a70726f706f73653a206f6e65206c69766560448201527f2070726f706f73616c207065722070726f706f7365722c20666f756e6420616e60648201527f20616c72656164792070656e64696e672070726f706f73616c00000000000000608482015260a4016108e2565b505b600060035443611e749190613795565b9050600060045482611e869190613795565b600680549192506000611e9883613829565b909155505060065460008181526009602090815260409091209182556001820180546001600160a01b031916331790558a51611edc916003840191908d0190612b4f565b508851611ef290600483019060208c0190612bb4565b508751611f0890600583019060208b0190612bef565b508651611f1e90600683019060208a0190612c48565b508281600701819055508181600801819055508060000154600a60008360010160009054906101000a90046001600160a01b03166001600160a01b03166001600160a01b03168152602001908152602001600020819055507f7d84a6263ae0d98d3329bd7b46bb4e8d6f98cd35a7adb45c274c8b7fd5ebd5e08160000154338c8c8c8c89898e604051611fb999989796959493929190613630565b60405180910390a1549998505050505050505050565b6004611fda8261112a565b6007811115611feb57611feb61385a565b1461206c5760405162461bcd60e51b8152602060048201526044602482018190527f476f7665726e6f72427261766f3a3a71756575653a2070726f706f73616c2063908201527f616e206f6e6c79206265207175657565642069662069742069732073756363656064820152631959195960e21b608482015260a4016108e2565b60008181526009602090815260408083206007548251630d48571f60e31b815292519194936001600160a01b0390911692636a42b8f89260048083019392829003018186803b1580156120be57600080fd5b505afa1580156120d2573d6000803e3d6000fd5b505050506040513d601f19601f820116820180604052508101906120f6919061318c565b6121009042613795565b905060005b60038301548110156122ca576122b883600301828154811061212957612129613870565b6000918252602090912001546004850180546001600160a01b03909216918490811061215757612157613870565b906000526020600020015485600501848154811061217757612177613870565b90600052602060002001805461218c906137f4565b80601f01602080910402602001604051908101604052809291908181526020018280546121b8906137f4565b80156122055780601f106121da57610100808354040283529160200191612205565b820191906000526020600020905b8154815290600101906020018083116121e857829003601f168201915b505050505086600601858154811061221f5761221f613870565b906000526020600020018054612234906137f4565b80601f0160208091040260200160405190810160405280929190818152602001828054612260906137f4565b80156122ad5780601f10612282576101008083540402835291602001916122ad565b820191906000526020600020905b81548152906001019060200180831161229057829003601f168201915b50505050508661297a565b806122c281613829565b915050612105565b506002820181905560408051848152602081018390527f9a2e42fd6722813d69113e7d0079d3d940171428df7373df9c7f7617cfda2892910160405180910390a1505050565b6001546001600160a01b03163314801561232957503315155b61238c5760405162461bcd60e51b815260206004820152602e60248201527f476f7665726e6f72427261766f3a5f61636365707441646d696e3a2070656e6460448201526d696e672061646d696e206f6e6c7960901b60648201526084016108e2565b60008054600180546001600160a01b038082166001600160a01b031980861682179096559490911690915560408051919092168082526020820184905292917ff9ffabca9c8276e99321725bcb43fb076a6c66a54b7f21c4e8146d8519b417dc910160405180910390a1600154604080516001600160a01b03808516825290921660208301527fca4f2f25d0898edd99413412fb94012f9e54ec8142f9b093e7720646a95b16a991016109a5565b60056124458261112a565b60078111156124565761245661385a565b146124d75760405162461bcd60e51b815260206004820152604560248201527f476f7665726e6f72427261766f3a3a657865637574653a2070726f706f73616c60448201527f2063616e206f6e6c7920626520657865637574656420696620697420697320716064820152641d595d595960da1b608482015260a4016108e2565b6000818152600960205260408120600c8101805461ff001916610100179055905b6003820154811015612655576007546004830180546001600160a01b0390921691630825f38f91908490811061253057612530613870565b906000526020600020015484600301848154811061255057612550613870565b6000918252602090912001546004860180546001600160a01b03909216918690811061257e5761257e613870565b906000526020600020015486600501868154811061259e5761259e613870565b906000526020600020018760060187815481106125bd576125bd613870565b9060005260206000200188600201546040518763ffffffff1660e01b81526004016125ec959493929190613564565b6000604051808303818588803b15801561260557600080fd5b505af1158015612619573d6000803e3d6000fd5b50505050506040513d6000823e601f3d908101601f1916820160405261264291908101906131a5565b508061264d81613829565b9150506124f8565b506040518281527f712ae1383f79ac853f8d882153778e0260ef8f03b504e2866e0593e04d2b291f906020016109a5565b600060016126938461112a565b60078111156126a4576126a461385a565b1461270b5760405162461bcd60e51b815260206004820152603160248201527f476f7665726e6f72427261766f3a3a63617374566f7465496e7465726e616c3a604482015270081d9bdd1a5b99c81a5cc818db1bdcd959607a1b60648201526084016108e2565b60028260ff16111561277a5760405162461bcd60e51b815260206004820152603260248201527f476f7665726e6f72427261766f3a3a63617374566f7465496e7465726e616c3a60448201527120696e76616c696420766f7465207479706560701b60648201526084016108e2565b60008381526009602090815260408083206001600160a01b0388168452600d8101909252909120805460ff16156128105760405162461bcd60e51b815260206004820152603460248201527f476f7665726e6f72427261766f3a3a63617374566f7465496e7465726e616c3a604482015273081d9bdd195c88185b1c9958591e481d9bdd195960621b60648201526084016108e2565b600854600783015460405163782d6fe160e01b81526000926001600160a01b03169163782d6fe19161285a918b916004016001600160a01b03929092168252602082015260400190565b60206040518083038186803b15801561287257600080fd5b505afa158015612886573d6000803e3d6000fd5b505050506040513d601f19601f820116820180604052508101906128aa9190613359565b905060ff85166128d757806001600160601b031683600a01546128cd9190613795565b600a840155612931565b8460ff166001141561290657806001600160601b031683600901546128fc9190613795565b6009840155612931565b8460ff166002141561293157806001600160601b031683600b015461292b9190613795565b600b8401555b81546001600160601b03821662010000026dffffffffffffffffffffffff00001960ff88166101000261ffff199093169290921760011791909116179091559150509392505050565b6007546040516001600160a01b039091169063f2b06537906129a89088908890889088908890602001613518565b604051602081830303815290604052805190602001206040518263ffffffff1660e01b81526004016129dc91815260200190565b60206040518083038186803b1580156129f457600080fd5b505afa158015612a08573d6000803e3d6000fd5b505050506040513d601f19601f82011682018060405250810190612a2c919061316a565b15612abd5760405162461bcd60e51b815260206004820152605560248201527f476f7665726e6f72427261766f3a3a71756575654f72526576657274496e746560448201527f726e616c3a206964656e746963616c2070726f706f73616c20616374696f6e20606482015274616c7265616479207175657565642061742065746160581b608482015260a4016108e2565b600754604051633a66f90160e01b81526001600160a01b0390911690633a66f90190612af59088908890889088908890600401613518565b602060405180830381600087803b158015612b0f57600080fd5b505af1158015612b23573d6000803e3d6000fd5b505050506040513d601f19601f82011682018060405250810190612b47919061318c565b505050505050565b828054828255906000526020600020908101928215612ba4579160200282015b82811115612ba457825182546001600160a01b0319166001600160a01b03909116178255602090920191600190910190612b6f565b50612bb0929150612ca1565b5090565b828054828255906000526020600020908101928215612ba4579160200282015b82811115612ba4578251825591602001919060010190612bd4565b828054828255906000526020600020908101928215612c3c579160200282015b82811115612c3c5782518051612c2c918491602090910190612cb6565b5091602001919060010190612c0f565b50612bb0929150612d29565b828054828255906000526020600020908101928215612c95579160200282015b82811115612c955782518051612c85918491602090910190612cb6565b5091602001919060010190612c68565b50612bb0929150612d46565b5b80821115612bb05760008155600101612ca2565b828054612cc2906137f4565b90600052602060002090601f016020900481019282612ce45760008555612ba4565b82601f10612cfd57805160ff1916838001178555612ba4565b82800160010185558215612ba45791820182811115612ba4578251825591602001919060010190612bd4565b80821115612bb0576000612d3d8282612d63565b50600101612d29565b80821115612bb0576000612d5a8282612d63565b50600101612d46565b508054612d6f906137f4565b6000825580601f10612d7f575050565b601f016020900490600052602060002090810190612d9d9190612ca1565b50565b6000612db3612dae8461376d565b613718565b9050828152838383011115612dc757600080fd5b828260208301376000602084830101529392505050565b80356001600160a01b0381168114612df557600080fd5b919050565b600082601f830112612e0b57600080fd5b81356020612e1b612dae83613749565b80838252828201915082860187848660051b8901011115612e3b57600080fd5b60005b85811015612e6157612e4f82612dde565b84529284019290840190600101612e3e565b5090979650505050505050565b600082601f830112612e7f57600080fd5b81356020612e8f612dae83613749565b80838252828201915082860187848660051b8901011115612eaf57600080fd5b60005b85811015612e6157813567ffffffffffffffff811115612ed157600080fd5b8801603f81018a13612ee257600080fd5b612ef38a8783013560408401612da0565b8552509284019290840190600101612eb2565b600082601f830112612f1757600080fd5b81356020612f27612dae83613749565b80838252828201915082860187848660051b8901011115612f4757600080fd5b6000805b86811015612f8a57823567ffffffffffffffff811115612f69578283fd5b612f778b88838d0101612ff8565b8652509385019391850191600101612f4b565b509198975050505050505050565b600082601f830112612fa957600080fd5b81356020612fb9612dae83613749565b80838252828201915082860187848660051b8901011115612fd957600080fd5b60005b85811015612e6157813584529284019290840190600101612fdc565b600082601f83011261300957600080fd5b61301883833560208501612da0565b9392505050565b803560ff81168114612df557600080fd5b60006020828403121561304257600080fd5b61301882612dde565b600080600080600060a0868803121561306357600080fd5b61306c86612dde565b945061307a60208701612dde565b94979496505050506040830135926060810135926080909101359150565b600080600080600060a086880312156130b057600080fd5b853567ffffffffffffffff808211156130c857600080fd5b6130d489838a01612dfa565b965060208801359150808211156130ea57600080fd5b6130f689838a01612f98565b9550604088013591508082111561310c57600080fd5b61311889838a01612f06565b9450606088013591508082111561312e57600080fd5b61313a89838a01612e6e565b9350608088013591508082111561315057600080fd5b5061315d88828901612ff8565b9150509295509295909350565b60006020828403121561317c57600080fd5b8151801515811461301857600080fd5b60006020828403121561319e57600080fd5b5051919050565b6000602082840312156131b757600080fd5b815167ffffffffffffffff8111156131ce57600080fd5b8201601f810184136131df57600080fd5b80516131ed612dae8261376d565b81815285602083850101111561320257600080fd5b6132138260208301602086016137c4565b95945050505050565b60006020828403121561322e57600080fd5b5035919050565b6000806040838503121561324857600080fd5b8235915061325860208401612dde565b90509250929050565b6000806040838503121561327457600080fd5b823591506132586020840161301f565b6000806000806060858703121561329a57600080fd5b843593506132aa6020860161301f565b9250604085013567ffffffffffffffff808211156132c757600080fd5b818701915087601f8301126132db57600080fd5b8135818111156132ea57600080fd5b8860208285010111156132fc57600080fd5b95989497505060200194505050565b600080600080600060a0868803121561332357600080fd5b853594506133336020870161301f565b93506133416040870161301f565b94979396509394606081013594506080013592915050565b60006020828403121561336b57600080fd5b81516001600160601b038116811461301857600080fd5b600081518084526020808501945080840160005b838110156133bb5781516001600160a01b031687529582019590820190600101613396565b509495945050505050565b600081518084526020808501808196508360051b8101915082860160005b8581101561340e5782840389526133fc84835161344b565b988501989350908401906001016133e4565b5091979650505050505050565b600081518084526020808501945080840160005b838110156133bb5781518752958201959082019060010161342f565b600081518084526134638160208601602086016137c4565b601f01601f19169290920160200192915050565b8054600090600181811c908083168061349157607f831692505b60208084108214156134b357634e487b7160e01b600052602260045260246000fd5b8388528180156134ca57600181146134de5761350c565b60ff1986168983015260408901965061350c565b876000528160002060005b868110156135045781548b82018501529085019083016134e9565b8a0183019750505b50505050505092915050565b60018060a01b038616815284602082015260a06040820152600061353f60a083018661344b565b8281036060840152613551818661344b565b9150508260808301529695505050505050565b60018060a01b038616815284602082015260a06040820152600061358b60a0830186613477565b82810360608401526135518186613477565b6080815260006135b06080830187613382565b82810360208401526135c2818761341b565b905082810360408401526135d681866133c6565b905082810360608401526135ea81856133c6565b979650505050505050565b602081016008831061361757634e487b7160e01b600052602160045260246000fd5b91905290565b602081526000613018602083018461344b565b8981526001600160a01b03891660208201526101206040820181905260009061365b8382018b613382565b9050828103606084015261366f818a61341b565b9050828103608084015261368381896133c6565b905082810360a084015261369781886133c6565b90508560c08401528460e08401528281036101008401526136b8818561344b565b9c9b505050505050505050505050565b85815260ff851660208201526001600160601b038416604082015260806060820152816080820152818360a0830137600081830160a090810191909152601f909201601f19160101949350505050565b604051601f8201601f1916810167ffffffffffffffff8111828210171561374157613741613886565b604052919050565b600067ffffffffffffffff82111561376357613763613886565b5060051b60200190565b600067ffffffffffffffff82111561378757613787613886565b50601f01601f191660200190565b600082198211156137a8576137a8613844565b500190565b6000828210156137bf576137bf613844565b500390565b60005b838110156137df5781810151838201526020016137c7565b838111156137ee576000848401525b50505050565b600181811c9082168061380857607f821691505b602082108114156112e857634e487b7160e01b600052602260045260246000fd5b600060001982141561383d5761383d613844565b5060010190565b634e487b7160e01b600052601160045260246000fd5b634e487b7160e01b600052602160045260246000fd5b634e487b7160e01b600052603260045260246000fd5b634e487b7160e01b600052604160045260246000fdfe476f7665726e6f72427261766f3a3a696e697469616c697a653a20696e76616ca2646970667358221220c9ac61ce85a099f4a9b455c0a50efeb2486494bec14ce50dfc4f83cf205e97c264736f6c63430008060033",
  "devdoc": {
    "kind": "dev",
    "methods": {
      "_acceptAdmin()": {
        "details": "Admin function for pending admin to accept role and update admin"
      },
      "_setPendingAdmin(address)": {
        "details": "Admin function to begin change of admin. The newPendingAdmin must call `_acceptAdmin` to finalize the transfer.",
        "params": {
          "newPendingAdmin": "New pending admin."
        }
      },
      "_setProposalThreshold(uint256)": {
        "details": "newProposalThreshold must be greater than the hardcoded min",
        "params": {
          "newProposalThreshold": "new proposal threshold"
        }
      },
      "_setVotingDelay(uint256)": {
        "params": {
          "newVotingDelay": "new voting delay, in blocks"
        }
      },
      "_setVotingPeriod(uint256)": {
        "params": {
          "newVotingPeriod": "new voting period, in blocks"
        }
      },
      "cancel(uint256)": {
        "params": {
          "proposalId": "The id of the proposal to cancel"
        }
      },
      "castVote(uint256,uint8)": {
        "params": {
          "proposalId": "The id of the proposal to vote on",
          "support": "The support value for the vote. 0=against, 1=for, 2=abstain"
        }
      },
      "castVoteBySig(uint256,uint8,uint8,bytes32,bytes32)": {
        "details": "External function that accepts EIP-712 signatures for voting on proposals."
      },
      "castVoteWithReason(uint256,uint8,string)": {
        "params": {
          "proposalId": "The id of the proposal to vote on",
          "reason": "The reason given for the vote by the voter",
          "support": "The support value for the vote. 0=against, 1=for, 2=abstain"
        }
      },
      "execute(uint256)": {
        "params": {
          "proposalId": "The id of the proposal to execute"
        }
      },
      "getActions(uint256)": {
        "params": {
          "proposalId": "the id of the proposal"
        },
        "returns": {
          "calldatas": "Calldatas of the proposal actions",
          "signatures": "Signatures of the proposal actions",
          "targets": "Targets of the proposal actions",
          "values": "Values of the proposal actions"
        }
      },
      "getReceipt(uint256,address)": {
        "params": {
          "proposalId": "the id of proposal",
          "voter": "The address of the voter"
        },
        "returns": {
          "_0": "The voting receipt"
        }
      },
      "initialize(address,address,uint256,uint256,uint256)": {
        "params": {
          "governanceToken_": "The address of the governance token",
          "proposalThreshold_": "The initial proposal threshold",
          "timelock_": "The address of the Timelock",
          "votingDelay_": "The initial voting delay",
          "votingPeriod_": "The initial voting period"
        }
      },
      "propose(address[],uint256[],string[],bytes[],string)": {
        "params": {
          "calldatas": "Calldatas for proposal calls",
          "description": "String description of the proposal",
          "signatures": "Function signatures for proposal calls",
          "targets": "Target addresses for proposal calls",
          "values": "Eth values for proposal calls"
        },
        "returns": {
          "_0": "Proposal id of new proposal"
        }
      },
      "queue(uint256)": {
        "params": {
          "proposalId": "The id of the proposal to queue"
        }
      },
      "state(uint256)": {
        "params": {
          "proposalId": "The id of the proposal"
        },
        "returns": {
          "_0": "Proposal state"
        }
      }
    },
    "version": 1
  },
  "userdoc": {
    "events": {
      "NewAdmin(address,address)": {
        "notice": "Emitted when pendingAdmin is accepted, which means admin is updated"
      },
      "NewImplementation(address,address)": {
        "notice": "Emitted when implementation is changed"
      },
      "NewPendingAdmin(address,address)": {
        "notice": "Emitted when pendingAdmin is changed"
      },
      "ProposalCanceled(uint256)": {
        "notice": "An event emitted when a proposal has been canceled"
      },
      "ProposalCreated(uint256,address,address[],uint256[],string[],bytes[],uint256,uint256,string)": {
        "notice": "An event emitted when a new proposal is created"
      },
      "ProposalExecuted(uint256)": {
        "notice": "An event emitted when a proposal has been executed in the Timelock"
      },
      "ProposalQueued(uint256,uint256)": {
        "notice": "An event emitted when a proposal has been queued in the Timelock"
      },
      "ProposalThresholdSet(uint256,uint256)": {
        "notice": "Emitted when proposal threshold is set"
      },
      "VoteCast(address,uint256,uint8,uint256,string)": {
        "notice": "An event emitted when a vote has been cast on a proposal"
      },
      "VotingDelaySet(uint256,uint256)": {
        "notice": "An event emitted when the voting delay is set"
      },
      "VotingPeriodSet(uint256,uint256)": {
        "notice": "An event emitted when the voting period is set"
      }
    },
    "kind": "user",
    "methods": {
      "BALLOT_TYPEHASH()": {
        "notice": "The EIP-712 typehash for the ballot struct used by the contract"
      },
      "DOMAIN_TYPEHASH()": {
        "notice": "The EIP-712 typehash for the contract's domain"
      },
      "MAX_PROPOSAL_THRESHOLD()": {
        "notice": "The maximum setable proposal threshold"
      },
      "MAX_VOTING_DELAY()": {
        "notice": "The max setable voting delay"
      },
      "MAX_VOTING_PERIOD()": {
        "notice": "The max setable voting period"
      },
      "MIN_PROPOSAL_THRESHOLD()": {
        "notice": "The minimum setable proposal threshold"
      },
      "MIN_VOTING_DELAY()": {
        "notice": "The min setable voting delay"
      },
      "MIN_VOTING_PERIOD()": {
        "notice": "The minimum setable voting period"
      },
      "_acceptAdmin()": {
        "notice": "Accepts transfer of admin rights. msg.sender must be pendingAdmin"
      },
      "_setPendingAdmin(address)": {
        "notice": "Begins transfer of admin rights. The newPendingAdmin must call `_acceptAdmin` to finalize the transfer."
      },
      "_setProposalThreshold(uint256)": {
        "notice": "Admin function for setting the proposal threshold"
      },
      "_setVotingDelay(uint256)": {
        "notice": "Admin function for setting the voting delay"
      },
      "_setVotingPeriod(uint256)": {
        "notice": "Admin function for setting the voting period"
      },
      "admin()": {
        "notice": "Administrator for this contract"
      },
      "cancel(uint256)": {
        "notice": "Cancels a proposal only if sender is the proposer, or proposer delegates dropped below proposal threshold"
      },
      "castVote(uint256,uint8)": {
        "notice": "Cast a vote for a proposal"
      },
      "castVoteBySig(uint256,uint8,uint8,bytes32,bytes32)": {
        "notice": "Cast a vote for a proposal by signature"
      },
      "castVoteWithReason(uint256,uint8,string)": {
        "notice": "Cast a vote for a proposal with a reason"
      },
      "execute(uint256)": {
        "notice": "Executes a queued proposal if eta has passed"
      },
      "getActions(uint256)": {
        "notice": "Gets actions of a proposal"
      },
      "getReceipt(uint256,address)": {
        "notice": "Gets the receipt for a voter on a given proposal"
      },
      "governanceToken()": {
        "notice": "The address of the governance token"
      },
      "implementation()": {
        "notice": "Active brains of Governor"
      },
      "initialize(address,address,uint256,uint256,uint256)": {
        "notice": "Used to initialize the contract during delegator contructor"
      },
      "latestProposalIds(address)": {
        "notice": "The latest proposal for each proposer"
      },
      "name()": {
        "notice": "The name of this contract"
      },
      "pendingAdmin()": {
        "notice": "Pending administrator for this contract"
      },
      "proposalCount()": {
        "notice": "The total number of proposals"
      },
      "proposalMaxOperations()": {
        "notice": "The maximum number of actions that can be included in a proposal"
      },
      "proposalThreshold()": {
        "notice": "The number of votes required in order for a voter to become a proposer"
      },
      "proposals(uint256)": {
        "notice": "The official record of all proposals ever proposed"
      },
      "propose(address[],uint256[],string[],bytes[],string)": {
        "notice": "Function used to propose a new proposal. Sender must have delegates above the proposal threshold"
      },
      "queue(uint256)": {
        "notice": "Queues a proposal of state succeeded"
      },
      "quorumVotes()": {
        "notice": "The number of votes in support of a proposal required in order for a quorum to be reached and for a vote to succeed"
      },
      "state(uint256)": {
        "notice": "Gets the state of a proposal"
      },
      "timelock()": {
        "notice": "The address of the Protocol Timelock"
      },
      "votingDelay()": {
        "notice": "The delay before voting on a proposal may take place, once proposed, in blocks"
      },
      "votingPeriod()": {
        "notice": "The duration of voting on a proposal, in blocks"
      }
    },
    "version": 1
  },
  "storageLayout": {
    "storage": [
      {
        "astId": 1384,
        "contract": "contracts/governance/GovernorBravo.sol:GovernorBravo",
        "label": "admin",
        "offset": 0,
        "slot": "0",
        "type": "t_address"
      },
      {
        "astId": 1387,
        "contract": "contracts/governance/GovernorBravo.sol:GovernorBravo",
        "label": "pendingAdmin",
        "offset": 0,
        "slot": "1",
        "type": "t_address"
      },
      {
        "astId": 1390,
        "contract": "contracts/governance/GovernorBravo.sol:GovernorBravo",
        "label": "implementation",
        "offset": 0,
        "slot": "2",
        "type": "t_address"
      },
      {
        "astId": 1397,
        "contract": "contracts/governance/GovernorBravo.sol:GovernorBravo",
        "label": "votingDelay",
        "offset": 0,
        "slot": "3",
        "type": "t_uint256"
      },
      {
        "astId": 1400,
        "contract": "contracts/governance/GovernorBravo.sol:GovernorBravo",
        "label": "votingPeriod",
        "offset": 0,
        "slot": "4",
        "type": "t_uint256"
      },
      {
        "astId": 1403,
        "contract": "contracts/governance/GovernorBravo.sol:GovernorBravo",
        "label": "proposalThreshold",
        "offset": 0,
        "slot": "5",
        "type": "t_uint256"
      },
      {
        "astId": 1406,
        "contract": "contracts/governance/GovernorBravo.sol:GovernorBravo",
        "label": "proposalCount",
        "offset": 0,
        "slot": "6",
        "type": "t_uint256"
      },
      {
        "astId": 1410,
        "contract": "contracts/governance/GovernorBravo.sol:GovernorBravo",
        "label": "timelock",
        "offset": 0,
        "slot": "7",
        "type": "t_contract(TimelockInterface)1562"
      },
      {
        "astId": 1414,
        "contract": "contracts/governance/GovernorBravo.sol:GovernorBravo",
        "label": "governanceToken",
        "offset": 0,
        "slot": "8",
        "type": "t_contract(GovernanceTokenInterface)1572"
      },
      {
        "astId": 1420,
        "contract": "contracts/governance/GovernorBravo.sol:GovernorBravo",
        "label": "proposals",
        "offset": 0,
        "slot": "9",
        "type": "t_mapping(t_uint256,t_struct(Proposal)1478_storage)"
      },
      {
        "astId": 1425,
        "contract": "contracts/governance/GovernorBravo.sol:GovernorBravo",
        "label": "latestProposalIds",
        "offset": 0,
        "slot": "10",
        "type": "t_mapping(t_address,t_uint256)"
      }
    ],
    "types": {
      "t_address": {
        "encoding": "inplace",
        "label": "address",
        "numberOfBytes": "20"
      },
      "t_array(t_address)dyn_storage": {
        "base": "t_address",
        "encoding": "dynamic_array",
        "label": "address[]",
        "numberOfBytes": "32"
      },
      "t_array(t_bytes_storage)dyn_storage": {
        "base": "t_bytes_storage",
        "encoding": "dynamic_array",
        "label": "bytes[]",
        "numberOfBytes": "32"
      },
      "t_array(t_string_storage)dyn_storage": {
        "base": "t_string_storage",
        "encoding": "dynamic_array",
        "label": "string[]",
        "numberOfBytes": "32"
      },
      "t_array(t_uint256)dyn_storage": {
        "base": "t_uint256",
        "encoding": "dynamic_array",
        "label": "uint256[]",
        "numberOfBytes": "32"
      },
      "t_bool": {
        "encoding": "inplace",
        "label": "bool",
        "numberOfBytes": "1"
      },
      "t_bytes_storage": {
        "encoding": "bytes",
        "label": "bytes",
        "numberOfBytes": "32"
      },
      "t_contract(GovernanceTokenInterface)1572": {
        "encoding": "inplace",
        "label": "contract GovernanceTokenInterface",
        "numberOfBytes": "20"
      },
      "t_contract(TimelockInterface)1562": {
        "encoding": "inplace",
        "label": "contract TimelockInterface",
        "numberOfBytes": "20"
      },
      "t_mapping(t_address,t_struct(Receipt)1488_storage)": {
        "encoding": "mapping",
        "key": "t_address",
        "label": "mapping(address => struct GovernorBravoDelegateStorageV1.Receipt)",
        "numberOfBytes": "32",
        "value": "t_struct(Receipt)1488_storage"
      },
      "t_mapping(t_address,t_uint256)": {
        "encoding": "mapping",
        "key": "t_address",
        "label": "mapping(address => uint256)",
        "numberOfBytes": "32",
        "value": "t_uint256"
      },
      "t_mapping(t_uint256,t_struct(Proposal)1478_storage)": {
        "encoding": "mapping",
        "key": "t_uint256",
        "label": "mapping(uint256 => struct GovernorBravoDelegateStorageV1.Proposal)",
        "numberOfBytes": "32",
        "value": "t_struct(Proposal)1478_storage"
      },
      "t_string_storage": {
        "encoding": "bytes",
        "label": "string",
        "numberOfBytes": "32"
      },
      "t_struct(Proposal)1478_storage": {
        "encoding": "inplace",
        "label": "struct GovernorBravoDelegateStorageV1.Proposal",
        "members": [
          {
            "astId": 1428,
            "contract": "contracts/governance/GovernorBravo.sol:GovernorBravo",
            "label": "id",
            "offset": 0,
            "slot": "0",
            "type": "t_uint256"
          },
          {
            "astId": 1431,
            "contract": "contracts/governance/GovernorBravo.sol:GovernorBravo",
            "label": "proposer",
            "offset": 0,
            "slot": "1",
            "type": "t_address"
          },
          {
            "astId": 1434,
            "contract": "contracts/governance/GovernorBravo.sol:GovernorBravo",
            "label": "eta",
            "offset": 0,
            "slot": "2",
            "type": "t_uint256"
          },
          {
            "astId": 1438,
            "contract": "contracts/governance/GovernorBravo.sol:GovernorBravo",
            "label": "targets",
            "offset": 0,
            "slot": "3",
            "type": "t_array(t_address)dyn_storage"
          },
          {
            "astId": 1442,
            "contract": "contracts/governance/GovernorBravo.sol:GovernorBravo",
            "label": "values",
            "offset": 0,
            "slot": "4",
            "type": "t_array(t_uint256)dyn_storage"
          },
          {
            "astId": 1446,
            "contract": "contracts/governance/GovernorBravo.sol:GovernorBravo",
            "label": "signatures",
            "offset": 0,
            "slot": "5",
            "type": "t_array(t_string_storage)dyn_storage"
          },
          {
            "astId": 1450,
            "contract": "contracts/governance/GovernorBravo.sol:GovernorBravo",
            "label": "calldatas",
            "offset": 0,
            "slot": "6",
            "type": "t_array(t_bytes_storage)dyn_storage"
          },
          {
            "astId": 1453,
            "contract": "contracts/governance/GovernorBravo.sol:GovernorBravo",
            "label": "startBlock",
            "offset": 0,
            "slot": "7",
            "type": "t_uint256"
          },
          {
            "astId": 1456,
            "contract": "contracts/governance/GovernorBravo.sol:GovernorBravo",
            "label": "endBlock",
            "offset": 0,
            "slot": "8",
            "type": "t_uint256"
          },
          {
            "astId": 1459,
            "contract": "contracts/governance/GovernorBravo.sol:GovernorBravo",
            "label": "forVotes",
            "offset": 0,
            "slot": "9",
            "type": "t_uint256"
          },
          {
            "astId": 1462,
            "contract": "contracts/governance/GovernorBravo.sol:GovernorBravo",
            "label": "againstVotes",
            "offset": 0,
            "slot": "10",
            "type": "t_uint256"
          },
          {
            "astId": 1465,
            "contract": "contracts/governance/GovernorBravo.sol:GovernorBravo",
            "label": "abstainVotes",
            "offset": 0,
            "slot": "11",
            "type": "t_uint256"
          },
          {
            "astId": 1468,
            "contract": "contracts/governance/GovernorBravo.sol:GovernorBravo",
            "label": "canceled",
            "offset": 0,
            "slot": "12",
            "type": "t_bool"
          },
          {
            "astId": 1471,
            "contract": "contracts/governance/GovernorBravo.sol:GovernorBravo",
            "label": "executed",
            "offset": 1,
            "slot": "12",
            "type": "t_bool"
          },
          {
            "astId": 1477,
            "contract": "contracts/governance/GovernorBravo.sol:GovernorBravo",
            "label": "receipts",
            "offset": 0,
            "slot": "13",
            "type": "t_mapping(t_address,t_struct(Receipt)1488_storage)"
          }
        ],
        "numberOfBytes": "448"
      },
      "t_struct(Receipt)1488_storage": {
        "encoding": "inplace",
        "label": "struct GovernorBravoDelegateStorageV1.Receipt",
        "members": [
          {
            "astId": 1481,
            "contract": "contracts/governance/GovernorBravo.sol:GovernorBravo",
            "label": "hasVoted",
            "offset": 0,
            "slot": "0",
            "type": "t_bool"
          },
          {
            "astId": 1484,
            "contract": "contracts/governance/GovernorBravo.sol:GovernorBravo",
            "label": "support",
            "offset": 1,
            "slot": "0",
            "type": "t_uint8"
          },
          {
            "astId": 1487,
            "contract": "contracts/governance/GovernorBravo.sol:GovernorBravo",
            "label": "votes",
            "offset": 2,
            "slot": "0",
            "type": "t_uint96"
          }
        ],
        "numberOfBytes": "32"
      },
      "t_uint256": {
        "encoding": "inplace",
        "label": "uint256",
        "numberOfBytes": "32"
      },
      "t_uint8": {
        "encoding": "inplace",
        "label": "uint8",
        "numberOfBytes": "1"
      },
      "t_uint96": {
        "encoding": "inplace",
        "label": "uint96",
        "numberOfBytes": "12"
      }
    }
  }
}