{
  "address": "0xafd2Dfb918777d9bCC29E315C4Df4551208DBE82",
  "abi": [
    {
      "inputs": [
        {
          "internalType": "address",
          "name": "account",
          "type": "address"
        }
      ],
      "stateMutability": "nonpayable",
      "type": "constructor"
    },
    {
      "anonymous": false,
      "inputs": [
        {
          "indexed": true,
          "internalType": "address",
          "name": "owner",
          "type": "address"
        },
        {
          "indexed": true,
          "internalType": "address",
          "name": "spender",
          "type": "address"
        },
        {
          "indexed": false,
          "internalType": "uint256",
          "name": "amount",
          "type": "uint256"
        }
      ],
      "name": "Approval",
      "type": "event"
    },
    {
      "anonymous": false,
      "inputs": [
        {
          "indexed": true,
          "internalType": "address",
          "name": "delegator",
          "type": "address"
        },
        {
          "indexed": true,
          "internalType": "address",
          "name": "fromDelegate",
          "type": "address"
        },
        {
          "indexed": true,
          "internalType": "address",
          "name": "toDelegate",
          "type": "address"
        }
      ],
      "name": "DelegateChanged",
      "type": "event"
    },
    {
      "anonymous": false,
      "inputs": [
        {
          "indexed": true,
          "internalType": "address",
          "name": "delegate",
          "type": "address"
        },
        {
          "indexed": false,
          "internalType": "uint256",
          "name": "previousBalance",
          "type": "uint256"
        },
        {
          "indexed": false,
          "internalType": "uint256",
          "name": "newBalance",
          "type": "uint256"
        }
      ],
      "name": "DelegateVotesChanged",
      "type": "event"
    },
    {
      "anonymous": false,
      "inputs": [
        {
          "indexed": true,
          "internalType": "address",
          "name": "previousOwner",
          "type": "address"
        },
        {
          "indexed": true,
          "internalType": "address",
          "name": "newOwner",
          "type": "address"
        }
      ],
      "name": "OwnershipTransferred",
      "type": "event"
    },
    {
      "anonymous": false,
      "inputs": [
        {
          "indexed": true,
          "internalType": "address",
          "name": "from",
          "type": "address"
        },
        {
          "indexed": true,
          "internalType": "address",
          "name": "to",
          "type": "address"
        },
        {
          "indexed": false,
          "internalType": "uint256",
          "name": "amount",
          "type": "uint256"
        }
      ],
      "name": "Transfer",
      "type": "event"
    },
    {
      "inputs": [],
      "name": "DELEGATION_TYPEHASH",
      "outputs": [
        {
          "internalType": "bytes32",
          "name": "",
          "type": "bytes32"
        }
      ],
      "stateMutability": "view",
      "type": "function"
    },
    {
      "inputs": [],
      "name": "DOMAIN_TYPEHASH",
      "outputs": [
        {
          "internalType": "bytes32",
          "name": "",
          "type": "bytes32"
        }
      ],
      "stateMutability": "view",
      "type": "function"
    },
    {
      "inputs": [
        {
          "internalType": "address",
          "name": "account",
          "type": "address"
        },
        {
          "internalType": "address",
          "name": "spender",
          "type": "address"
        }
      ],
      "name": "allowance",
      "outputs": [
        {
          "internalType": "uint256",
          "name": "",
          "type": "uint256"
        }
      ],
      "stateMutability": "view",
      "type": "function"
    },
    {
      "inputs": [
        {
          "internalType": "address",
          "name": "spender",
          "type": "address"
        },
        {
          "internalType": "uint256",
          "name": "rawAmount",
          "type": "uint256"
        }
      ],
      "name": "approve",
      "outputs": [
        {
          "internalType": "bool",
          "name": "",
          "type": "bool"
        }
      ],
      "stateMutability": "nonpayable",
      "type": "function"
    },
    {
      "inputs": [
        {
          "internalType": "address",
          "name": "account",
          "type": "address"
        }
      ],
      "name": "balanceOf",
      "outputs": [
        {
          "internalType": "uint256",
          "name": "",
          "type": "uint256"
        }
      ],
      "stateMutability": "view",
      "type": "function"
    },
    {
      "inputs": [
        {
          "internalType": "address",
          "name": "account",
          "type": "address"
        },
        {
          "internalType": "uint256",
          "name": "amount",
          "type": "uint256"
        }
      ],
      "name": "burn",
      "outputs": [],
      "stateMutability": "nonpayable",
      "type": "function"
    },
    {
      "inputs": [
        {
          "internalType": "address",
          "name": "",
          "type": "address"
        },
        {
          "internalType": "uint32",
          "name": "",
          "type": "uint32"
        }
      ],
      "name": "checkpoints",
      "outputs": [
        {
          "internalType": "uint32",
          "name": "fromBlock",
          "type": "uint32"
        },
        {
          "internalType": "uint96",
          "name": "votes",
          "type": "uint96"
        }
      ],
      "stateMutability": "view",
      "type": "function"
    },
    {
      "inputs": [],
      "name": "decimals",
      "outputs": [
        {
          "internalType": "uint8",
          "name": "",
          "type": "uint8"
        }
      ],
      "stateMutability": "view",
      "type": "function"
    },
    {
      "inputs": [
        {
          "internalType": "address",
          "name": "delegatee",
          "type": "address"
        }
      ],
      "name": "delegate",
      "outputs": [],
      "stateMutability": "nonpayable",
      "type": "function"
    },
    {
      "inputs": [
        {
          "internalType": "address",
          "name": "delegatee",
          "type": "address"
        },
        {
          "internalType": "uint256",
          "name": "nonce",
          "type": "uint256"
        },
        {
          "internalType": "uint256",
          "name": "expiry",
          "type": "uint256"
        },
        {
          "internalType": "uint8",
          "name": "v",
          "type": "uint8"
        },
        {
          "internalType": "bytes32",
          "name": "r",
          "type": "bytes32"
        },
        {
          "internalType": "bytes32",
          "name": "s",
          "type": "bytes32"
        }
      ],
      "name": "delegateBySig",
      "outputs": [],
      "stateMutability": "nonpayable",
      "type": "function"
    },
    {
      "inputs": [
        {
          "internalType": "address",
          "name": "",
          "type": "address"
        }
      ],
      "name": "delegates",
      "outputs": [
        {
          "internalType": "address",
          "name": "",
          "type": "address"
        }
      ],
      "stateMutability": "view",
      "type": "function"
    },
    {
      "inputs": [
        {
          "internalType": "address",
          "name": "account",
          "type": "address"
        }
      ],
      "name": "getCurrentVotes",
      "outputs": [
        {
          "internalType": "uint96",
          "name": "",
          "type": "uint96"
        }
      ],
      "stateMutability": "view",
      "type": "function"
    },
    {
      "inputs": [
        {
          "internalType": "address",
          "name": "account",
          "type": "address"
        },
        {
          "internalType": "uint256",
          "name": "blockNumber",
          "type": "uint256"
        }
      ],
      "name": "getPriorVotes",
      "outputs": [
        {
          "internalType": "uint96",
          "name": "",
          "type": "uint96"
        }
      ],
      "stateMutability": "view",
      "type": "function"
    },
    {
      "inputs": [
        {
          "internalType": "address",
          "name": "account",
          "type": "address"
        },
        {
          "internalType": "uint256",
          "name": "amount",
          "type": "uint256"
        }
      ],
      "name": "mint",
      "outputs": [],
      "stateMutability": "nonpayable",
      "type": "function"
    },
    {
      "inputs": [],
      "name": "name",
      "outputs": [
        {
          "internalType": "string",
          "name": "",
          "type": "string"
        }
      ],
      "stateMutability": "view",
      "type": "function"
    },
    {
      "inputs": [
        {
          "internalType": "address",
          "name": "",
          "type": "address"
        }
      ],
      "name": "nonces",
      "outputs": [
        {
          "internalType": "uint256",
          "name": "",
          "type": "uint256"
        }
      ],
      "stateMutability": "view",
      "type": "function"
    },
    {
      "inputs": [
        {
          "internalType": "address",
          "name": "",
          "type": "address"
        }
      ],
      "name": "numCheckpoints",
      "outputs": [
        {
          "internalType": "uint32",
          "name": "",
          "type": "uint32"
        }
      ],
      "stateMutability": "view",
      "type": "function"
    },
    {
      "inputs": [],
      "name": "owner",
      "outputs": [
        {
          "internalType": "address",
          "name": "",
          "type": "address"
        }
      ],
      "stateMutability": "view",
      "type": "function"
    },
    {
      "inputs": [],
      "name": "renounceOwnership",
      "outputs": [],
      "stateMutability": "nonpayable",
      "type": "function"
    },
    {
      "inputs": [],
      "name": "symbol",
      "outputs": [
        {
          "internalType": "string",
          "name": "",
          "type": "string"
        }
      ],
      "stateMutability": "view",
      "type": "function"
    },
    {
      "inputs": [],
      "name": "totalSupply",
      "outputs": [
        {
          "internalType": "uint256",
          "name": "",
          "type": "uint256"
        }
      ],
      "stateMutability": "view",
      "type": "function"
    },
    {
      "inputs": [
        {
          "internalType": "address",
          "name": "dst",
          "type": "address"
        },
        {
          "internalType": "uint256",
          "name": "rawAmount",
          "type": "uint256"
        }
      ],
      "name": "transfer",
      "outputs": [
        {
          "internalType": "bool",
          "name": "",
          "type": "bool"
        }
      ],
      "stateMutability": "nonpayable",
      "type": "function"
    },
    {
      "inputs": [
        {
          "internalType": "address",
          "name": "src",
          "type": "address"
        },
        {
          "internalType": "address",
          "name": "dst",
          "type": "address"
        },
        {
          "internalType": "uint256",
          "name": "rawAmount",
          "type": "uint256"
        }
      ],
      "name": "transferFrom",
      "outputs": [
        {
          "internalType": "bool",
          "name": "",
          "type": "bool"
        }
      ],
      "stateMutability": "nonpayable",
      "type": "function"
    },
    {
      "inputs": [
        {
          "internalType": "address",
          "name": "newOwner",
          "type": "address"
        }
      ],
      "name": "transferOwnership",
      "outputs": [],
      "stateMutability": "nonpayable",
      "type": "function"
    }
  ],
  "transactionHash": "0x99e1a2727161ad4566bd4717ddae2274f6199b373dd10b3e3154e0ecc0658d6f",
  "args": [
    "0xFa02EDF9ebA53Ae811650e409A1da2E6103CDB54"
  ],
  "solcInputHash": "b277f5ac0be719c1cb7e57457a15eaca",
  "bytecode": "0x60806040526b033b2e3c9fd0803ce800000060015534801561002057600080fd5b50604051620020563803806200205683398101604081905261004191610113565b61004a336100c3565b600180546001600160a01b038316600081815260036020908152604080832080546001600160601b0319166001600160601b039096169590951790945593549251928352909290917fddf252ad1be2c89b69c2b068fc378daa952ba7f163c4a11628f55a4df523b3ef910160405180910390a350610143565b600080546001600160a01b038381166001600160a01b0319831681178455604051919092169283917f8be0079c531659141344cd1fd0a4f28419497f9722a3daafe3b4186f6b6457e09190a35050565b60006020828403121561012557600080fd5b81516001600160a01b038116811461013c57600080fd5b9392505050565b611f0380620001536000396000f3fe608060405234801561001057600080fd5b50600436106101585760003560e01c8063782d6fe1116100c3578063b4b5ea571161007c578063b4b5ea57146103b2578063c3cda520146103c5578063dd62ed3e146103d8578063e7a324dc1461041a578063f1127ed814610441578063f2fde38b146104a857600080fd5b8063782d6fe11461030e5780637ecebe00146103395780638da5cb5b1461035957806395d89b411461036a5780639dc29fac1461038c578063a9059cbb1461039f57600080fd5b806340c10f191161011557806340c10f1914610230578063587cde1e146102455780635c19a95c146102865780636fcfff451461029957806370a08231146102d4578063715018a61461030657600080fd5b806306fdde031461015d578063095ea7b3146101a257806318160ddd146101c557806320606b70146101dc57806323b872dd14610203578063313ce56714610216575b600080fd5b61018c6040518060400160405280601081526020016f2232a334a432b63832b9103a37b5b2b760811b81525081565b6040516101999190611ab5565b60405180910390f35b6101b56101b03660046119eb565b6104bb565b6040519015158152602001610199565b6101ce60015481565b604051908152602001610199565b6101ce7f8cad95687ba82c2ce50e74f7b754645e5117c3a5bec8151c0726d5857980a86681565b6101b56102113660046119af565b61057c565b61021e601281565b60405160ff9091168152602001610199565b61024361023e3660046119eb565b6106c8565b005b61026e610253366004611961565b6004602052600090815260409020546001600160a01b031681565b6040516001600160a01b039091168152602001610199565b610243610294366004611961565b610709565b6102bf6102a7366004611961565b60066020526000908152604090205463ffffffff1681565b60405163ffffffff9091168152602001610199565b6101ce6102e2366004611961565b6001600160a01b03166000908152600360205260409020546001600160601b031690565b610243610716565b61032161031c3660046119eb565b61074c565b6040516001600160601b039091168152602001610199565b6101ce610347366004611961565b60076020526000908152604090205481565b6000546001600160a01b031661026e565b61018c604051806040016040528060038152602001620888c960eb1b81525081565b61024361039a3660046119eb565b6109de565b6101b56103ad3660046119eb565b610a12565b6103216103c0366004611961565b610a4e565b6102436103d3366004611a15565b610acc565b6101ce6103e636600461197c565b6001600160a01b0391821660009081526002602090815260408083209390941682529190915220546001600160601b031690565b6101ce7fe48329057bfd03d55e49b547132e39cffd9c1820ad7b9d4c5307691425d15adf81565b61048461044f366004611a75565b600560209081526000928352604080842090915290825290205463ffffffff811690600160201b90046001600160601b031682565b6040805163ffffffff90931683526001600160601b03909116602083015201610199565b6102436104b6366004611961565b610de1565b6000808260001914156104d657506001600160601b036104fb565b6104f883604051806060016040528060308152602001611de760309139610e79565b90505b3360008181526002602090815260408083206001600160a01b0389168085529083529281902080546001600160601b0319166001600160601b03871690811790915590519081529192917f8c5be1e5ebec7d5bd14f71427d1e84f3dd0314c0f7b2291e5b200ac8c7c3b925910160405180910390a360019150505b92915050565b6001600160a01b03831660009081526002602090815260408083203380855290835281842054825160608101909352603080845291936001600160601b039091169285926105d49288929190611de790830139610e79565b9050866001600160a01b0316836001600160a01b0316141580156106085750816001600160601b03166001600160601b0314155b156106b05760006106328383604051806080016040528060488152602001611e1760489139610ea8565b6001600160a01b038981166000818152600260209081526040808320948a168084529482529182902080546001600160601b0319166001600160601b0387169081179091559151918252939450919290917f8c5be1e5ebec7d5bd14f71427d1e84f3dd0314c0f7b2291e5b200ac8c7c3b925910160405180910390a3505b6106bb878783610ef2565b5060019695505050505050565b6000546001600160a01b031633146106fb5760405162461bcd60e51b81526004016106f290611b0a565b60405180910390fd5b6107058282611161565b5050565b61071333826112d1565b50565b6000546001600160a01b031633146107405760405162461bcd60e51b81526004016106f290611b0a565b61074a600061135b565b565b60004382106107b85760405162461bcd60e51b815260206004820152603260248201527f476f7665726e616e6365546f6b656e3a3a6765745072696f72566f7465733a206044820152711b9bdd081e595d0819195d195c9b5a5b995960721b60648201526084016106f2565b6001600160a01b03831660009081526006602052604090205463ffffffff16806107e6576000915050610576565b6001600160a01b0384166000908152600560205260408120849161080b600185611bd2565b63ffffffff9081168252602082019290925260400160002054161161087e576001600160a01b03841660009081526005602052604081209061084e600184611bd2565b63ffffffff168152602081019190915260400160002054600160201b90046001600160601b031691506105769050565b6001600160a01b038416600090815260056020908152604080832083805290915290205463ffffffff168310156108b9576000915050610576565b6000806108c7600184611bd2565b90505b8163ffffffff168163ffffffff16111561099957600060026108ec8484611bd2565b6108f69190611ba1565b6109009083611bd2565b6001600160a01b038816600090815260056020908152604080832063ffffffff858116855290835292819020815180830190925254928316808252600160201b9093046001600160601b03169181019190915291925087141561096d576020015194506105769350505050565b805163ffffffff1687111561098457819350610992565b61098f600183611bd2565b92505b50506108ca565b506001600160a01b038516600090815260056020908152604080832063ffffffff909416835292905220546001600160601b03600160201b9091041691505092915050565b6000546001600160a01b03163314610a085760405162461bcd60e51b81526004016106f290611b0a565b61070582826113ab565b600080610a3783604051806060016040528060318152602001611db660319139610e79565b9050610a44338583610ef2565b5060019392505050565b6001600160a01b03811660009081526006602052604081205463ffffffff1680610a79576000610ac5565b6001600160a01b038316600090815260056020526040812090610a9d600184611bd2565b63ffffffff168152602081019190915260400160002054600160201b90046001600160601b03165b9392505050565b604080518082018252601081526f2232a334a432b63832b9103a37b5b2b760811b60209182015281517f8cad95687ba82c2ce50e74f7b754645e5117c3a5bec8151c0726d5857980a866818301527f0afcd888284fd37134e6b84a531166571478558f4b06a146a59fb5c686ba7acc81840152466060820152306080808301919091528351808303909101815260a0820184528051908301207fe48329057bfd03d55e49b547132e39cffd9c1820ad7b9d4c5307691425d15adf60c08301526001600160a01b038a1660e083015261010082018990526101208083018990528451808403909101815261014083019094528351939092019290922061190160f01b6101608401526101628301829052610182830181905290916000906101a20160408051601f198184030181528282528051602091820120600080855291840180845281905260ff8a169284019290925260608301889052608083018790529092509060019060a0016020604051602081039080840390855afa158015610c57573d6000803e3d6000fd5b5050604051601f1901519150506001600160a01b038116610cd45760405162461bcd60e51b815260206004820152603160248201527f476f7665726e616e6365546f6b656e3a3a64656c656761746542795369673a20604482015270696e76616c6964207369676e617475726560781b60648201526084016106f2565b6001600160a01b0381166000908152600760205260408120805491610cf883611c17565b919050558914610d605760405162461bcd60e51b815260206004820152602d60248201527f476f7665726e616e6365546f6b656e3a3a64656c656761746542795369673a2060448201526c696e76616c6964206e6f6e636560981b60648201526084016106f2565b87421115610dca5760405162461bcd60e51b815260206004820152603160248201527f476f7665726e616e6365546f6b656e3a3a64656c656761746542795369673a206044820152701cda59db985d1d5c9948195e1c1a5c9959607a1b60648201526084016106f2565b610dd4818b6112d1565b505050505b505050505050565b6000546001600160a01b03163314610e0b5760405162461bcd60e51b81526004016106f290611b0a565b6001600160a01b038116610e705760405162461bcd60e51b815260206004820152602660248201527f4f776e61626c653a206e6577206f776e657220697320746865207a65726f206160448201526564647265737360d01b60648201526084016106f2565b6107138161135b565b600081600160601b8410610ea05760405162461bcd60e51b81526004016106f29190611ab5565b509192915050565b6000836001600160601b0316836001600160601b031611158290610edf5760405162461bcd60e51b81526004016106f29190611ab5565b50610eea8385611bf7565b949350505050565b6001600160a01b038316610f7e5760405162461bcd60e51b815260206004820152604760248201527f476f7665726e616e6365546f6b656e3a3a5f7472616e73666572546f6b656e7360448201527f3a2063616e6e6f74207472616e736665722066726f6d20746865207a65726f206064820152666164647265737360c81b608482015260a4016106f2565b6001600160a01b0382166110085760405162461bcd60e51b815260206004820152604560248201527f476f7665726e616e6365546f6b656e3a3a5f7472616e73666572546f6b656e7360448201527f3a2063616e6e6f74207472616e7366657220746f20746865207a65726f206164606482015264647265737360d81b608482015260a4016106f2565b6001600160a01b038316600090815260036020908152604091829020548251608081019093526041808452611053936001600160601b039092169285929190611e8d90830139610ea8565b6001600160a01b03848116600090815260036020908152604080832080546001600160601b0319166001600160601b0396871617905592861682529082902054825160608101909352603b8084526110bb9491909116928592909190611cba90830139611531565b6001600160a01b0383811660008181526003602090815260409182902080546001600160601b0319166001600160601b03968716179055905193851684529092918616917fddf252ad1be2c89b69c2b068fc378daa952ba7f163c4a11628f55a4df523b3ef910160405180910390a36001600160a01b0380841660009081526004602052604080822054858416835291205461115c9291821691168361157e565b505050565b6001600160a01b0382166111d05760405162461bcd60e51b815260206004820152603060248201527f476f7665726e616e6365546f6b656e3a3a5f6d696e743a206d696e7420746f2060448201526f746865207a65726f206164647265737360801b60648201526084016106f2565b60006111f4826040518060600160405280602e8152602001611e5f602e9139610e79565b9050806001600160601b0316600160008282546112119190611b3f565b90915550506001600160a01b03831660009081526003602090815260409182902054825160608101909352602d808452611261936001600160601b039092169285929190611cf590830139611531565b6001600160a01b038416600081815260036020908152604080832080546001600160601b0319166001600160601b03968716179055519385168452919290917fddf252ad1be2c89b69c2b068fc378daa952ba7f163c4a11628f55a4df523b3ef91015b60405180910390a3505050565b6001600160a01b03808316600081815260046020818152604080842080546003845282862054949093528787166001600160a01b031984168117909155905191909516946001600160601b039092169391928592917f3134e8a2e6d97e929a7e54011ea5485d7d196dd5f0ba4d4ef95803e8e3fc257f9190a461135582848361157e565b50505050565b600080546001600160a01b038381166001600160a01b0319831681178455604051919092169283917f8be0079c531659141344cd1fd0a4f28419497f9722a3daafe3b4186f6b6457e09190a35050565b6001600160a01b03821661141c5760405162461bcd60e51b815260206004820152603260248201527f476f7665726e616e6365546f6b656e3a3a5f6275726e3a206275726e2066726f6044820152716d20746865207a65726f206164647265737360701b60648201526084016106f2565b6000611440826040518060600160405280602e8152602001611d55602e9139610e79565b905061149d60036000856001600160a01b03166001600160a01b0316815260200190815260200160002060009054906101000a90046001600160601b031682604051806060016040528060338152602001611d8360339139610ea8565b6001600160a01b038416600090815260036020526040812080546001600160601b0319166001600160601b0393841617905560018054928416929091906114e5908490611b3f565b90915550506040516001600160601b03821681526000906001600160a01b038516907fddf252ad1be2c89b69c2b068fc378daa952ba7f163c4a11628f55a4df523b3ef906020016112c4565b60008061153e8486611b7f565b9050846001600160601b0316816001600160601b0316101583906115755760405162461bcd60e51b81526004016106f29190611ab5565b50949350505050565b816001600160a01b0316836001600160a01b0316141580156115a957506000816001600160601b0316115b1561115c576001600160a01b0383161561166e576001600160a01b03831660009081526006602052604081205463ffffffff1690816115e9576000611635565b6001600160a01b03851660009081526005602052604081209061160d600185611bd2565b63ffffffff168152602081019190915260400160002054600160201b90046001600160601b03165b9050600061165c8285604051806060016040528060338152602001611d2260339139610ea8565b905061166a86848484611726565b5050505b6001600160a01b0382161561115c576001600160a01b03821660009081526006602052604081205463ffffffff1690816116a95760006116f5565b6001600160a01b0384166000908152600560205260408120906116cd600185611bd2565b63ffffffff168152602081019190915260400160002054600160201b90046001600160601b03165b9050600061171c8285604051806060016040528060328152602001611c8860329139611531565b9050610dd9858484845b600061174a436040518060600160405280603f8152602001611c49603f913961191e565b905060008463ffffffff161180156117a457506001600160a01b038516600090815260056020526040812063ffffffff831691611788600188611bd2565b63ffffffff908116825260208201929092526040016000205416145b15611818576001600160a01b038516600090815260056020526040812083916117ce600188611bd2565b63ffffffff168152602081019190915260400160002080546001600160601b0392909216600160201b026fffffffffffffffffffffffff00000000199092169190911790556118c9565b60408051808201825263ffffffff80841682526001600160601b0380861660208085019182526001600160a01b038b166000908152600582528681208b8616825290915294909420925183549451909116600160201b026fffffffffffffffffffffffffffffffff19909416911617919091179055611898846001611b57565b6001600160a01b0386166000908152600660205260409020805463ffffffff191663ffffffff929092169190911790555b604080516001600160601b038086168252841660208201526001600160a01b038716917fdec2bacdd2f05b59de34da9b523dff8be42e5e38e818c82fdb0bae774387a724910160405180910390a25050505050565b600081600160201b8410610ea05760405162461bcd60e51b81526004016106f29190611ab5565b80356001600160a01b038116811461195c57600080fd5b919050565b60006020828403121561197357600080fd5b610ac582611945565b6000806040838503121561198f57600080fd5b61199883611945565b91506119a660208401611945565b90509250929050565b6000806000606084860312156119c457600080fd5b6119cd84611945565b92506119db60208501611945565b9150604084013590509250925092565b600080604083850312156119fe57600080fd5b611a0783611945565b946020939093013593505050565b60008060008060008060c08789031215611a2e57600080fd5b611a3787611945565b95506020870135945060408701359350606087013560ff81168114611a5b57600080fd5b9598949750929560808101359460a0909101359350915050565b60008060408385031215611a8857600080fd5b611a9183611945565b9150602083013563ffffffff81168114611aaa57600080fd5b809150509250929050565b600060208083528351808285015260005b81811015611ae257858101830151858201604001528201611ac6565b81811115611af4576000604083870101525b50601f01601f1916929092016040019392505050565b6020808252818101527f4f776e61626c653a2063616c6c6572206973206e6f7420746865206f776e6572604082015260600190565b60008219821115611b5257611b52611c32565b500190565b600063ffffffff808316818516808303821115611b7657611b76611c32565b01949350505050565b60006001600160601b03808316818516808303821115611b7657611b76611c32565b600063ffffffff80841680611bc657634e487b7160e01b600052601260045260246000fd5b92169190910492915050565b600063ffffffff83811690831681811015611bef57611bef611c32565b039392505050565b60006001600160601b0383811690831681811015611bef57611bef611c32565b6000600019821415611c2b57611c2b611c32565b5060010190565b634e487b7160e01b600052601160045260246000fdfe476f7665726e616e6365546f6b656e3a3a5f7772697465436865636b706f696e743a20626c6f636b206e756d62657220657863656564732033322062697473476f7665726e616e6365546f6b656e3a3a5f6d6f7665566f7465733a20766f746520616d6f756e74206f766572666c6f7773476f7665726e616e6365546f6b656e3a3a5f7472616e73666572546f6b656e733a207472616e7366657220616d6f756e74206f766572666c6f7773476f7665726e616e6365546f6b656e3a3a5f6d696e743a206d696e7420616d6f756e74206f766572666c6f7773476f7665726e616e6365546f6b656e3a3a5f6d6f7665566f7465733a20766f746520616d6f756e7420756e646572666c6f7773476f7665726e616e6365546f6b656e3a3a5f6275726e3a20616d6f756e7420657863656564732039362062697473476f7665726e616e6365546f6b656e3a3a5f6275726e3a206275726e20616d6f756e7420657863656564732062616c616e6365476f7665726e616e6365546f6b656e3a3a7472616e736665723a20616d6f756e7420657863656564732039362062697473476f7665726e616e6365546f6b656e3a3a617070726f76653a20616d6f756e7420657863656564732039362062697473476f7665726e616e6365546f6b656e3a3a7472616e7366657246726f6d3a207472616e7366657220616d6f756e742065786365656473207370656e64657220616c6c6f77616e6365476f7665726e616e6365546f6b656e3a3a5f6d696e743a20616d6f756e7420657863656564732039362062697473476f7665726e616e6365546f6b656e3a3a5f7472616e73666572546f6b656e733a207472616e7366657220616d6f756e7420657863656564732062616c616e6365a264697066735822122034007b361409886b9a911ea921d4d81536431ca3ca6897267ef1c0e3a16ee70c64736f6c63430008060033",
  "devdoc": {
    "kind": "dev",
    "methods": {
      "allowance(address,address)": {
        "params": {
          "account": "The address of the account holding the funds",
          "spender": "The address of the account spending the funds"
        },
        "returns": {
          "_0": "The number of tokens approved"
        }
      },
      "approve(address,uint256)": {
        "details": "This will overwrite the approval amount for `spender`  and is subject to issues noted [here](https://eips.ethereum.org/EIPS/eip-20#approve)",
        "params": {
          "rawAmount": "The number of tokens that are approved (2^256-1 means infinite)",
          "spender": "The address of the account which may transfer tokens"
        },
        "returns": {
          "_0": "Whether or not the approval succeeded"
        }
      },
      "balanceOf(address)": {
        "params": {
          "account": "The address of the account to get the balance of"
        },
        "returns": {
          "_0": "The number of tokens held"
        }
      },
      "burn(address,uint256)": {
        "params": {
          "account": "Owner of removed token.",
          "amount": "Amount of token to be removed."
        }
      },
      "constructor": {
        "params": {
          "account": "The initial account to grant all the tokens"
        }
      },
      "delegate(address)": {
        "params": {
          "delegatee": "The address to delegate votes to"
        }
      },
      "delegateBySig(address,uint256,uint256,uint8,bytes32,bytes32)": {
        "params": {
          "delegatee": "The address to delegate votes to",
          "expiry": "The time at which to expire the signature",
          "nonce": "The contract state required to match the signature",
          "r": "Half of the ECDSA signature pair",
          "s": "Half of the ECDSA signature pair",
          "v": "The recovery byte of the signature"
        }
      },
      "getCurrentVotes(address)": {
        "params": {
          "account": "The address to get votes balance"
        },
        "returns": {
          "_0": "The number of current votes for `account`"
        }
      },
      "getPriorVotes(address,uint256)": {
        "details": "Block number must be a finalized block or else this function will revert to prevent misinformation.",
        "params": {
          "account": "The address of the account to check",
          "blockNumber": "The block number to get the vote balance at"
        },
        "returns": {
          "_0": "The number of votes the account had as of the given block"
        }
      },
      "mint(address,uint256)": {
        "params": {
          "account": "Recipient of created token.",
          "amount": "Amount of token to be created."
        }
      },
      "owner()": {
        "details": "Returns the address of the current owner."
      },
      "renounceOwnership()": {
        "details": "Leaves the contract without owner. It will not be possible to call `onlyOwner` functions anymore. Can only be called by the current owner. NOTE: Renouncing ownership will leave the contract without an owner, thereby removing any functionality that is only available to the owner."
      },
      "transfer(address,uint256)": {
        "params": {
          "dst": "The address of the destination account",
          "rawAmount": "The number of tokens to transfer"
        },
        "returns": {
          "_0": "Whether or not the transfer succeeded"
        }
      },
      "transferFrom(address,address,uint256)": {
        "params": {
          "dst": "The address of the destination account",
          "rawAmount": "The number of tokens to transfer",
          "src": "The address of the source account"
        },
        "returns": {
          "_0": "Whether or not the transfer succeeded"
        }
      },
      "transferOwnership(address)": {
        "details": "Transfers ownership of the contract to a new account (`newOwner`). Can only be called by the current owner."
      }
    },
    "version": 1
  },
  "userdoc": {
    "events": {
      "Approval(address,address,uint256)": {
        "notice": "The standard EIP-20 approval event"
      },
      "DelegateChanged(address,address,address)": {
        "notice": "An event thats emitted when an account changes its delegate"
      },
      "DelegateVotesChanged(address,uint256,uint256)": {
        "notice": "An event thats emitted when a delegate account's vote balance changes"
      },
      "Transfer(address,address,uint256)": {
        "notice": "The standard EIP-20 transfer event"
      }
    },
    "kind": "user",
    "methods": {
      "DELEGATION_TYPEHASH()": {
        "notice": "The EIP-712 typehash for the delegation struct used by the contract"
      },
      "DOMAIN_TYPEHASH()": {
        "notice": "The EIP-712 typehash for the contract's domain"
      },
      "allowance(address,address)": {
        "notice": "Get the number of tokens `spender` is approved to spend on behalf of `account`"
      },
      "approve(address,uint256)": {
        "notice": "Approve `spender` to transfer up to `amount` from `src`"
      },
      "balanceOf(address)": {
        "notice": "Get the number of tokens held by the `account`"
      },
      "checkpoints(address,uint32)": {
        "notice": "A record of votes checkpoints for each account, by index"
      },
      "constructor": {
        "notice": "Construct a new GovernanceToken token"
      },
      "decimals()": {
        "notice": "EIP-20 token decimals for this token"
      },
      "delegate(address)": {
        "notice": "Delegate votes from `msg.sender` to `delegatee`"
      },
      "delegateBySig(address,uint256,uint256,uint8,bytes32,bytes32)": {
        "notice": "Delegates votes from signatory to `delegatee`"
      },
      "delegates(address)": {
        "notice": "A record of each accounts delegate"
      },
      "getCurrentVotes(address)": {
        "notice": "Gets the current votes balance for `account`"
      },
      "getPriorVotes(address,uint256)": {
        "notice": "Determine the prior number of votes for an account as of a block number"
      },
      "mint(address,uint256)": {
        "notice": "Creates `amount` tokens and assigns them to `account`, increasing the total supply."
      },
      "name()": {
        "notice": "EIP-20 token name for this token"
      },
      "nonces(address)": {
        "notice": "A record of states for signing / validating signatures"
      },
      "numCheckpoints(address)": {
        "notice": "The number of checkpoints for each account"
      },
      "symbol()": {
        "notice": "EIP-20 token symbol for this token"
      },
      "totalSupply()": {
        "notice": "Total number of tokens in circulation"
      },
      "transfer(address,uint256)": {
        "notice": "Transfer `amount` tokens from `msg.sender` to `dst`"
      },
      "transferFrom(address,address,uint256)": {
        "notice": "Transfer `amount` tokens from `src` to `dst`"
      }
    },
    "version": 1
  },
  "storageLayout": {
    "storage": [
      {
        "astId": 7,
        "contract": "contracts/governance/GovernanceToken.sol:GovernanceToken",
        "label": "_owner",
        "offset": 0,
        "slot": "0",
        "type": "t_address"
      },
      {
        "astId": 2741,
        "contract": "contracts/governance/GovernanceToken.sol:GovernanceToken",
        "label": "totalSupply",
        "offset": 0,
        "slot": "1",
        "type": "t_uint256"
      },
      {
        "astId": 2748,
        "contract": "contracts/governance/GovernanceToken.sol:GovernanceToken",
        "label": "allowances",
        "offset": 0,
        "slot": "2",
        "type": "t_mapping(t_address,t_mapping(t_address,t_uint96))"
      },
      {
        "astId": 2753,
        "contract": "contracts/governance/GovernanceToken.sol:GovernanceToken",
        "label": "balances",
        "offset": 0,
        "slot": "3",
        "type": "t_mapping(t_address,t_uint96)"
      },
      {
        "astId": 2758,
        "contract": "contracts/governance/GovernanceToken.sol:GovernanceToken",
        "label": "delegates",
        "offset": 0,
        "slot": "4",
        "type": "t_mapping(t_address,t_address)"
      },
      {
        "astId": 2771,
        "contract": "contracts/governance/GovernanceToken.sol:GovernanceToken",
        "label": "checkpoints",
        "offset": 0,
        "slot": "5",
        "type": "t_mapping(t_address,t_mapping(t_uint32,t_struct(Checkpoint)2763_storage))"
      },
      {
        "astId": 2776,
        "contract": "contracts/governance/GovernanceToken.sol:GovernanceToken",
        "label": "numCheckpoints",
        "offset": 0,
        "slot": "6",
        "type": "t_mapping(t_address,t_uint32)"
      },
      {
        "astId": 2793,
        "contract": "contracts/governance/GovernanceToken.sol:GovernanceToken",
        "label": "nonces",
        "offset": 0,
        "slot": "7",
        "type": "t_mapping(t_address,t_uint256)"
      }
    ],
    "types": {
      "t_address": {
        "encoding": "inplace",
        "label": "address",
        "numberOfBytes": "20"
      },
      "t_mapping(t_address,t_address)": {
        "encoding": "mapping",
        "key": "t_address",
        "label": "mapping(address => address)",
        "numberOfBytes": "32",
        "value": "t_address"
      },
      "t_mapping(t_address,t_mapping(t_address,t_uint96))": {
        "encoding": "mapping",
        "key": "t_address",
        "label": "mapping(address => mapping(address => uint96))",
        "numberOfBytes": "32",
        "value": "t_mapping(t_address,t_uint96)"
      },
      "t_mapping(t_address,t_mapping(t_uint32,t_struct(Checkpoint)2763_storage))": {
        "encoding": "mapping",
        "key": "t_address",
        "label": "mapping(address => mapping(uint32 => struct GovernanceToken.Checkpoint))",
        "numberOfBytes": "32",
        "value": "t_mapping(t_uint32,t_struct(Checkpoint)2763_storage)"
      },
      "t_mapping(t_address,t_uint256)": {
        "encoding": "mapping",
        "key": "t_address",
        "label": "mapping(address => uint256)",
        "numberOfBytes": "32",
        "value": "t_uint256"
      },
      "t_mapping(t_address,t_uint32)": {
        "encoding": "mapping",
        "key": "t_address",
        "label": "mapping(address => uint32)",
        "numberOfBytes": "32",
        "value": "t_uint32"
      },
      "t_mapping(t_address,t_uint96)": {
        "encoding": "mapping",
        "key": "t_address",
        "label": "mapping(address => uint96)",
        "numberOfBytes": "32",
        "value": "t_uint96"
      },
      "t_mapping(t_uint32,t_struct(Checkpoint)2763_storage)": {
        "encoding": "mapping",
        "key": "t_uint32",
        "label": "mapping(uint32 => struct GovernanceToken.Checkpoint)",
        "numberOfBytes": "32",
        "value": "t_struct(Checkpoint)2763_storage"
      },
      "t_struct(Checkpoint)2763_storage": {
        "encoding": "inplace",
        "label": "struct GovernanceToken.Checkpoint",
        "members": [
          {
            "astId": 2760,
            "contract": "contracts/governance/GovernanceToken.sol:GovernanceToken",
            "label": "fromBlock",
            "offset": 0,
            "slot": "0",
            "type": "t_uint32"
          },
          {
            "astId": 2762,
            "contract": "contracts/governance/GovernanceToken.sol:GovernanceToken",
            "label": "votes",
            "offset": 4,
            "slot": "0",
            "type": "t_uint96"
          }
        ],
        "numberOfBytes": "32"
      },
      "t_uint256": {
        "encoding": "inplace",
        "label": "uint256",
        "numberOfBytes": "32"
      },
      "t_uint32": {
        "encoding": "inplace",
        "label": "uint32",
        "numberOfBytes": "4"
      },
      "t_uint96": {
        "encoding": "inplace",
        "label": "uint96",
        "numberOfBytes": "12"
      }
    }
  }
}