{
  "contracts/governance/Interfaces.sol": {
    "GovernorBravoDelegateStorageV1": {
      "abi": [
        {
          "inputs": [],
          "name": "admin",
          "outputs": [
            {
              "internalType": "address",
              "name": "",
              "type": "address"
            }
          ],
          "stateMutability": "view",
          "type": "function"
        },
        {
          "inputs": [],
          "name": "governanceToken",
          "outputs": [
            {
              "internalType": "contract GovernanceTokenInterface",
              "name": "",
              "type": "address"
            }
          ],
          "stateMutability": "view",
          "type": "function"
        },
        {
          "inputs": [],
          "name": "implementation",
          "outputs": [
            {
              "internalType": "address",
              "name": "",
              "type": "address"
            }
          ],
          "stateMutability": "view",
          "type": "function"
        },
        {
          "inputs": [],
          "name": "initialProposalId",
          "outputs": [
            {
              "internalType": "uint256",
              "name": "",
              "type": "uint256"
            }
          ],
          "stateMutability": "view",
          "type": "function"
        },
        {
          "inputs": [
            {
              "internalType": "address",
              "name": "",
              "type": "address"
            }
          ],
          "name": "latestProposalIds",
          "outputs": [
            {
              "internalType": "uint256",
              "name": "",
              "type": "uint256"
            }
          ],
          "stateMutability": "view",
          "type": "function"
        },
        {
          "inputs": [],
          "name": "pendingAdmin",
          "outputs": [
            {
              "internalType": "address",
              "name": "",
              "type": "address"
            }
          ],
          "stateMutability": "view",
          "type": "function"
        },
        {
          "inputs": [],
          "name": "proposalCount",
          "outputs": [
            {
              "internalType": "uint256",
              "name": "",
              "type": "uint256"
            }
          ],
          "stateMutability": "view",
          "type": "function"
        },
        {
          "inputs": [],
          "name": "proposalThreshold",
          "outputs": [
            {
              "internalType": "uint256",
              "name": "",
              "type": "uint256"
            }
          ],
          "stateMutability": "view",
          "type": "function"
        },
        {
          "inputs": [
            {
              "internalType": "uint256",
              "name": "",
              "type": "uint256"
            }
          ],
          "name": "proposals",
          "outputs": [
            {
              "internalType": "uint256",
              "name": "id",
              "type": "uint256"
            },
            {
              "internalType": "address",
              "name": "proposer",
              "type": "address"
            },
            {
              "internalType": "uint256",
              "name": "eta",
              "type": "uint256"
            },
            {
              "internalType": "uint256",
              "name": "startBlock",
              "type": "uint256"
            },
            {
              "internalType": "uint256",
              "name": "endBlock",
              "type": "uint256"
            },
            {
              "internalType": "uint256",
              "name": "forVotes",
              "type": "uint256"
            },
            {
              "internalType": "uint256",
              "name": "againstVotes",
              "type": "uint256"
            },
            {
              "internalType": "uint256",
              "name": "abstainVotes",
              "type": "uint256"
            },
            {
              "internalType": "bool",
              "name": "canceled",
              "type": "bool"
            },
            {
              "internalType": "bool",
              "name": "executed",
              "type": "bool"
            }
          ],
          "stateMutability": "view",
          "type": "function"
        },
        {
          "inputs": [],
          "name": "timelock",
          "outputs": [
            {
              "internalType": "contract TimelockInterface",
              "name": "",
              "type": "address"
            }
          ],
          "stateMutability": "view",
          "type": "function"
        },
        {
          "inputs": [],
          "name": "votingDelay",
          "outputs": [
            {
              "internalType": "uint256",
              "name": "",
              "type": "uint256"
            }
          ],
          "stateMutability": "view",
          "type": "function"
        },
        {
          "inputs": [],
          "name": "votingPeriod",
          "outputs": [
            {
              "internalType": "uint256",
              "name": "",
              "type": "uint256"
            }
          ],
          "stateMutability": "view",
          "type": "function"
        }
      ],
      "devdoc": {
        "kind": "dev",
        "methods": {},
        "title": "Storage for Governor Bravo Delegate",
        "version": 1
      },
      "evm": {
        "bytecode": {
          "linkReferences": {},
          "object": "608060405234801561001057600080fd5b506102d6806100206000396000f3fe608060405234801561001057600080fd5b50600436106100b45760003560e01c8063b58131b011610071578063b58131b014610203578063d33219b41461020c578063da35c6641461021f578063f851a44014610228578063f96dae0a1461023b578063fc4eee421461024e57600080fd5b8063013cf08b146100b957806302a251a31461018557806317977c611461019c57806326782247146101bc5780633932abb1146101e75780635c60da1b146101f0575b600080fd5b61012a6100c7366004610287565b600a60208190526000918252604090912080546001820154600283015460078401546008850154600986015496860154600b870154600c9097015495976001600160a01b0390951696939592949193919290919060ff808216916101009004168a565b604080519a8b526001600160a01b0390991660208b0152978901969096526060880194909452608087019290925260a086015260c085015260e084015215156101008301521515610120820152610140015b60405180910390f35b61018e60045481565b60405190815260200161017c565b61018e6101aa366004610257565b600b6020526000908152604090205481565b6001546101cf906001600160a01b031681565b6040516001600160a01b03909116815260200161017c565b61018e60035481565b6002546101cf906001600160a01b031681565b61018e60055481565b6008546101cf906001600160a01b031681565b61018e60075481565b6000546101cf906001600160a01b031681565b6009546101cf906001600160a01b031681565b61018e60065481565b60006020828403121561026957600080fd5b81356001600160a01b038116811461028057600080fd5b9392505050565b60006020828403121561029957600080fd5b503591905056fea264697066735822122027020314ba8c20617a68d9904b8570aaee6cafe810f76ad593c3a18920830dd264736f6c63430008060033",
          "opcodes": "PUSH1 0x80 PUSH1 0x40 MSTORE CALLVALUE DUP1 ISZERO PUSH2 0x10 JUMPI PUSH1 0x0 DUP1 REVERT JUMPDEST POP PUSH2 0x2D6 DUP1 PUSH2 0x20 PUSH1 0x0 CODECOPY PUSH1 0x0 RETURN INVALID PUSH1 0x80 PUSH1 0x40 MSTORE CALLVALUE DUP1 ISZERO PUSH2 0x10 JUMPI PUSH1 0x0 DUP1 REVERT JUMPDEST POP PUSH1 0x4 CALLDATASIZE LT PUSH2 0xB4 JUMPI PUSH1 0x0 CALLDATALOAD PUSH1 0xE0 SHR DUP1 PUSH4 0xB58131B0 GT PUSH2 0x71 JUMPI DUP1 PUSH4 0xB58131B0 EQ PUSH2 0x203 JUMPI DUP1 PUSH4 0xD33219B4 EQ PUSH2 0x20C JUMPI DUP1 PUSH4 0xDA35C664 EQ PUSH2 0x21F JUMPI DUP1 PUSH4 0xF851A440 EQ PUSH2 0x228 JUMPI DUP1 PUSH4 0xF96DAE0A EQ PUSH2 0x23B JUMPI DUP1 PUSH4 0xFC4EEE42 EQ PUSH2 0x24E JUMPI PUSH1 0x0 DUP1 REVERT JUMPDEST DUP1 PUSH4 0x13CF08B EQ PUSH2 0xB9 JUMPI DUP1 PUSH4 0x2A251A3 EQ PUSH2 0x185 JUMPI DUP1 PUSH4 0x17977C61 EQ PUSH2 0x19C JUMPI DUP1 PUSH4 0x26782247 EQ PUSH2 0x1BC JUMPI DUP1 PUSH4 0x3932ABB1 EQ PUSH2 0x1E7 JUMPI DUP1 PUSH4 0x5C60DA1B EQ PUSH2 0x1F0 JUMPI JUMPDEST PUSH1 0x0 DUP1 REVERT JUMPDEST PUSH2 0x12A PUSH2 0xC7 CALLDATASIZE PUSH1 0x4 PUSH2 0x287 JUMP JUMPDEST PUSH1 0xA PUSH1 0x20 DUP2 SWAP1 MSTORE PUSH1 0x0 SWAP2 DUP3 MSTORE PUSH1 0x40 SWAP1 SWAP2 KECCAK256 DUP1 SLOAD PUSH1 0x1 DUP3 ADD SLOAD PUSH1 0x2 DUP4 ADD SLOAD PUSH1 0x7 DUP5 ADD SLOAD PUSH1 0x8 DUP6 ADD SLOAD PUSH1 0x9 DUP7 ADD SLOAD SWAP7 DUP7 ADD SLOAD PUSH1 0xB DUP8 ADD SLOAD PUSH1 0xC SWAP1 SWAP8 ADD SLOAD SWAP6 SWAP8 PUSH1 0x1 PUSH1 0x1 PUSH1 0xA0 SHL SUB SWAP1 SWAP6 AND SWAP7 SWAP4 SWAP6 SWAP3 SWAP5 SWAP2 SWAP4 SWAP2 SWAP3 SWAP1 SWAP2 SWAP1 PUSH1 0xFF DUP1 DUP3 AND SWAP2 PUSH2 0x100 SWAP1 DIV AND DUP11 JUMP JUMPDEST PUSH1 0x40 DUP1 MLOAD SWAP11 DUP12 MSTORE PUSH1 0x1 PUSH1 0x1 PUSH1 0xA0 SHL SUB SWAP1 SWAP10 AND PUSH1 0x20 DUP12 ADD MSTORE SWAP8 DUP10 ADD SWAP7 SWAP1 SWAP7 MSTORE PUSH1 0x60 DUP9 ADD SWAP5 SWAP1 SWAP5 MSTORE PUSH1 0x80 DUP8 ADD SWAP3 SWAP1 SWAP3 MSTORE PUSH1 0xA0 DUP7 ADD MSTORE PUSH1 0xC0 DUP6 ADD MSTORE PUSH1 0xE0 DUP5 ADD MSTORE ISZERO ISZERO PUSH2 0x100 DUP4 ADD MSTORE ISZERO ISZERO PUSH2 0x120 DUP3 ADD MSTORE PUSH2 0x140 ADD JUMPDEST PUSH1 0x40 MLOAD DUP1 SWAP2 SUB SWAP1 RETURN JUMPDEST PUSH2 0x18E PUSH1 0x4 SLOAD DUP2 JUMP JUMPDEST PUSH1 0x40 MLOAD SWAP1 DUP2 MSTORE PUSH1 0x20 ADD PUSH2 0x17C JUMP JUMPDEST PUSH2 0x18E PUSH2 0x1AA CALLDATASIZE PUSH1 0x4 PUSH2 0x257 JUMP JUMPDEST PUSH1 0xB PUSH1 0x20 MSTORE PUSH1 0x0 SWAP1 DUP2 MSTORE PUSH1 0x40 SWAP1 KECCAK256 SLOAD DUP2 JUMP JUMPDEST PUSH1 0x1 SLOAD PUSH2 0x1CF SWAP1 PUSH1 0x1 PUSH1 0x1 PUSH1 0xA0 SHL SUB AND DUP2 JUMP JUMPDEST PUSH1 0x40 MLOAD PUSH1 0x1 PUSH1 0x1 PUSH1 0xA0 SHL SUB SWAP1 SWAP2 AND DUP2 MSTORE PUSH1 0x20 ADD PUSH2 0x17C JUMP JUMPDEST PUSH2 0x18E PUSH1 0x3 SLOAD DUP2 JUMP JUMPDEST PUSH1 0x2 SLOAD PUSH2 0x1CF SWAP1 PUSH1 0x1 PUSH1 0x1 PUSH1 0xA0 SHL SUB AND DUP2 JUMP JUMPDEST PUSH2 0x18E PUSH1 0x5 SLOAD DUP2 JUMP JUMPDEST PUSH1 0x8 SLOAD PUSH2 0x1CF SWAP1 PUSH1 0x1 PUSH1 0x1 PUSH1 0xA0 SHL SUB AND DUP2 JUMP JUMPDEST PUSH2 0x18E PUSH1 0x7 SLOAD DUP2 JUMP JUMPDEST PUSH1 0x0 SLOAD PUSH2 0x1CF SWAP1 PUSH1 0x1 PUSH1 0x1 PUSH1 0xA0 SHL SUB AND DUP2 JUMP JUMPDEST PUSH1 0x9 SLOAD PUSH2 0x1CF SWAP1 PUSH1 0x1 PUSH1 0x1 PUSH1 0xA0 SHL SUB AND DUP2 JUMP JUMPDEST PUSH2 0x18E PUSH1 0x6 SLOAD DUP2 JUMP JUMPDEST PUSH1 0x0 PUSH1 0x20 DUP3 DUP5 SUB SLT ISZERO PUSH2 0x269 JUMPI PUSH1 0x0 DUP1 REVERT JUMPDEST DUP2 CALLDATALOAD PUSH1 0x1 PUSH1 0x1 PUSH1 0xA0 SHL SUB DUP2 AND DUP2 EQ PUSH2 0x280 JUMPI PUSH1 0x0 DUP1 REVERT JUMPDEST SWAP4 SWAP3 POP POP POP JUMP JUMPDEST PUSH1 0x0 PUSH1 0x20 DUP3 DUP5 SUB SLT ISZERO PUSH2 0x299 JUMPI PUSH1 0x0 DUP1 REVERT JUMPDEST POP CALLDATALOAD SWAP2 SWAP1 POP JUMP INVALID LOG2 PUSH5 0x6970667358 0x22 SLT KECCAK256 0x27 MUL SUB EQ 0xBA DUP13 KECCAK256 PUSH2 0x7A68 0xD9 SWAP1 0x4B DUP6 PUSH17 0xAAEE6CAFE810F76AD593C3A18920830DD2 PUSH5 0x736F6C6343 STOP ADDMOD MOD STOP CALLER "
        },
        "gasEstimates": {
          "creation": {
            "codeDepositCost": "145200",
            "executionCost": "190",
            "totalCost": "145390"
          },
          "external": {
            "admin()": "2403",
            "governanceToken()": "2425",
            "implementation()": "2448",
            "initialProposalId()": "2405",
            "latestProposalIds(address)": "2529",
            "pendingAdmin()": "2404",
            "proposalCount()": "2339",
            "proposalThreshold()": "2295",
            "proposals(uint256)": "19611",
            "timelock()": "2359",
            "votingDelay()": "2384",
            "votingPeriod()": "2318"
          }
        },
        "methodIdentifiers": {
          "admin()": "f851a440",
          "governanceToken()": "f96dae0a",
          "implementation()": "5c60da1b",
          "initialProposalId()": "fc4eee42",
          "latestProposalIds(address)": "17977c61",
          "pendingAdmin()": "26782247",
          "proposalCount()": "da35c664",
          "proposalThreshold()": "b58131b0",
          "proposals(uint256)": "013cf08b",
          "timelock()": "d33219b4",
          "votingDelay()": "3932abb1",
          "votingPeriod()": "02a251a3"
        }
      },
      "storageLayout": {
        "storage": [
          {
            "astId": 1395,
            "contract": "contracts/governance/Interfaces.sol:GovernorBravoDelegateStorageV1",
            "label": "admin",
            "offset": 0,
            "slot": "0",
            "type": "t_address"
          },
          {
            "astId": 1398,
            "contract": "contracts/governance/Interfaces.sol:GovernorBravoDelegateStorageV1",
            "label": "pendingAdmin",
            "offset": 0,
            "slot": "1",
            "type": "t_address"
          },
          {
            "astId": 1401,
            "contract": "contracts/governance/Interfaces.sol:GovernorBravoDelegateStorageV1",
            "label": "implementation",
            "offset": 0,
            "slot": "2",
            "type": "t_address"
          },
          {
            "astId": 1408,
            "contract": "contracts/governance/Interfaces.sol:GovernorBravoDelegateStorageV1",
            "label": "votingDelay",
            "offset": 0,
            "slot": "3",
            "type": "t_uint256"
          },
          {
            "astId": 1411,
            "contract": "contracts/governance/Interfaces.sol:GovernorBravoDelegateStorageV1",
            "label": "votingPeriod",
            "offset": 0,
            "slot": "4",
            "type": "t_uint256"
          },
          {
            "astId": 1414,
            "contract": "contracts/governance/Interfaces.sol:GovernorBravoDelegateStorageV1",
            "label": "proposalThreshold",
            "offset": 0,
            "slot": "5",
            "type": "t_uint256"
          },
          {
            "astId": 1417,
            "contract": "contracts/governance/Interfaces.sol:GovernorBravoDelegateStorageV1",
            "label": "initialProposalId",
            "offset": 0,
            "slot": "6",
            "type": "t_uint256"
          },
          {
            "astId": 1420,
            "contract": "contracts/governance/Interfaces.sol:GovernorBravoDelegateStorageV1",
            "label": "proposalCount",
            "offset": 0,
            "slot": "7",
            "type": "t_uint256"
          },
          {
            "astId": 1424,
            "contract": "contracts/governance/Interfaces.sol:GovernorBravoDelegateStorageV1",
            "label": "timelock",
            "offset": 0,
            "slot": "8",
            "type": "t_contract(TimelockInterface)1576"
          },
          {
            "astId": 1428,
            "contract": "contracts/governance/Interfaces.sol:GovernorBravoDelegateStorageV1",
            "label": "governanceToken",
            "offset": 0,
            "slot": "9",
            "type": "t_contract(GovernanceTokenInterface)1586"
          },
          {
            "astId": 1434,
            "contract": "contracts/governance/Interfaces.sol:GovernorBravoDelegateStorageV1",
            "label": "proposals",
            "offset": 0,
            "slot": "10",
            "type": "t_mapping(t_uint256,t_struct(Proposal)1492_storage)"
          },
          {
            "astId": 1439,
            "contract": "contracts/governance/Interfaces.sol:GovernorBravoDelegateStorageV1",
            "label": "latestProposalIds",
            "offset": 0,
            "slot": "11",
            "type": "t_mapping(t_address,t_uint256)"
          }
        ],
        "types": {
          "t_address": {
            "encoding": "inplace",
            "label": "address",
            "numberOfBytes": "20"
          },
          "t_array(t_address)dyn_storage": {
            "base": "t_address",
            "encoding": "dynamic_array",
            "label": "address[]",
            "numberOfBytes": "32"
          },
          "t_array(t_bytes_storage)dyn_storage": {
            "base": "t_bytes_storage",
            "encoding": "dynamic_array",
            "label": "bytes[]",
            "numberOfBytes": "32"
          },
          "t_array(t_string_storage)dyn_storage": {
            "base": "t_string_storage",
            "encoding": "dynamic_array",
            "label": "string[]",
            "numberOfBytes": "32"
          },
          "t_array(t_uint256)dyn_storage": {
            "base": "t_uint256",
            "encoding": "dynamic_array",
            "label": "uint256[]",
            "numberOfBytes": "32"
          },
          "t_bool": {
            "encoding": "inplace",
            "label": "bool",
            "numberOfBytes": "1"
          },
          "t_bytes_storage": {
            "encoding": "bytes",
            "label": "bytes",
            "numberOfBytes": "32"
          },
          "t_contract(GovernanceTokenInterface)1586": {
            "encoding": "inplace",
            "label": "contract GovernanceTokenInterface",
            "numberOfBytes": "20"
          },
          "t_contract(TimelockInterface)1576": {
            "encoding": "inplace",
            "label": "contract TimelockInterface",
            "numberOfBytes": "20"
          },
          "t_mapping(t_address,t_struct(Receipt)1502_storage)": {
            "encoding": "mapping",
            "key": "t_address",
            "label": "mapping(address => struct GovernorBravoDelegateStorageV1.Receipt)",
            "numberOfBytes": "32",
            "value": "t_struct(Receipt)1502_storage"
          },
          "t_mapping(t_address,t_uint256)": {
            "encoding": "mapping",
            "key": "t_address",
            "label": "mapping(address => uint256)",
            "numberOfBytes": "32",
            "value": "t_uint256"
          },
          "t_mapping(t_uint256,t_struct(Proposal)1492_storage)": {
            "encoding": "mapping",
            "key": "t_uint256",
            "label": "mapping(uint256 => struct GovernorBravoDelegateStorageV1.Proposal)",
            "numberOfBytes": "32",
            "value": "t_struct(Proposal)1492_storage"
          },
          "t_string_storage": {
            "encoding": "bytes",
            "label": "string",
            "numberOfBytes": "32"
          },
          "t_struct(Proposal)1492_storage": {
            "encoding": "inplace",
            "label": "struct GovernorBravoDelegateStorageV1.Proposal",
            "members": [
              {
                "astId": 1442,
                "contract": "contracts/governance/Interfaces.sol:GovernorBravoDelegateStorageV1",
                "label": "id",
                "offset": 0,
                "slot": "0",
                "type": "t_uint256"
              },
              {
                "astId": 1445,
                "contract": "contracts/governance/Interfaces.sol:GovernorBravoDelegateStorageV1",
                "label": "proposer",
                "offset": 0,
                "slot": "1",
                "type": "t_address"
              },
              {
                "astId": 1448,
                "contract": "contracts/governance/Interfaces.sol:GovernorBravoDelegateStorageV1",
                "label": "eta",
                "offset": 0,
                "slot": "2",
                "type": "t_uint256"
              },
              {
                "astId": 1452,
                "contract": "contracts/governance/Interfaces.sol:GovernorBravoDelegateStorageV1",
                "label": "targets",
                "offset": 0,
                "slot": "3",
                "type": "t_array(t_address)dyn_storage"
              },
              {
                "astId": 1456,
                "contract": "contracts/governance/Interfaces.sol:GovernorBravoDelegateStorageV1",
                "label": "values",
                "offset": 0,
                "slot": "4",
                "type": "t_array(t_uint256)dyn_storage"
              },
              {
                "astId": 1460,
                "contract": "contracts/governance/Interfaces.sol:GovernorBravoDelegateStorageV1",
                "label": "signatures",
                "offset": 0,
                "slot": "5",
                "type": "t_array(t_string_storage)dyn_storage"
              },
              {
                "astId": 1464,
                "contract": "contracts/governance/Interfaces.sol:GovernorBravoDelegateStorageV1",
                "label": "calldatas",
                "offset": 0,
                "slot": "6",
                "type": "t_array(t_bytes_storage)dyn_storage"
              },
              {
                "astId": 1467,
                "contract": "contracts/governance/Interfaces.sol:GovernorBravoDelegateStorageV1",
                "label": "startBlock",
                "offset": 0,
                "slot": "7",
                "type": "t_uint256"
              },
              {
                "astId": 1470,
                "contract": "contracts/governance/Interfaces.sol:GovernorBravoDelegateStorageV1",
                "label": "endBlock",
                "offset": 0,
                "slot": "8",
                "type": "t_uint256"
              },
              {
                "astId": 1473,
                "contract": "contracts/governance/Interfaces.sol:GovernorBravoDelegateStorageV1",
                "label": "forVotes",
                "offset": 0,
                "slot": "9",
                "type": "t_uint256"
              },
              {
                "astId": 1476,
                "contract": "contracts/governance/Interfaces.sol:GovernorBravoDelegateStorageV1",
                "label": "againstVotes",
                "offset": 0,
                "slot": "10",
                "type": "t_uint256"
              },
              {
                "astId": 1479,
                "contract": "contracts/governance/Interfaces.sol:GovernorBravoDelegateStorageV1",
                "label": "abstainVotes",
                "offset": 0,
                "slot": "11",
                "type": "t_uint256"
              },
              {
                "astId": 1482,
                "contract": "contracts/governance/Interfaces.sol:GovernorBravoDelegateStorageV1",
                "label": "canceled",
                "offset": 0,
                "slot": "12",
                "type": "t_bool"
              },
              {
                "astId": 1485,
                "contract": "contracts/governance/Interfaces.sol:GovernorBravoDelegateStorageV1",
                "label": "executed",
                "offset": 1,
                "slot": "12",
                "type": "t_bool"
              },
              {
                "astId": 1491,
                "contract": "contracts/governance/Interfaces.sol:GovernorBravoDelegateStorageV1",
                "label": "receipts",
                "offset": 0,
                "slot": "13",
                "type": "t_mapping(t_address,t_struct(Receipt)1502_storage)"
              }
            ],
            "numberOfBytes": "448"
          },
          "t_struct(Receipt)1502_storage": {
            "encoding": "inplace",
            "label": "struct GovernorBravoDelegateStorageV1.Receipt",
            "members": [
              {
                "astId": 1495,
                "contract": "contracts/governance/Interfaces.sol:GovernorBravoDelegateStorageV1",
                "label": "hasVoted",
                "offset": 0,
                "slot": "0",
                "type": "t_bool"
              },
              {
                "astId": 1498,
                "contract": "contracts/governance/Interfaces.sol:GovernorBravoDelegateStorageV1",
                "label": "support",
                "offset": 1,
                "slot": "0",
                "type": "t_uint8"
              },
              {
                "astId": 1501,
                "contract": "contracts/governance/Interfaces.sol:GovernorBravoDelegateStorageV1",
                "label": "votes",
                "offset": 2,
                "slot": "0",
                "type": "t_uint96"
              }
            ],
            "numberOfBytes": "32"
          },
          "t_uint256": {
            "encoding": "inplace",
            "label": "uint256",
            "numberOfBytes": "32"
          },
          "t_uint8": {
            "encoding": "inplace",
            "label": "uint8",
            "numberOfBytes": "1"
          },
          "t_uint96": {
            "encoding": "inplace",
            "label": "uint96",
            "numberOfBytes": "12"
          }
        }
      },
      "userdoc": {
        "kind": "user",
        "methods": {
          "admin()": {
            "notice": "Administrator for this contract"
          },
          "governanceToken()": {
            "notice": "The address of the governance token"
          },
          "implementation()": {
            "notice": "Active brains of Governor"
          },
          "initialProposalId()": {
            "notice": "Initial proposal id set at become"
          },
          "latestProposalIds(address)": {
            "notice": "The latest proposal for each proposer"
          },
          "pendingAdmin()": {
            "notice": "Pending administrator for this contract"
          },
          "proposalCount()": {
            "notice": "The total number of proposals"
          },
          "proposalThreshold()": {
            "notice": "The number of votes required in order for a voter to become a proposer"
          },
          "proposals(uint256)": {
            "notice": "The official record of all proposals ever proposed"
          },
          "timelock()": {
            "notice": "The address of the Protocol Timelock"
          },
          "votingDelay()": {
            "notice": "The delay before voting on a proposal may take place, once proposed, in blocks"
          },
          "votingPeriod()": {
            "notice": "The duration of voting on a proposal, in blocks"
          }
        },
        "notice": "For future upgrades, do not change GovernorBravoDelegateStorageV1. Create a new contract which implements GovernorBravoDelegateStorageV1 and following the naming convention GovernorBravoDelegateStorageVX.",
        "version": 1
      }
    }
  }
}