{
  "contracts/governance/GovernorBravo.sol": {
    "GovernorBravo": {
      "abi": [
        {
          "anonymous": false,
          "inputs": [
            {
              "indexed": false,
              "internalType": "address",
              "name": "oldAdmin",
              "type": "address"
            },
            {
              "indexed": false,
              "internalType": "address",
              "name": "newAdmin",
              "type": "address"
            }
          ],
          "name": "NewAdmin",
          "type": "event"
        },
        {
          "anonymous": false,
          "inputs": [
            {
              "indexed": false,
              "internalType": "address",
              "name": "oldImplementation",
              "type": "address"
            },
            {
              "indexed": false,
              "internalType": "address",
              "name": "newImplementation",
              "type": "address"
            }
          ],
          "name": "NewImplementation",
          "type": "event"
        },
        {
          "anonymous": false,
          "inputs": [
            {
              "indexed": false,
              "internalType": "address",
              "name": "oldPendingAdmin",
              "type": "address"
            },
            {
              "indexed": false,
              "internalType": "address",
              "name": "newPendingAdmin",
              "type": "address"
            }
          ],
          "name": "NewPendingAdmin",
          "type": "event"
        },
        {
          "anonymous": false,
          "inputs": [
            {
              "indexed": false,
              "internalType": "uint256",
              "name": "id",
              "type": "uint256"
            }
          ],
          "name": "ProposalCanceled",
          "type": "event"
        },
        {
          "anonymous": false,
          "inputs": [
            {
              "indexed": false,
              "internalType": "uint256",
              "name": "id",
              "type": "uint256"
            },
            {
              "indexed": false,
              "internalType": "address",
              "name": "proposer",
              "type": "address"
            },
            {
              "indexed": false,
              "internalType": "address[]",
              "name": "targets",
              "type": "address[]"
            },
            {
              "indexed": false,
              "internalType": "uint256[]",
              "name": "values",
              "type": "uint256[]"
            },
            {
              "indexed": false,
              "internalType": "string[]",
              "name": "signatures",
              "type": "string[]"
            },
            {
              "indexed": false,
              "internalType": "bytes[]",
              "name": "calldatas",
              "type": "bytes[]"
            },
            {
              "indexed": false,
              "internalType": "uint256",
              "name": "startBlock",
              "type": "uint256"
            },
            {
              "indexed": false,
              "internalType": "uint256",
              "name": "endBlock",
              "type": "uint256"
            },
            {
              "indexed": false,
              "internalType": "string",
              "name": "description",
              "type": "string"
            }
          ],
          "name": "ProposalCreated",
          "type": "event"
        },
        {
          "anonymous": false,
          "inputs": [
            {
              "indexed": false,
              "internalType": "uint256",
              "name": "id",
              "type": "uint256"
            }
          ],
          "name": "ProposalExecuted",
          "type": "event"
        },
        {
          "anonymous": false,
          "inputs": [
            {
              "indexed": false,
              "internalType": "uint256",
              "name": "id",
              "type": "uint256"
            },
            {
              "indexed": false,
              "internalType": "uint256",
              "name": "eta",
              "type": "uint256"
            }
          ],
          "name": "ProposalQueued",
          "type": "event"
        },
        {
          "anonymous": false,
          "inputs": [
            {
              "indexed": false,
              "internalType": "uint256",
              "name": "oldProposalThreshold",
              "type": "uint256"
            },
            {
              "indexed": false,
              "internalType": "uint256",
              "name": "newProposalThreshold",
              "type": "uint256"
            }
          ],
          "name": "ProposalThresholdSet",
          "type": "event"
        },
        {
          "anonymous": false,
          "inputs": [
            {
              "indexed": true,
              "internalType": "address",
              "name": "voter",
              "type": "address"
            },
            {
              "indexed": false,
              "internalType": "uint256",
              "name": "proposalId",
              "type": "uint256"
            },
            {
              "indexed": false,
              "internalType": "uint8",
              "name": "support",
              "type": "uint8"
            },
            {
              "indexed": false,
              "internalType": "uint256",
              "name": "votes",
              "type": "uint256"
            },
            {
              "indexed": false,
              "internalType": "string",
              "name": "reason",
              "type": "string"
            }
          ],
          "name": "VoteCast",
          "type": "event"
        },
        {
          "anonymous": false,
          "inputs": [
            {
              "indexed": false,
              "internalType": "uint256",
              "name": "oldVotingDelay",
              "type": "uint256"
            },
            {
              "indexed": false,
              "internalType": "uint256",
              "name": "newVotingDelay",
              "type": "uint256"
            }
          ],
          "name": "VotingDelaySet",
          "type": "event"
        },
        {
          "anonymous": false,
          "inputs": [
            {
              "indexed": false,
              "internalType": "uint256",
              "name": "oldVotingPeriod",
              "type": "uint256"
            },
            {
              "indexed": false,
              "internalType": "uint256",
              "name": "newVotingPeriod",
              "type": "uint256"
            }
          ],
          "name": "VotingPeriodSet",
          "type": "event"
        },
        {
          "inputs": [],
          "name": "BALLOT_TYPEHASH",
          "outputs": [
            {
              "internalType": "bytes32",
              "name": "",
              "type": "bytes32"
            }
          ],
          "stateMutability": "view",
          "type": "function"
        },
        {
          "inputs": [],
          "name": "DOMAIN_TYPEHASH",
          "outputs": [
            {
              "internalType": "bytes32",
              "name": "",
              "type": "bytes32"
            }
          ],
          "stateMutability": "view",
          "type": "function"
        },
        {
          "inputs": [],
          "name": "MAX_PROPOSAL_THRESHOLD",
          "outputs": [
            {
              "internalType": "uint256",
              "name": "",
              "type": "uint256"
            }
          ],
          "stateMutability": "view",
          "type": "function"
        },
        {
          "inputs": [],
          "name": "MAX_VOTING_DELAY",
          "outputs": [
            {
              "internalType": "uint256",
              "name": "",
              "type": "uint256"
            }
          ],
          "stateMutability": "view",
          "type": "function"
        },
        {
          "inputs": [],
          "name": "MAX_VOTING_PERIOD",
          "outputs": [
            {
              "internalType": "uint256",
              "name": "",
              "type": "uint256"
            }
          ],
          "stateMutability": "view",
          "type": "function"
        },
        {
          "inputs": [],
          "name": "MIN_PROPOSAL_THRESHOLD",
          "outputs": [
            {
              "internalType": "uint256",
              "name": "",
              "type": "uint256"
            }
          ],
          "stateMutability": "view",
          "type": "function"
        },
        {
          "inputs": [],
          "name": "MIN_VOTING_DELAY",
          "outputs": [
            {
              "internalType": "uint256",
              "name": "",
              "type": "uint256"
            }
          ],
          "stateMutability": "view",
          "type": "function"
        },
        {
          "inputs": [],
          "name": "MIN_VOTING_PERIOD",
          "outputs": [
            {
              "internalType": "uint256",
              "name": "",
              "type": "uint256"
            }
          ],
          "stateMutability": "view",
          "type": "function"
        },
        {
          "inputs": [],
          "name": "_acceptAdmin",
          "outputs": [],
          "stateMutability": "nonpayable",
          "type": "function"
        },
        {
          "inputs": [
            {
              "internalType": "address",
              "name": "newPendingAdmin",
              "type": "address"
            }
          ],
          "name": "_setPendingAdmin",
          "outputs": [],
          "stateMutability": "nonpayable",
          "type": "function"
        },
        {
          "inputs": [
            {
              "internalType": "uint256",
              "name": "newProposalThreshold",
              "type": "uint256"
            }
          ],
          "name": "_setProposalThreshold",
          "outputs": [],
          "stateMutability": "nonpayable",
          "type": "function"
        },
        {
          "inputs": [
            {
              "internalType": "uint256",
              "name": "newVotingDelay",
              "type": "uint256"
            }
          ],
          "name": "_setVotingDelay",
          "outputs": [],
          "stateMutability": "nonpayable",
          "type": "function"
        },
        {
          "inputs": [
            {
              "internalType": "uint256",
              "name": "newVotingPeriod",
              "type": "uint256"
            }
          ],
          "name": "_setVotingPeriod",
          "outputs": [],
          "stateMutability": "nonpayable",
          "type": "function"
        },
        {
          "inputs": [],
          "name": "admin",
          "outputs": [
            {
              "internalType": "address",
              "name": "",
              "type": "address"
            }
          ],
          "stateMutability": "view",
          "type": "function"
        },
        {
          "inputs": [
            {
              "internalType": "uint256",
              "name": "proposalId",
              "type": "uint256"
            }
          ],
          "name": "cancel",
          "outputs": [],
          "stateMutability": "nonpayable",
          "type": "function"
        },
        {
          "inputs": [
            {
              "internalType": "uint256",
              "name": "proposalId",
              "type": "uint256"
            },
            {
              "internalType": "uint8",
              "name": "support",
              "type": "uint8"
            }
          ],
          "name": "castVote",
          "outputs": [],
          "stateMutability": "nonpayable",
          "type": "function"
        },
        {
          "inputs": [
            {
              "internalType": "uint256",
              "name": "proposalId",
              "type": "uint256"
            },
            {
              "internalType": "uint8",
              "name": "support",
              "type": "uint8"
            },
            {
              "internalType": "uint8",
              "name": "v",
              "type": "uint8"
            },
            {
              "internalType": "bytes32",
              "name": "r",
              "type": "bytes32"
            },
            {
              "internalType": "bytes32",
              "name": "s",
              "type": "bytes32"
            }
          ],
          "name": "castVoteBySig",
          "outputs": [],
          "stateMutability": "nonpayable",
          "type": "function"
        },
        {
          "inputs": [
            {
              "internalType": "uint256",
              "name": "proposalId",
              "type": "uint256"
            },
            {
              "internalType": "uint8",
              "name": "support",
              "type": "uint8"
            },
            {
              "internalType": "string",
              "name": "reason",
              "type": "string"
            }
          ],
          "name": "castVoteWithReason",
          "outputs": [],
          "stateMutability": "nonpayable",
          "type": "function"
        },
        {
          "inputs": [
            {
              "internalType": "uint256",
              "name": "proposalId",
              "type": "uint256"
            }
          ],
          "name": "execute",
          "outputs": [],
          "stateMutability": "payable",
          "type": "function"
        },
        {
          "inputs": [
            {
              "internalType": "uint256",
              "name": "proposalId",
              "type": "uint256"
            }
          ],
          "name": "getActions",
          "outputs": [
            {
              "internalType": "address[]",
              "name": "targets",
              "type": "address[]"
            },
            {
              "internalType": "uint256[]",
              "name": "values",
              "type": "uint256[]"
            },
            {
              "internalType": "string[]",
              "name": "signatures",
              "type": "string[]"
            },
            {
              "internalType": "bytes[]",
              "name": "calldatas",
              "type": "bytes[]"
            }
          ],
          "stateMutability": "view",
          "type": "function"
        },
        {
          "inputs": [
            {
              "internalType": "uint256",
              "name": "proposalId",
              "type": "uint256"
            },
            {
              "internalType": "address",
              "name": "voter",
              "type": "address"
            }
          ],
          "name": "getReceipt",
          "outputs": [
            {
              "components": [
                {
                  "internalType": "bool",
                  "name": "hasVoted",
                  "type": "bool"
                },
                {
                  "internalType": "uint8",
                  "name": "support",
                  "type": "uint8"
                },
                {
                  "internalType": "uint96",
                  "name": "votes",
                  "type": "uint96"
                }
              ],
              "internalType": "struct GovernorBravoDelegateStorageV1.Receipt",
              "name": "",
              "type": "tuple"
            }
          ],
          "stateMutability": "view",
          "type": "function"
        },
        {
          "inputs": [],
          "name": "governanceToken",
          "outputs": [
            {
              "internalType": "contract GovernanceTokenInterface",
              "name": "",
              "type": "address"
            }
          ],
          "stateMutability": "view",
          "type": "function"
        },
        {
          "inputs": [],
          "name": "implementation",
          "outputs": [
            {
              "internalType": "address",
              "name": "",
              "type": "address"
            }
          ],
          "stateMutability": "view",
          "type": "function"
        },
        {
          "inputs": [],
          "name": "initialProposalId",
          "outputs": [
            {
              "internalType": "uint256",
              "name": "",
              "type": "uint256"
            }
          ],
          "stateMutability": "view",
          "type": "function"
        },
        {
          "inputs": [
            {
              "internalType": "address",
              "name": "timelock_",
              "type": "address"
            },
            {
              "internalType": "address",
              "name": "governanceToken_",
              "type": "address"
            },
            {
              "internalType": "uint256",
              "name": "votingPeriod_",
              "type": "uint256"
            },
            {
              "internalType": "uint256",
              "name": "votingDelay_",
              "type": "uint256"
            },
            {
              "internalType": "uint256",
              "name": "proposalThreshold_",
              "type": "uint256"
            }
          ],
          "name": "initialize",
          "outputs": [],
          "stateMutability": "nonpayable",
          "type": "function"
        },
        {
          "inputs": [
            {
              "internalType": "address",
              "name": "",
              "type": "address"
            }
          ],
          "name": "latestProposalIds",
          "outputs": [
            {
              "internalType": "uint256",
              "name": "",
              "type": "uint256"
            }
          ],
          "stateMutability": "view",
          "type": "function"
        },
        {
          "inputs": [],
          "name": "name",
          "outputs": [
            {
              "internalType": "string",
              "name": "",
              "type": "string"
            }
          ],
          "stateMutability": "view",
          "type": "function"
        },
        {
          "inputs": [],
          "name": "pendingAdmin",
          "outputs": [
            {
              "internalType": "address",
              "name": "",
              "type": "address"
            }
          ],
          "stateMutability": "view",
          "type": "function"
        },
        {
          "inputs": [],
          "name": "proposalCount",
          "outputs": [
            {
              "internalType": "uint256",
              "name": "",
              "type": "uint256"
            }
          ],
          "stateMutability": "view",
          "type": "function"
        },
        {
          "inputs": [],
          "name": "proposalMaxOperations",
          "outputs": [
            {
              "internalType": "uint256",
              "name": "",
              "type": "uint256"
            }
          ],
          "stateMutability": "view",
          "type": "function"
        },
        {
          "inputs": [],
          "name": "proposalThreshold",
          "outputs": [
            {
              "internalType": "uint256",
              "name": "",
              "type": "uint256"
            }
          ],
          "stateMutability": "view",
          "type": "function"
        },
        {
          "inputs": [
            {
              "internalType": "uint256",
              "name": "",
              "type": "uint256"
            }
          ],
          "name": "proposals",
          "outputs": [
            {
              "internalType": "uint256",
              "name": "id",
              "type": "uint256"
            },
            {
              "internalType": "address",
              "name": "proposer",
              "type": "address"
            },
            {
              "internalType": "uint256",
              "name": "eta",
              "type": "uint256"
            },
            {
              "internalType": "uint256",
              "name": "startBlock",
              "type": "uint256"
            },
            {
              "internalType": "uint256",
              "name": "endBlock",
              "type": "uint256"
            },
            {
              "internalType": "uint256",
              "name": "forVotes",
              "type": "uint256"
            },
            {
              "internalType": "uint256",
              "name": "againstVotes",
              "type": "uint256"
            },
            {
              "internalType": "uint256",
              "name": "abstainVotes",
              "type": "uint256"
            },
            {
              "internalType": "bool",
              "name": "canceled",
              "type": "bool"
            },
            {
              "internalType": "bool",
              "name": "executed",
              "type": "bool"
            }
          ],
          "stateMutability": "view",
          "type": "function"
        },
        {
          "inputs": [
            {
              "internalType": "address[]",
              "name": "targets",
              "type": "address[]"
            },
            {
              "internalType": "uint256[]",
              "name": "values",
              "type": "uint256[]"
            },
            {
              "internalType": "string[]",
              "name": "signatures",
              "type": "string[]"
            },
            {
              "internalType": "bytes[]",
              "name": "calldatas",
              "type": "bytes[]"
            },
            {
              "internalType": "string",
              "name": "description",
              "type": "string"
            }
          ],
          "name": "propose",
          "outputs": [
            {
              "internalType": "uint256",
              "name": "",
              "type": "uint256"
            }
          ],
          "stateMutability": "nonpayable",
          "type": "function"
        },
        {
          "inputs": [
            {
              "internalType": "uint256",
              "name": "proposalId",
              "type": "uint256"
            }
          ],
          "name": "queue",
          "outputs": [],
          "stateMutability": "nonpayable",
          "type": "function"
        },
        {
          "inputs": [],
          "name": "quorumVotes",
          "outputs": [
            {
              "internalType": "uint256",
              "name": "",
              "type": "uint256"
            }
          ],
          "stateMutability": "view",
          "type": "function"
        },
        {
          "inputs": [
            {
              "internalType": "uint256",
              "name": "proposalId",
              "type": "uint256"
            }
          ],
          "name": "state",
          "outputs": [
            {
              "internalType": "enum GovernorBravoDelegateStorageV1.ProposalState",
              "name": "",
              "type": "uint8"
            }
          ],
          "stateMutability": "view",
          "type": "function"
        },
        {
          "inputs": [],
          "name": "timelock",
          "outputs": [
            {
              "internalType": "contract TimelockInterface",
              "name": "",
              "type": "address"
            }
          ],
          "stateMutability": "view",
          "type": "function"
        },
        {
          "inputs": [],
          "name": "votingDelay",
          "outputs": [
            {
              "internalType": "uint256",
              "name": "",
              "type": "uint256"
            }
          ],
          "stateMutability": "view",
          "type": "function"
        },
        {
          "inputs": [],
          "name": "votingPeriod",
          "outputs": [
            {
              "internalType": "uint256",
              "name": "",
              "type": "uint256"
            }
          ],
          "stateMutability": "view",
          "type": "function"
        }
      ],
      "devdoc": {
        "kind": "dev",
        "methods": {
          "_acceptAdmin()": {
            "details": "Admin function for pending admin to accept role and update admin"
          },
          "_setPendingAdmin(address)": {
            "details": "Admin function to begin change of admin. The newPendingAdmin must call `_acceptAdmin` to finalize the transfer.",
            "params": {
              "newPendingAdmin": "New pending admin."
            }
          },
          "_setProposalThreshold(uint256)": {
            "details": "newProposalThreshold must be greater than the hardcoded min",
            "params": {
              "newProposalThreshold": "new proposal threshold"
            }
          },
          "_setVotingDelay(uint256)": {
            "params": {
              "newVotingDelay": "new voting delay, in blocks"
            }
          },
          "_setVotingPeriod(uint256)": {
            "params": {
              "newVotingPeriod": "new voting period, in blocks"
            }
          },
          "cancel(uint256)": {
            "params": {
              "proposalId": "The id of the proposal to cancel"
            }
          },
          "castVote(uint256,uint8)": {
            "params": {
              "proposalId": "The id of the proposal to vote on",
              "support": "The support value for the vote. 0=against, 1=for, 2=abstain"
            }
          },
          "castVoteBySig(uint256,uint8,uint8,bytes32,bytes32)": {
            "details": "External function that accepts EIP-712 signatures for voting on proposals."
          },
          "castVoteWithReason(uint256,uint8,string)": {
            "params": {
              "proposalId": "The id of the proposal to vote on",
              "reason": "The reason given for the vote by the voter",
              "support": "The support value for the vote. 0=against, 1=for, 2=abstain"
            }
          },
          "execute(uint256)": {
            "params": {
              "proposalId": "The id of the proposal to execute"
            }
          },
          "getActions(uint256)": {
            "params": {
              "proposalId": "the id of the proposal"
            },
            "returns": {
              "calldatas": "Calldatas of the proposal actions",
              "signatures": "Signatures of the proposal actions",
              "targets": "Targets of the proposal actions",
              "values": "Values of the proposal actions"
            }
          },
          "getReceipt(uint256,address)": {
            "params": {
              "proposalId": "the id of proposal",
              "voter": "The address of the voter"
            },
            "returns": {
              "_0": "The voting receipt"
            }
          },
          "initialize(address,address,uint256,uint256,uint256)": {
            "params": {
              "governanceToken_": "The address of the governance token",
              "proposalThreshold_": "The initial proposal threshold",
              "timelock_": "The address of the Timelock",
              "votingDelay_": "The initial voting delay",
              "votingPeriod_": "The initial voting period"
            }
          },
          "propose(address[],uint256[],string[],bytes[],string)": {
            "params": {
              "calldatas": "Calldatas for proposal calls",
              "description": "String description of the proposal",
              "signatures": "Function signatures for proposal calls",
              "targets": "Target addresses for proposal calls",
              "values": "Eth values for proposal calls"
            },
            "returns": {
              "_0": "Proposal id of new proposal"
            }
          },
          "queue(uint256)": {
            "params": {
              "proposalId": "The id of the proposal to queue"
            }
          },
          "state(uint256)": {
            "params": {
              "proposalId": "The id of the proposal"
            },
            "returns": {
              "_0": "Proposal state"
            }
          }
        },
        "version": 1
      },
      "evm": {
        "bytecode": {
          "linkReferences": {},
          "object": "608060405234801561001057600080fd5b5061398c806100206000396000f3fe6080604052600436106102305760003560e01c8063791f5d231161012e578063da95691a116100ab578063e9c714f21161006f578063e9c714f21461081c578063f851a44014610831578063f96dae0a14610851578063fc4eee4214610871578063fe0d94c11461088757600080fd5b8063da95691a146106c9578063ddf0b009146106e9578063deaaa7cc14610709578063e23a9a521461073d578063e48083fe1461080757600080fd5b8063b58131b0116100f2578063b58131b01461063d578063b71d1a0c14610653578063d13f90b414610673578063d33219b414610693578063da35c664146106b357600080fd5b8063791f5d23146105bd5780637b3c71d3146105db5780637bdbe4d0146105fb578063a64e024a14610610578063b11262631461062757600080fd5b806324bc1a64116101bc5780633bccf4fd116101805780633bccf4fd146105105780633e4f49e61461053057806340e58ee51461055d578063567813881461057d5780635c60da1b1461059d57600080fd5b806324bc1a641461045657806325fd935a146104745780632678224714610492578063328dd982146104ca5780633932abb1146104fa57600080fd5b806317977c611161020357806317977c611461039f57806317ba1b8b146103cc5780631dfb1b5a146103ec57806320606b701461040c578063215809ca1461044057600080fd5b8063013cf08b1461023557806302a251a31461030e57806306fdde03146103325780630ea2d98c1461037d575b600080fd5b34801561024157600080fd5b506102b36102503660046132b6565b600a60208190526000918252604090912080546001820154600283015460078401546008850154600986015496860154600b870154600c9097015495976001600160a01b0390951696939592949193919290919060ff808216916101009004168a565b604080519a8b526001600160a01b0390991660208b0152978901969096526060880194909452608087019290925260a086015260c085015260e084015215156101008301521515610120820152610140015b60405180910390f35b34801561031a57600080fd5b5061032460045481565b604051908152602001610305565b34801561033e57600080fd5b506103706040518060400160405280601281526020017144464820476f7665726e6f7220427261766f60701b81525081565b60405161030591906136b7565b34801561038957600080fd5b5061039d6103983660046132b6565b61089a565b005b3480156103ab57600080fd5b506103246103ba3660046130ca565b600b6020526000908152604090205481565b3480156103d857600080fd5b5061039d6103e73660046132b6565b6109d3565b3480156103f857600080fd5b5061039d6104073660046132b6565b610b1c565b34801561041857600080fd5b506103247f8cad95687ba82c2ce50e74f7b754645e5117c3a5bec8151c0726d5857980a86681565b34801561044c57600080fd5b5061032461168081565b34801561046257600080fd5b506103246954b40b1f852bda00000081565b34801561048057600080fd5b5061032469152d02c7e14af680000081565b34801561049e57600080fd5b506001546104b2906001600160a01b031681565b6040516001600160a01b039091168152602001610305565b3480156104d657600080fd5b506104ea6104e53660046132b6565b610c43565b6040516103059493929190613637565b34801561050657600080fd5b5061032460035481565b34801561051c57600080fd5b5061039d61052b3660046133a5565b610ed4565b34801561053c57600080fd5b5061055061054b3660046132b6565b61114c565b604051610305919061368f565b34801561056957600080fd5b5061039d6105783660046132b6565b61131d565b34801561058957600080fd5b5061039d6105983660046132fb565b61163c565b3480156105a957600080fd5b506002546104b2906001600160a01b031681565b3480156105c957600080fd5b50610324690a968163f0a57b40000081565b3480156105e757600080fd5b5061039d6105f636600461331e565b6116a7565b34801561060757600080fd5b50610324600a81565b34801561061c57600080fd5b5061032462013b0081565b34801561063357600080fd5b50610324619d8081565b34801561064957600080fd5b5061032460055481565b34801561065f57600080fd5b5061039d61066e3660046130ca565b6116f7565b34801561067f57600080fd5b5061039d61068e3660046130e5565b6117be565b34801561069f57600080fd5b506008546104b2906001600160a01b031681565b3480156106bf57600080fd5b5061032460075481565b3480156106d557600080fd5b506103246106e4366004613132565b611a91565b3480156106f557600080fd5b5061039d6107043660046132b6565b612069565b34801561071557600080fd5b506103247f150214d74d59b7d1e90c73fc22ef3d991dd0a76b046543d4d80ab92d2a50328f81565b34801561074957600080fd5b506107d76107583660046132cf565b6040805160608101825260008082526020820181905291810191909152506000918252600a602090815260408084206001600160a01b03939093168452600d9092018152918190208151606081018352905460ff8082161515835261010082041693820193909352620100009092046001600160601b03169082015290565b6040805182511515815260208084015160ff1690820152918101516001600160601b031690820152606001610305565b34801561081357600080fd5b50610324600181565b34801561082857600080fd5b5061039d6123aa565b34801561083d57600080fd5b506000546104b2906001600160a01b031681565b34801561085d57600080fd5b506009546104b2906001600160a01b031681565b34801561087d57600080fd5b5061032460065481565b61039d6108953660046132b6565b6124d4565b6000546001600160a01b0316331461090d5760405162461bcd60e51b815260206004820152602b60248201527f476f7665726e6f72427261766f3a3a5f736574566f74696e67506572696f643a60448201526a2061646d696e206f6e6c7960a81b60648201526084015b60405180910390fd5b6116808110158015610922575062013b008111155b61098d5760405162461bcd60e51b815260206004820152603660248201527f476f7665726e6f72427261766f3a3a5f736574566f74696e67506572696f643a604482015275081a5b9d985b1a59081d9bdd1a5b99c81c195c9a5bd960521b6064820152608401610904565b600480549082905560408051828152602081018490527f7e3f7f0708a84de9203036abaa450dccc85ad5ff52f78c170f3edb55cf5e882891015b60405180910390a15050565b6000546001600160a01b03163314610a465760405162461bcd60e51b815260206004820152603060248201527f476f7665726e6f72427261766f3a3a5f73657450726f706f73616c546872657360448201526f686f6c643a2061646d696e206f6e6c7960801b6064820152608401610904565b690a968163f0a57b4000008110158015610a6a575069152d02c7e14af68000008111155b610ade576040805162461bcd60e51b81526020600482015260248101919091527f476f7665726e6f72427261766f3a3a5f73657450726f706f73616c546872657360448201527f686f6c643a20696e76616c69642070726f706f73616c207468726573686f6c646064820152608401610904565b600580549082905560408051828152602081018490527fccb45da8d5717e6c4544694297c4ba5cf151d455c9bb0ed4fc7a38411bc0546191016109c7565b6000546001600160a01b03163314610b895760405162461bcd60e51b815260206004820152602a60248201527f476f7665726e6f72427261766f3a3a5f736574566f74696e6744656c61793a2060448201526961646d696e206f6e6c7960b01b6064820152608401610904565b60018110158015610b9c5750619d808111155b610c055760405162461bcd60e51b815260206004820152603460248201527f476f7665726e6f72427261766f3a3a5f736574566f74696e6744656c61793a20604482015273696e76616c696420766f74696e672064656c617960601b6064820152608401610904565b600380549082905560408051828152602081018490527fc565b045403dc03c2eea82b81a0465edad9e2e7fc4d97e11421c209da93d7a9391016109c7565b6060806060806000600a600087815260200190815260200160002090508060030181600401826005018360060183805480602002602001604051908101604052809291908181526020018280548015610cc557602002820191906000526020600020905b81546001600160a01b03168152600190910190602001808311610ca7575b5050505050935082805480602002602001604051908101604052809291908181526020018280548015610d1757602002820191906000526020600020905b815481526020019060010190808311610d03575b5050505050925081805480602002602001604051908101604052809291908181526020016000905b82821015610deb578382906000526020600020018054610d5e9061388e565b80601f0160208091040260200160405190810160405280929190818152602001828054610d8a9061388e565b8015610dd75780601f10610dac57610100808354040283529160200191610dd7565b820191906000526020600020905b815481529060010190602001808311610dba57829003601f168201915b505050505081526020019060010190610d3f565b50505050915080805480602002602001604051908101604052809291908181526020016000905b82821015610ebe578382906000526020600020018054610e319061388e565b80601f0160208091040260200160405190810160405280929190818152602001828054610e5d9061388e565b8015610eaa5780601f10610e7f57610100808354040283529160200191610eaa565b820191906000526020600020905b815481529060010190602001808311610e8d57829003601f168201915b505050505081526020019060010190610e12565b5050505090509450945094509450509193509193565b604080518082018252601281527144464820476f7665726e6f7220427261766f60701b60209182015281517f8cad95687ba82c2ce50e74f7b754645e5117c3a5bec8151c0726d5857980a866818301527fab90ebd86f4e7b59de9def3b3a1843f9734e3d457608d13990d7511aae69207781840152466060820152306080808301919091528351808303909101815260a0820184528051908301207f150214d74d59b7d1e90c73fc22ef3d991dd0a76b046543d4d80ab92d2a50328f60c083015260e0820189905260ff8816610100808401919091528451808403909101815261012083019094528351939092019290922061190160f01b6101408401526101428301829052610162830181905290916000906101820160408051601f198184030181528282528051602091820120600080855291840180845281905260ff8a169284019290925260608301889052608083018790529092509060019060a0016020604051602081039080840390855afa158015611056573d6000803e3d6000fd5b5050604051601f1901519150506001600160a01b0381166110d15760405162461bcd60e51b815260206004820152602f60248201527f476f7665726e6f72427261766f3a3a63617374566f746542795369673a20696e60448201526e76616c6964207369676e617475726560881b6064820152608401610904565b806001600160a01b03167fb8e138887d0aa13bab447e82de9d5c1777041ecd21ca36ba824ff1e6c07ddda48a8a611109858e8e612720565b6040805193845260ff90921660208401526001600160601b03169082015260806060820181905260009082015260a00160405180910390a2505050505050505050565b60008160075410158015611161575060065482115b6111bf5760405162461bcd60e51b815260206004820152602960248201527f476f7665726e6f72427261766f3a3a73746174653a20696e76616c69642070726044820152681bdc1bdcd85b081a5960ba1b6064820152608401610904565b6000828152600a60205260409020600c81015460ff16156111e35750600292915050565b806007015443116111f75750600092915050565b8060080154431161120b5750600192915050565b80600a0154816009015411158061122f57506954b40b1f852bda0000008160090154105b1561123d5750600392915050565b600281015461124f5750600492915050565b600c810154610100900460ff161561126a5750600792915050565b600860009054906101000a90046001600160a01b03166001600160a01b031663c1a287e26040518163ffffffff1660e01b815260040160206040518083038186803b1580156112b857600080fd5b505afa1580156112cc573d6000803e3d6000fd5b505050506040513d601f19601f820116820180604052508101906112f09190613226565b81600201546112ff919061382f565b421061130e5750600692915050565b50600592915050565b50919050565b60076113288261114c565b6007811115611339576113396138f4565b14156113a65760405162461bcd60e51b815260206004820152603660248201527f476f7665726e6f72427261766f3a3a63616e63656c3a2063616e6e6f742063616044820152751b98d95b08195e1958dd5d1959081c1c9bdc1bdcd85b60521b6064820152608401610904565b6000818152600a6020526040902060018101546001600160a01b031633148061147c57506005546009546001838101546001600160a01b039283169263782d6fe1929116906113f59043613847565b6040516001600160e01b031960e085901b1681526001600160a01b039092166004830152602482015260440160206040518083038186803b15801561143957600080fd5b505afa15801561144d573d6000803e3d6000fd5b505050506040513d601f19601f8201168201806040525081019061147191906133f3565b6001600160601b0316105b6114e05760405162461bcd60e51b815260206004820152602f60248201527f476f7665726e6f72427261766f3a3a63616e63656c3a2070726f706f7365722060448201526e18589bdd99481d1a1c995cda1bdb19608a1b6064820152608401610904565b600c8101805460ff1916600117905560005b600382015481101561160b576008546003830180546001600160a01b039092169163591fcdfe91908490811061152a5761152a61390a565b6000918252602090912001546004850180546001600160a01b0390921691859081106115585761155861390a565b90600052602060002001548560050185815481106115785761157861390a565b906000526020600020018660060186815481106115975761159761390a565b9060005260206000200187600201546040518663ffffffff1660e01b81526004016115c69594939291906135fe565b600060405180830381600087803b1580156115e057600080fd5b505af11580156115f4573d6000803e3d6000fd5b505050508080611603906138c3565b9150506114f2565b506040518281527f789cf55be980739dad1d0699b93b58e806b51c9d96619bfa8fe0a28abaa7b30c906020016109c7565b337fb8e138887d0aa13bab447e82de9d5c1777041ecd21ca36ba824ff1e6c07ddda4838361166b848383612720565b6040805193845260ff90921660208401526001600160601b03169082015260806060820181905260009082015260a00160405180910390a25050565b337fb8e138887d0aa13bab447e82de9d5c1777041ecd21ca36ba824ff1e6c07ddda485856116d6848383612720565b86866040516116e9959493929190613762565b60405180910390a250505050565b6000546001600160a01b031633146117645760405162461bcd60e51b815260206004820152602a60248201527f476f7665726e6f72427261766f3a5f73657450656e64696e6741646d696e3a2060448201526961646d696e206f6e6c7960b01b6064820152608401610904565b600180546001600160a01b038381166001600160a01b031983168117909355604080519190921680825260208201939093527fca4f2f25d0898edd99413412fb94012f9e54ec8142f9b093e7720646a95b16a991016109c7565b6008546001600160a01b0316156118335760405162461bcd60e51b815260206004820152603360248201527f476f7665726e6f72427261766f3a3a696e697469616c697a653a2063616e206f6044820152726e6c7920696e697469616c697a65206f6e636560681b6064820152608401610904565b6001600160a01b0385166118935760405162461bcd60e51b8152602060048201526033602482015260008051602061393783398151915260448201527269642074696d656c6f636b206164647265737360681b6064820152608401610904565b6001600160a01b0384166118fd5760405162461bcd60e51b815260206004820152603b602482015260008051602061393783398151915260448201527f696420676f7665726e616e636520746f6b656e206164647265737300000000006064820152608401610904565b6116808310158015611912575062013b008311155b6119655760405162461bcd60e51b8152602060048201526030602482015260008051602061393783398151915260448201526f1a59081d9bdd1a5b99c81c195c9a5bd960821b6064820152608401610904565b600182101580156119785750619d808211155b6119ca5760405162461bcd60e51b815260206004820152602f602482015260008051602061393783398151915260448201526e696420766f74696e672064656c617960881b6064820152608401610904565b690a968163f0a57b40000081101580156119ee575069152d02c7e14af68000008111155b611a465760405162461bcd60e51b815260206004820152603560248201526000805160206139378339815191526044820152741a59081c1c9bdc1bdcd85b081d1a1c995cda1bdb19605a1b6064820152608401610904565b600080546001600160a01b039687166001600160a01b031991821681179092556008805482169092179091556009805495909616941693909317909355600455600391909155600555565b600060065460001415611b005760405162461bcd60e51b815260206004820152603160248201527f476f7665726e6f72427261766f3a3a70726f706f73653a20476f7665726e6f7260448201527020427261766f206e6f742061637469766560781b6064820152608401610904565b6005546009546001600160a01b031663782d6fe133611b20600143613847565b6040516001600160e01b031960e085901b1681526001600160a01b039092166004830152602482015260440160206040518083038186803b158015611b6457600080fd5b505afa158015611b78573d6000803e3d6000fd5b505050506040513d601f19601f82011682018060405250810190611b9c91906133f3565b6001600160601b031611611c185760405162461bcd60e51b815260206004820152603f60248201527f476f7665726e6f72427261766f3a3a70726f706f73653a2070726f706f73657260448201527f20766f7465732062656c6f772070726f706f73616c207468726573686f6c64006064820152608401610904565b84518651148015611c2a575083518651145b8015611c37575082518651145b611cb75760405162461bcd60e51b8152602060048201526044602482018190527f476f7665726e6f72427261766f3a3a70726f706f73653a2070726f706f73616c908201527f2066756e6374696f6e20696e666f726d6174696f6e206172697479206d69736d6064820152630c2e8c6d60e31b608482015260a401610904565b8551611d1a5760405162461bcd60e51b815260206004820152602c60248201527f476f7665726e6f72427261766f3a3a70726f706f73653a206d7573742070726f60448201526b7669646520616374696f6e7360a01b6064820152608401610904565b600a86511115611d7d5760405162461bcd60e51b815260206004820152602860248201527f476f7665726e6f72427261766f3a3a70726f706f73653a20746f6f206d616e7960448201526720616374696f6e7360c01b6064820152608401610904565b336000908152600b60205260409020548015611efe576000611d9e8261114c565b90506001816007811115611db457611db46138f4565b1415611e4e5760405162461bcd60e51b815260206004820152605860248201527f476f7665726e6f72427261766f3a3a70726f706f73653a206f6e65206c69766560448201527f2070726f706f73616c207065722070726f706f7365722c20666f756e6420616e60648201527f20616c7265616479206163746976652070726f706f73616c0000000000000000608482015260a401610904565b6000816007811115611e6257611e626138f4565b1415611efc5760405162461bcd60e51b815260206004820152605960248201527f476f7665726e6f72427261766f3a3a70726f706f73653a206f6e65206c69766560448201527f2070726f706f73616c207065722070726f706f7365722c20666f756e6420616e60648201527f20616c72656164792070656e64696e672070726f706f73616c00000000000000608482015260a401610904565b505b600060035443611f0e919061382f565b9050600060045482611f20919061382f565b600780549192506000611f32836138c3565b90915550506007546000818152600a602090815260409091209182556001820180546001600160a01b031916331790558a51611f76916003840191908d0190612be9565b508851611f8c90600483019060208c0190612c4e565b508751611fa290600583019060208b0190612c89565b508651611fb890600683019060208a0190612ce2565b508281600701819055508181600801819055508060000154600b60008360010160009054906101000a90046001600160a01b03166001600160a01b03166001600160a01b03168152602001908152602001600020819055507f7d84a6263ae0d98d3329bd7b46bb4e8d6f98cd35a7adb45c274c8b7fd5ebd5e08160000154338c8c8c8c89898e604051612053999897969594939291906136ca565b60405180910390a1549998505050505050505050565b60046120748261114c565b6007811115612085576120856138f4565b146121065760405162461bcd60e51b8152602060048201526044602482018190527f476f7665726e6f72427261766f3a3a71756575653a2070726f706f73616c2063908201527f616e206f6e6c79206265207175657565642069662069742069732073756363656064820152631959195960e21b608482015260a401610904565b6000818152600a602090815260408083206008548251630d48571f60e31b815292519194936001600160a01b0390911692636a42b8f89260048083019392829003018186803b15801561215857600080fd5b505afa15801561216c573d6000803e3d6000fd5b505050506040513d601f19601f820116820180604052508101906121909190613226565b61219a904261382f565b905060005b6003830154811015612364576123528360030182815481106121c3576121c361390a565b6000918252602090912001546004850180546001600160a01b0390921691849081106121f1576121f161390a565b90600052602060002001548560050184815481106122115761221161390a565b9060005260206000200180546122269061388e565b80601f01602080910402602001604051908101604052809291908181526020018280546122529061388e565b801561229f5780601f106122745761010080835404028352916020019161229f565b820191906000526020600020905b81548152906001019060200180831161228257829003601f168201915b50505050508660060185815481106122b9576122b961390a565b9060005260206000200180546122ce9061388e565b80601f01602080910402602001604051908101604052809291908181526020018280546122fa9061388e565b80156123475780601f1061231c57610100808354040283529160200191612347565b820191906000526020600020905b81548152906001019060200180831161232a57829003601f168201915b505050505086612a14565b8061235c816138c3565b91505061219f565b506002820181905560408051848152602081018390527f9a2e42fd6722813d69113e7d0079d3d940171428df7373df9c7f7617cfda2892910160405180910390a1505050565b6001546001600160a01b0316331480156123c357503315155b6124265760405162461bcd60e51b815260206004820152602e60248201527f476f7665726e6f72427261766f3a5f61636365707441646d696e3a2070656e6460448201526d696e672061646d696e206f6e6c7960901b6064820152608401610904565b60008054600180546001600160a01b038082166001600160a01b031980861682179096559490911690915560408051919092168082526020820184905292917ff9ffabca9c8276e99321725bcb43fb076a6c66a54b7f21c4e8146d8519b417dc910160405180910390a1600154604080516001600160a01b03808516825290921660208301527fca4f2f25d0898edd99413412fb94012f9e54ec8142f9b093e7720646a95b16a991016109c7565b60056124df8261114c565b60078111156124f0576124f06138f4565b146125715760405162461bcd60e51b815260206004820152604560248201527f476f7665726e6f72427261766f3a3a657865637574653a2070726f706f73616c60448201527f2063616e206f6e6c7920626520657865637574656420696620697420697320716064820152641d595d595960da1b608482015260a401610904565b6000818152600a60205260408120600c8101805461ff001916610100179055905b60038201548110156126ef576008546004830180546001600160a01b0390921691630825f38f9190849081106125ca576125ca61390a565b90600052602060002001548460030184815481106125ea576125ea61390a565b6000918252602090912001546004860180546001600160a01b0390921691869081106126185761261861390a565b90600052602060002001548660050186815481106126385761263861390a565b906000526020600020018760060187815481106126575761265761390a565b9060005260206000200188600201546040518763ffffffff1660e01b81526004016126869594939291906135fe565b6000604051808303818588803b15801561269f57600080fd5b505af11580156126b3573d6000803e3d6000fd5b50505050506040513d6000823e601f3d908101601f191682016040526126dc919081019061323f565b50806126e7816138c3565b915050612592565b506040518281527f712ae1383f79ac853f8d882153778e0260ef8f03b504e2866e0593e04d2b291f906020016109c7565b6000600161272d8461114c565b600781111561273e5761273e6138f4565b146127a55760405162461bcd60e51b815260206004820152603160248201527f476f7665726e6f72427261766f3a3a63617374566f7465496e7465726e616c3a604482015270081d9bdd1a5b99c81a5cc818db1bdcd959607a1b6064820152608401610904565b60028260ff1611156128145760405162461bcd60e51b815260206004820152603260248201527f476f7665726e6f72427261766f3a3a63617374566f7465496e7465726e616c3a60448201527120696e76616c696420766f7465207479706560701b6064820152608401610904565b6000838152600a602090815260408083206001600160a01b0388168452600d8101909252909120805460ff16156128aa5760405162461bcd60e51b815260206004820152603460248201527f476f7665726e6f72427261766f3a3a63617374566f7465496e7465726e616c3a604482015273081d9bdd195c88185b1c9958591e481d9bdd195960621b6064820152608401610904565b600954600783015460405163782d6fe160e01b81526000926001600160a01b03169163782d6fe1916128f4918b916004016001600160a01b03929092168252602082015260400190565b60206040518083038186803b15801561290c57600080fd5b505afa158015612920573d6000803e3d6000fd5b505050506040513d601f19601f8201168201806040525081019061294491906133f3565b905060ff851661297157806001600160601b031683600a0154612967919061382f565b600a8401556129cb565b8460ff16600114156129a057806001600160601b03168360090154612996919061382f565b60098401556129cb565b8460ff16600214156129cb57806001600160601b031683600b01546129c5919061382f565b600b8401555b81546001600160601b03821662010000026dffffffffffffffffffffffff00001960ff88166101000261ffff199093169290921760011791909116179091559150509392505050565b6008546040516001600160a01b039091169063f2b0653790612a4290889088908890889088906020016135b2565b604051602081830303815290604052805190602001206040518263ffffffff1660e01b8152600401612a7691815260200190565b60206040518083038186803b158015612a8e57600080fd5b505afa158015612aa2573d6000803e3d6000fd5b505050506040513d601f19601f82011682018060405250810190612ac69190613204565b15612b575760405162461bcd60e51b815260206004820152605560248201527f476f7665726e6f72427261766f3a3a71756575654f72526576657274496e746560448201527f726e616c3a206964656e746963616c2070726f706f73616c20616374696f6e20606482015274616c7265616479207175657565642061742065746160581b608482015260a401610904565b600854604051633a66f90160e01b81526001600160a01b0390911690633a66f90190612b8f90889088908890889088906004016135b2565b602060405180830381600087803b158015612ba957600080fd5b505af1158015612bbd573d6000803e3d6000fd5b505050506040513d601f19601f82011682018060405250810190612be19190613226565b505050505050565b828054828255906000526020600020908101928215612c3e579160200282015b82811115612c3e57825182546001600160a01b0319166001600160a01b03909116178255602090920191600190910190612c09565b50612c4a929150612d3b565b5090565b828054828255906000526020600020908101928215612c3e579160200282015b82811115612c3e578251825591602001919060010190612c6e565b828054828255906000526020600020908101928215612cd6579160200282015b82811115612cd65782518051612cc6918491602090910190612d50565b5091602001919060010190612ca9565b50612c4a929150612dc3565b828054828255906000526020600020908101928215612d2f579160200282015b82811115612d2f5782518051612d1f918491602090910190612d50565b5091602001919060010190612d02565b50612c4a929150612de0565b5b80821115612c4a5760008155600101612d3c565b828054612d5c9061388e565b90600052602060002090601f016020900481019282612d7e5760008555612c3e565b82601f10612d9757805160ff1916838001178555612c3e565b82800160010185558215612c3e5791820182811115612c3e578251825591602001919060010190612c6e565b80821115612c4a576000612dd78282612dfd565b50600101612dc3565b80821115612c4a576000612df48282612dfd565b50600101612de0565b508054612e099061388e565b6000825580601f10612e19575050565b601f016020900490600052602060002090810190612e379190612d3b565b50565b6000612e4d612e4884613807565b6137b2565b9050828152838383011115612e6157600080fd5b828260208301376000602084830101529392505050565b80356001600160a01b0381168114612e8f57600080fd5b919050565b600082601f830112612ea557600080fd5b81356020612eb5612e48836137e3565b80838252828201915082860187848660051b8901011115612ed557600080fd5b60005b85811015612efb57612ee982612e78565b84529284019290840190600101612ed8565b5090979650505050505050565b600082601f830112612f1957600080fd5b81356020612f29612e48836137e3565b80838252828201915082860187848660051b8901011115612f4957600080fd5b60005b85811015612efb57813567ffffffffffffffff811115612f6b57600080fd5b8801603f81018a13612f7c57600080fd5b612f8d8a8783013560408401612e3a565b8552509284019290840190600101612f4c565b600082601f830112612fb157600080fd5b81356020612fc1612e48836137e3565b80838252828201915082860187848660051b8901011115612fe157600080fd5b6000805b8681101561302457823567ffffffffffffffff811115613003578283fd5b6130118b88838d0101613092565b8652509385019391850191600101612fe5565b509198975050505050505050565b600082601f83011261304357600080fd5b81356020613053612e48836137e3565b80838252828201915082860187848660051b890101111561307357600080fd5b60005b85811015612efb57813584529284019290840190600101613076565b600082601f8301126130a357600080fd5b6130b283833560208501612e3a565b9392505050565b803560ff81168114612e8f57600080fd5b6000602082840312156130dc57600080fd5b6130b282612e78565b600080600080600060a086880312156130fd57600080fd5b61310686612e78565b945061311460208701612e78565b94979496505050506040830135926060810135926080909101359150565b600080600080600060a0868803121561314a57600080fd5b853567ffffffffffffffff8082111561316257600080fd5b61316e89838a01612e94565b9650602088013591508082111561318457600080fd5b61319089838a01613032565b955060408801359150808211156131a657600080fd5b6131b289838a01612fa0565b945060608801359150808211156131c857600080fd5b6131d489838a01612f08565b935060808801359150808211156131ea57600080fd5b506131f788828901613092565b9150509295509295909350565b60006020828403121561321657600080fd5b815180151581146130b257600080fd5b60006020828403121561323857600080fd5b5051919050565b60006020828403121561325157600080fd5b815167ffffffffffffffff81111561326857600080fd5b8201601f8101841361327957600080fd5b8051613287612e4882613807565b81815285602083850101111561329c57600080fd5b6132ad82602083016020860161385e565b95945050505050565b6000602082840312156132c857600080fd5b5035919050565b600080604083850312156132e257600080fd5b823591506132f260208401612e78565b90509250929050565b6000806040838503121561330e57600080fd5b823591506132f2602084016130b9565b6000806000806060858703121561333457600080fd5b84359350613344602086016130b9565b9250604085013567ffffffffffffffff8082111561336157600080fd5b818701915087601f83011261337557600080fd5b81358181111561338457600080fd5b88602082850101111561339657600080fd5b95989497505060200194505050565b600080600080600060a086880312156133bd57600080fd5b853594506133cd602087016130b9565b93506133db604087016130b9565b94979396509394606081013594506080013592915050565b60006020828403121561340557600080fd5b81516001600160601b03811681146130b257600080fd5b600081518084526020808501945080840160005b838110156134555781516001600160a01b031687529582019590820190600101613430565b509495945050505050565b600081518084526020808501808196508360051b8101915082860160005b858110156134a85782840389526134968483516134e5565b9885019893509084019060010161347e565b5091979650505050505050565b600081518084526020808501945080840160005b83811015613455578151875295820195908201906001016134c9565b600081518084526134fd81602086016020860161385e565b601f01601f19169290920160200192915050565b8054600090600181811c908083168061352b57607f831692505b602080841082141561354d57634e487b7160e01b600052602260045260246000fd5b8388528180156135645760018114613578576135a6565b60ff198616898301526040890196506135a6565b876000528160002060005b8681101561359e5781548b8201850152908501908301613583565b8a0183019750505b50505050505092915050565b60018060a01b038616815284602082015260a0604082015260006135d960a08301866134e5565b82810360608401526135eb81866134e5565b9150508260808301529695505050505050565b60018060a01b038616815284602082015260a06040820152600061362560a0830186613511565b82810360608401526135eb8186613511565b60808152600061364a608083018761341c565b828103602084015261365c81876134b5565b905082810360408401526136708186613460565b905082810360608401526136848185613460565b979650505050505050565b60208101600883106136b157634e487b7160e01b600052602160045260246000fd5b91905290565b6020815260006130b260208301846134e5565b8981526001600160a01b0389166020820152610120604082018190526000906136f58382018b61341c565b90508281036060840152613709818a6134b5565b9050828103608084015261371d8189613460565b905082810360a08401526137318188613460565b90508560c08401528460e084015282810361010084015261375281856134e5565b9c9b505050505050505050505050565b85815260ff851660208201526001600160601b038416604082015260806060820152816080820152818360a0830137600081830160a090810191909152601f909201601f19160101949350505050565b604051601f8201601f1916810167ffffffffffffffff811182821017156137db576137db613920565b604052919050565b600067ffffffffffffffff8211156137fd576137fd613920565b5060051b60200190565b600067ffffffffffffffff82111561382157613821613920565b50601f01601f191660200190565b60008219821115613842576138426138de565b500190565b600082821015613859576138596138de565b500390565b60005b83811015613879578181015183820152602001613861565b83811115613888576000848401525b50505050565b600181811c908216806138a257607f821691505b6020821081141561131757634e487b7160e01b600052602260045260246000fd5b60006000198214156138d7576138d76138de565b5060010190565b634e487b7160e01b600052601160045260246000fd5b634e487b7160e01b600052602160045260246000fd5b634e487b7160e01b600052603260045260246000fd5b634e487b7160e01b600052604160045260246000fdfe476f7665726e6f72427261766f3a3a696e697469616c697a653a20696e76616ca26469706673582212201f8e4b760d91a3c4e3193aa2597ce765bf331e5a320910dbf4acb7accd602c1764736f6c63430008060033",
          "opcodes": "PUSH1 0x80 PUSH1 0x40 MSTORE CALLVALUE DUP1 ISZERO PUSH2 0x10 JUMPI PUSH1 0x0 DUP1 REVERT JUMPDEST POP PUSH2 0x398C DUP1 PUSH2 0x20 PUSH1 0x0 CODECOPY PUSH1 0x0 RETURN INVALID PUSH1 0x80 PUSH1 0x40 MSTORE PUSH1 0x4 CALLDATASIZE LT PUSH2 0x230 JUMPI PUSH1 0x0 CALLDATALOAD PUSH1 0xE0 SHR DUP1 PUSH4 0x791F5D23 GT PUSH2 0x12E JUMPI DUP1 PUSH4 0xDA95691A GT PUSH2 0xAB JUMPI DUP1 PUSH4 0xE9C714F2 GT PUSH2 0x6F JUMPI DUP1 PUSH4 0xE9C714F2 EQ PUSH2 0x81C JUMPI DUP1 PUSH4 0xF851A440 EQ PUSH2 0x831 JUMPI DUP1 PUSH4 0xF96DAE0A EQ PUSH2 0x851 JUMPI DUP1 PUSH4 0xFC4EEE42 EQ PUSH2 0x871 JUMPI DUP1 PUSH4 0xFE0D94C1 EQ PUSH2 0x887 JUMPI PUSH1 0x0 DUP1 REVERT JUMPDEST DUP1 PUSH4 0xDA95691A EQ PUSH2 0x6C9 JUMPI DUP1 PUSH4 0xDDF0B009 EQ PUSH2 0x6E9 JUMPI DUP1 PUSH4 0xDEAAA7CC EQ PUSH2 0x709 JUMPI DUP1 PUSH4 0xE23A9A52 EQ PUSH2 0x73D JUMPI DUP1 PUSH4 0xE48083FE EQ PUSH2 0x807 JUMPI PUSH1 0x0 DUP1 REVERT JUMPDEST DUP1 PUSH4 0xB58131B0 GT PUSH2 0xF2 JUMPI DUP1 PUSH4 0xB58131B0 EQ PUSH2 0x63D JUMPI DUP1 PUSH4 0xB71D1A0C EQ PUSH2 0x653 JUMPI DUP1 PUSH4 0xD13F90B4 EQ PUSH2 0x673 JUMPI DUP1 PUSH4 0xD33219B4 EQ PUSH2 0x693 JUMPI DUP1 PUSH4 0xDA35C664 EQ PUSH2 0x6B3 JUMPI PUSH1 0x0 DUP1 REVERT JUMPDEST DUP1 PUSH4 0x791F5D23 EQ PUSH2 0x5BD JUMPI DUP1 PUSH4 0x7B3C71D3 EQ PUSH2 0x5DB JUMPI DUP1 PUSH4 0x7BDBE4D0 EQ PUSH2 0x5FB JUMPI DUP1 PUSH4 0xA64E024A EQ PUSH2 0x610 JUMPI DUP1 PUSH4 0xB1126263 EQ PUSH2 0x627 JUMPI PUSH1 0x0 DUP1 REVERT JUMPDEST DUP1 PUSH4 0x24BC1A64 GT PUSH2 0x1BC JUMPI DUP1 PUSH4 0x3BCCF4FD GT PUSH2 0x180 JUMPI DUP1 PUSH4 0x3BCCF4FD EQ PUSH2 0x510 JUMPI DUP1 PUSH4 0x3E4F49E6 EQ PUSH2 0x530 JUMPI DUP1 PUSH4 0x40E58EE5 EQ PUSH2 0x55D JUMPI DUP1 PUSH4 0x56781388 EQ PUSH2 0x57D JUMPI DUP1 PUSH4 0x5C60DA1B EQ PUSH2 0x59D JUMPI PUSH1 0x0 DUP1 REVERT JUMPDEST DUP1 PUSH4 0x24BC1A64 EQ PUSH2 0x456 JUMPI DUP1 PUSH4 0x25FD935A EQ PUSH2 0x474 JUMPI DUP1 PUSH4 0x26782247 EQ PUSH2 0x492 JUMPI DUP1 PUSH4 0x328DD982 EQ PUSH2 0x4CA JUMPI DUP1 PUSH4 0x3932ABB1 EQ PUSH2 0x4FA JUMPI PUSH1 0x0 DUP1 REVERT JUMPDEST DUP1 PUSH4 0x17977C61 GT PUSH2 0x203 JUMPI DUP1 PUSH4 0x17977C61 EQ PUSH2 0x39F JUMPI DUP1 PUSH4 0x17BA1B8B EQ PUSH2 0x3CC JUMPI DUP1 PUSH4 0x1DFB1B5A EQ PUSH2 0x3EC JUMPI DUP1 PUSH4 0x20606B70 EQ PUSH2 0x40C JUMPI DUP1 PUSH4 0x215809CA EQ PUSH2 0x440 JUMPI PUSH1 0x0 DUP1 REVERT JUMPDEST DUP1 PUSH4 0x13CF08B EQ PUSH2 0x235 JUMPI DUP1 PUSH4 0x2A251A3 EQ PUSH2 0x30E JUMPI DUP1 PUSH4 0x6FDDE03 EQ PUSH2 0x332 JUMPI DUP1 PUSH4 0xEA2D98C EQ PUSH2 0x37D JUMPI JUMPDEST PUSH1 0x0 DUP1 REVERT JUMPDEST CALLVALUE DUP1 ISZERO PUSH2 0x241 JUMPI PUSH1 0x0 DUP1 REVERT JUMPDEST POP PUSH2 0x2B3 PUSH2 0x250 CALLDATASIZE PUSH1 0x4 PUSH2 0x32B6 JUMP JUMPDEST PUSH1 0xA PUSH1 0x20 DUP2 SWAP1 MSTORE PUSH1 0x0 SWAP2 DUP3 MSTORE PUSH1 0x40 SWAP1 SWAP2 KECCAK256 DUP1 SLOAD PUSH1 0x1 DUP3 ADD SLOAD PUSH1 0x2 DUP4 ADD SLOAD PUSH1 0x7 DUP5 ADD SLOAD PUSH1 0x8 DUP6 ADD SLOAD PUSH1 0x9 DUP7 ADD SLOAD SWAP7 DUP7 ADD SLOAD PUSH1 0xB DUP8 ADD SLOAD PUSH1 0xC SWAP1 SWAP8 ADD SLOAD SWAP6 SWAP8 PUSH1 0x1 PUSH1 0x1 PUSH1 0xA0 SHL SUB SWAP1 SWAP6 AND SWAP7 SWAP4 SWAP6 SWAP3 SWAP5 SWAP2 SWAP4 SWAP2 SWAP3 SWAP1 SWAP2 SWAP1 PUSH1 0xFF DUP1 DUP3 AND SWAP2 PUSH2 0x100 SWAP1 DIV AND DUP11 JUMP JUMPDEST PUSH1 0x40 DUP1 MLOAD SWAP11 DUP12 MSTORE PUSH1 0x1 PUSH1 0x1 PUSH1 0xA0 SHL SUB SWAP1 SWAP10 AND PUSH1 0x20 DUP12 ADD MSTORE SWAP8 DUP10 ADD SWAP7 SWAP1 SWAP7 MSTORE PUSH1 0x60 DUP9 ADD SWAP5 SWAP1 SWAP5 MSTORE PUSH1 0x80 DUP8 ADD SWAP3 SWAP1 SWAP3 MSTORE PUSH1 0xA0 DUP7 ADD MSTORE PUSH1 0xC0 DUP6 ADD MSTORE PUSH1 0xE0 DUP5 ADD MSTORE ISZERO ISZERO PUSH2 0x100 DUP4 ADD MSTORE ISZERO ISZERO PUSH2 0x120 DUP3 ADD MSTORE PUSH2 0x140 ADD JUMPDEST PUSH1 0x40 MLOAD DUP1 SWAP2 SUB SWAP1 RETURN JUMPDEST CALLVALUE DUP1 ISZERO PUSH2 0x31A JUMPI PUSH1 0x0 DUP1 REVERT JUMPDEST POP PUSH2 0x324 PUSH1 0x4 SLOAD DUP2 JUMP JUMPDEST PUSH1 0x40 MLOAD SWAP1 DUP2 MSTORE PUSH1 0x20 ADD PUSH2 0x305 JUMP JUMPDEST CALLVALUE DUP1 ISZERO PUSH2 0x33E JUMPI PUSH1 0x0 DUP1 REVERT JUMPDEST POP PUSH2 0x370 PUSH1 0x40 MLOAD DUP1 PUSH1 0x40 ADD PUSH1 0x40 MSTORE DUP1 PUSH1 0x12 DUP2 MSTORE PUSH1 0x20 ADD PUSH18 0x44464820476F7665726E6F7220427261766F PUSH1 0x70 SHL DUP2 MSTORE POP DUP2 JUMP JUMPDEST PUSH1 0x40 MLOAD PUSH2 0x305 SWAP2 SWAP1 PUSH2 0x36B7 JUMP JUMPDEST CALLVALUE DUP1 ISZERO PUSH2 0x389 JUMPI PUSH1 0x0 DUP1 REVERT JUMPDEST POP PUSH2 0x39D PUSH2 0x398 CALLDATASIZE PUSH1 0x4 PUSH2 0x32B6 JUMP JUMPDEST PUSH2 0x89A JUMP JUMPDEST STOP JUMPDEST CALLVALUE DUP1 ISZERO PUSH2 0x3AB JUMPI PUSH1 0x0 DUP1 REVERT JUMPDEST POP PUSH2 0x324 PUSH2 0x3BA CALLDATASIZE PUSH1 0x4 PUSH2 0x30CA JUMP JUMPDEST PUSH1 0xB PUSH1 0x20 MSTORE PUSH1 0x0 SWAP1 DUP2 MSTORE PUSH1 0x40 SWAP1 KECCAK256 SLOAD DUP2 JUMP JUMPDEST CALLVALUE DUP1 ISZERO PUSH2 0x3D8 JUMPI PUSH1 0x0 DUP1 REVERT JUMPDEST POP PUSH2 0x39D PUSH2 0x3E7 CALLDATASIZE PUSH1 0x4 PUSH2 0x32B6 JUMP JUMPDEST PUSH2 0x9D3 JUMP JUMPDEST CALLVALUE DUP1 ISZERO PUSH2 0x3F8 JUMPI PUSH1 0x0 DUP1 REVERT JUMPDEST POP PUSH2 0x39D PUSH2 0x407 CALLDATASIZE PUSH1 0x4 PUSH2 0x32B6 JUMP JUMPDEST PUSH2 0xB1C JUMP JUMPDEST CALLVALUE DUP1 ISZERO PUSH2 0x418 JUMPI PUSH1 0x0 DUP1 REVERT JUMPDEST POP PUSH2 0x324 PUSH32 0x8CAD95687BA82C2CE50E74F7B754645E5117C3A5BEC8151C0726D5857980A866 DUP2 JUMP JUMPDEST CALLVALUE DUP1 ISZERO PUSH2 0x44C JUMPI PUSH1 0x0 DUP1 REVERT JUMPDEST POP PUSH2 0x324 PUSH2 0x1680 DUP2 JUMP JUMPDEST CALLVALUE DUP1 ISZERO PUSH2 0x462 JUMPI PUSH1 0x0 DUP1 REVERT JUMPDEST POP PUSH2 0x324 PUSH10 0x54B40B1F852BDA000000 DUP2 JUMP JUMPDEST CALLVALUE DUP1 ISZERO PUSH2 0x480 JUMPI PUSH1 0x0 DUP1 REVERT JUMPDEST POP PUSH2 0x324 PUSH10 0x152D02C7E14AF6800000 DUP2 JUMP JUMPDEST CALLVALUE DUP1 ISZERO PUSH2 0x49E JUMPI PUSH1 0x0 DUP1 REVERT JUMPDEST POP PUSH1 0x1 SLOAD PUSH2 0x4B2 SWAP1 PUSH1 0x1 PUSH1 0x1 PUSH1 0xA0 SHL SUB AND DUP2 JUMP JUMPDEST PUSH1 0x40 MLOAD PUSH1 0x1 PUSH1 0x1 PUSH1 0xA0 SHL SUB SWAP1 SWAP2 AND DUP2 MSTORE PUSH1 0x20 ADD PUSH2 0x305 JUMP JUMPDEST CALLVALUE DUP1 ISZERO PUSH2 0x4D6 JUMPI PUSH1 0x0 DUP1 REVERT JUMPDEST POP PUSH2 0x4EA PUSH2 0x4E5 CALLDATASIZE PUSH1 0x4 PUSH2 0x32B6 JUMP JUMPDEST PUSH2 0xC43 JUMP JUMPDEST PUSH1 0x40 MLOAD PUSH2 0x305 SWAP5 SWAP4 SWAP3 SWAP2 SWAP1 PUSH2 0x3637 JUMP JUMPDEST CALLVALUE DUP1 ISZERO PUSH2 0x506 JUMPI PUSH1 0x0 DUP1 REVERT JUMPDEST POP PUSH2 0x324 PUSH1 0x3 SLOAD DUP2 JUMP JUMPDEST CALLVALUE DUP1 ISZERO PUSH2 0x51C JUMPI PUSH1 0x0 DUP1 REVERT JUMPDEST POP PUSH2 0x39D PUSH2 0x52B CALLDATASIZE PUSH1 0x4 PUSH2 0x33A5 JUMP JUMPDEST PUSH2 0xED4 JUMP JUMPDEST CALLVALUE DUP1 ISZERO PUSH2 0x53C JUMPI PUSH1 0x0 DUP1 REVERT JUMPDEST POP PUSH2 0x550 PUSH2 0x54B CALLDATASIZE PUSH1 0x4 PUSH2 0x32B6 JUMP JUMPDEST PUSH2 0x114C JUMP JUMPDEST PUSH1 0x40 MLOAD PUSH2 0x305 SWAP2 SWAP1 PUSH2 0x368F JUMP JUMPDEST CALLVALUE DUP1 ISZERO PUSH2 0x569 JUMPI PUSH1 0x0 DUP1 REVERT JUMPDEST POP PUSH2 0x39D PUSH2 0x578 CALLDATASIZE PUSH1 0x4 PUSH2 0x32B6 JUMP JUMPDEST PUSH2 0x131D JUMP JUMPDEST CALLVALUE DUP1 ISZERO PUSH2 0x589 JUMPI PUSH1 0x0 DUP1 REVERT JUMPDEST POP PUSH2 0x39D PUSH2 0x598 CALLDATASIZE PUSH1 0x4 PUSH2 0x32FB JUMP JUMPDEST PUSH2 0x163C JUMP JUMPDEST CALLVALUE DUP1 ISZERO PUSH2 0x5A9 JUMPI PUSH1 0x0 DUP1 REVERT JUMPDEST POP PUSH1 0x2 SLOAD PUSH2 0x4B2 SWAP1 PUSH1 0x1 PUSH1 0x1 PUSH1 0xA0 SHL SUB AND DUP2 JUMP JUMPDEST CALLVALUE DUP1 ISZERO PUSH2 0x5C9 JUMPI PUSH1 0x0 DUP1 REVERT JUMPDEST POP PUSH2 0x324 PUSH10 0xA968163F0A57B400000 DUP2 JUMP JUMPDEST CALLVALUE DUP1 ISZERO PUSH2 0x5E7 JUMPI PUSH1 0x0 DUP1 REVERT JUMPDEST POP PUSH2 0x39D PUSH2 0x5F6 CALLDATASIZE PUSH1 0x4 PUSH2 0x331E JUMP JUMPDEST PUSH2 0x16A7 JUMP JUMPDEST CALLVALUE DUP1 ISZERO PUSH2 0x607 JUMPI PUSH1 0x0 DUP1 REVERT JUMPDEST POP PUSH2 0x324 PUSH1 0xA DUP2 JUMP JUMPDEST CALLVALUE DUP1 ISZERO PUSH2 0x61C JUMPI PUSH1 0x0 DUP1 REVERT JUMPDEST POP PUSH2 0x324 PUSH3 0x13B00 DUP2 JUMP JUMPDEST CALLVALUE DUP1 ISZERO PUSH2 0x633 JUMPI PUSH1 0x0 DUP1 REVERT JUMPDEST POP PUSH2 0x324 PUSH2 0x9D80 DUP2 JUMP JUMPDEST CALLVALUE DUP1 ISZERO PUSH2 0x649 JUMPI PUSH1 0x0 DUP1 REVERT JUMPDEST POP PUSH2 0x324 PUSH1 0x5 SLOAD DUP2 JUMP JUMPDEST CALLVALUE DUP1 ISZERO PUSH2 0x65F JUMPI PUSH1 0x0 DUP1 REVERT JUMPDEST POP PUSH2 0x39D PUSH2 0x66E CALLDATASIZE PUSH1 0x4 PUSH2 0x30CA JUMP JUMPDEST PUSH2 0x16F7 JUMP JUMPDEST CALLVALUE DUP1 ISZERO PUSH2 0x67F JUMPI PUSH1 0x0 DUP1 REVERT JUMPDEST POP PUSH2 0x39D PUSH2 0x68E CALLDATASIZE PUSH1 0x4 PUSH2 0x30E5 JUMP JUMPDEST PUSH2 0x17BE JUMP JUMPDEST CALLVALUE DUP1 ISZERO PUSH2 0x69F JUMPI PUSH1 0x0 DUP1 REVERT JUMPDEST POP PUSH1 0x8 SLOAD PUSH2 0x4B2 SWAP1 PUSH1 0x1 PUSH1 0x1 PUSH1 0xA0 SHL SUB AND DUP2 JUMP JUMPDEST CALLVALUE DUP1 ISZERO PUSH2 0x6BF JUMPI PUSH1 0x0 DUP1 REVERT JUMPDEST POP PUSH2 0x324 PUSH1 0x7 SLOAD DUP2 JUMP JUMPDEST CALLVALUE DUP1 ISZERO PUSH2 0x6D5 JUMPI PUSH1 0x0 DUP1 REVERT JUMPDEST POP PUSH2 0x324 PUSH2 0x6E4 CALLDATASIZE PUSH1 0x4 PUSH2 0x3132 JUMP JUMPDEST PUSH2 0x1A91 JUMP JUMPDEST CALLVALUE DUP1 ISZERO PUSH2 0x6F5 JUMPI PUSH1 0x0 DUP1 REVERT JUMPDEST POP PUSH2 0x39D PUSH2 0x704 CALLDATASIZE PUSH1 0x4 PUSH2 0x32B6 JUMP JUMPDEST PUSH2 0x2069 JUMP JUMPDEST CALLVALUE DUP1 ISZERO PUSH2 0x715 JUMPI PUSH1 0x0 DUP1 REVERT JUMPDEST POP PUSH2 0x324 PUSH32 0x150214D74D59B7D1E90C73FC22EF3D991DD0A76B046543D4D80AB92D2A50328F DUP2 JUMP JUMPDEST CALLVALUE DUP1 ISZERO PUSH2 0x749 JUMPI PUSH1 0x0 DUP1 REVERT JUMPDEST POP PUSH2 0x7D7 PUSH2 0x758 CALLDATASIZE PUSH1 0x4 PUSH2 0x32CF JUMP JUMPDEST PUSH1 0x40 DUP1 MLOAD PUSH1 0x60 DUP2 ADD DUP3 MSTORE PUSH1 0x0 DUP1 DUP3 MSTORE PUSH1 0x20 DUP3 ADD DUP2 SWAP1 MSTORE SWAP2 DUP2 ADD SWAP2 SWAP1 SWAP2 MSTORE POP PUSH1 0x0 SWAP2 DUP3 MSTORE PUSH1 0xA PUSH1 0x20 SWAP1 DUP2 MSTORE PUSH1 0x40 DUP1 DUP5 KECCAK256 PUSH1 0x1 PUSH1 0x1 PUSH1 0xA0 SHL SUB SWAP4 SWAP1 SWAP4 AND DUP5 MSTORE PUSH1 0xD SWAP1 SWAP3 ADD DUP2 MSTORE SWAP2 DUP2 SWAP1 KECCAK256 DUP2 MLOAD PUSH1 0x60 DUP2 ADD DUP4 MSTORE SWAP1 SLOAD PUSH1 0xFF DUP1 DUP3 AND ISZERO ISZERO DUP4 MSTORE PUSH2 0x100 DUP3 DIV AND SWAP4 DUP3 ADD SWAP4 SWAP1 SWAP4 MSTORE PUSH3 0x10000 SWAP1 SWAP3 DIV PUSH1 0x1 PUSH1 0x1 PUSH1 0x60 SHL SUB AND SWAP1 DUP3 ADD MSTORE SWAP1 JUMP JUMPDEST PUSH1 0x40 DUP1 MLOAD DUP3 MLOAD ISZERO ISZERO DUP2 MSTORE PUSH1 0x20 DUP1 DUP5 ADD MLOAD PUSH1 0xFF AND SWAP1 DUP3 ADD MSTORE SWAP2 DUP2 ADD MLOAD PUSH1 0x1 PUSH1 0x1 PUSH1 0x60 SHL SUB AND SWAP1 DUP3 ADD MSTORE PUSH1 0x60 ADD PUSH2 0x305 JUMP JUMPDEST CALLVALUE DUP1 ISZERO PUSH2 0x813 JUMPI PUSH1 0x0 DUP1 REVERT JUMPDEST POP PUSH2 0x324 PUSH1 0x1 DUP2 JUMP JUMPDEST CALLVALUE DUP1 ISZERO PUSH2 0x828 JUMPI PUSH1 0x0 DUP1 REVERT JUMPDEST POP PUSH2 0x39D PUSH2 0x23AA JUMP JUMPDEST CALLVALUE DUP1 ISZERO PUSH2 0x83D JUMPI PUSH1 0x0 DUP1 REVERT JUMPDEST POP PUSH1 0x0 SLOAD PUSH2 0x4B2 SWAP1 PUSH1 0x1 PUSH1 0x1 PUSH1 0xA0 SHL SUB AND DUP2 JUMP JUMPDEST CALLVALUE DUP1 ISZERO PUSH2 0x85D JUMPI PUSH1 0x0 DUP1 REVERT JUMPDEST POP PUSH1 0x9 SLOAD PUSH2 0x4B2 SWAP1 PUSH1 0x1 PUSH1 0x1 PUSH1 0xA0 SHL SUB AND DUP2 JUMP JUMPDEST CALLVALUE DUP1 ISZERO PUSH2 0x87D JUMPI PUSH1 0x0 DUP1 REVERT JUMPDEST POP PUSH2 0x324 PUSH1 0x6 SLOAD DUP2 JUMP JUMPDEST PUSH2 0x39D PUSH2 0x895 CALLDATASIZE PUSH1 0x4 PUSH2 0x32B6 JUMP JUMPDEST PUSH2 0x24D4 JUMP JUMPDEST PUSH1 0x0 SLOAD PUSH1 0x1 PUSH1 0x1 PUSH1 0xA0 SHL SUB AND CALLER EQ PUSH2 0x90D JUMPI PUSH1 0x40 MLOAD PUSH3 0x461BCD PUSH1 0xE5 SHL DUP2 MSTORE PUSH1 0x20 PUSH1 0x4 DUP3 ADD MSTORE PUSH1 0x2B PUSH1 0x24 DUP3 ADD MSTORE PUSH32 0x476F7665726E6F72427261766F3A3A5F736574566F74696E67506572696F643A PUSH1 0x44 DUP3 ADD MSTORE PUSH11 0x2061646D696E206F6E6C79 PUSH1 0xA8 SHL PUSH1 0x64 DUP3 ADD MSTORE PUSH1 0x84 ADD JUMPDEST PUSH1 0x40 MLOAD DUP1 SWAP2 SUB SWAP1 REVERT JUMPDEST PUSH2 0x1680 DUP2 LT ISZERO DUP1 ISZERO PUSH2 0x922 JUMPI POP PUSH3 0x13B00 DUP2 GT ISZERO JUMPDEST PUSH2 0x98D JUMPI PUSH1 0x40 MLOAD PUSH3 0x461BCD PUSH1 0xE5 SHL DUP2 MSTORE PUSH1 0x20 PUSH1 0x4 DUP3 ADD MSTORE PUSH1 0x36 PUSH1 0x24 DUP3 ADD MSTORE PUSH32 0x476F7665726E6F72427261766F3A3A5F736574566F74696E67506572696F643A PUSH1 0x44 DUP3 ADD MSTORE PUSH22 0x81A5B9D985B1A59081D9BDD1A5B99C81C195C9A5BD9 PUSH1 0x52 SHL PUSH1 0x64 DUP3 ADD MSTORE PUSH1 0x84 ADD PUSH2 0x904 JUMP JUMPDEST PUSH1 0x4 DUP1 SLOAD SWAP1 DUP3 SWAP1 SSTORE PUSH1 0x40 DUP1 MLOAD DUP3 DUP2 MSTORE PUSH1 0x20 DUP2 ADD DUP5 SWAP1 MSTORE PUSH32 0x7E3F7F0708A84DE9203036ABAA450DCCC85AD5FF52F78C170F3EDB55CF5E8828 SWAP2 ADD JUMPDEST PUSH1 0x40 MLOAD DUP1 SWAP2 SUB SWAP1 LOG1 POP POP JUMP JUMPDEST PUSH1 0x0 SLOAD PUSH1 0x1 PUSH1 0x1 PUSH1 0xA0 SHL SUB AND CALLER EQ PUSH2 0xA46 JUMPI PUSH1 0x40 MLOAD PUSH3 0x461BCD PUSH1 0xE5 SHL DUP2 MSTORE PUSH1 0x20 PUSH1 0x4 DUP3 ADD MSTORE PUSH1 0x30 PUSH1 0x24 DUP3 ADD MSTORE PUSH32 0x476F7665726E6F72427261766F3A3A5F73657450726F706F73616C5468726573 PUSH1 0x44 DUP3 ADD MSTORE PUSH16 0x686F6C643A2061646D696E206F6E6C79 PUSH1 0x80 SHL PUSH1 0x64 DUP3 ADD MSTORE PUSH1 0x84 ADD PUSH2 0x904 JUMP JUMPDEST PUSH10 0xA968163F0A57B400000 DUP2 LT ISZERO DUP1 ISZERO PUSH2 0xA6A JUMPI POP PUSH10 0x152D02C7E14AF6800000 DUP2 GT ISZERO JUMPDEST PUSH2 0xADE JUMPI PUSH1 0x40 DUP1 MLOAD PUSH3 0x461BCD PUSH1 0xE5 SHL DUP2 MSTORE PUSH1 0x20 PUSH1 0x4 DUP3 ADD MSTORE PUSH1 0x24 DUP2 ADD SWAP2 SWAP1 SWAP2 MSTORE PUSH32 0x476F7665726E6F72427261766F3A3A5F73657450726F706F73616C5468726573 PUSH1 0x44 DUP3 ADD MSTORE PUSH32 0x686F6C643A20696E76616C69642070726F706F73616C207468726573686F6C64 PUSH1 0x64 DUP3 ADD MSTORE PUSH1 0x84 ADD PUSH2 0x904 JUMP JUMPDEST PUSH1 0x5 DUP1 SLOAD SWAP1 DUP3 SWAP1 SSTORE PUSH1 0x40 DUP1 MLOAD DUP3 DUP2 MSTORE PUSH1 0x20 DUP2 ADD DUP5 SWAP1 MSTORE PUSH32 0xCCB45DA8D5717E6C4544694297C4BA5CF151D455C9BB0ED4FC7A38411BC05461 SWAP2 ADD PUSH2 0x9C7 JUMP JUMPDEST PUSH1 0x0 SLOAD PUSH1 0x1 PUSH1 0x1 PUSH1 0xA0 SHL SUB AND CALLER EQ PUSH2 0xB89 JUMPI PUSH1 0x40 MLOAD PUSH3 0x461BCD PUSH1 0xE5 SHL DUP2 MSTORE PUSH1 0x20 PUSH1 0x4 DUP3 ADD MSTORE PUSH1 0x2A PUSH1 0x24 DUP3 ADD MSTORE PUSH32 0x476F7665726E6F72427261766F3A3A5F736574566F74696E6744656C61793A20 PUSH1 0x44 DUP3 ADD MSTORE PUSH10 0x61646D696E206F6E6C79 PUSH1 0xB0 SHL PUSH1 0x64 DUP3 ADD MSTORE PUSH1 0x84 ADD PUSH2 0x904 JUMP JUMPDEST PUSH1 0x1 DUP2 LT ISZERO DUP1 ISZERO PUSH2 0xB9C JUMPI POP PUSH2 0x9D80 DUP2 GT ISZERO JUMPDEST PUSH2 0xC05 JUMPI PUSH1 0x40 MLOAD PUSH3 0x461BCD PUSH1 0xE5 SHL DUP2 MSTORE PUSH1 0x20 PUSH1 0x4 DUP3 ADD MSTORE PUSH1 0x34 PUSH1 0x24 DUP3 ADD MSTORE PUSH32 0x476F7665726E6F72427261766F3A3A5F736574566F74696E6744656C61793A20 PUSH1 0x44 DUP3 ADD MSTORE PUSH20 0x696E76616C696420766F74696E672064656C6179 PUSH1 0x60 SHL PUSH1 0x64 DUP3 ADD MSTORE PUSH1 0x84 ADD PUSH2 0x904 JUMP JUMPDEST PUSH1 0x3 DUP1 SLOAD SWAP1 DUP3 SWAP1 SSTORE PUSH1 0x40 DUP1 MLOAD DUP3 DUP2 MSTORE PUSH1 0x20 DUP2 ADD DUP5 SWAP1 MSTORE PUSH32 0xC565B045403DC03C2EEA82B81A0465EDAD9E2E7FC4D97E11421C209DA93D7A93 SWAP2 ADD PUSH2 0x9C7 JUMP JUMPDEST PUSH1 0x60 DUP1 PUSH1 0x60 DUP1 PUSH1 0x0 PUSH1 0xA PUSH1 0x0 DUP8 DUP2 MSTORE PUSH1 0x20 ADD SWAP1 DUP2 MSTORE PUSH1 0x20 ADD PUSH1 0x0 KECCAK256 SWAP1 POP DUP1 PUSH1 0x3 ADD DUP2 PUSH1 0x4 ADD DUP3 PUSH1 0x5 ADD DUP4 PUSH1 0x6 ADD DUP4 DUP1 SLOAD DUP1 PUSH1 0x20 MUL PUSH1 0x20 ADD PUSH1 0x40 MLOAD SWAP1 DUP2 ADD PUSH1 0x40 MSTORE DUP1 SWAP3 SWAP2 SWAP1 DUP2 DUP2 MSTORE PUSH1 0x20 ADD DUP3 DUP1 SLOAD DUP1 ISZERO PUSH2 0xCC5 JUMPI PUSH1 0x20 MUL DUP3 ADD SWAP2 SWAP1 PUSH1 0x0 MSTORE PUSH1 0x20 PUSH1 0x0 KECCAK256 SWAP1 JUMPDEST DUP2 SLOAD PUSH1 0x1 PUSH1 0x1 PUSH1 0xA0 SHL SUB AND DUP2 MSTORE PUSH1 0x1 SWAP1 SWAP2 ADD SWAP1 PUSH1 0x20 ADD DUP1 DUP4 GT PUSH2 0xCA7 JUMPI JUMPDEST POP POP POP POP POP SWAP4 POP DUP3 DUP1 SLOAD DUP1 PUSH1 0x20 MUL PUSH1 0x20 ADD PUSH1 0x40 MLOAD SWAP1 DUP2 ADD PUSH1 0x40 MSTORE DUP1 SWAP3 SWAP2 SWAP1 DUP2 DUP2 MSTORE PUSH1 0x20 ADD DUP3 DUP1 SLOAD DUP1 ISZERO PUSH2 0xD17 JUMPI PUSH1 0x20 MUL DUP3 ADD SWAP2 SWAP1 PUSH1 0x0 MSTORE PUSH1 0x20 PUSH1 0x0 KECCAK256 SWAP1 JUMPDEST DUP2 SLOAD DUP2 MSTORE PUSH1 0x20 ADD SWAP1 PUSH1 0x1 ADD SWAP1 DUP1 DUP4 GT PUSH2 0xD03 JUMPI JUMPDEST POP POP POP POP POP SWAP3 POP DUP2 DUP1 SLOAD DUP1 PUSH1 0x20 MUL PUSH1 0x20 ADD PUSH1 0x40 MLOAD SWAP1 DUP2 ADD PUSH1 0x40 MSTORE DUP1 SWAP3 SWAP2 SWAP1 DUP2 DUP2 MSTORE PUSH1 0x20 ADD PUSH1 0x0 SWAP1 JUMPDEST DUP3 DUP3 LT ISZERO PUSH2 0xDEB JUMPI DUP4 DUP3 SWAP1 PUSH1 0x0 MSTORE PUSH1 0x20 PUSH1 0x0 KECCAK256 ADD DUP1 SLOAD PUSH2 0xD5E SWAP1 PUSH2 0x388E JUMP JUMPDEST DUP1 PUSH1 0x1F ADD PUSH1 0x20 DUP1 SWAP2 DIV MUL PUSH1 0x20 ADD PUSH1 0x40 MLOAD SWAP1 DUP2 ADD PUSH1 0x40 MSTORE DUP1 SWAP3 SWAP2 SWAP1 DUP2 DUP2 MSTORE PUSH1 0x20 ADD DUP3 DUP1 SLOAD PUSH2 0xD8A SWAP1 PUSH2 0x388E JUMP JUMPDEST DUP1 ISZERO PUSH2 0xDD7 JUMPI DUP1 PUSH1 0x1F LT PUSH2 0xDAC JUMPI PUSH2 0x100 DUP1 DUP4 SLOAD DIV MUL DUP4 MSTORE SWAP2 PUSH1 0x20 ADD SWAP2 PUSH2 0xDD7 JUMP JUMPDEST DUP3 ADD SWAP2 SWAP1 PUSH1 0x0 MSTORE PUSH1 0x20 PUSH1 0x0 KECCAK256 SWAP1 JUMPDEST DUP2 SLOAD DUP2 MSTORE SWAP1 PUSH1 0x1 ADD SWAP1 PUSH1 0x20 ADD DUP1 DUP4 GT PUSH2 0xDBA JUMPI DUP3 SWAP1 SUB PUSH1 0x1F AND DUP3 ADD SWAP2 JUMPDEST POP POP POP POP POP DUP2 MSTORE PUSH1 0x20 ADD SWAP1 PUSH1 0x1 ADD SWAP1 PUSH2 0xD3F JUMP JUMPDEST POP POP POP POP SWAP2 POP DUP1 DUP1 SLOAD DUP1 PUSH1 0x20 MUL PUSH1 0x20 ADD PUSH1 0x40 MLOAD SWAP1 DUP2 ADD PUSH1 0x40 MSTORE DUP1 SWAP3 SWAP2 SWAP1 DUP2 DUP2 MSTORE PUSH1 0x20 ADD PUSH1 0x0 SWAP1 JUMPDEST DUP3 DUP3 LT ISZERO PUSH2 0xEBE JUMPI DUP4 DUP3 SWAP1 PUSH1 0x0 MSTORE PUSH1 0x20 PUSH1 0x0 KECCAK256 ADD DUP1 SLOAD PUSH2 0xE31 SWAP1 PUSH2 0x388E JUMP JUMPDEST DUP1 PUSH1 0x1F ADD PUSH1 0x20 DUP1 SWAP2 DIV MUL PUSH1 0x20 ADD PUSH1 0x40 MLOAD SWAP1 DUP2 ADD PUSH1 0x40 MSTORE DUP1 SWAP3 SWAP2 SWAP1 DUP2 DUP2 MSTORE PUSH1 0x20 ADD DUP3 DUP1 SLOAD PUSH2 0xE5D SWAP1 PUSH2 0x388E JUMP JUMPDEST DUP1 ISZERO PUSH2 0xEAA JUMPI DUP1 PUSH1 0x1F LT PUSH2 0xE7F JUMPI PUSH2 0x100 DUP1 DUP4 SLOAD DIV MUL DUP4 MSTORE SWAP2 PUSH1 0x20 ADD SWAP2 PUSH2 0xEAA JUMP JUMPDEST DUP3 ADD SWAP2 SWAP1 PUSH1 0x0 MSTORE PUSH1 0x20 PUSH1 0x0 KECCAK256 SWAP1 JUMPDEST DUP2 SLOAD DUP2 MSTORE SWAP1 PUSH1 0x1 ADD SWAP1 PUSH1 0x20 ADD DUP1 DUP4 GT PUSH2 0xE8D JUMPI DUP3 SWAP1 SUB PUSH1 0x1F AND DUP3 ADD SWAP2 JUMPDEST POP POP POP POP POP DUP2 MSTORE PUSH1 0x20 ADD SWAP1 PUSH1 0x1 ADD SWAP1 PUSH2 0xE12 JUMP JUMPDEST POP POP POP POP SWAP1 POP SWAP5 POP SWAP5 POP SWAP5 POP SWAP5 POP POP SWAP2 SWAP4 POP SWAP2 SWAP4 JUMP JUMPDEST PUSH1 0x40 DUP1 MLOAD DUP1 DUP3 ADD DUP3 MSTORE PUSH1 0x12 DUP2 MSTORE PUSH18 0x44464820476F7665726E6F7220427261766F PUSH1 0x70 SHL PUSH1 0x20 SWAP2 DUP3 ADD MSTORE DUP2 MLOAD PUSH32 0x8CAD95687BA82C2CE50E74F7B754645E5117C3A5BEC8151C0726D5857980A866 DUP2 DUP4 ADD MSTORE PUSH32 0xAB90EBD86F4E7B59DE9DEF3B3A1843F9734E3D457608D13990D7511AAE692077 DUP2 DUP5 ADD MSTORE CHAINID PUSH1 0x60 DUP3 ADD MSTORE ADDRESS PUSH1 0x80 DUP1 DUP4 ADD SWAP2 SWAP1 SWAP2 MSTORE DUP4 MLOAD DUP1 DUP4 SUB SWAP1 SWAP2 ADD DUP2 MSTORE PUSH1 0xA0 DUP3 ADD DUP5 MSTORE DUP1 MLOAD SWAP1 DUP4 ADD KECCAK256 PUSH32 0x150214D74D59B7D1E90C73FC22EF3D991DD0A76B046543D4D80AB92D2A50328F PUSH1 0xC0 DUP4 ADD MSTORE PUSH1 0xE0 DUP3 ADD DUP10 SWAP1 MSTORE PUSH1 0xFF DUP9 AND PUSH2 0x100 DUP1 DUP5 ADD SWAP2 SWAP1 SWAP2 MSTORE DUP5 MLOAD DUP1 DUP5 SUB SWAP1 SWAP2 ADD DUP2 MSTORE PUSH2 0x120 DUP4 ADD SWAP1 SWAP5 MSTORE DUP4 MLOAD SWAP4 SWAP1 SWAP3 ADD SWAP3 SWAP1 SWAP3 KECCAK256 PUSH2 0x1901 PUSH1 0xF0 SHL PUSH2 0x140 DUP5 ADD MSTORE PUSH2 0x142 DUP4 ADD DUP3 SWAP1 MSTORE PUSH2 0x162 DUP4 ADD DUP2 SWAP1 MSTORE SWAP1 SWAP2 PUSH1 0x0 SWAP1 PUSH2 0x182 ADD PUSH1 0x40 DUP1 MLOAD PUSH1 0x1F NOT DUP2 DUP5 SUB ADD DUP2 MSTORE DUP3 DUP3 MSTORE DUP1 MLOAD PUSH1 0x20 SWAP2 DUP3 ADD KECCAK256 PUSH1 0x0 DUP1 DUP6 MSTORE SWAP2 DUP5 ADD DUP1 DUP5 MSTORE DUP2 SWAP1 MSTORE PUSH1 0xFF DUP11 AND SWAP3 DUP5 ADD SWAP3 SWAP1 SWAP3 MSTORE PUSH1 0x60 DUP4 ADD DUP9 SWAP1 MSTORE PUSH1 0x80 DUP4 ADD DUP8 SWAP1 MSTORE SWAP1 SWAP3 POP SWAP1 PUSH1 0x1 SWAP1 PUSH1 0xA0 ADD PUSH1 0x20 PUSH1 0x40 MLOAD PUSH1 0x20 DUP2 SUB SWAP1 DUP1 DUP5 SUB SWAP1 DUP6 GAS STATICCALL ISZERO DUP1 ISZERO PUSH2 0x1056 JUMPI RETURNDATASIZE PUSH1 0x0 DUP1 RETURNDATACOPY RETURNDATASIZE PUSH1 0x0 REVERT JUMPDEST POP POP PUSH1 0x40 MLOAD PUSH1 0x1F NOT ADD MLOAD SWAP2 POP POP PUSH1 0x1 PUSH1 0x1 PUSH1 0xA0 SHL SUB DUP2 AND PUSH2 0x10D1 JUMPI PUSH1 0x40 MLOAD PUSH3 0x461BCD PUSH1 0xE5 SHL DUP2 MSTORE PUSH1 0x20 PUSH1 0x4 DUP3 ADD MSTORE PUSH1 0x2F PUSH1 0x24 DUP3 ADD MSTORE PUSH32 0x476F7665726E6F72427261766F3A3A63617374566F746542795369673A20696E PUSH1 0x44 DUP3 ADD MSTORE PUSH15 0x76616C6964207369676E6174757265 PUSH1 0x88 SHL PUSH1 0x64 DUP3 ADD MSTORE PUSH1 0x84 ADD PUSH2 0x904 JUMP JUMPDEST DUP1 PUSH1 0x1 PUSH1 0x1 PUSH1 0xA0 SHL SUB AND PUSH32 0xB8E138887D0AA13BAB447E82DE9D5C1777041ECD21CA36BA824FF1E6C07DDDA4 DUP11 DUP11 PUSH2 0x1109 DUP6 DUP15 DUP15 PUSH2 0x2720 JUMP JUMPDEST PUSH1 0x40 DUP1 MLOAD SWAP4 DUP5 MSTORE PUSH1 0xFF SWAP1 SWAP3 AND PUSH1 0x20 DUP5 ADD MSTORE PUSH1 0x1 PUSH1 0x1 PUSH1 0x60 SHL SUB AND SWAP1 DUP3 ADD MSTORE PUSH1 0x80 PUSH1 0x60 DUP3 ADD DUP2 SWAP1 MSTORE PUSH1 0x0 SWAP1 DUP3 ADD MSTORE PUSH1 0xA0 ADD PUSH1 0x40 MLOAD DUP1 SWAP2 SUB SWAP1 LOG2 POP POP POP POP POP POP POP POP POP JUMP JUMPDEST PUSH1 0x0 DUP2 PUSH1 0x7 SLOAD LT ISZERO DUP1 ISZERO PUSH2 0x1161 JUMPI POP PUSH1 0x6 SLOAD DUP3 GT JUMPDEST PUSH2 0x11BF JUMPI PUSH1 0x40 MLOAD PUSH3 0x461BCD PUSH1 0xE5 SHL DUP2 MSTORE PUSH1 0x20 PUSH1 0x4 DUP3 ADD MSTORE PUSH1 0x29 PUSH1 0x24 DUP3 ADD MSTORE PUSH32 0x476F7665726E6F72427261766F3A3A73746174653A20696E76616C6964207072 PUSH1 0x44 DUP3 ADD MSTORE PUSH9 0x1BDC1BDCD85B081A59 PUSH1 0xBA SHL PUSH1 0x64 DUP3 ADD MSTORE PUSH1 0x84 ADD PUSH2 0x904 JUMP JUMPDEST PUSH1 0x0 DUP3 DUP2 MSTORE PUSH1 0xA PUSH1 0x20 MSTORE PUSH1 0x40 SWAP1 KECCAK256 PUSH1 0xC DUP2 ADD SLOAD PUSH1 0xFF AND ISZERO PUSH2 0x11E3 JUMPI POP PUSH1 0x2 SWAP3 SWAP2 POP POP JUMP JUMPDEST DUP1 PUSH1 0x7 ADD SLOAD NUMBER GT PUSH2 0x11F7 JUMPI POP PUSH1 0x0 SWAP3 SWAP2 POP POP JUMP JUMPDEST DUP1 PUSH1 0x8 ADD SLOAD NUMBER GT PUSH2 0x120B JUMPI POP PUSH1 0x1 SWAP3 SWAP2 POP POP JUMP JUMPDEST DUP1 PUSH1 0xA ADD SLOAD DUP2 PUSH1 0x9 ADD SLOAD GT ISZERO DUP1 PUSH2 0x122F JUMPI POP PUSH10 0x54B40B1F852BDA000000 DUP2 PUSH1 0x9 ADD SLOAD LT JUMPDEST ISZERO PUSH2 0x123D JUMPI POP PUSH1 0x3 SWAP3 SWAP2 POP POP JUMP JUMPDEST PUSH1 0x2 DUP2 ADD SLOAD PUSH2 0x124F JUMPI POP PUSH1 0x4 SWAP3 SWAP2 POP POP JUMP JUMPDEST PUSH1 0xC DUP2 ADD SLOAD PUSH2 0x100 SWAP1 DIV PUSH1 0xFF AND ISZERO PUSH2 0x126A JUMPI POP PUSH1 0x7 SWAP3 SWAP2 POP POP JUMP JUMPDEST PUSH1 0x8 PUSH1 0x0 SWAP1 SLOAD SWAP1 PUSH2 0x100 EXP SWAP1 DIV PUSH1 0x1 PUSH1 0x1 PUSH1 0xA0 SHL SUB AND PUSH1 0x1 PUSH1 0x1 PUSH1 0xA0 SHL SUB AND PUSH4 0xC1A287E2 PUSH1 0x40 MLOAD DUP2 PUSH4 0xFFFFFFFF AND PUSH1 0xE0 SHL DUP2 MSTORE PUSH1 0x4 ADD PUSH1 0x20 PUSH1 0x40 MLOAD DUP1 DUP4 SUB DUP2 DUP7 DUP1 EXTCODESIZE ISZERO DUP1 ISZERO PUSH2 0x12B8 JUMPI PUSH1 0x0 DUP1 REVERT JUMPDEST POP GAS STATICCALL ISZERO DUP1 ISZERO PUSH2 0x12CC JUMPI RETURNDATASIZE PUSH1 0x0 DUP1 RETURNDATACOPY RETURNDATASIZE PUSH1 0x0 REVERT JUMPDEST POP POP POP POP PUSH1 0x40 MLOAD RETURNDATASIZE PUSH1 0x1F NOT PUSH1 0x1F DUP3 ADD AND DUP3 ADD DUP1 PUSH1 0x40 MSTORE POP DUP2 ADD SWAP1 PUSH2 0x12F0 SWAP2 SWAP1 PUSH2 0x3226 JUMP JUMPDEST DUP2 PUSH1 0x2 ADD SLOAD PUSH2 0x12FF SWAP2 SWAP1 PUSH2 0x382F JUMP JUMPDEST TIMESTAMP LT PUSH2 0x130E JUMPI POP PUSH1 0x6 SWAP3 SWAP2 POP POP JUMP JUMPDEST POP PUSH1 0x5 SWAP3 SWAP2 POP POP JUMP JUMPDEST POP SWAP2 SWAP1 POP JUMP JUMPDEST PUSH1 0x7 PUSH2 0x1328 DUP3 PUSH2 0x114C JUMP JUMPDEST PUSH1 0x7 DUP2 GT ISZERO PUSH2 0x1339 JUMPI PUSH2 0x1339 PUSH2 0x38F4 JUMP JUMPDEST EQ ISZERO PUSH2 0x13A6 JUMPI PUSH1 0x40 MLOAD PUSH3 0x461BCD PUSH1 0xE5 SHL DUP2 MSTORE PUSH1 0x20 PUSH1 0x4 DUP3 ADD MSTORE PUSH1 0x36 PUSH1 0x24 DUP3 ADD MSTORE PUSH32 0x476F7665726E6F72427261766F3A3A63616E63656C3A2063616E6E6F74206361 PUSH1 0x44 DUP3 ADD MSTORE PUSH22 0x1B98D95B08195E1958DD5D1959081C1C9BDC1BDCD85B PUSH1 0x52 SHL PUSH1 0x64 DUP3 ADD MSTORE PUSH1 0x84 ADD PUSH2 0x904 JUMP JUMPDEST PUSH1 0x0 DUP2 DUP2 MSTORE PUSH1 0xA PUSH1 0x20 MSTORE PUSH1 0x40 SWAP1 KECCAK256 PUSH1 0x1 DUP2 ADD SLOAD PUSH1 0x1 PUSH1 0x1 PUSH1 0xA0 SHL SUB AND CALLER EQ DUP1 PUSH2 0x147C JUMPI POP PUSH1 0x5 SLOAD PUSH1 0x9 SLOAD PUSH1 0x1 DUP4 DUP2 ADD SLOAD PUSH1 0x1 PUSH1 0x1 PUSH1 0xA0 SHL SUB SWAP3 DUP4 AND SWAP3 PUSH4 0x782D6FE1 SWAP3 SWAP2 AND SWAP1 PUSH2 0x13F5 SWAP1 NUMBER PUSH2 0x3847 JUMP JUMPDEST PUSH1 0x40 MLOAD PUSH1 0x1 PUSH1 0x1 PUSH1 0xE0 SHL SUB NOT PUSH1 0xE0 DUP6 SWAP1 SHL AND DUP2 MSTORE PUSH1 0x1 PUSH1 0x1 PUSH1 0xA0 SHL SUB SWAP1 SWAP3 AND PUSH1 0x4 DUP4 ADD MSTORE PUSH1 0x24 DUP3 ADD MSTORE PUSH1 0x44 ADD PUSH1 0x20 PUSH1 0x40 MLOAD DUP1 DUP4 SUB DUP2 DUP7 DUP1 EXTCODESIZE ISZERO DUP1 ISZERO PUSH2 0x1439 JUMPI PUSH1 0x0 DUP1 REVERT JUMPDEST POP GAS STATICCALL ISZERO DUP1 ISZERO PUSH2 0x144D JUMPI RETURNDATASIZE PUSH1 0x0 DUP1 RETURNDATACOPY RETURNDATASIZE PUSH1 0x0 REVERT JUMPDEST POP POP POP POP PUSH1 0x40 MLOAD RETURNDATASIZE PUSH1 0x1F NOT PUSH1 0x1F DUP3 ADD AND DUP3 ADD DUP1 PUSH1 0x40 MSTORE POP DUP2 ADD SWAP1 PUSH2 0x1471 SWAP2 SWAP1 PUSH2 0x33F3 JUMP JUMPDEST PUSH1 0x1 PUSH1 0x1 PUSH1 0x60 SHL SUB AND LT JUMPDEST PUSH2 0x14E0 JUMPI PUSH1 0x40 MLOAD PUSH3 0x461BCD PUSH1 0xE5 SHL DUP2 MSTORE PUSH1 0x20 PUSH1 0x4 DUP3 ADD MSTORE PUSH1 0x2F PUSH1 0x24 DUP3 ADD MSTORE PUSH32 0x476F7665726E6F72427261766F3A3A63616E63656C3A2070726F706F73657220 PUSH1 0x44 DUP3 ADD MSTORE PUSH15 0x18589BDD99481D1A1C995CDA1BDB19 PUSH1 0x8A SHL PUSH1 0x64 DUP3 ADD MSTORE PUSH1 0x84 ADD PUSH2 0x904 JUMP JUMPDEST PUSH1 0xC DUP2 ADD DUP1 SLOAD PUSH1 0xFF NOT AND PUSH1 0x1 OR SWAP1 SSTORE PUSH1 0x0 JUMPDEST PUSH1 0x3 DUP3 ADD SLOAD DUP2 LT ISZERO PUSH2 0x160B JUMPI PUSH1 0x8 SLOAD PUSH1 0x3 DUP4 ADD DUP1 SLOAD PUSH1 0x1 PUSH1 0x1 PUSH1 0xA0 SHL SUB SWAP1 SWAP3 AND SWAP2 PUSH4 0x591FCDFE SWAP2 SWAP1 DUP5 SWAP1 DUP2 LT PUSH2 0x152A JUMPI PUSH2 0x152A PUSH2 0x390A JUMP JUMPDEST PUSH1 0x0 SWAP2 DUP3 MSTORE PUSH1 0x20 SWAP1 SWAP2 KECCAK256 ADD SLOAD PUSH1 0x4 DUP6 ADD DUP1 SLOAD PUSH1 0x1 PUSH1 0x1 PUSH1 0xA0 SHL SUB SWAP1 SWAP3 AND SWAP2 DUP6 SWAP1 DUP2 LT PUSH2 0x1558 JUMPI PUSH2 0x1558 PUSH2 0x390A JUMP JUMPDEST SWAP1 PUSH1 0x0 MSTORE PUSH1 0x20 PUSH1 0x0 KECCAK256 ADD SLOAD DUP6 PUSH1 0x5 ADD DUP6 DUP2 SLOAD DUP2 LT PUSH2 0x1578 JUMPI PUSH2 0x1578 PUSH2 0x390A JUMP JUMPDEST SWAP1 PUSH1 0x0 MSTORE PUSH1 0x20 PUSH1 0x0 KECCAK256 ADD DUP7 PUSH1 0x6 ADD DUP7 DUP2 SLOAD DUP2 LT PUSH2 0x1597 JUMPI PUSH2 0x1597 PUSH2 0x390A JUMP JUMPDEST SWAP1 PUSH1 0x0 MSTORE PUSH1 0x20 PUSH1 0x0 KECCAK256 ADD DUP8 PUSH1 0x2 ADD SLOAD PUSH1 0x40 MLOAD DUP7 PUSH4 0xFFFFFFFF AND PUSH1 0xE0 SHL DUP2 MSTORE PUSH1 0x4 ADD PUSH2 0x15C6 SWAP6 SWAP5 SWAP4 SWAP3 SWAP2 SWAP1 PUSH2 0x35FE JUMP JUMPDEST PUSH1 0x0 PUSH1 0x40 MLOAD DUP1 DUP4 SUB DUP2 PUSH1 0x0 DUP8 DUP1 EXTCODESIZE ISZERO DUP1 ISZERO PUSH2 0x15E0 JUMPI PUSH1 0x0 DUP1 REVERT JUMPDEST POP GAS CALL ISZERO DUP1 ISZERO PUSH2 0x15F4 JUMPI RETURNDATASIZE PUSH1 0x0 DUP1 RETURNDATACOPY RETURNDATASIZE PUSH1 0x0 REVERT JUMPDEST POP POP POP POP DUP1 DUP1 PUSH2 0x1603 SWAP1 PUSH2 0x38C3 JUMP JUMPDEST SWAP2 POP POP PUSH2 0x14F2 JUMP JUMPDEST POP PUSH1 0x40 MLOAD DUP3 DUP2 MSTORE PUSH32 0x789CF55BE980739DAD1D0699B93B58E806B51C9D96619BFA8FE0A28ABAA7B30C SWAP1 PUSH1 0x20 ADD PUSH2 0x9C7 JUMP JUMPDEST CALLER PUSH32 0xB8E138887D0AA13BAB447E82DE9D5C1777041ECD21CA36BA824FF1E6C07DDDA4 DUP4 DUP4 PUSH2 0x166B DUP5 DUP4 DUP4 PUSH2 0x2720 JUMP JUMPDEST PUSH1 0x40 DUP1 MLOAD SWAP4 DUP5 MSTORE PUSH1 0xFF SWAP1 SWAP3 AND PUSH1 0x20 DUP5 ADD MSTORE PUSH1 0x1 PUSH1 0x1 PUSH1 0x60 SHL SUB AND SWAP1 DUP3 ADD MSTORE PUSH1 0x80 PUSH1 0x60 DUP3 ADD DUP2 SWAP1 MSTORE PUSH1 0x0 SWAP1 DUP3 ADD MSTORE PUSH1 0xA0 ADD PUSH1 0x40 MLOAD DUP1 SWAP2 SUB SWAP1 LOG2 POP POP JUMP JUMPDEST CALLER PUSH32 0xB8E138887D0AA13BAB447E82DE9D5C1777041ECD21CA36BA824FF1E6C07DDDA4 DUP6 DUP6 PUSH2 0x16D6 DUP5 DUP4 DUP4 PUSH2 0x2720 JUMP JUMPDEST DUP7 DUP7 PUSH1 0x40 MLOAD PUSH2 0x16E9 SWAP6 SWAP5 SWAP4 SWAP3 SWAP2 SWAP1 PUSH2 0x3762 JUMP JUMPDEST PUSH1 0x40 MLOAD DUP1 SWAP2 SUB SWAP1 LOG2 POP POP POP POP JUMP JUMPDEST PUSH1 0x0 SLOAD PUSH1 0x1 PUSH1 0x1 PUSH1 0xA0 SHL SUB AND CALLER EQ PUSH2 0x1764 JUMPI PUSH1 0x40 MLOAD PUSH3 0x461BCD PUSH1 0xE5 SHL DUP2 MSTORE PUSH1 0x20 PUSH1 0x4 DUP3 ADD MSTORE PUSH1 0x2A PUSH1 0x24 DUP3 ADD MSTORE PUSH32 0x476F7665726E6F72427261766F3A5F73657450656E64696E6741646D696E3A20 PUSH1 0x44 DUP3 ADD MSTORE PUSH10 0x61646D696E206F6E6C79 PUSH1 0xB0 SHL PUSH1 0x64 DUP3 ADD MSTORE PUSH1 0x84 ADD PUSH2 0x904 JUMP JUMPDEST PUSH1 0x1 DUP1 SLOAD PUSH1 0x1 PUSH1 0x1 PUSH1 0xA0 SHL SUB DUP4 DUP2 AND PUSH1 0x1 PUSH1 0x1 PUSH1 0xA0 SHL SUB NOT DUP4 AND DUP2 OR SWAP1 SWAP4 SSTORE PUSH1 0x40 DUP1 MLOAD SWAP2 SWAP1 SWAP3 AND DUP1 DUP3 MSTORE PUSH1 0x20 DUP3 ADD SWAP4 SWAP1 SWAP4 MSTORE PUSH32 0xCA4F2F25D0898EDD99413412FB94012F9E54EC8142F9B093E7720646A95B16A9 SWAP2 ADD PUSH2 0x9C7 JUMP JUMPDEST PUSH1 0x8 SLOAD PUSH1 0x1 PUSH1 0x1 PUSH1 0xA0 SHL SUB AND ISZERO PUSH2 0x1833 JUMPI PUSH1 0x40 MLOAD PUSH3 0x461BCD PUSH1 0xE5 SHL DUP2 MSTORE PUSH1 0x20 PUSH1 0x4 DUP3 ADD MSTORE PUSH1 0x33 PUSH1 0x24 DUP3 ADD MSTORE PUSH32 0x476F7665726E6F72427261766F3A3A696E697469616C697A653A2063616E206F PUSH1 0x44 DUP3 ADD MSTORE PUSH19 0x6E6C7920696E697469616C697A65206F6E6365 PUSH1 0x68 SHL PUSH1 0x64 DUP3 ADD MSTORE PUSH1 0x84 ADD PUSH2 0x904 JUMP JUMPDEST PUSH1 0x1 PUSH1 0x1 PUSH1 0xA0 SHL SUB DUP6 AND PUSH2 0x1893 JUMPI PUSH1 0x40 MLOAD PUSH3 0x461BCD PUSH1 0xE5 SHL DUP2 MSTORE PUSH1 0x20 PUSH1 0x4 DUP3 ADD MSTORE PUSH1 0x33 PUSH1 0x24 DUP3 ADD MSTORE PUSH1 0x0 DUP1 MLOAD PUSH1 0x20 PUSH2 0x3937 DUP4 CODECOPY DUP2 MLOAD SWAP2 MSTORE PUSH1 0x44 DUP3 ADD MSTORE PUSH19 0x69642074696D656C6F636B2061646472657373 PUSH1 0x68 SHL PUSH1 0x64 DUP3 ADD MSTORE PUSH1 0x84 ADD PUSH2 0x904 JUMP JUMPDEST PUSH1 0x1 PUSH1 0x1 PUSH1 0xA0 SHL SUB DUP5 AND PUSH2 0x18FD JUMPI PUSH1 0x40 MLOAD PUSH3 0x461BCD PUSH1 0xE5 SHL DUP2 MSTORE PUSH1 0x20 PUSH1 0x4 DUP3 ADD MSTORE PUSH1 0x3B PUSH1 0x24 DUP3 ADD MSTORE PUSH1 0x0 DUP1 MLOAD PUSH1 0x20 PUSH2 0x3937 DUP4 CODECOPY DUP2 MLOAD SWAP2 MSTORE PUSH1 0x44 DUP3 ADD MSTORE PUSH32 0x696420676F7665726E616E636520746F6B656E20616464726573730000000000 PUSH1 0x64 DUP3 ADD MSTORE PUSH1 0x84 ADD PUSH2 0x904 JUMP JUMPDEST PUSH2 0x1680 DUP4 LT ISZERO DUP1 ISZERO PUSH2 0x1912 JUMPI POP PUSH3 0x13B00 DUP4 GT ISZERO JUMPDEST PUSH2 0x1965 JUMPI PUSH1 0x40 MLOAD PUSH3 0x461BCD PUSH1 0xE5 SHL DUP2 MSTORE PUSH1 0x20 PUSH1 0x4 DUP3 ADD MSTORE PUSH1 0x30 PUSH1 0x24 DUP3 ADD MSTORE PUSH1 0x0 DUP1 MLOAD PUSH1 0x20 PUSH2 0x3937 DUP4 CODECOPY DUP2 MLOAD SWAP2 MSTORE PUSH1 0x44 DUP3 ADD MSTORE PUSH16 0x1A59081D9BDD1A5B99C81C195C9A5BD9 PUSH1 0x82 SHL PUSH1 0x64 DUP3 ADD MSTORE PUSH1 0x84 ADD PUSH2 0x904 JUMP JUMPDEST PUSH1 0x1 DUP3 LT ISZERO DUP1 ISZERO PUSH2 0x1978 JUMPI POP PUSH2 0x9D80 DUP3 GT ISZERO JUMPDEST PUSH2 0x19CA JUMPI PUSH1 0x40 MLOAD PUSH3 0x461BCD PUSH1 0xE5 SHL DUP2 MSTORE PUSH1 0x20 PUSH1 0x4 DUP3 ADD MSTORE PUSH1 0x2F PUSH1 0x24 DUP3 ADD MSTORE PUSH1 0x0 DUP1 MLOAD PUSH1 0x20 PUSH2 0x3937 DUP4 CODECOPY DUP2 MLOAD SWAP2 MSTORE PUSH1 0x44 DUP3 ADD MSTORE PUSH15 0x696420766F74696E672064656C6179 PUSH1 0x88 SHL PUSH1 0x64 DUP3 ADD MSTORE PUSH1 0x84 ADD PUSH2 0x904 JUMP JUMPDEST PUSH10 0xA968163F0A57B400000 DUP2 LT ISZERO DUP1 ISZERO PUSH2 0x19EE JUMPI POP PUSH10 0x152D02C7E14AF6800000 DUP2 GT ISZERO JUMPDEST PUSH2 0x1A46 JUMPI PUSH1 0x40 MLOAD PUSH3 0x461BCD PUSH1 0xE5 SHL DUP2 MSTORE PUSH1 0x20 PUSH1 0x4 DUP3 ADD MSTORE PUSH1 0x35 PUSH1 0x24 DUP3 ADD MSTORE PUSH1 0x0 DUP1 MLOAD PUSH1 0x20 PUSH2 0x3937 DUP4 CODECOPY DUP2 MLOAD SWAP2 MSTORE PUSH1 0x44 DUP3 ADD MSTORE PUSH21 0x1A59081C1C9BDC1BDCD85B081D1A1C995CDA1BDB19 PUSH1 0x5A SHL PUSH1 0x64 DUP3 ADD MSTORE PUSH1 0x84 ADD PUSH2 0x904 JUMP JUMPDEST PUSH1 0x0 DUP1 SLOAD PUSH1 0x1 PUSH1 0x1 PUSH1 0xA0 SHL SUB SWAP7 DUP8 AND PUSH1 0x1 PUSH1 0x1 PUSH1 0xA0 SHL SUB NOT SWAP2 DUP3 AND DUP2 OR SWAP1 SWAP3 SSTORE PUSH1 0x8 DUP1 SLOAD DUP3 AND SWAP1 SWAP3 OR SWAP1 SWAP2 SSTORE PUSH1 0x9 DUP1 SLOAD SWAP6 SWAP1 SWAP7 AND SWAP5 AND SWAP4 SWAP1 SWAP4 OR SWAP1 SWAP4 SSTORE PUSH1 0x4 SSTORE PUSH1 0x3 SWAP2 SWAP1 SWAP2 SSTORE PUSH1 0x5 SSTORE JUMP JUMPDEST PUSH1 0x0 PUSH1 0x6 SLOAD PUSH1 0x0 EQ ISZERO PUSH2 0x1B00 JUMPI PUSH1 0x40 MLOAD PUSH3 0x461BCD PUSH1 0xE5 SHL DUP2 MSTORE PUSH1 0x20 PUSH1 0x4 DUP3 ADD MSTORE PUSH1 0x31 PUSH1 0x24 DUP3 ADD MSTORE PUSH32 0x476F7665726E6F72427261766F3A3A70726F706F73653A20476F7665726E6F72 PUSH1 0x44 DUP3 ADD MSTORE PUSH17 0x20427261766F206E6F7420616374697665 PUSH1 0x78 SHL PUSH1 0x64 DUP3 ADD MSTORE PUSH1 0x84 ADD PUSH2 0x904 JUMP JUMPDEST PUSH1 0x5 SLOAD PUSH1 0x9 SLOAD PUSH1 0x1 PUSH1 0x1 PUSH1 0xA0 SHL SUB AND PUSH4 0x782D6FE1 CALLER PUSH2 0x1B20 PUSH1 0x1 NUMBER PUSH2 0x3847 JUMP JUMPDEST PUSH1 0x40 MLOAD PUSH1 0x1 PUSH1 0x1 PUSH1 0xE0 SHL SUB NOT PUSH1 0xE0 DUP6 SWAP1 SHL AND DUP2 MSTORE PUSH1 0x1 PUSH1 0x1 PUSH1 0xA0 SHL SUB SWAP1 SWAP3 AND PUSH1 0x4 DUP4 ADD MSTORE PUSH1 0x24 DUP3 ADD MSTORE PUSH1 0x44 ADD PUSH1 0x20 PUSH1 0x40 MLOAD DUP1 DUP4 SUB DUP2 DUP7 DUP1 EXTCODESIZE ISZERO DUP1 ISZERO PUSH2 0x1B64 JUMPI PUSH1 0x0 DUP1 REVERT JUMPDEST POP GAS STATICCALL ISZERO DUP1 ISZERO PUSH2 0x1B78 JUMPI RETURNDATASIZE PUSH1 0x0 DUP1 RETURNDATACOPY RETURNDATASIZE PUSH1 0x0 REVERT JUMPDEST POP POP POP POP PUSH1 0x40 MLOAD RETURNDATASIZE PUSH1 0x1F NOT PUSH1 0x1F DUP3 ADD AND DUP3 ADD DUP1 PUSH1 0x40 MSTORE POP DUP2 ADD SWAP1 PUSH2 0x1B9C SWAP2 SWAP1 PUSH2 0x33F3 JUMP JUMPDEST PUSH1 0x1 PUSH1 0x1 PUSH1 0x60 SHL SUB AND GT PUSH2 0x1C18 JUMPI PUSH1 0x40 MLOAD PUSH3 0x461BCD PUSH1 0xE5 SHL DUP2 MSTORE PUSH1 0x20 PUSH1 0x4 DUP3 ADD MSTORE PUSH1 0x3F PUSH1 0x24 DUP3 ADD MSTORE PUSH32 0x476F7665726E6F72427261766F3A3A70726F706F73653A2070726F706F736572 PUSH1 0x44 DUP3 ADD MSTORE PUSH32 0x20766F7465732062656C6F772070726F706F73616C207468726573686F6C6400 PUSH1 0x64 DUP3 ADD MSTORE PUSH1 0x84 ADD PUSH2 0x904 JUMP JUMPDEST DUP5 MLOAD DUP7 MLOAD EQ DUP1 ISZERO PUSH2 0x1C2A JUMPI POP DUP4 MLOAD DUP7 MLOAD EQ JUMPDEST DUP1 ISZERO PUSH2 0x1C37 JUMPI POP DUP3 MLOAD DUP7 MLOAD EQ JUMPDEST PUSH2 0x1CB7 JUMPI PUSH1 0x40 MLOAD PUSH3 0x461BCD PUSH1 0xE5 SHL DUP2 MSTORE PUSH1 0x20 PUSH1 0x4 DUP3 ADD MSTORE PUSH1 0x44 PUSH1 0x24 DUP3 ADD DUP2 SWAP1 MSTORE PUSH32 0x476F7665726E6F72427261766F3A3A70726F706F73653A2070726F706F73616C SWAP1 DUP3 ADD MSTORE PUSH32 0x2066756E6374696F6E20696E666F726D6174696F6E206172697479206D69736D PUSH1 0x64 DUP3 ADD MSTORE PUSH4 0xC2E8C6D PUSH1 0xE3 SHL PUSH1 0x84 DUP3 ADD MSTORE PUSH1 0xA4 ADD PUSH2 0x904 JUMP JUMPDEST DUP6 MLOAD PUSH2 0x1D1A JUMPI PUSH1 0x40 MLOAD PUSH3 0x461BCD PUSH1 0xE5 SHL DUP2 MSTORE PUSH1 0x20 PUSH1 0x4 DUP3 ADD MSTORE PUSH1 0x2C PUSH1 0x24 DUP3 ADD MSTORE PUSH32 0x476F7665726E6F72427261766F3A3A70726F706F73653A206D7573742070726F PUSH1 0x44 DUP3 ADD MSTORE PUSH12 0x7669646520616374696F6E73 PUSH1 0xA0 SHL PUSH1 0x64 DUP3 ADD MSTORE PUSH1 0x84 ADD PUSH2 0x904 JUMP JUMPDEST PUSH1 0xA DUP7 MLOAD GT ISZERO PUSH2 0x1D7D JUMPI PUSH1 0x40 MLOAD PUSH3 0x461BCD PUSH1 0xE5 SHL DUP2 MSTORE PUSH1 0x20 PUSH1 0x4 DUP3 ADD MSTORE PUSH1 0x28 PUSH1 0x24 DUP3 ADD MSTORE PUSH32 0x476F7665726E6F72427261766F3A3A70726F706F73653A20746F6F206D616E79 PUSH1 0x44 DUP3 ADD MSTORE PUSH8 0x20616374696F6E73 PUSH1 0xC0 SHL PUSH1 0x64 DUP3 ADD MSTORE PUSH1 0x84 ADD PUSH2 0x904 JUMP JUMPDEST CALLER PUSH1 0x0 SWAP1 DUP2 MSTORE PUSH1 0xB PUSH1 0x20 MSTORE PUSH1 0x40 SWAP1 KECCAK256 SLOAD DUP1 ISZERO PUSH2 0x1EFE JUMPI PUSH1 0x0 PUSH2 0x1D9E DUP3 PUSH2 0x114C JUMP JUMPDEST SWAP1 POP PUSH1 0x1 DUP2 PUSH1 0x7 DUP2 GT ISZERO PUSH2 0x1DB4 JUMPI PUSH2 0x1DB4 PUSH2 0x38F4 JUMP JUMPDEST EQ ISZERO PUSH2 0x1E4E JUMPI PUSH1 0x40 MLOAD PUSH3 0x461BCD PUSH1 0xE5 SHL DUP2 MSTORE PUSH1 0x20 PUSH1 0x4 DUP3 ADD MSTORE PUSH1 0x58 PUSH1 0x24 DUP3 ADD MSTORE PUSH32 0x476F7665726E6F72427261766F3A3A70726F706F73653A206F6E65206C697665 PUSH1 0x44 DUP3 ADD MSTORE PUSH32 0x2070726F706F73616C207065722070726F706F7365722C20666F756E6420616E PUSH1 0x64 DUP3 ADD MSTORE PUSH32 0x20616C7265616479206163746976652070726F706F73616C0000000000000000 PUSH1 0x84 DUP3 ADD MSTORE PUSH1 0xA4 ADD PUSH2 0x904 JUMP JUMPDEST PUSH1 0x0 DUP2 PUSH1 0x7 DUP2 GT ISZERO PUSH2 0x1E62 JUMPI PUSH2 0x1E62 PUSH2 0x38F4 JUMP JUMPDEST EQ ISZERO PUSH2 0x1EFC JUMPI PUSH1 0x40 MLOAD PUSH3 0x461BCD PUSH1 0xE5 SHL DUP2 MSTORE PUSH1 0x20 PUSH1 0x4 DUP3 ADD MSTORE PUSH1 0x59 PUSH1 0x24 DUP3 ADD MSTORE PUSH32 0x476F7665726E6F72427261766F3A3A70726F706F73653A206F6E65206C697665 PUSH1 0x44 DUP3 ADD MSTORE PUSH32 0x2070726F706F73616C207065722070726F706F7365722C20666F756E6420616E PUSH1 0x64 DUP3 ADD MSTORE PUSH32 0x20616C72656164792070656E64696E672070726F706F73616C00000000000000 PUSH1 0x84 DUP3 ADD MSTORE PUSH1 0xA4 ADD PUSH2 0x904 JUMP JUMPDEST POP JUMPDEST PUSH1 0x0 PUSH1 0x3 SLOAD NUMBER PUSH2 0x1F0E SWAP2 SWAP1 PUSH2 0x382F JUMP JUMPDEST SWAP1 POP PUSH1 0x0 PUSH1 0x4 SLOAD DUP3 PUSH2 0x1F20 SWAP2 SWAP1 PUSH2 0x382F JUMP JUMPDEST PUSH1 0x7 DUP1 SLOAD SWAP2 SWAP3 POP PUSH1 0x0 PUSH2 0x1F32 DUP4 PUSH2 0x38C3 JUMP JUMPDEST SWAP1 SWAP2 SSTORE POP POP PUSH1 0x7 SLOAD PUSH1 0x0 DUP2 DUP2 MSTORE PUSH1 0xA PUSH1 0x20 SWAP1 DUP2 MSTORE PUSH1 0x40 SWAP1 SWAP2 KECCAK256 SWAP2 DUP3 SSTORE PUSH1 0x1 DUP3 ADD DUP1 SLOAD PUSH1 0x1 PUSH1 0x1 PUSH1 0xA0 SHL SUB NOT AND CALLER OR SWAP1 SSTORE DUP11 MLOAD PUSH2 0x1F76 SWAP2 PUSH1 0x3 DUP5 ADD SWAP2 SWAP1 DUP14 ADD SWAP1 PUSH2 0x2BE9 JUMP JUMPDEST POP DUP9 MLOAD PUSH2 0x1F8C SWAP1 PUSH1 0x4 DUP4 ADD SWAP1 PUSH1 0x20 DUP13 ADD SWAP1 PUSH2 0x2C4E JUMP JUMPDEST POP DUP8 MLOAD PUSH2 0x1FA2 SWAP1 PUSH1 0x5 DUP4 ADD SWAP1 PUSH1 0x20 DUP12 ADD SWAP1 PUSH2 0x2C89 JUMP JUMPDEST POP DUP7 MLOAD PUSH2 0x1FB8 SWAP1 PUSH1 0x6 DUP4 ADD SWAP1 PUSH1 0x20 DUP11 ADD SWAP1 PUSH2 0x2CE2 JUMP JUMPDEST POP DUP3 DUP2 PUSH1 0x7 ADD DUP2 SWAP1 SSTORE POP DUP2 DUP2 PUSH1 0x8 ADD DUP2 SWAP1 SSTORE POP DUP1 PUSH1 0x0 ADD SLOAD PUSH1 0xB PUSH1 0x0 DUP4 PUSH1 0x1 ADD PUSH1 0x0 SWAP1 SLOAD SWAP1 PUSH2 0x100 EXP SWAP1 DIV PUSH1 0x1 PUSH1 0x1 PUSH1 0xA0 SHL SUB AND PUSH1 0x1 PUSH1 0x1 PUSH1 0xA0 SHL SUB AND PUSH1 0x1 PUSH1 0x1 PUSH1 0xA0 SHL SUB AND DUP2 MSTORE PUSH1 0x20 ADD SWAP1 DUP2 MSTORE PUSH1 0x20 ADD PUSH1 0x0 KECCAK256 DUP2 SWAP1 SSTORE POP PUSH32 0x7D84A6263AE0D98D3329BD7B46BB4E8D6F98CD35A7ADB45C274C8B7FD5EBD5E0 DUP2 PUSH1 0x0 ADD SLOAD CALLER DUP13 DUP13 DUP13 DUP13 DUP10 DUP10 DUP15 PUSH1 0x40 MLOAD PUSH2 0x2053 SWAP10 SWAP9 SWAP8 SWAP7 SWAP6 SWAP5 SWAP4 SWAP3 SWAP2 SWAP1 PUSH2 0x36CA JUMP JUMPDEST PUSH1 0x40 MLOAD DUP1 SWAP2 SUB SWAP1 LOG1 SLOAD SWAP10 SWAP9 POP POP POP POP POP POP POP POP POP JUMP JUMPDEST PUSH1 0x4 PUSH2 0x2074 DUP3 PUSH2 0x114C JUMP JUMPDEST PUSH1 0x7 DUP2 GT ISZERO PUSH2 0x2085 JUMPI PUSH2 0x2085 PUSH2 0x38F4 JUMP JUMPDEST EQ PUSH2 0x2106 JUMPI PUSH1 0x40 MLOAD PUSH3 0x461BCD PUSH1 0xE5 SHL DUP2 MSTORE PUSH1 0x20 PUSH1 0x4 DUP3 ADD MSTORE PUSH1 0x44 PUSH1 0x24 DUP3 ADD DUP2 SWAP1 MSTORE PUSH32 0x476F7665726E6F72427261766F3A3A71756575653A2070726F706F73616C2063 SWAP1 DUP3 ADD MSTORE PUSH32 0x616E206F6E6C7920626520717565756564206966206974206973207375636365 PUSH1 0x64 DUP3 ADD MSTORE PUSH4 0x19591959 PUSH1 0xE2 SHL PUSH1 0x84 DUP3 ADD MSTORE PUSH1 0xA4 ADD PUSH2 0x904 JUMP JUMPDEST PUSH1 0x0 DUP2 DUP2 MSTORE PUSH1 0xA PUSH1 0x20 SWAP1 DUP2 MSTORE PUSH1 0x40 DUP1 DUP4 KECCAK256 PUSH1 0x8 SLOAD DUP3 MLOAD PUSH4 0xD48571F PUSH1 0xE3 SHL DUP2 MSTORE SWAP3 MLOAD SWAP2 SWAP5 SWAP4 PUSH1 0x1 PUSH1 0x1 PUSH1 0xA0 SHL SUB SWAP1 SWAP2 AND SWAP3 PUSH4 0x6A42B8F8 SWAP3 PUSH1 0x4 DUP1 DUP4 ADD SWAP4 SWAP3 DUP3 SWAP1 SUB ADD DUP2 DUP7 DUP1 EXTCODESIZE ISZERO DUP1 ISZERO PUSH2 0x2158 JUMPI PUSH1 0x0 DUP1 REVERT JUMPDEST POP GAS STATICCALL ISZERO DUP1 ISZERO PUSH2 0x216C JUMPI RETURNDATASIZE PUSH1 0x0 DUP1 RETURNDATACOPY RETURNDATASIZE PUSH1 0x0 REVERT JUMPDEST POP POP POP POP PUSH1 0x40 MLOAD RETURNDATASIZE PUSH1 0x1F NOT PUSH1 0x1F DUP3 ADD AND DUP3 ADD DUP1 PUSH1 0x40 MSTORE POP DUP2 ADD SWAP1 PUSH2 0x2190 SWAP2 SWAP1 PUSH2 0x3226 JUMP JUMPDEST PUSH2 0x219A SWAP1 TIMESTAMP PUSH2 0x382F JUMP JUMPDEST SWAP1 POP PUSH1 0x0 JUMPDEST PUSH1 0x3 DUP4 ADD SLOAD DUP2 LT ISZERO PUSH2 0x2364 JUMPI PUSH2 0x2352 DUP4 PUSH1 0x3 ADD DUP3 DUP2 SLOAD DUP2 LT PUSH2 0x21C3 JUMPI PUSH2 0x21C3 PUSH2 0x390A JUMP JUMPDEST PUSH1 0x0 SWAP2 DUP3 MSTORE PUSH1 0x20 SWAP1 SWAP2 KECCAK256 ADD SLOAD PUSH1 0x4 DUP6 ADD DUP1 SLOAD PUSH1 0x1 PUSH1 0x1 PUSH1 0xA0 SHL SUB SWAP1 SWAP3 AND SWAP2 DUP5 SWAP1 DUP2 LT PUSH2 0x21F1 JUMPI PUSH2 0x21F1 PUSH2 0x390A JUMP JUMPDEST SWAP1 PUSH1 0x0 MSTORE PUSH1 0x20 PUSH1 0x0 KECCAK256 ADD SLOAD DUP6 PUSH1 0x5 ADD DUP5 DUP2 SLOAD DUP2 LT PUSH2 0x2211 JUMPI PUSH2 0x2211 PUSH2 0x390A JUMP JUMPDEST SWAP1 PUSH1 0x0 MSTORE PUSH1 0x20 PUSH1 0x0 KECCAK256 ADD DUP1 SLOAD PUSH2 0x2226 SWAP1 PUSH2 0x388E JUMP JUMPDEST DUP1 PUSH1 0x1F ADD PUSH1 0x20 DUP1 SWAP2 DIV MUL PUSH1 0x20 ADD PUSH1 0x40 MLOAD SWAP1 DUP2 ADD PUSH1 0x40 MSTORE DUP1 SWAP3 SWAP2 SWAP1 DUP2 DUP2 MSTORE PUSH1 0x20 ADD DUP3 DUP1 SLOAD PUSH2 0x2252 SWAP1 PUSH2 0x388E JUMP JUMPDEST DUP1 ISZERO PUSH2 0x229F JUMPI DUP1 PUSH1 0x1F LT PUSH2 0x2274 JUMPI PUSH2 0x100 DUP1 DUP4 SLOAD DIV MUL DUP4 MSTORE SWAP2 PUSH1 0x20 ADD SWAP2 PUSH2 0x229F JUMP JUMPDEST DUP3 ADD SWAP2 SWAP1 PUSH1 0x0 MSTORE PUSH1 0x20 PUSH1 0x0 KECCAK256 SWAP1 JUMPDEST DUP2 SLOAD DUP2 MSTORE SWAP1 PUSH1 0x1 ADD SWAP1 PUSH1 0x20 ADD DUP1 DUP4 GT PUSH2 0x2282 JUMPI DUP3 SWAP1 SUB PUSH1 0x1F AND DUP3 ADD SWAP2 JUMPDEST POP POP POP POP POP DUP7 PUSH1 0x6 ADD DUP6 DUP2 SLOAD DUP2 LT PUSH2 0x22B9 JUMPI PUSH2 0x22B9 PUSH2 0x390A JUMP JUMPDEST SWAP1 PUSH1 0x0 MSTORE PUSH1 0x20 PUSH1 0x0 KECCAK256 ADD DUP1 SLOAD PUSH2 0x22CE SWAP1 PUSH2 0x388E JUMP JUMPDEST DUP1 PUSH1 0x1F ADD PUSH1 0x20 DUP1 SWAP2 DIV MUL PUSH1 0x20 ADD PUSH1 0x40 MLOAD SWAP1 DUP2 ADD PUSH1 0x40 MSTORE DUP1 SWAP3 SWAP2 SWAP1 DUP2 DUP2 MSTORE PUSH1 0x20 ADD DUP3 DUP1 SLOAD PUSH2 0x22FA SWAP1 PUSH2 0x388E JUMP JUMPDEST DUP1 ISZERO PUSH2 0x2347 JUMPI DUP1 PUSH1 0x1F LT PUSH2 0x231C JUMPI PUSH2 0x100 DUP1 DUP4 SLOAD DIV MUL DUP4 MSTORE SWAP2 PUSH1 0x20 ADD SWAP2 PUSH2 0x2347 JUMP JUMPDEST DUP3 ADD SWAP2 SWAP1 PUSH1 0x0 MSTORE PUSH1 0x20 PUSH1 0x0 KECCAK256 SWAP1 JUMPDEST DUP2 SLOAD DUP2 MSTORE SWAP1 PUSH1 0x1 ADD SWAP1 PUSH1 0x20 ADD DUP1 DUP4 GT PUSH2 0x232A JUMPI DUP3 SWAP1 SUB PUSH1 0x1F AND DUP3 ADD SWAP2 JUMPDEST POP POP POP POP POP DUP7 PUSH2 0x2A14 JUMP JUMPDEST DUP1 PUSH2 0x235C DUP2 PUSH2 0x38C3 JUMP JUMPDEST SWAP2 POP POP PUSH2 0x219F JUMP JUMPDEST POP PUSH1 0x2 DUP3 ADD DUP2 SWAP1 SSTORE PUSH1 0x40 DUP1 MLOAD DUP5 DUP2 MSTORE PUSH1 0x20 DUP2 ADD DUP4 SWAP1 MSTORE PUSH32 0x9A2E42FD6722813D69113E7D0079D3D940171428DF7373DF9C7F7617CFDA2892 SWAP2 ADD PUSH1 0x40 MLOAD DUP1 SWAP2 SUB SWAP1 LOG1 POP POP POP JUMP JUMPDEST PUSH1 0x1 SLOAD PUSH1 0x1 PUSH1 0x1 PUSH1 0xA0 SHL SUB AND CALLER EQ DUP1 ISZERO PUSH2 0x23C3 JUMPI POP CALLER ISZERO ISZERO JUMPDEST PUSH2 0x2426 JUMPI PUSH1 0x40 MLOAD PUSH3 0x461BCD PUSH1 0xE5 SHL DUP2 MSTORE PUSH1 0x20 PUSH1 0x4 DUP3 ADD MSTORE PUSH1 0x2E PUSH1 0x24 DUP3 ADD MSTORE PUSH32 0x476F7665726E6F72427261766F3A5F61636365707441646D696E3A2070656E64 PUSH1 0x44 DUP3 ADD MSTORE PUSH14 0x696E672061646D696E206F6E6C79 PUSH1 0x90 SHL PUSH1 0x64 DUP3 ADD MSTORE PUSH1 0x84 ADD PUSH2 0x904 JUMP JUMPDEST PUSH1 0x0 DUP1 SLOAD PUSH1 0x1 DUP1 SLOAD PUSH1 0x1 PUSH1 0x1 PUSH1 0xA0 SHL SUB DUP1 DUP3 AND PUSH1 0x1 PUSH1 0x1 PUSH1 0xA0 SHL SUB NOT DUP1 DUP7 AND DUP3 OR SWAP1 SWAP7 SSTORE SWAP5 SWAP1 SWAP2 AND SWAP1 SWAP2 SSTORE PUSH1 0x40 DUP1 MLOAD SWAP2 SWAP1 SWAP3 AND DUP1 DUP3 MSTORE PUSH1 0x20 DUP3 ADD DUP5 SWAP1 MSTORE SWAP3 SWAP2 PUSH32 0xF9FFABCA9C8276E99321725BCB43FB076A6C66A54B7F21C4E8146D8519B417DC SWAP2 ADD PUSH1 0x40 MLOAD DUP1 SWAP2 SUB SWAP1 LOG1 PUSH1 0x1 SLOAD PUSH1 0x40 DUP1 MLOAD PUSH1 0x1 PUSH1 0x1 PUSH1 0xA0 SHL SUB DUP1 DUP6 AND DUP3 MSTORE SWAP1 SWAP3 AND PUSH1 0x20 DUP4 ADD MSTORE PUSH32 0xCA4F2F25D0898EDD99413412FB94012F9E54EC8142F9B093E7720646A95B16A9 SWAP2 ADD PUSH2 0x9C7 JUMP JUMPDEST PUSH1 0x5 PUSH2 0x24DF DUP3 PUSH2 0x114C JUMP JUMPDEST PUSH1 0x7 DUP2 GT ISZERO PUSH2 0x24F0 JUMPI PUSH2 0x24F0 PUSH2 0x38F4 JUMP JUMPDEST EQ PUSH2 0x2571 JUMPI PUSH1 0x40 MLOAD PUSH3 0x461BCD PUSH1 0xE5 SHL DUP2 MSTORE PUSH1 0x20 PUSH1 0x4 DUP3 ADD MSTORE PUSH1 0x45 PUSH1 0x24 DUP3 ADD MSTORE PUSH32 0x476F7665726E6F72427261766F3A3A657865637574653A2070726F706F73616C PUSH1 0x44 DUP3 ADD MSTORE PUSH32 0x2063616E206F6E6C792062652065786563757465642069662069742069732071 PUSH1 0x64 DUP3 ADD MSTORE PUSH5 0x1D595D5959 PUSH1 0xDA SHL PUSH1 0x84 DUP3 ADD MSTORE PUSH1 0xA4 ADD PUSH2 0x904 JUMP JUMPDEST PUSH1 0x0 DUP2 DUP2 MSTORE PUSH1 0xA PUSH1 0x20 MSTORE PUSH1 0x40 DUP2 KECCAK256 PUSH1 0xC DUP2 ADD DUP1 SLOAD PUSH2 0xFF00 NOT AND PUSH2 0x100 OR SWAP1 SSTORE SWAP1 JUMPDEST PUSH1 0x3 DUP3 ADD SLOAD DUP2 LT ISZERO PUSH2 0x26EF JUMPI PUSH1 0x8 SLOAD PUSH1 0x4 DUP4 ADD DUP1 SLOAD PUSH1 0x1 PUSH1 0x1 PUSH1 0xA0 SHL SUB SWAP1 SWAP3 AND SWAP2 PUSH4 0x825F38F SWAP2 SWAP1 DUP5 SWAP1 DUP2 LT PUSH2 0x25CA JUMPI PUSH2 0x25CA PUSH2 0x390A JUMP JUMPDEST SWAP1 PUSH1 0x0 MSTORE PUSH1 0x20 PUSH1 0x0 KECCAK256 ADD SLOAD DUP5 PUSH1 0x3 ADD DUP5 DUP2 SLOAD DUP2 LT PUSH2 0x25EA JUMPI PUSH2 0x25EA PUSH2 0x390A JUMP JUMPDEST PUSH1 0x0 SWAP2 DUP3 MSTORE PUSH1 0x20 SWAP1 SWAP2 KECCAK256 ADD SLOAD PUSH1 0x4 DUP7 ADD DUP1 SLOAD PUSH1 0x1 PUSH1 0x1 PUSH1 0xA0 SHL SUB SWAP1 SWAP3 AND SWAP2 DUP7 SWAP1 DUP2 LT PUSH2 0x2618 JUMPI PUSH2 0x2618 PUSH2 0x390A JUMP JUMPDEST SWAP1 PUSH1 0x0 MSTORE PUSH1 0x20 PUSH1 0x0 KECCAK256 ADD SLOAD DUP7 PUSH1 0x5 ADD DUP7 DUP2 SLOAD DUP2 LT PUSH2 0x2638 JUMPI PUSH2 0x2638 PUSH2 0x390A JUMP JUMPDEST SWAP1 PUSH1 0x0 MSTORE PUSH1 0x20 PUSH1 0x0 KECCAK256 ADD DUP8 PUSH1 0x6 ADD DUP8 DUP2 SLOAD DUP2 LT PUSH2 0x2657 JUMPI PUSH2 0x2657 PUSH2 0x390A JUMP JUMPDEST SWAP1 PUSH1 0x0 MSTORE PUSH1 0x20 PUSH1 0x0 KECCAK256 ADD DUP9 PUSH1 0x2 ADD SLOAD PUSH1 0x40 MLOAD DUP8 PUSH4 0xFFFFFFFF AND PUSH1 0xE0 SHL DUP2 MSTORE PUSH1 0x4 ADD PUSH2 0x2686 SWAP6 SWAP5 SWAP4 SWAP3 SWAP2 SWAP1 PUSH2 0x35FE JUMP JUMPDEST PUSH1 0x0 PUSH1 0x40 MLOAD DUP1 DUP4 SUB DUP2 DUP6 DUP9 DUP1 EXTCODESIZE ISZERO DUP1 ISZERO PUSH2 0x269F JUMPI PUSH1 0x0 DUP1 REVERT JUMPDEST POP GAS CALL ISZERO DUP1 ISZERO PUSH2 0x26B3 JUMPI RETURNDATASIZE PUSH1 0x0 DUP1 RETURNDATACOPY RETURNDATASIZE PUSH1 0x0 REVERT JUMPDEST POP POP POP POP POP PUSH1 0x40 MLOAD RETURNDATASIZE PUSH1 0x0 DUP3 RETURNDATACOPY PUSH1 0x1F RETURNDATASIZE SWAP1 DUP2 ADD PUSH1 0x1F NOT AND DUP3 ADD PUSH1 0x40 MSTORE PUSH2 0x26DC SWAP2 SWAP1 DUP2 ADD SWAP1 PUSH2 0x323F JUMP JUMPDEST POP DUP1 PUSH2 0x26E7 DUP2 PUSH2 0x38C3 JUMP JUMPDEST SWAP2 POP POP PUSH2 0x2592 JUMP JUMPDEST POP PUSH1 0x40 MLOAD DUP3 DUP2 MSTORE PUSH32 0x712AE1383F79AC853F8D882153778E0260EF8F03B504E2866E0593E04D2B291F SWAP1 PUSH1 0x20 ADD PUSH2 0x9C7 JUMP JUMPDEST PUSH1 0x0 PUSH1 0x1 PUSH2 0x272D DUP5 PUSH2 0x114C JUMP JUMPDEST PUSH1 0x7 DUP2 GT ISZERO PUSH2 0x273E JUMPI PUSH2 0x273E PUSH2 0x38F4 JUMP JUMPDEST EQ PUSH2 0x27A5 JUMPI PUSH1 0x40 MLOAD PUSH3 0x461BCD PUSH1 0xE5 SHL DUP2 MSTORE PUSH1 0x20 PUSH1 0x4 DUP3 ADD MSTORE PUSH1 0x31 PUSH1 0x24 DUP3 ADD MSTORE PUSH32 0x476F7665726E6F72427261766F3A3A63617374566F7465496E7465726E616C3A PUSH1 0x44 DUP3 ADD MSTORE PUSH17 0x81D9BDD1A5B99C81A5CC818DB1BDCD959 PUSH1 0x7A SHL PUSH1 0x64 DUP3 ADD MSTORE PUSH1 0x84 ADD PUSH2 0x904 JUMP JUMPDEST PUSH1 0x2 DUP3 PUSH1 0xFF AND GT ISZERO PUSH2 0x2814 JUMPI PUSH1 0x40 MLOAD PUSH3 0x461BCD PUSH1 0xE5 SHL DUP2 MSTORE PUSH1 0x20 PUSH1 0x4 DUP3 ADD MSTORE PUSH1 0x32 PUSH1 0x24 DUP3 ADD MSTORE PUSH32 0x476F7665726E6F72427261766F3A3A63617374566F7465496E7465726E616C3A PUSH1 0x44 DUP3 ADD MSTORE PUSH18 0x20696E76616C696420766F74652074797065 PUSH1 0x70 SHL PUSH1 0x64 DUP3 ADD MSTORE PUSH1 0x84 ADD PUSH2 0x904 JUMP JUMPDEST PUSH1 0x0 DUP4 DUP2 MSTORE PUSH1 0xA PUSH1 0x20 SWAP1 DUP2 MSTORE PUSH1 0x40 DUP1 DUP4 KECCAK256 PUSH1 0x1 PUSH1 0x1 PUSH1 0xA0 SHL SUB DUP9 AND DUP5 MSTORE PUSH1 0xD DUP2 ADD SWAP1 SWAP3 MSTORE SWAP1 SWAP2 KECCAK256 DUP1 SLOAD PUSH1 0xFF AND ISZERO PUSH2 0x28AA JUMPI PUSH1 0x40 MLOAD PUSH3 0x461BCD PUSH1 0xE5 SHL DUP2 MSTORE PUSH1 0x20 PUSH1 0x4 DUP3 ADD MSTORE PUSH1 0x34 PUSH1 0x24 DUP3 ADD MSTORE PUSH32 0x476F7665726E6F72427261766F3A3A63617374566F7465496E7465726E616C3A PUSH1 0x44 DUP3 ADD MSTORE PUSH20 0x81D9BDD195C88185B1C9958591E481D9BDD1959 PUSH1 0x62 SHL PUSH1 0x64 DUP3 ADD MSTORE PUSH1 0x84 ADD PUSH2 0x904 JUMP JUMPDEST PUSH1 0x9 SLOAD PUSH1 0x7 DUP4 ADD SLOAD PUSH1 0x40 MLOAD PUSH4 0x782D6FE1 PUSH1 0xE0 SHL DUP2 MSTORE PUSH1 0x0 SWAP3 PUSH1 0x1 PUSH1 0x1 PUSH1 0xA0 SHL SUB AND SWAP2 PUSH4 0x782D6FE1 SWAP2 PUSH2 0x28F4 SWAP2 DUP12 SWAP2 PUSH1 0x4 ADD PUSH1 0x1 PUSH1 0x1 PUSH1 0xA0 SHL SUB SWAP3 SWAP1 SWAP3 AND DUP3 MSTORE PUSH1 0x20 DUP3 ADD MSTORE PUSH1 0x40 ADD SWAP1 JUMP JUMPDEST PUSH1 0x20 PUSH1 0x40 MLOAD DUP1 DUP4 SUB DUP2 DUP7 DUP1 EXTCODESIZE ISZERO DUP1 ISZERO PUSH2 0x290C JUMPI PUSH1 0x0 DUP1 REVERT JUMPDEST POP GAS STATICCALL ISZERO DUP1 ISZERO PUSH2 0x2920 JUMPI RETURNDATASIZE PUSH1 0x0 DUP1 RETURNDATACOPY RETURNDATASIZE PUSH1 0x0 REVERT JUMPDEST POP POP POP POP PUSH1 0x40 MLOAD RETURNDATASIZE PUSH1 0x1F NOT PUSH1 0x1F DUP3 ADD AND DUP3 ADD DUP1 PUSH1 0x40 MSTORE POP DUP2 ADD SWAP1 PUSH2 0x2944 SWAP2 SWAP1 PUSH2 0x33F3 JUMP JUMPDEST SWAP1 POP PUSH1 0xFF DUP6 AND PUSH2 0x2971 JUMPI DUP1 PUSH1 0x1 PUSH1 0x1 PUSH1 0x60 SHL SUB AND DUP4 PUSH1 0xA ADD SLOAD PUSH2 0x2967 SWAP2 SWAP1 PUSH2 0x382F JUMP JUMPDEST PUSH1 0xA DUP5 ADD SSTORE PUSH2 0x29CB JUMP JUMPDEST DUP5 PUSH1 0xFF AND PUSH1 0x1 EQ ISZERO PUSH2 0x29A0 JUMPI DUP1 PUSH1 0x1 PUSH1 0x1 PUSH1 0x60 SHL SUB AND DUP4 PUSH1 0x9 ADD SLOAD PUSH2 0x2996 SWAP2 SWAP1 PUSH2 0x382F JUMP JUMPDEST PUSH1 0x9 DUP5 ADD SSTORE PUSH2 0x29CB JUMP JUMPDEST DUP5 PUSH1 0xFF AND PUSH1 0x2 EQ ISZERO PUSH2 0x29CB JUMPI DUP1 PUSH1 0x1 PUSH1 0x1 PUSH1 0x60 SHL SUB AND DUP4 PUSH1 0xB ADD SLOAD PUSH2 0x29C5 SWAP2 SWAP1 PUSH2 0x382F JUMP JUMPDEST PUSH1 0xB DUP5 ADD SSTORE JUMPDEST DUP2 SLOAD PUSH1 0x1 PUSH1 0x1 PUSH1 0x60 SHL SUB DUP3 AND PUSH3 0x10000 MUL PUSH14 0xFFFFFFFFFFFFFFFFFFFFFFFF0000 NOT PUSH1 0xFF DUP9 AND PUSH2 0x100 MUL PUSH2 0xFFFF NOT SWAP1 SWAP4 AND SWAP3 SWAP1 SWAP3 OR PUSH1 0x1 OR SWAP2 SWAP1 SWAP2 AND OR SWAP1 SWAP2 SSTORE SWAP2 POP POP SWAP4 SWAP3 POP POP POP JUMP JUMPDEST PUSH1 0x8 SLOAD PUSH1 0x40 MLOAD PUSH1 0x1 PUSH1 0x1 PUSH1 0xA0 SHL SUB SWAP1 SWAP2 AND SWAP1 PUSH4 0xF2B06537 SWAP1 PUSH2 0x2A42 SWAP1 DUP9 SWAP1 DUP9 SWAP1 DUP9 SWAP1 DUP9 SWAP1 DUP9 SWAP1 PUSH1 0x20 ADD PUSH2 0x35B2 JUMP JUMPDEST PUSH1 0x40 MLOAD PUSH1 0x20 DUP2 DUP4 SUB SUB DUP2 MSTORE SWAP1 PUSH1 0x40 MSTORE DUP1 MLOAD SWAP1 PUSH1 0x20 ADD KECCAK256 PUSH1 0x40 MLOAD DUP3 PUSH4 0xFFFFFFFF AND PUSH1 0xE0 SHL DUP2 MSTORE PUSH1 0x4 ADD PUSH2 0x2A76 SWAP2 DUP2 MSTORE PUSH1 0x20 ADD SWAP1 JUMP JUMPDEST PUSH1 0x20 PUSH1 0x40 MLOAD DUP1 DUP4 SUB DUP2 DUP7 DUP1 EXTCODESIZE ISZERO DUP1 ISZERO PUSH2 0x2A8E JUMPI PUSH1 0x0 DUP1 REVERT JUMPDEST POP GAS STATICCALL ISZERO DUP1 ISZERO PUSH2 0x2AA2 JUMPI RETURNDATASIZE PUSH1 0x0 DUP1 RETURNDATACOPY RETURNDATASIZE PUSH1 0x0 REVERT JUMPDEST POP POP POP POP PUSH1 0x40 MLOAD RETURNDATASIZE PUSH1 0x1F NOT PUSH1 0x1F DUP3 ADD AND DUP3 ADD DUP1 PUSH1 0x40 MSTORE POP DUP2 ADD SWAP1 PUSH2 0x2AC6 SWAP2 SWAP1 PUSH2 0x3204 JUMP JUMPDEST ISZERO PUSH2 0x2B57 JUMPI PUSH1 0x40 MLOAD PUSH3 0x461BCD PUSH1 0xE5 SHL DUP2 MSTORE PUSH1 0x20 PUSH1 0x4 DUP3 ADD MSTORE PUSH1 0x55 PUSH1 0x24 DUP3 ADD MSTORE PUSH32 0x476F7665726E6F72427261766F3A3A71756575654F72526576657274496E7465 PUSH1 0x44 DUP3 ADD MSTORE PUSH32 0x726E616C3A206964656E746963616C2070726F706F73616C20616374696F6E20 PUSH1 0x64 DUP3 ADD MSTORE PUSH21 0x616C72656164792071756575656420617420657461 PUSH1 0x58 SHL PUSH1 0x84 DUP3 ADD MSTORE PUSH1 0xA4 ADD PUSH2 0x904 JUMP JUMPDEST PUSH1 0x8 SLOAD PUSH1 0x40 MLOAD PUSH4 0x3A66F901 PUSH1 0xE0 SHL DUP2 MSTORE PUSH1 0x1 PUSH1 0x1 PUSH1 0xA0 SHL SUB SWAP1 SWAP2 AND SWAP1 PUSH4 0x3A66F901 SWAP1 PUSH2 0x2B8F SWAP1 DUP9 SWAP1 DUP9 SWAP1 DUP9 SWAP1 DUP9 SWAP1 DUP9 SWAP1 PUSH1 0x4 ADD PUSH2 0x35B2 JUMP JUMPDEST PUSH1 0x20 PUSH1 0x40 MLOAD DUP1 DUP4 SUB DUP2 PUSH1 0x0 DUP8 DUP1 EXTCODESIZE ISZERO DUP1 ISZERO PUSH2 0x2BA9 JUMPI PUSH1 0x0 DUP1 REVERT JUMPDEST POP GAS CALL ISZERO DUP1 ISZERO PUSH2 0x2BBD JUMPI RETURNDATASIZE PUSH1 0x0 DUP1 RETURNDATACOPY RETURNDATASIZE PUSH1 0x0 REVERT JUMPDEST POP POP POP POP PUSH1 0x40 MLOAD RETURNDATASIZE PUSH1 0x1F NOT PUSH1 0x1F DUP3 ADD AND DUP3 ADD DUP1 PUSH1 0x40 MSTORE POP DUP2 ADD SWAP1 PUSH2 0x2BE1 SWAP2 SWAP1 PUSH2 0x3226 JUMP JUMPDEST POP POP POP POP POP POP JUMP JUMPDEST DUP3 DUP1 SLOAD DUP3 DUP3 SSTORE SWAP1 PUSH1 0x0 MSTORE PUSH1 0x20 PUSH1 0x0 KECCAK256 SWAP1 DUP2 ADD SWAP3 DUP3 ISZERO PUSH2 0x2C3E JUMPI SWAP2 PUSH1 0x20 MUL DUP3 ADD JUMPDEST DUP3 DUP2 GT ISZERO PUSH2 0x2C3E JUMPI DUP3 MLOAD DUP3 SLOAD PUSH1 0x1 PUSH1 0x1 PUSH1 0xA0 SHL SUB NOT AND PUSH1 0x1 PUSH1 0x1 PUSH1 0xA0 SHL SUB SWAP1 SWAP2 AND OR DUP3 SSTORE PUSH1 0x20 SWAP1 SWAP3 ADD SWAP2 PUSH1 0x1 SWAP1 SWAP2 ADD SWAP1 PUSH2 0x2C09 JUMP JUMPDEST POP PUSH2 0x2C4A SWAP3 SWAP2 POP PUSH2 0x2D3B JUMP JUMPDEST POP SWAP1 JUMP JUMPDEST DUP3 DUP1 SLOAD DUP3 DUP3 SSTORE SWAP1 PUSH1 0x0 MSTORE PUSH1 0x20 PUSH1 0x0 KECCAK256 SWAP1 DUP2 ADD SWAP3 DUP3 ISZERO PUSH2 0x2C3E JUMPI SWAP2 PUSH1 0x20 MUL DUP3 ADD JUMPDEST DUP3 DUP2 GT ISZERO PUSH2 0x2C3E JUMPI DUP3 MLOAD DUP3 SSTORE SWAP2 PUSH1 0x20 ADD SWAP2 SWAP1 PUSH1 0x1 ADD SWAP1 PUSH2 0x2C6E JUMP JUMPDEST DUP3 DUP1 SLOAD DUP3 DUP3 SSTORE SWAP1 PUSH1 0x0 MSTORE PUSH1 0x20 PUSH1 0x0 KECCAK256 SWAP1 DUP2 ADD SWAP3 DUP3 ISZERO PUSH2 0x2CD6 JUMPI SWAP2 PUSH1 0x20 MUL DUP3 ADD JUMPDEST DUP3 DUP2 GT ISZERO PUSH2 0x2CD6 JUMPI DUP3 MLOAD DUP1 MLOAD PUSH2 0x2CC6 SWAP2 DUP5 SWAP2 PUSH1 0x20 SWAP1 SWAP2 ADD SWAP1 PUSH2 0x2D50 JUMP JUMPDEST POP SWAP2 PUSH1 0x20 ADD SWAP2 SWAP1 PUSH1 0x1 ADD SWAP1 PUSH2 0x2CA9 JUMP JUMPDEST POP PUSH2 0x2C4A SWAP3 SWAP2 POP PUSH2 0x2DC3 JUMP JUMPDEST DUP3 DUP1 SLOAD DUP3 DUP3 SSTORE SWAP1 PUSH1 0x0 MSTORE PUSH1 0x20 PUSH1 0x0 KECCAK256 SWAP1 DUP2 ADD SWAP3 DUP3 ISZERO PUSH2 0x2D2F JUMPI SWAP2 PUSH1 0x20 MUL DUP3 ADD JUMPDEST DUP3 DUP2 GT ISZERO PUSH2 0x2D2F JUMPI DUP3 MLOAD DUP1 MLOAD PUSH2 0x2D1F SWAP2 DUP5 SWAP2 PUSH1 0x20 SWAP1 SWAP2 ADD SWAP1 PUSH2 0x2D50 JUMP JUMPDEST POP SWAP2 PUSH1 0x20 ADD SWAP2 SWAP1 PUSH1 0x1 ADD SWAP1 PUSH2 0x2D02 JUMP JUMPDEST POP PUSH2 0x2C4A SWAP3 SWAP2 POP PUSH2 0x2DE0 JUMP JUMPDEST JUMPDEST DUP1 DUP3 GT ISZERO PUSH2 0x2C4A JUMPI PUSH1 0x0 DUP2 SSTORE PUSH1 0x1 ADD PUSH2 0x2D3C JUMP JUMPDEST DUP3 DUP1 SLOAD PUSH2 0x2D5C SWAP1 PUSH2 0x388E JUMP JUMPDEST SWAP1 PUSH1 0x0 MSTORE PUSH1 0x20 PUSH1 0x0 KECCAK256 SWAP1 PUSH1 0x1F ADD PUSH1 0x20 SWAP1 DIV DUP2 ADD SWAP3 DUP3 PUSH2 0x2D7E JUMPI PUSH1 0x0 DUP6 SSTORE PUSH2 0x2C3E JUMP JUMPDEST DUP3 PUSH1 0x1F LT PUSH2 0x2D97 JUMPI DUP1 MLOAD PUSH1 0xFF NOT AND DUP4 DUP1 ADD OR DUP6 SSTORE PUSH2 0x2C3E JUMP JUMPDEST DUP3 DUP1 ADD PUSH1 0x1 ADD DUP6 SSTORE DUP3 ISZERO PUSH2 0x2C3E JUMPI SWAP2 DUP3 ADD DUP3 DUP2 GT ISZERO PUSH2 0x2C3E JUMPI DUP3 MLOAD DUP3 SSTORE SWAP2 PUSH1 0x20 ADD SWAP2 SWAP1 PUSH1 0x1 ADD SWAP1 PUSH2 0x2C6E JUMP JUMPDEST DUP1 DUP3 GT ISZERO PUSH2 0x2C4A JUMPI PUSH1 0x0 PUSH2 0x2DD7 DUP3 DUP3 PUSH2 0x2DFD JUMP JUMPDEST POP PUSH1 0x1 ADD PUSH2 0x2DC3 JUMP JUMPDEST DUP1 DUP3 GT ISZERO PUSH2 0x2C4A JUMPI PUSH1 0x0 PUSH2 0x2DF4 DUP3 DUP3 PUSH2 0x2DFD JUMP JUMPDEST POP PUSH1 0x1 ADD PUSH2 0x2DE0 JUMP JUMPDEST POP DUP1 SLOAD PUSH2 0x2E09 SWAP1 PUSH2 0x388E JUMP JUMPDEST PUSH1 0x0 DUP3 SSTORE DUP1 PUSH1 0x1F LT PUSH2 0x2E19 JUMPI POP POP JUMP JUMPDEST PUSH1 0x1F ADD PUSH1 0x20 SWAP1 DIV SWAP1 PUSH1 0x0 MSTORE PUSH1 0x20 PUSH1 0x0 KECCAK256 SWAP1 DUP2 ADD SWAP1 PUSH2 0x2E37 SWAP2 SWAP1 PUSH2 0x2D3B JUMP JUMPDEST POP JUMP JUMPDEST PUSH1 0x0 PUSH2 0x2E4D PUSH2 0x2E48 DUP5 PUSH2 0x3807 JUMP JUMPDEST PUSH2 0x37B2 JUMP JUMPDEST SWAP1 POP DUP3 DUP2 MSTORE DUP4 DUP4 DUP4 ADD GT ISZERO PUSH2 0x2E61 JUMPI PUSH1 0x0 DUP1 REVERT JUMPDEST DUP3 DUP3 PUSH1 0x20 DUP4 ADD CALLDATACOPY PUSH1 0x0 PUSH1 0x20 DUP5 DUP4 ADD ADD MSTORE SWAP4 SWAP3 POP POP POP JUMP JUMPDEST DUP1 CALLDATALOAD PUSH1 0x1 PUSH1 0x1 PUSH1 0xA0 SHL SUB DUP2 AND DUP2 EQ PUSH2 0x2E8F JUMPI PUSH1 0x0 DUP1 REVERT JUMPDEST SWAP2 SWAP1 POP JUMP JUMPDEST PUSH1 0x0 DUP3 PUSH1 0x1F DUP4 ADD SLT PUSH2 0x2EA5 JUMPI PUSH1 0x0 DUP1 REVERT JUMPDEST DUP2 CALLDATALOAD PUSH1 0x20 PUSH2 0x2EB5 PUSH2 0x2E48 DUP4 PUSH2 0x37E3 JUMP JUMPDEST DUP1 DUP4 DUP3 MSTORE DUP3 DUP3 ADD SWAP2 POP DUP3 DUP7 ADD DUP8 DUP5 DUP7 PUSH1 0x5 SHL DUP10 ADD ADD GT ISZERO PUSH2 0x2ED5 JUMPI PUSH1 0x0 DUP1 REVERT JUMPDEST PUSH1 0x0 JUMPDEST DUP6 DUP2 LT ISZERO PUSH2 0x2EFB JUMPI PUSH2 0x2EE9 DUP3 PUSH2 0x2E78 JUMP JUMPDEST DUP5 MSTORE SWAP3 DUP5 ADD SWAP3 SWAP1 DUP5 ADD SWAP1 PUSH1 0x1 ADD PUSH2 0x2ED8 JUMP JUMPDEST POP SWAP1 SWAP8 SWAP7 POP POP POP POP POP POP POP JUMP JUMPDEST PUSH1 0x0 DUP3 PUSH1 0x1F DUP4 ADD SLT PUSH2 0x2F19 JUMPI PUSH1 0x0 DUP1 REVERT JUMPDEST DUP2 CALLDATALOAD PUSH1 0x20 PUSH2 0x2F29 PUSH2 0x2E48 DUP4 PUSH2 0x37E3 JUMP JUMPDEST DUP1 DUP4 DUP3 MSTORE DUP3 DUP3 ADD SWAP2 POP DUP3 DUP7 ADD DUP8 DUP5 DUP7 PUSH1 0x5 SHL DUP10 ADD ADD GT ISZERO PUSH2 0x2F49 JUMPI PUSH1 0x0 DUP1 REVERT JUMPDEST PUSH1 0x0 JUMPDEST DUP6 DUP2 LT ISZERO PUSH2 0x2EFB JUMPI DUP2 CALLDATALOAD PUSH8 0xFFFFFFFFFFFFFFFF DUP2 GT ISZERO PUSH2 0x2F6B JUMPI PUSH1 0x0 DUP1 REVERT JUMPDEST DUP9 ADD PUSH1 0x3F DUP2 ADD DUP11 SGT PUSH2 0x2F7C JUMPI PUSH1 0x0 DUP1 REVERT JUMPDEST PUSH2 0x2F8D DUP11 DUP8 DUP4 ADD CALLDATALOAD PUSH1 0x40 DUP5 ADD PUSH2 0x2E3A JUMP JUMPDEST DUP6 MSTORE POP SWAP3 DUP5 ADD SWAP3 SWAP1 DUP5 ADD SWAP1 PUSH1 0x1 ADD PUSH2 0x2F4C JUMP JUMPDEST PUSH1 0x0 DUP3 PUSH1 0x1F DUP4 ADD SLT PUSH2 0x2FB1 JUMPI PUSH1 0x0 DUP1 REVERT JUMPDEST DUP2 CALLDATALOAD PUSH1 0x20 PUSH2 0x2FC1 PUSH2 0x2E48 DUP4 PUSH2 0x37E3 JUMP JUMPDEST DUP1 DUP4 DUP3 MSTORE DUP3 DUP3 ADD SWAP2 POP DUP3 DUP7 ADD DUP8 DUP5 DUP7 PUSH1 0x5 SHL DUP10 ADD ADD GT ISZERO PUSH2 0x2FE1 JUMPI PUSH1 0x0 DUP1 REVERT JUMPDEST PUSH1 0x0 DUP1 JUMPDEST DUP7 DUP2 LT ISZERO PUSH2 0x3024 JUMPI DUP3 CALLDATALOAD PUSH8 0xFFFFFFFFFFFFFFFF DUP2 GT ISZERO PUSH2 0x3003 JUMPI DUP3 DUP4 REVERT JUMPDEST PUSH2 0x3011 DUP12 DUP9 DUP4 DUP14 ADD ADD PUSH2 0x3092 JUMP JUMPDEST DUP7 MSTORE POP SWAP4 DUP6 ADD SWAP4 SWAP2 DUP6 ADD SWAP2 PUSH1 0x1 ADD PUSH2 0x2FE5 JUMP JUMPDEST POP SWAP2 SWAP9 SWAP8 POP POP POP POP POP POP POP POP JUMP JUMPDEST PUSH1 0x0 DUP3 PUSH1 0x1F DUP4 ADD SLT PUSH2 0x3043 JUMPI PUSH1 0x0 DUP1 REVERT JUMPDEST DUP2 CALLDATALOAD PUSH1 0x20 PUSH2 0x3053 PUSH2 0x2E48 DUP4 PUSH2 0x37E3 JUMP JUMPDEST DUP1 DUP4 DUP3 MSTORE DUP3 DUP3 ADD SWAP2 POP DUP3 DUP7 ADD DUP8 DUP5 DUP7 PUSH1 0x5 SHL DUP10 ADD ADD GT ISZERO PUSH2 0x3073 JUMPI PUSH1 0x0 DUP1 REVERT JUMPDEST PUSH1 0x0 JUMPDEST DUP6 DUP2 LT ISZERO PUSH2 0x2EFB JUMPI DUP2 CALLDATALOAD DUP5 MSTORE SWAP3 DUP5 ADD SWAP3 SWAP1 DUP5 ADD SWAP1 PUSH1 0x1 ADD PUSH2 0x3076 JUMP JUMPDEST PUSH1 0x0 DUP3 PUSH1 0x1F DUP4 ADD SLT PUSH2 0x30A3 JUMPI PUSH1 0x0 DUP1 REVERT JUMPDEST PUSH2 0x30B2 DUP4 DUP4 CALLDATALOAD PUSH1 0x20 DUP6 ADD PUSH2 0x2E3A JUMP JUMPDEST SWAP4 SWAP3 POP POP POP JUMP JUMPDEST DUP1 CALLDATALOAD PUSH1 0xFF DUP2 AND DUP2 EQ PUSH2 0x2E8F JUMPI PUSH1 0x0 DUP1 REVERT JUMPDEST PUSH1 0x0 PUSH1 0x20 DUP3 DUP5 SUB SLT ISZERO PUSH2 0x30DC JUMPI PUSH1 0x0 DUP1 REVERT JUMPDEST PUSH2 0x30B2 DUP3 PUSH2 0x2E78 JUMP JUMPDEST PUSH1 0x0 DUP1 PUSH1 0x0 DUP1 PUSH1 0x0 PUSH1 0xA0 DUP7 DUP9 SUB SLT ISZERO PUSH2 0x30FD JUMPI PUSH1 0x0 DUP1 REVERT JUMPDEST PUSH2 0x3106 DUP7 PUSH2 0x2E78 JUMP JUMPDEST SWAP5 POP PUSH2 0x3114 PUSH1 0x20 DUP8 ADD PUSH2 0x2E78 JUMP JUMPDEST SWAP5 SWAP8 SWAP5 SWAP7 POP POP POP POP PUSH1 0x40 DUP4 ADD CALLDATALOAD SWAP3 PUSH1 0x60 DUP2 ADD CALLDATALOAD SWAP3 PUSH1 0x80 SWAP1 SWAP2 ADD CALLDATALOAD SWAP2 POP JUMP JUMPDEST PUSH1 0x0 DUP1 PUSH1 0x0 DUP1 PUSH1 0x0 PUSH1 0xA0 DUP7 DUP9 SUB SLT ISZERO PUSH2 0x314A JUMPI PUSH1 0x0 DUP1 REVERT JUMPDEST DUP6 CALLDATALOAD PUSH8 0xFFFFFFFFFFFFFFFF DUP1 DUP3 GT ISZERO PUSH2 0x3162 JUMPI PUSH1 0x0 DUP1 REVERT JUMPDEST PUSH2 0x316E DUP10 DUP4 DUP11 ADD PUSH2 0x2E94 JUMP JUMPDEST SWAP7 POP PUSH1 0x20 DUP9 ADD CALLDATALOAD SWAP2 POP DUP1 DUP3 GT ISZERO PUSH2 0x3184 JUMPI PUSH1 0x0 DUP1 REVERT JUMPDEST PUSH2 0x3190 DUP10 DUP4 DUP11 ADD PUSH2 0x3032 JUMP JUMPDEST SWAP6 POP PUSH1 0x40 DUP9 ADD CALLDATALOAD SWAP2 POP DUP1 DUP3 GT ISZERO PUSH2 0x31A6 JUMPI PUSH1 0x0 DUP1 REVERT JUMPDEST PUSH2 0x31B2 DUP10 DUP4 DUP11 ADD PUSH2 0x2FA0 JUMP JUMPDEST SWAP5 POP PUSH1 0x60 DUP9 ADD CALLDATALOAD SWAP2 POP DUP1 DUP3 GT ISZERO PUSH2 0x31C8 JUMPI PUSH1 0x0 DUP1 REVERT JUMPDEST PUSH2 0x31D4 DUP10 DUP4 DUP11 ADD PUSH2 0x2F08 JUMP JUMPDEST SWAP4 POP PUSH1 0x80 DUP9 ADD CALLDATALOAD SWAP2 POP DUP1 DUP3 GT ISZERO PUSH2 0x31EA JUMPI PUSH1 0x0 DUP1 REVERT JUMPDEST POP PUSH2 0x31F7 DUP9 DUP3 DUP10 ADD PUSH2 0x3092 JUMP JUMPDEST SWAP2 POP POP SWAP3 SWAP6 POP SWAP3 SWAP6 SWAP1 SWAP4 POP JUMP JUMPDEST PUSH1 0x0 PUSH1 0x20 DUP3 DUP5 SUB SLT ISZERO PUSH2 0x3216 JUMPI PUSH1 0x0 DUP1 REVERT JUMPDEST DUP2 MLOAD DUP1 ISZERO ISZERO DUP2 EQ PUSH2 0x30B2 JUMPI PUSH1 0x0 DUP1 REVERT JUMPDEST PUSH1 0x0 PUSH1 0x20 DUP3 DUP5 SUB SLT ISZERO PUSH2 0x3238 JUMPI PUSH1 0x0 DUP1 REVERT JUMPDEST POP MLOAD SWAP2 SWAP1 POP JUMP JUMPDEST PUSH1 0x0 PUSH1 0x20 DUP3 DUP5 SUB SLT ISZERO PUSH2 0x3251 JUMPI PUSH1 0x0 DUP1 REVERT JUMPDEST DUP2 MLOAD PUSH8 0xFFFFFFFFFFFFFFFF DUP2 GT ISZERO PUSH2 0x3268 JUMPI PUSH1 0x0 DUP1 REVERT JUMPDEST DUP3 ADD PUSH1 0x1F DUP2 ADD DUP5 SGT PUSH2 0x3279 JUMPI PUSH1 0x0 DUP1 REVERT JUMPDEST DUP1 MLOAD PUSH2 0x3287 PUSH2 0x2E48 DUP3 PUSH2 0x3807 JUMP JUMPDEST DUP2 DUP2 MSTORE DUP6 PUSH1 0x20 DUP4 DUP6 ADD ADD GT ISZERO PUSH2 0x329C JUMPI PUSH1 0x0 DUP1 REVERT JUMPDEST PUSH2 0x32AD DUP3 PUSH1 0x20 DUP4 ADD PUSH1 0x20 DUP7 ADD PUSH2 0x385E JUMP JUMPDEST SWAP6 SWAP5 POP POP POP POP POP JUMP JUMPDEST PUSH1 0x0 PUSH1 0x20 DUP3 DUP5 SUB SLT ISZERO PUSH2 0x32C8 JUMPI PUSH1 0x0 DUP1 REVERT JUMPDEST POP CALLDATALOAD SWAP2 SWAP1 POP JUMP JUMPDEST PUSH1 0x0 DUP1 PUSH1 0x40 DUP4 DUP6 SUB SLT ISZERO PUSH2 0x32E2 JUMPI PUSH1 0x0 DUP1 REVERT JUMPDEST DUP3 CALLDATALOAD SWAP2 POP PUSH2 0x32F2 PUSH1 0x20 DUP5 ADD PUSH2 0x2E78 JUMP JUMPDEST SWAP1 POP SWAP3 POP SWAP3 SWAP1 POP JUMP JUMPDEST PUSH1 0x0 DUP1 PUSH1 0x40 DUP4 DUP6 SUB SLT ISZERO PUSH2 0x330E JUMPI PUSH1 0x0 DUP1 REVERT JUMPDEST DUP3 CALLDATALOAD SWAP2 POP PUSH2 0x32F2 PUSH1 0x20 DUP5 ADD PUSH2 0x30B9 JUMP JUMPDEST PUSH1 0x0 DUP1 PUSH1 0x0 DUP1 PUSH1 0x60 DUP6 DUP8 SUB SLT ISZERO PUSH2 0x3334 JUMPI PUSH1 0x0 DUP1 REVERT JUMPDEST DUP5 CALLDATALOAD SWAP4 POP PUSH2 0x3344 PUSH1 0x20 DUP7 ADD PUSH2 0x30B9 JUMP JUMPDEST SWAP3 POP PUSH1 0x40 DUP6 ADD CALLDATALOAD PUSH8 0xFFFFFFFFFFFFFFFF DUP1 DUP3 GT ISZERO PUSH2 0x3361 JUMPI PUSH1 0x0 DUP1 REVERT JUMPDEST DUP2 DUP8 ADD SWAP2 POP DUP8 PUSH1 0x1F DUP4 ADD SLT PUSH2 0x3375 JUMPI PUSH1 0x0 DUP1 REVERT JUMPDEST DUP2 CALLDATALOAD DUP2 DUP2 GT ISZERO PUSH2 0x3384 JUMPI PUSH1 0x0 DUP1 REVERT JUMPDEST DUP9 PUSH1 0x20 DUP3 DUP6 ADD ADD GT ISZERO PUSH2 0x3396 JUMPI PUSH1 0x0 DUP1 REVERT JUMPDEST SWAP6 SWAP9 SWAP5 SWAP8 POP POP PUSH1 0x20 ADD SWAP5 POP POP POP JUMP JUMPDEST PUSH1 0x0 DUP1 PUSH1 0x0 DUP1 PUSH1 0x0 PUSH1 0xA0 DUP7 DUP9 SUB SLT ISZERO PUSH2 0x33BD JUMPI PUSH1 0x0 DUP1 REVERT JUMPDEST DUP6 CALLDATALOAD SWAP5 POP PUSH2 0x33CD PUSH1 0x20 DUP8 ADD PUSH2 0x30B9 JUMP JUMPDEST SWAP4 POP PUSH2 0x33DB PUSH1 0x40 DUP8 ADD PUSH2 0x30B9 JUMP JUMPDEST SWAP5 SWAP8 SWAP4 SWAP7 POP SWAP4 SWAP5 PUSH1 0x60 DUP2 ADD CALLDATALOAD SWAP5 POP PUSH1 0x80 ADD CALLDATALOAD SWAP3 SWAP2 POP POP JUMP JUMPDEST PUSH1 0x0 PUSH1 0x20 DUP3 DUP5 SUB SLT ISZERO PUSH2 0x3405 JUMPI PUSH1 0x0 DUP1 REVERT JUMPDEST DUP2 MLOAD PUSH1 0x1 PUSH1 0x1 PUSH1 0x60 SHL SUB DUP2 AND DUP2 EQ PUSH2 0x30B2 JUMPI PUSH1 0x0 DUP1 REVERT JUMPDEST PUSH1 0x0 DUP2 MLOAD DUP1 DUP5 MSTORE PUSH1 0x20 DUP1 DUP6 ADD SWAP5 POP DUP1 DUP5 ADD PUSH1 0x0 JUMPDEST DUP4 DUP2 LT ISZERO PUSH2 0x3455 JUMPI DUP2 MLOAD PUSH1 0x1 PUSH1 0x1 PUSH1 0xA0 SHL SUB AND DUP8 MSTORE SWAP6 DUP3 ADD SWAP6 SWAP1 DUP3 ADD SWAP1 PUSH1 0x1 ADD PUSH2 0x3430 JUMP JUMPDEST POP SWAP5 SWAP6 SWAP5 POP POP POP POP POP JUMP JUMPDEST PUSH1 0x0 DUP2 MLOAD DUP1 DUP5 MSTORE PUSH1 0x20 DUP1 DUP6 ADD DUP1 DUP2 SWAP7 POP DUP4 PUSH1 0x5 SHL DUP2 ADD SWAP2 POP DUP3 DUP7 ADD PUSH1 0x0 JUMPDEST DUP6 DUP2 LT ISZERO PUSH2 0x34A8 JUMPI DUP3 DUP5 SUB DUP10 MSTORE PUSH2 0x3496 DUP5 DUP4 MLOAD PUSH2 0x34E5 JUMP JUMPDEST SWAP9 DUP6 ADD SWAP9 SWAP4 POP SWAP1 DUP5 ADD SWAP1 PUSH1 0x1 ADD PUSH2 0x347E JUMP JUMPDEST POP SWAP2 SWAP8 SWAP7 POP POP POP POP POP POP POP JUMP JUMPDEST PUSH1 0x0 DUP2 MLOAD DUP1 DUP5 MSTORE PUSH1 0x20 DUP1 DUP6 ADD SWAP5 POP DUP1 DUP5 ADD PUSH1 0x0 JUMPDEST DUP4 DUP2 LT ISZERO PUSH2 0x3455 JUMPI DUP2 MLOAD DUP8 MSTORE SWAP6 DUP3 ADD SWAP6 SWAP1 DUP3 ADD SWAP1 PUSH1 0x1 ADD PUSH2 0x34C9 JUMP JUMPDEST PUSH1 0x0 DUP2 MLOAD DUP1 DUP5 MSTORE PUSH2 0x34FD DUP2 PUSH1 0x20 DUP7 ADD PUSH1 0x20 DUP7 ADD PUSH2 0x385E JUMP JUMPDEST PUSH1 0x1F ADD PUSH1 0x1F NOT AND SWAP3 SWAP1 SWAP3 ADD PUSH1 0x20 ADD SWAP3 SWAP2 POP POP JUMP JUMPDEST DUP1 SLOAD PUSH1 0x0 SWAP1 PUSH1 0x1 DUP2 DUP2 SHR SWAP1 DUP1 DUP4 AND DUP1 PUSH2 0x352B JUMPI PUSH1 0x7F DUP4 AND SWAP3 POP JUMPDEST PUSH1 0x20 DUP1 DUP5 LT DUP3 EQ ISZERO PUSH2 0x354D JUMPI PUSH4 0x4E487B71 PUSH1 0xE0 SHL PUSH1 0x0 MSTORE PUSH1 0x22 PUSH1 0x4 MSTORE PUSH1 0x24 PUSH1 0x0 REVERT JUMPDEST DUP4 DUP9 MSTORE DUP2 DUP1 ISZERO PUSH2 0x3564 JUMPI PUSH1 0x1 DUP2 EQ PUSH2 0x3578 JUMPI PUSH2 0x35A6 JUMP JUMPDEST PUSH1 0xFF NOT DUP7 AND DUP10 DUP4 ADD MSTORE PUSH1 0x40 DUP10 ADD SWAP7 POP PUSH2 0x35A6 JUMP JUMPDEST DUP8 PUSH1 0x0 MSTORE DUP2 PUSH1 0x0 KECCAK256 PUSH1 0x0 JUMPDEST DUP7 DUP2 LT ISZERO PUSH2 0x359E JUMPI DUP2 SLOAD DUP12 DUP3 ADD DUP6 ADD MSTORE SWAP1 DUP6 ADD SWAP1 DUP4 ADD PUSH2 0x3583 JUMP JUMPDEST DUP11 ADD DUP4 ADD SWAP8 POP POP JUMPDEST POP POP POP POP POP POP SWAP3 SWAP2 POP POP JUMP JUMPDEST PUSH1 0x1 DUP1 PUSH1 0xA0 SHL SUB DUP7 AND DUP2 MSTORE DUP5 PUSH1 0x20 DUP3 ADD MSTORE PUSH1 0xA0 PUSH1 0x40 DUP3 ADD MSTORE PUSH1 0x0 PUSH2 0x35D9 PUSH1 0xA0 DUP4 ADD DUP7 PUSH2 0x34E5 JUMP JUMPDEST DUP3 DUP2 SUB PUSH1 0x60 DUP5 ADD MSTORE PUSH2 0x35EB DUP2 DUP7 PUSH2 0x34E5 JUMP JUMPDEST SWAP2 POP POP DUP3 PUSH1 0x80 DUP4 ADD MSTORE SWAP7 SWAP6 POP POP POP POP POP POP JUMP JUMPDEST PUSH1 0x1 DUP1 PUSH1 0xA0 SHL SUB DUP7 AND DUP2 MSTORE DUP5 PUSH1 0x20 DUP3 ADD MSTORE PUSH1 0xA0 PUSH1 0x40 DUP3 ADD MSTORE PUSH1 0x0 PUSH2 0x3625 PUSH1 0xA0 DUP4 ADD DUP7 PUSH2 0x3511 JUMP JUMPDEST DUP3 DUP2 SUB PUSH1 0x60 DUP5 ADD MSTORE PUSH2 0x35EB DUP2 DUP7 PUSH2 0x3511 JUMP JUMPDEST PUSH1 0x80 DUP2 MSTORE PUSH1 0x0 PUSH2 0x364A PUSH1 0x80 DUP4 ADD DUP8 PUSH2 0x341C JUMP JUMPDEST DUP3 DUP2 SUB PUSH1 0x20 DUP5 ADD MSTORE PUSH2 0x365C DUP2 DUP8 PUSH2 0x34B5 JUMP JUMPDEST SWAP1 POP DUP3 DUP2 SUB PUSH1 0x40 DUP5 ADD MSTORE PUSH2 0x3670 DUP2 DUP7 PUSH2 0x3460 JUMP JUMPDEST SWAP1 POP DUP3 DUP2 SUB PUSH1 0x60 DUP5 ADD MSTORE PUSH2 0x3684 DUP2 DUP6 PUSH2 0x3460 JUMP JUMPDEST SWAP8 SWAP7 POP POP POP POP POP POP POP JUMP JUMPDEST PUSH1 0x20 DUP2 ADD PUSH1 0x8 DUP4 LT PUSH2 0x36B1 JUMPI PUSH4 0x4E487B71 PUSH1 0xE0 SHL PUSH1 0x0 MSTORE PUSH1 0x21 PUSH1 0x4 MSTORE PUSH1 0x24 PUSH1 0x0 REVERT JUMPDEST SWAP2 SWAP1 MSTORE SWAP1 JUMP JUMPDEST PUSH1 0x20 DUP2 MSTORE PUSH1 0x0 PUSH2 0x30B2 PUSH1 0x20 DUP4 ADD DUP5 PUSH2 0x34E5 JUMP JUMPDEST DUP10 DUP2 MSTORE PUSH1 0x1 PUSH1 0x1 PUSH1 0xA0 SHL SUB DUP10 AND PUSH1 0x20 DUP3 ADD MSTORE PUSH2 0x120 PUSH1 0x40 DUP3 ADD DUP2 SWAP1 MSTORE PUSH1 0x0 SWAP1 PUSH2 0x36F5 DUP4 DUP3 ADD DUP12 PUSH2 0x341C JUMP JUMPDEST SWAP1 POP DUP3 DUP2 SUB PUSH1 0x60 DUP5 ADD MSTORE PUSH2 0x3709 DUP2 DUP11 PUSH2 0x34B5 JUMP JUMPDEST SWAP1 POP DUP3 DUP2 SUB PUSH1 0x80 DUP5 ADD MSTORE PUSH2 0x371D DUP2 DUP10 PUSH2 0x3460 JUMP JUMPDEST SWAP1 POP DUP3 DUP2 SUB PUSH1 0xA0 DUP5 ADD MSTORE PUSH2 0x3731 DUP2 DUP9 PUSH2 0x3460 JUMP JUMPDEST SWAP1 POP DUP6 PUSH1 0xC0 DUP5 ADD MSTORE DUP5 PUSH1 0xE0 DUP5 ADD MSTORE DUP3 DUP2 SUB PUSH2 0x100 DUP5 ADD MSTORE PUSH2 0x3752 DUP2 DUP6 PUSH2 0x34E5 JUMP JUMPDEST SWAP13 SWAP12 POP POP POP POP POP POP POP POP POP POP POP POP JUMP JUMPDEST DUP6 DUP2 MSTORE PUSH1 0xFF DUP6 AND PUSH1 0x20 DUP3 ADD MSTORE PUSH1 0x1 PUSH1 0x1 PUSH1 0x60 SHL SUB DUP5 AND PUSH1 0x40 DUP3 ADD MSTORE PUSH1 0x80 PUSH1 0x60 DUP3 ADD MSTORE DUP2 PUSH1 0x80 DUP3 ADD MSTORE DUP2 DUP4 PUSH1 0xA0 DUP4 ADD CALLDATACOPY PUSH1 0x0 DUP2 DUP4 ADD PUSH1 0xA0 SWAP1 DUP2 ADD SWAP2 SWAP1 SWAP2 MSTORE PUSH1 0x1F SWAP1 SWAP3 ADD PUSH1 0x1F NOT AND ADD ADD SWAP5 SWAP4 POP POP POP POP JUMP JUMPDEST PUSH1 0x40 MLOAD PUSH1 0x1F DUP3 ADD PUSH1 0x1F NOT AND DUP2 ADD PUSH8 0xFFFFFFFFFFFFFFFF DUP2 GT DUP3 DUP3 LT OR ISZERO PUSH2 0x37DB JUMPI PUSH2 0x37DB PUSH2 0x3920 JUMP JUMPDEST PUSH1 0x40 MSTORE SWAP2 SWAP1 POP JUMP JUMPDEST PUSH1 0x0 PUSH8 0xFFFFFFFFFFFFFFFF DUP3 GT ISZERO PUSH2 0x37FD JUMPI PUSH2 0x37FD PUSH2 0x3920 JUMP JUMPDEST POP PUSH1 0x5 SHL PUSH1 0x20 ADD SWAP1 JUMP JUMPDEST PUSH1 0x0 PUSH8 0xFFFFFFFFFFFFFFFF DUP3 GT ISZERO PUSH2 0x3821 JUMPI PUSH2 0x3821 PUSH2 0x3920 JUMP JUMPDEST POP PUSH1 0x1F ADD PUSH1 0x1F NOT AND PUSH1 0x20 ADD SWAP1 JUMP JUMPDEST PUSH1 0x0 DUP3 NOT DUP3 GT ISZERO PUSH2 0x3842 JUMPI PUSH2 0x3842 PUSH2 0x38DE JUMP JUMPDEST POP ADD SWAP1 JUMP JUMPDEST PUSH1 0x0 DUP3 DUP3 LT ISZERO PUSH2 0x3859 JUMPI PUSH2 0x3859 PUSH2 0x38DE JUMP JUMPDEST POP SUB SWAP1 JUMP JUMPDEST PUSH1 0x0 JUMPDEST DUP4 DUP2 LT ISZERO PUSH2 0x3879 JUMPI DUP2 DUP2 ADD MLOAD DUP4 DUP3 ADD MSTORE PUSH1 0x20 ADD PUSH2 0x3861 JUMP JUMPDEST DUP4 DUP2 GT ISZERO PUSH2 0x3888 JUMPI PUSH1 0x0 DUP5 DUP5 ADD MSTORE JUMPDEST POP POP POP POP JUMP JUMPDEST PUSH1 0x1 DUP2 DUP2 SHR SWAP1 DUP3 AND DUP1 PUSH2 0x38A2 JUMPI PUSH1 0x7F DUP3 AND SWAP2 POP JUMPDEST PUSH1 0x20 DUP3 LT DUP2 EQ ISZERO PUSH2 0x1317 JUMPI PUSH4 0x4E487B71 PUSH1 0xE0 SHL PUSH1 0x0 MSTORE PUSH1 0x22 PUSH1 0x4 MSTORE PUSH1 0x24 PUSH1 0x0 REVERT JUMPDEST PUSH1 0x0 PUSH1 0x0 NOT DUP3 EQ ISZERO PUSH2 0x38D7 JUMPI PUSH2 0x38D7 PUSH2 0x38DE JUMP JUMPDEST POP PUSH1 0x1 ADD SWAP1 JUMP JUMPDEST PUSH4 0x4E487B71 PUSH1 0xE0 SHL PUSH1 0x0 MSTORE PUSH1 0x11 PUSH1 0x4 MSTORE PUSH1 0x24 PUSH1 0x0 REVERT JUMPDEST PUSH4 0x4E487B71 PUSH1 0xE0 SHL PUSH1 0x0 MSTORE PUSH1 0x21 PUSH1 0x4 MSTORE PUSH1 0x24 PUSH1 0x0 REVERT JUMPDEST PUSH4 0x4E487B71 PUSH1 0xE0 SHL PUSH1 0x0 MSTORE PUSH1 0x32 PUSH1 0x4 MSTORE PUSH1 0x24 PUSH1 0x0 REVERT JUMPDEST PUSH4 0x4E487B71 PUSH1 0xE0 SHL PUSH1 0x0 MSTORE PUSH1 0x41 PUSH1 0x4 MSTORE PUSH1 0x24 PUSH1 0x0 REVERT INVALID SELFBALANCE PUSH16 0x7665726E6F72427261766F3A3A696E69 PUSH21 0x69616C697A653A20696E76616CA264697066735822 SLT KECCAK256 0x1F DUP15 0x4B PUSH23 0xD91A3C4E3193AA2597CE765BF331E5A320910DBF4ACB7 0xAC 0xCD PUSH1 0x2C OR PUSH5 0x736F6C6343 STOP ADDMOD MOD STOP CALLER "
        },
        "gasEstimates": {
          "creation": {
            "codeDepositCost": "2946400",
            "executionCost": "3232",
            "totalCost": "2949632"
          },
          "external": {
            "BALLOT_TYPEHASH()": "284",
            "DOMAIN_TYPEHASH()": "307",
            "MAX_PROPOSAL_THRESHOLD()": "263",
            "MAX_VOTING_DELAY()": "329",
            "MAX_VOTING_PERIOD()": "307",
            "MIN_PROPOSAL_THRESHOLD()": "241",
            "MIN_VOTING_DELAY()": "328",
            "MIN_VOTING_PERIOD()": "329",
            "_acceptAdmin()": "55671",
            "_setPendingAdmin(address)": "28140",
            "_setProposalThreshold(uint256)": "28054",
            "_setVotingDelay(uint256)": "28076",
            "_setVotingPeriod(uint256)": "28088",
            "admin()": "2403",
            "cancel(uint256)": "infinite",
            "castVote(uint256,uint8)": "infinite",
            "castVoteBySig(uint256,uint8,uint8,bytes32,bytes32)": "infinite",
            "castVoteWithReason(uint256,uint8,string)": "infinite",
            "execute(uint256)": "infinite",
            "getActions(uint256)": "infinite",
            "getReceipt(uint256,address)": "3082",
            "governanceToken()": "2425",
            "implementation()": "2470",
            "initialProposalId()": "2405",
            "initialize(address,address,uint256,uint256,uint256)": "infinite",
            "latestProposalIds(address)": "2565",
            "name()": "infinite",
            "pendingAdmin()": "2427",
            "proposalCount()": "2428",
            "proposalMaxOperations()": "285",
            "proposalThreshold()": "2340",
            "proposals(uint256)": "19657",
            "propose(address[],uint256[],string[],bytes[],string)": "infinite",
            "queue(uint256)": "infinite",
            "quorumVotes()": "241",
            "state(uint256)": "infinite",
            "timelock()": "2448",
            "votingDelay()": "2429",
            "votingPeriod()": "2364"
          },
          "internal": {
            "castVoteInternal(address,uint256,uint8)": "infinite",
            "getChainIdInternal()": "infinite",
            "queueOrRevertInternal(address,uint256,string memory,bytes memory,uint256)": "infinite"
          }
        },
        "methodIdentifiers": {
          "BALLOT_TYPEHASH()": "deaaa7cc",
          "DOMAIN_TYPEHASH()": "20606b70",
          "MAX_PROPOSAL_THRESHOLD()": "25fd935a",
          "MAX_VOTING_DELAY()": "b1126263",
          "MAX_VOTING_PERIOD()": "a64e024a",
          "MIN_PROPOSAL_THRESHOLD()": "791f5d23",
          "MIN_VOTING_DELAY()": "e48083fe",
          "MIN_VOTING_PERIOD()": "215809ca",
          "_acceptAdmin()": "e9c714f2",
          "_setPendingAdmin(address)": "b71d1a0c",
          "_setProposalThreshold(uint256)": "17ba1b8b",
          "_setVotingDelay(uint256)": "1dfb1b5a",
          "_setVotingPeriod(uint256)": "0ea2d98c",
          "admin()": "f851a440",
          "cancel(uint256)": "40e58ee5",
          "castVote(uint256,uint8)": "56781388",
          "castVoteBySig(uint256,uint8,uint8,bytes32,bytes32)": "3bccf4fd",
          "castVoteWithReason(uint256,uint8,string)": "7b3c71d3",
          "execute(uint256)": "fe0d94c1",
          "getActions(uint256)": "328dd982",
          "getReceipt(uint256,address)": "e23a9a52",
          "governanceToken()": "f96dae0a",
          "implementation()": "5c60da1b",
          "initialProposalId()": "fc4eee42",
          "initialize(address,address,uint256,uint256,uint256)": "d13f90b4",
          "latestProposalIds(address)": "17977c61",
          "name()": "06fdde03",
          "pendingAdmin()": "26782247",
          "proposalCount()": "da35c664",
          "proposalMaxOperations()": "7bdbe4d0",
          "proposalThreshold()": "b58131b0",
          "proposals(uint256)": "013cf08b",
          "propose(address[],uint256[],string[],bytes[],string)": "da95691a",
          "queue(uint256)": "ddf0b009",
          "quorumVotes()": "24bc1a64",
          "state(uint256)": "3e4f49e6",
          "timelock()": "d33219b4",
          "votingDelay()": "3932abb1",
          "votingPeriod()": "02a251a3"
        }
      },
      "storageLayout": {
        "storage": [
          {
            "astId": 1395,
            "contract": "contracts/governance/GovernorBravo.sol:GovernorBravo",
            "label": "admin",
            "offset": 0,
            "slot": "0",
            "type": "t_address"
          },
          {
            "astId": 1398,
            "contract": "contracts/governance/GovernorBravo.sol:GovernorBravo",
            "label": "pendingAdmin",
            "offset": 0,
            "slot": "1",
            "type": "t_address"
          },
          {
            "astId": 1401,
            "contract": "contracts/governance/GovernorBravo.sol:GovernorBravo",
            "label": "implementation",
            "offset": 0,
            "slot": "2",
            "type": "t_address"
          },
          {
            "astId": 1408,
            "contract": "contracts/governance/GovernorBravo.sol:GovernorBravo",
            "label": "votingDelay",
            "offset": 0,
            "slot": "3",
            "type": "t_uint256"
          },
          {
            "astId": 1411,
            "contract": "contracts/governance/GovernorBravo.sol:GovernorBravo",
            "label": "votingPeriod",
            "offset": 0,
            "slot": "4",
            "type": "t_uint256"
          },
          {
            "astId": 1414,
            "contract": "contracts/governance/GovernorBravo.sol:GovernorBravo",
            "label": "proposalThreshold",
            "offset": 0,
            "slot": "5",
            "type": "t_uint256"
          },
          {
            "astId": 1417,
            "contract": "contracts/governance/GovernorBravo.sol:GovernorBravo",
            "label": "initialProposalId",
            "offset": 0,
            "slot": "6",
            "type": "t_uint256"
          },
          {
            "astId": 1420,
            "contract": "contracts/governance/GovernorBravo.sol:GovernorBravo",
            "label": "proposalCount",
            "offset": 0,
            "slot": "7",
            "type": "t_uint256"
          },
          {
            "astId": 1424,
            "contract": "contracts/governance/GovernorBravo.sol:GovernorBravo",
            "label": "timelock",
            "offset": 0,
            "slot": "8",
            "type": "t_contract(TimelockInterface)1576"
          },
          {
            "astId": 1428,
            "contract": "contracts/governance/GovernorBravo.sol:GovernorBravo",
            "label": "governanceToken",
            "offset": 0,
            "slot": "9",
            "type": "t_contract(GovernanceTokenInterface)1586"
          },
          {
            "astId": 1434,
            "contract": "contracts/governance/GovernorBravo.sol:GovernorBravo",
            "label": "proposals",
            "offset": 0,
            "slot": "10",
            "type": "t_mapping(t_uint256,t_struct(Proposal)1492_storage)"
          },
          {
            "astId": 1439,
            "contract": "contracts/governance/GovernorBravo.sol:GovernorBravo",
            "label": "latestProposalIds",
            "offset": 0,
            "slot": "11",
            "type": "t_mapping(t_address,t_uint256)"
          }
        ],
        "types": {
          "t_address": {
            "encoding": "inplace",
            "label": "address",
            "numberOfBytes": "20"
          },
          "t_array(t_address)dyn_storage": {
            "base": "t_address",
            "encoding": "dynamic_array",
            "label": "address[]",
            "numberOfBytes": "32"
          },
          "t_array(t_bytes_storage)dyn_storage": {
            "base": "t_bytes_storage",
            "encoding": "dynamic_array",
            "label": "bytes[]",
            "numberOfBytes": "32"
          },
          "t_array(t_string_storage)dyn_storage": {
            "base": "t_string_storage",
            "encoding": "dynamic_array",
            "label": "string[]",
            "numberOfBytes": "32"
          },
          "t_array(t_uint256)dyn_storage": {
            "base": "t_uint256",
            "encoding": "dynamic_array",
            "label": "uint256[]",
            "numberOfBytes": "32"
          },
          "t_bool": {
            "encoding": "inplace",
            "label": "bool",
            "numberOfBytes": "1"
          },
          "t_bytes_storage": {
            "encoding": "bytes",
            "label": "bytes",
            "numberOfBytes": "32"
          },
          "t_contract(GovernanceTokenInterface)1586": {
            "encoding": "inplace",
            "label": "contract GovernanceTokenInterface",
            "numberOfBytes": "20"
          },
          "t_contract(TimelockInterface)1576": {
            "encoding": "inplace",
            "label": "contract TimelockInterface",
            "numberOfBytes": "20"
          },
          "t_mapping(t_address,t_struct(Receipt)1502_storage)": {
            "encoding": "mapping",
            "key": "t_address",
            "label": "mapping(address => struct GovernorBravoDelegateStorageV1.Receipt)",
            "numberOfBytes": "32",
            "value": "t_struct(Receipt)1502_storage"
          },
          "t_mapping(t_address,t_uint256)": {
            "encoding": "mapping",
            "key": "t_address",
            "label": "mapping(address => uint256)",
            "numberOfBytes": "32",
            "value": "t_uint256"
          },
          "t_mapping(t_uint256,t_struct(Proposal)1492_storage)": {
            "encoding": "mapping",
            "key": "t_uint256",
            "label": "mapping(uint256 => struct GovernorBravoDelegateStorageV1.Proposal)",
            "numberOfBytes": "32",
            "value": "t_struct(Proposal)1492_storage"
          },
          "t_string_storage": {
            "encoding": "bytes",
            "label": "string",
            "numberOfBytes": "32"
          },
          "t_struct(Proposal)1492_storage": {
            "encoding": "inplace",
            "label": "struct GovernorBravoDelegateStorageV1.Proposal",
            "members": [
              {
                "astId": 1442,
                "contract": "contracts/governance/GovernorBravo.sol:GovernorBravo",
                "label": "id",
                "offset": 0,
                "slot": "0",
                "type": "t_uint256"
              },
              {
                "astId": 1445,
                "contract": "contracts/governance/GovernorBravo.sol:GovernorBravo",
                "label": "proposer",
                "offset": 0,
                "slot": "1",
                "type": "t_address"
              },
              {
                "astId": 1448,
                "contract": "contracts/governance/GovernorBravo.sol:GovernorBravo",
                "label": "eta",
                "offset": 0,
                "slot": "2",
                "type": "t_uint256"
              },
              {
                "astId": 1452,
                "contract": "contracts/governance/GovernorBravo.sol:GovernorBravo",
                "label": "targets",
                "offset": 0,
                "slot": "3",
                "type": "t_array(t_address)dyn_storage"
              },
              {
                "astId": 1456,
                "contract": "contracts/governance/GovernorBravo.sol:GovernorBravo",
                "label": "values",
                "offset": 0,
                "slot": "4",
                "type": "t_array(t_uint256)dyn_storage"
              },
              {
                "astId": 1460,
                "contract": "contracts/governance/GovernorBravo.sol:GovernorBravo",
                "label": "signatures",
                "offset": 0,
                "slot": "5",
                "type": "t_array(t_string_storage)dyn_storage"
              },
              {
                "astId": 1464,
                "contract": "contracts/governance/GovernorBravo.sol:GovernorBravo",
                "label": "calldatas",
                "offset": 0,
                "slot": "6",
                "type": "t_array(t_bytes_storage)dyn_storage"
              },
              {
                "astId": 1467,
                "contract": "contracts/governance/GovernorBravo.sol:GovernorBravo",
                "label": "startBlock",
                "offset": 0,
                "slot": "7",
                "type": "t_uint256"
              },
              {
                "astId": 1470,
                "contract": "contracts/governance/GovernorBravo.sol:GovernorBravo",
                "label": "endBlock",
                "offset": 0,
                "slot": "8",
                "type": "t_uint256"
              },
              {
                "astId": 1473,
                "contract": "contracts/governance/GovernorBravo.sol:GovernorBravo",
                "label": "forVotes",
                "offset": 0,
                "slot": "9",
                "type": "t_uint256"
              },
              {
                "astId": 1476,
                "contract": "contracts/governance/GovernorBravo.sol:GovernorBravo",
                "label": "againstVotes",
                "offset": 0,
                "slot": "10",
                "type": "t_uint256"
              },
              {
                "astId": 1479,
                "contract": "contracts/governance/GovernorBravo.sol:GovernorBravo",
                "label": "abstainVotes",
                "offset": 0,
                "slot": "11",
                "type": "t_uint256"
              },
              {
                "astId": 1482,
                "contract": "contracts/governance/GovernorBravo.sol:GovernorBravo",
                "label": "canceled",
                "offset": 0,
                "slot": "12",
                "type": "t_bool"
              },
              {
                "astId": 1485,
                "contract": "contracts/governance/GovernorBravo.sol:GovernorBravo",
                "label": "executed",
                "offset": 1,
                "slot": "12",
                "type": "t_bool"
              },
              {
                "astId": 1491,
                "contract": "contracts/governance/GovernorBravo.sol:GovernorBravo",
                "label": "receipts",
                "offset": 0,
                "slot": "13",
                "type": "t_mapping(t_address,t_struct(Receipt)1502_storage)"
              }
            ],
            "numberOfBytes": "448"
          },
          "t_struct(Receipt)1502_storage": {
            "encoding": "inplace",
            "label": "struct GovernorBravoDelegateStorageV1.Receipt",
            "members": [
              {
                "astId": 1495,
                "contract": "contracts/governance/GovernorBravo.sol:GovernorBravo",
                "label": "hasVoted",
                "offset": 0,
                "slot": "0",
                "type": "t_bool"
              },
              {
                "astId": 1498,
                "contract": "contracts/governance/GovernorBravo.sol:GovernorBravo",
                "label": "support",
                "offset": 1,
                "slot": "0",
                "type": "t_uint8"
              },
              {
                "astId": 1501,
                "contract": "contracts/governance/GovernorBravo.sol:GovernorBravo",
                "label": "votes",
                "offset": 2,
                "slot": "0",
                "type": "t_uint96"
              }
            ],
            "numberOfBytes": "32"
          },
          "t_uint256": {
            "encoding": "inplace",
            "label": "uint256",
            "numberOfBytes": "32"
          },
          "t_uint8": {
            "encoding": "inplace",
            "label": "uint8",
            "numberOfBytes": "1"
          },
          "t_uint96": {
            "encoding": "inplace",
            "label": "uint96",
            "numberOfBytes": "12"
          }
        }
      },
      "userdoc": {
        "events": {
          "NewAdmin(address,address)": {
            "notice": "Emitted when pendingAdmin is accepted, which means admin is updated"
          },
          "NewImplementation(address,address)": {
            "notice": "Emitted when implementation is changed"
          },
          "NewPendingAdmin(address,address)": {
            "notice": "Emitted when pendingAdmin is changed"
          },
          "ProposalCanceled(uint256)": {
            "notice": "An event emitted when a proposal has been canceled"
          },
          "ProposalCreated(uint256,address,address[],uint256[],string[],bytes[],uint256,uint256,string)": {
            "notice": "An event emitted when a new proposal is created"
          },
          "ProposalExecuted(uint256)": {
            "notice": "An event emitted when a proposal has been executed in the Timelock"
          },
          "ProposalQueued(uint256,uint256)": {
            "notice": "An event emitted when a proposal has been queued in the Timelock"
          },
          "ProposalThresholdSet(uint256,uint256)": {
            "notice": "Emitted when proposal threshold is set"
          },
          "VoteCast(address,uint256,uint8,uint256,string)": {
            "notice": "An event emitted when a vote has been cast on a proposal"
          },
          "VotingDelaySet(uint256,uint256)": {
            "notice": "An event emitted when the voting delay is set"
          },
          "VotingPeriodSet(uint256,uint256)": {
            "notice": "An event emitted when the voting period is set"
          }
        },
        "kind": "user",
        "methods": {
          "BALLOT_TYPEHASH()": {
            "notice": "The EIP-712 typehash for the ballot struct used by the contract"
          },
          "DOMAIN_TYPEHASH()": {
            "notice": "The EIP-712 typehash for the contract's domain"
          },
          "MAX_PROPOSAL_THRESHOLD()": {
            "notice": "The maximum setable proposal threshold"
          },
          "MAX_VOTING_DELAY()": {
            "notice": "The max setable voting delay"
          },
          "MAX_VOTING_PERIOD()": {
            "notice": "The max setable voting period"
          },
          "MIN_PROPOSAL_THRESHOLD()": {
            "notice": "The minimum setable proposal threshold"
          },
          "MIN_VOTING_DELAY()": {
            "notice": "The min setable voting delay"
          },
          "MIN_VOTING_PERIOD()": {
            "notice": "The minimum setable voting period"
          },
          "_acceptAdmin()": {
            "notice": "Accepts transfer of admin rights. msg.sender must be pendingAdmin"
          },
          "_setPendingAdmin(address)": {
            "notice": "Begins transfer of admin rights. The newPendingAdmin must call `_acceptAdmin` to finalize the transfer."
          },
          "_setProposalThreshold(uint256)": {
            "notice": "Admin function for setting the proposal threshold"
          },
          "_setVotingDelay(uint256)": {
            "notice": "Admin function for setting the voting delay"
          },
          "_setVotingPeriod(uint256)": {
            "notice": "Admin function for setting the voting period"
          },
          "admin()": {
            "notice": "Administrator for this contract"
          },
          "cancel(uint256)": {
            "notice": "Cancels a proposal only if sender is the proposer, or proposer delegates dropped below proposal threshold"
          },
          "castVote(uint256,uint8)": {
            "notice": "Cast a vote for a proposal"
          },
          "castVoteBySig(uint256,uint8,uint8,bytes32,bytes32)": {
            "notice": "Cast a vote for a proposal by signature"
          },
          "castVoteWithReason(uint256,uint8,string)": {
            "notice": "Cast a vote for a proposal with a reason"
          },
          "execute(uint256)": {
            "notice": "Executes a queued proposal if eta has passed"
          },
          "getActions(uint256)": {
            "notice": "Gets actions of a proposal"
          },
          "getReceipt(uint256,address)": {
            "notice": "Gets the receipt for a voter on a given proposal"
          },
          "governanceToken()": {
            "notice": "The address of the governance token"
          },
          "implementation()": {
            "notice": "Active brains of Governor"
          },
          "initialProposalId()": {
            "notice": "Initial proposal id set at become"
          },
          "initialize(address,address,uint256,uint256,uint256)": {
            "notice": "Used to initialize the contract during delegator contructor"
          },
          "latestProposalIds(address)": {
            "notice": "The latest proposal for each proposer"
          },
          "name()": {
            "notice": "The name of this contract"
          },
          "pendingAdmin()": {
            "notice": "Pending administrator for this contract"
          },
          "proposalCount()": {
            "notice": "The total number of proposals"
          },
          "proposalMaxOperations()": {
            "notice": "The maximum number of actions that can be included in a proposal"
          },
          "proposalThreshold()": {
            "notice": "The number of votes required in order for a voter to become a proposer"
          },
          "proposals(uint256)": {
            "notice": "The official record of all proposals ever proposed"
          },
          "propose(address[],uint256[],string[],bytes[],string)": {
            "notice": "Function used to propose a new proposal. Sender must have delegates above the proposal threshold"
          },
          "queue(uint256)": {
            "notice": "Queues a proposal of state succeeded"
          },
          "quorumVotes()": {
            "notice": "The number of votes in support of a proposal required in order for a quorum to be reached and for a vote to succeed"
          },
          "state(uint256)": {
            "notice": "Gets the state of a proposal"
          },
          "timelock()": {
            "notice": "The address of the Protocol Timelock"
          },
          "votingDelay()": {
            "notice": "The delay before voting on a proposal may take place, once proposed, in blocks"
          },
          "votingPeriod()": {
            "notice": "The duration of voting on a proposal, in blocks"
          }
        },
        "version": 1
      }
    }
  }
}