{
  "_format": "hh-sol-artifact-1",
  "contractName": "SmartTrade",
  "sourceName": "contracts/automate/SmartTrade.sol",
  "abi": [
    {
      "inputs": [
        {
          "internalType": "address",
          "name": "_balance",
          "type": "address"
        }
      ],
      "stateMutability": "nonpayable",
      "type": "constructor"
    },
    {
      "anonymous": false,
      "inputs": [
        {
          "indexed": true,
          "internalType": "address",
          "name": "balance",
          "type": "address"
        }
      ],
      "name": "BalanceChanged",
      "type": "event"
    },
    {
      "anonymous": false,
      "inputs": [
        {
          "indexed": true,
          "internalType": "uint256",
          "name": "id",
          "type": "uint256"
        }
      ],
      "name": "OrderCanceled",
      "type": "event"
    },
    {
      "anonymous": false,
      "inputs": [
        {
          "indexed": true,
          "internalType": "uint256",
          "name": "id",
          "type": "uint256"
        }
      ],
      "name": "OrderCompleted",
      "type": "event"
    },
    {
      "anonymous": false,
      "inputs": [
        {
          "indexed": true,
          "internalType": "uint256",
          "name": "id",
          "type": "uint256"
        },
        {
          "indexed": true,
          "internalType": "address",
          "name": "customer",
          "type": "address"
        }
      ],
      "name": "OrderCreated",
      "type": "event"
    },
    {
      "anonymous": false,
      "inputs": [
        {
          "indexed": true,
          "internalType": "address",
          "name": "previousOwner",
          "type": "address"
        },
        {
          "indexed": true,
          "internalType": "address",
          "name": "newOwner",
          "type": "address"
        }
      ],
      "name": "OwnershipTransferred",
      "type": "event"
    },
    {
      "inputs": [],
      "name": "activeOrders",
      "outputs": [
        {
          "internalType": "uint256[]",
          "name": "oids",
          "type": "uint256[]"
        }
      ],
      "stateMutability": "view",
      "type": "function"
    },
    {
      "inputs": [],
      "name": "balance",
      "outputs": [
        {
          "internalType": "contract ApprovableBalance",
          "name": "",
          "type": "address"
        }
      ],
      "stateMutability": "view",
      "type": "function"
    },
    {
      "inputs": [
        {
          "internalType": "uint256",
          "name": "oid",
          "type": "uint256"
        }
      ],
      "name": "cancelOrder",
      "outputs": [],
      "stateMutability": "nonpayable",
      "type": "function"
    },
    {
      "inputs": [
        {
          "internalType": "address",
          "name": "_balance",
          "type": "address"
        }
      ],
      "name": "changeBalance",
      "outputs": [],
      "stateMutability": "nonpayable",
      "type": "function"
    },
    {
      "inputs": [
        {
          "internalType": "uint256",
          "name": "oid",
          "type": "uint256"
        },
        {
          "internalType": "uint256",
          "name": "gasFee",
          "type": "uint256"
        },
        {
          "internalType": "uint256",
          "name": "protocolFee",
          "type": "uint256"
        },
        {
          "internalType": "uint256",
          "name": "deadline",
          "type": "uint256"
        }
      ],
      "name": "check",
      "outputs": [],
      "stateMutability": "nonpayable",
      "type": "function"
    },
    {
      "inputs": [
        {
          "internalType": "uint256",
          "name": "amountIn",
          "type": "uint256"
        },
        {
          "internalType": "address",
          "name": "router",
          "type": "address"
        },
        {
          "internalType": "address[]",
          "name": "path",
          "type": "address[]"
        },
        {
          "components": [
            {
              "internalType": "uint256",
              "name": "amountOut",
              "type": "uint256"
            },
            {
              "internalType": "uint256",
              "name": "amountOutMin",
              "type": "uint256"
            },
            {
              "internalType": "uint256",
              "name": "throttle",
              "type": "uint256"
            },
            {
              "internalType": "uint256",
              "name": "throttleBlock",
              "type": "uint256"
            }
          ],
          "internalType": "struct SmartTrade.Limit",
          "name": "takeProfit",
          "type": "tuple"
        },
        {
          "components": [
            {
              "internalType": "uint256",
              "name": "amountOut",
              "type": "uint256"
            },
            {
              "internalType": "uint256",
              "name": "amountOutMin",
              "type": "uint256"
            },
            {
              "internalType": "uint256",
              "name": "throttle",
              "type": "uint256"
            },
            {
              "internalType": "uint256",
              "name": "throttleBlock",
              "type": "uint256"
            }
          ],
          "internalType": "struct SmartTrade.Limit",
          "name": "stopLoss",
          "type": "tuple"
        }
      ],
      "name": "createOrder",
      "outputs": [
        {
          "internalType": "uint256",
          "name": "oid",
          "type": "uint256"
        }
      ],
      "stateMutability": "nonpayable",
      "type": "function"
    },
    {
      "inputs": [
        {
          "internalType": "uint256",
          "name": "oid",
          "type": "uint256"
        }
      ],
      "name": "isActive",
      "outputs": [
        {
          "internalType": "bool",
          "name": "",
          "type": "bool"
        }
      ],
      "stateMutability": "view",
      "type": "function"
    },
    {
      "inputs": [
        {
          "internalType": "uint256",
          "name": "",
          "type": "uint256"
        }
      ],
      "name": "orders",
      "outputs": [
        {
          "internalType": "uint256",
          "name": "id",
          "type": "uint256"
        },
        {
          "internalType": "address",
          "name": "customer",
          "type": "address"
        },
        {
          "internalType": "uint256",
          "name": "amountIn",
          "type": "uint256"
        },
        {
          "internalType": "address",
          "name": "router",
          "type": "address"
        },
        {
          "components": [
            {
              "internalType": "uint256",
              "name": "amountOut",
              "type": "uint256"
            },
            {
              "internalType": "uint256",
              "name": "amountOutMin",
              "type": "uint256"
            },
            {
              "internalType": "uint256",
              "name": "throttle",
              "type": "uint256"
            },
            {
              "internalType": "uint256",
              "name": "throttleBlock",
              "type": "uint256"
            }
          ],
          "internalType": "struct SmartTrade.Limit",
          "name": "takeProfit",
          "type": "tuple"
        },
        {
          "components": [
            {
              "internalType": "uint256",
              "name": "amountOut",
              "type": "uint256"
            },
            {
              "internalType": "uint256",
              "name": "amountOutMin",
              "type": "uint256"
            },
            {
              "internalType": "uint256",
              "name": "throttle",
              "type": "uint256"
            },
            {
              "internalType": "uint256",
              "name": "throttleBlock",
              "type": "uint256"
            }
          ],
          "internalType": "struct SmartTrade.Limit",
          "name": "stopLoss",
          "type": "tuple"
        }
      ],
      "stateMutability": "view",
      "type": "function"
    },
    {
      "inputs": [],
      "name": "ordersCount",
      "outputs": [
        {
          "internalType": "uint256",
          "name": "",
          "type": "uint256"
        }
      ],
      "stateMutability": "view",
      "type": "function"
    },
    {
      "inputs": [],
      "name": "owner",
      "outputs": [
        {
          "internalType": "address",
          "name": "",
          "type": "address"
        }
      ],
      "stateMutability": "view",
      "type": "function"
    },
    {
      "inputs": [],
      "name": "renounceOwnership",
      "outputs": [],
      "stateMutability": "nonpayable",
      "type": "function"
    },
    {
      "inputs": [
        {
          "internalType": "address",
          "name": "newOwner",
          "type": "address"
        }
      ],
      "name": "transferOwnership",
      "outputs": [],
      "stateMutability": "nonpayable",
      "type": "function"
    }
  ],
  "bytecode": "0x608060405234801561001057600080fd5b506040516117cd3803806117cd83398101604081905261002f916100ad565b6100383361005d565b600180546001600160a01b0319166001600160a01b03929092169190911790556100dd565b600080546001600160a01b038381166001600160a01b0319831681178455604051919092169283917f8be0079c531659141344cd1fd0a4f28419497f9722a3daafe3b4186f6b6457e09190a35050565b6000602082840312156100bf57600080fd5b81516001600160a01b03811681146100d657600080fd5b9392505050565b6116e1806100ec6000396000f3fe608060405234801561001057600080fd5b50600436106100b45760003560e01c80638da5cb5b116100715780638da5cb5b1461013b578063a4726bb814610160578063a85c38ef14610175578063b69ef8a814610232578063be8c21b914610245578063f2fde38b1461025857600080fd5b806313909aca146100b957806335daa731146100ce578063514fcac7146100ea578063715018a6146100fd57806382afd23b146101055780638427e6f714610128575b600080fd5b6100cc6100c7366004611208565b61026b565b005b6100d760055481565b6040519081526020015b60405180910390f35b6100cc6100f83660046112e2565b6102e8565b6100cc610482565b6101186101133660046112e2565b6104b8565b60405190151581526020016100e1565b6100cc6101363660046113db565b6104cb565b6000546001600160a01b03165b6040516001600160a01b0390911681526020016100e1565b610168610706565b6040516100e19190611456565b6102206101833660046112e2565b60026020818152600092835260409283902080546001820154938201546003830154865160808082018952600586015482526006860154828801526007860154828a0152600886015460608084019190915289519182018a5260098701548252600a87015497820197909752600b86015498810198909852600c909401549487019490945290946001600160a01b03948516949193909116919086565b6040516100e1969594939291906114cf565b600154610148906001600160a01b031681565b6100d76102533660046112fb565b6107a8565b6100cc610266366004611208565b610a90565b6000546001600160a01b0316331461029e5760405162461bcd60e51b81526004016102959061149a565b60405180910390fd5b600180546001600160a01b0319166001600160a01b0383169081179091556040517fb9b8a6f5b5776563f2c6478897492499e1b0c907edb2d2ba0cddc34981ea251790600090a250565b600554811061034b5760405162461bcd60e51b815260206004820152602960248201527f536d61727454726164653a3a63616e63656c4f726465723a20696e76616c6964604482015268081bdc99195c881a5960ba1b6064820152608401610295565b610354816104b8565b6103b95760405162461bcd60e51b815260206004820152603060248201527f536d61727454726164653a3a63616e63656c4f726465723a206f72646572206160448201526f1b1c9958591e4818dbdb5c1b195d195960821b6064820152608401610295565b6000818152600260205260409020600101546001600160a01b031633146104485760405162461bcd60e51b815260206004820152603960248201527f536d61727454726164653a3a63616e63656c4f726465723a206f6e6c79206f7760448201527f6e65722063616e2063616e63656c2074686973206f72646572000000000000006064820152608401610295565b610453600382610b2b565b5060405181907fc41f4ceb2938876c35e61b705e9d2f18a02c4a26ce5e049a6308a943d46851b390600090a250565b6000546001600160a01b031633146104ac5760405162461bcd60e51b81526004016102959061149a565b6104b66000610b3e565b565b60006104c5600383610b8e565b92915050565b60055484106105275760405162461bcd60e51b815260206004820152602260248201527f536d61727454726164653a636865636b3a20696e76616c6964206f72646572206044820152611a5960f21b6064820152608401610295565b600084815260026020526040902061053e856104b8565b6105945760405162461bcd60e51b815260206004820152602160248201527f536d61727454726164653a636865636b3a206f7264657220636f6d706c6574656044820152601960fa1b6064820152608401610295565b6003810154600282015460405163d06ca61f60e01b81526000926001600160a01b03169163d06ca61f916105cf919060048088019101611557565b60006040518083038186803b1580156105e757600080fd5b505afa1580156105fb573d6000803e3d6000fd5b505050506040513d6000823e601f3d908101601f191682016040526106239190810190611223565b6005830154909150156106955760058201546004830154829061064890600190611621565b815181106106585761065861167f565b60200260200101511061067c576106758283600501878787610ba6565b5050610700565b6008820154156106955761067582836005018787610c6d565b6009820154156106fd576009820154600483015482906106b790600190611621565b815181106106c7576106c761167f565b6020026020010151116106e4576106758283600901878787610ba6565b600c820154156106fd5761067582836009018787610c6d565b50505b50505050565b60606107126003610ceb565b67ffffffffffffffff81111561072a5761072a611695565b604051908082528060200260200182016040528015610753578160200160208202803683370190505b50905060005b6107636003610ceb565b8110156107a457610775600382610cf5565b8282815181106107875761078761167f565b60209081029190910101528061079c81611638565b915050610759565b5090565b600080861161080d5760405162461bcd60e51b815260206004820152602b60248201527f536d6172745472616465723a3a6372656174654f726465723a20696e76616c6960448201526a321030b6b7bab73a1034b760a91b6064820152608401610295565b6001600160a01b0385166108745760405162461bcd60e51b815260206004820152602860248201527f536d6172745472616465723a3a6372656174654f726465723a20696e76616c6960448201526732103937baba32b960c11b6064820152608401610295565b60018451116108d45760405162461bcd60e51b815260206004820152602660248201527f536d6172745472616465723a3a6372656174654f726465723a20696e76616c696044820152650c840e0c2e8d60d31b6064820152608401610295565b82511515806108e35750815115155b61093d5760405162461bcd60e51b815260206004820152602560248201527f536d6172745472616465723a3a6372656174654f726465723a20656d7074792060448201526437b93232b960d91b6064820152608401610295565b6005805490600061094d83611638565b909155506040805160e0810182528281523360208083019182528284018b81526001600160a01b038b811660608601908152608086018c815260a087018c905260c087018b9052600089815260028087529890208751815595516001870180546001600160a01b031990811692861692909217905593519786019790975551600385018054909316911617905592518051949550919390926109f6926004850192910190611115565b5060a08201518051600583015560208082015160068401556040808301516007850155606092830151600885015560c0909401518051600985015590810151600a84015592830151600b8301559190910151600c90910155610a59600382610d01565b50604051339082907f4ceaea0569072c9203c8c195ffccdbca9851b9d0410f577878a6792f12ec9b5290600090a395945050505050565b6000546001600160a01b03163314610aba5760405162461bcd60e51b81526004016102959061149a565b6001600160a01b038116610b1f5760405162461bcd60e51b815260206004820152602660248201527f4f776e61626c653a206e6577206f776e657220697320746865207a65726f206160448201526564647265737360d01b6064820152608401610295565b610b2881610b3e565b50565b6000610b378383610d0d565b9392505050565b600080546001600160a01b038381166001600160a01b0319831681178455604051919092169283917f8be0079c531659141344cd1fd0a4f28419497f9722a3daafe3b4186f6b6457e09190a35050565b60008181526001830160205260408120541515610b37565b600284015415610c55576003840154610c35574360038501556001805490860154604051632bc43fd960e01b81526001600160a01b0391821660048201526024810186905260006044820152911690632bc43fd990606401600060405180830381600087803b158015610c1857600080fd5b505af1158015610c2c573d6000803e3d6000fd5b50505050610c66565b83600201548460030154610c499190611609565b431015610c5557610c66565b610c66858560010154858585610e00565b5050505050565b600060038401556001805490850154604051632bc43fd960e01b81526001600160a01b0391821660048201526024810185905260448101849052911690632bc43fd990606401600060405180830381600087803b158015610ccd57600080fd5b505af1158015610ce1573d6000803e3d6000fd5b5050505050505050565b60006104c5825490565b6000610b37838361109c565b6000610b3783836110c6565b60008181526001830160205260408120548015610df6576000610d31600183611621565b8554909150600090610d4590600190611621565b9050818114610daa576000866000018281548110610d6557610d6561167f565b9060005260206000200154905080876000018481548110610d8857610d8861167f565b6000918252602080832090910192909255918252600188019052604090208390555b8554869080610dbb57610dbb611669565b6001900381819060005260206000200160009055905585600101600086815260200190815260200160002060009055600193505050506104c5565b60009150506104c5565b6001805490860154604051632bc43fd960e01b81526001600160a01b0391821660048201526024810186905260448101859052911690632bc43fd990606401600060405180830381600087803b158015610e5957600080fd5b505af1158015610e6d573d6000803e3d6000fd5b50508654610e7f925060039150610b2b565b50600085600401600081548110610e9857610e9861167f565b600091825260209091200154600187015460028801546040516323b872dd60e01b81526001600160a01b03928316600482015230602482015260448101919091529116915081906323b872dd90606401602060405180830381600087803b158015610f0257600080fd5b505af1158015610f16573d6000803e3d6000fd5b505050506040513d601f19601f82011682018060405250810190610f3a91906112c0565b506003860154600287015460405163095ea7b360e01b81526001600160a01b03928316600482015260248101919091529082169063095ea7b390604401602060405180830381600087803b158015610f9157600080fd5b505af1158015610fa5573d6000803e3d6000fd5b505050506040513d601f19601f82011682018060405250810190610fc991906112c0565b506003860154600287015460018801546040516338ed173960e01b81526001600160a01b03938416936338ed1739936110129390928b926004808f0193909116918a9101611578565b600060405180830381600087803b15801561102c57600080fd5b505af1158015611040573d6000803e3d6000fd5b505050506040513d6000823e601f3d908101601f191682016040526110689190810190611223565b5085546040517f02a7d4d9472af7118644884b9a0ee443540c0027e938dd0aa35be8ecbe946c0a90600090a2505050505050565b60008260000182815481106110b3576110b361167f565b9060005260206000200154905092915050565b600081815260018301602052604081205461110d575081546001818101845560008481526020808220909301849055845484825282860190935260409020919091556104c5565b5060006104c5565b82805482825590600052602060002090810192821561116a579160200282015b8281111561116a57825182546001600160a01b0319166001600160a01b03909116178255602090920191600190910190611135565b506107a49291505b808211156107a45760008155600101611172565b80356001600160a01b038116811461119d57600080fd5b919050565b6000608082840312156111b457600080fd5b6040516080810181811067ffffffffffffffff821117156111d7576111d7611695565b8060405250809150823581526020830135602082015260408301356040820152606083013560608201525092915050565b60006020828403121561121a57600080fd5b610b3782611186565b6000602080838503121561123657600080fd5b825167ffffffffffffffff81111561124d57600080fd5b8301601f8101851361125e57600080fd5b805161127161126c826115e5565b6115b4565b80828252848201915084840188868560051b870101111561129157600080fd5b600094505b838510156112b4578051835260019490940193918501918501611296565b50979650505050505050565b6000602082840312156112d257600080fd5b81518015158114610b3757600080fd5b6000602082840312156112f457600080fd5b5035919050565b6000806000806000610160868803121561131457600080fd5b853594506020611325818801611186565b9450604087013567ffffffffffffffff81111561134157600080fd5b8701601f8101891361135257600080fd5b803561136061126c826115e5565b8082825284820191508484018c868560051b870101111561138057600080fd5b600094505b838510156113aa5761139681611186565b835260019490940193918501918501611385565b5080975050505050506113c087606088016111a2565b91506113cf8760e088016111a2565b90509295509295909350565b600080600080608085870312156113f157600080fd5b5050823594602084013594506040840135936060013592509050565b6000815480845260208085019450836000528060002060005b8381101561144b5781546001600160a01b031687529582019560019182019101611426565b509495945050505050565b6020808252825182820181905260009190848201906040850190845b8181101561148e57835183529284019291840191600101611472565b50909695505050505050565b6020808252818101527f4f776e61626c653a2063616c6c6572206973206e6f7420746865206f776e6572604082015260600190565b8681526001600160a01b038681166020830152604082018690528416606082015261018081016115236080830185805182526020810151602083015260408101516040830152606081015160608301525050565b8251610100830152602083015161012083015260408301516101408301526060830151610160830152979650505050505050565b828152604060208201526000611570604083018461140d565b949350505050565b85815284602082015260a06040820152600061159760a083018661140d565b6001600160a01b0394909416606083015250608001529392505050565b604051601f8201601f1916810167ffffffffffffffff811182821017156115dd576115dd611695565b604052919050565b600067ffffffffffffffff8211156115ff576115ff611695565b5060051b60200190565b6000821982111561161c5761161c611653565b500190565b60008282101561163357611633611653565b500390565b600060001982141561164c5761164c611653565b5060010190565b634e487b7160e01b600052601160045260246000fd5b634e487b7160e01b600052603160045260246000fd5b634e487b7160e01b600052603260045260246000fd5b634e487b7160e01b600052604160045260246000fdfea2646970667358221220696c3522d9a4805d01587ff0f8ebd9131ef7f9ec2bdbb0e85a16116c482b2a4e64736f6c63430008060033",
  "linkReferences": {},
  "deployedLinkReferences": {}
}