{
  "_format": "hh-sol-artifact-1",
  "contractName": "Balance",
  "sourceName": "contracts/Balance.sol",
  "abi": [
    {
      "inputs": [
        {
          "internalType": "address payable",
          "name": "_treasury",
          "type": "address"
        },
        {
          "internalType": "address",
          "name": "_inspector",
          "type": "address"
        }
      ],
      "stateMutability": "nonpayable",
      "type": "constructor"
    },
    {
      "anonymous": false,
      "inputs": [
        {
          "indexed": true,
          "internalType": "uint256",
          "name": "bill",
          "type": "uint256"
        }
      ],
      "name": "AcceptClaim",
      "type": "event"
    },
    {
      "anonymous": false,
      "inputs": [
        {
          "indexed": true,
          "internalType": "address",
          "name": "account",
          "type": "address"
        },
        {
          "indexed": true,
          "internalType": "uint256",
          "name": "bill",
          "type": "uint256"
        },
        {
          "indexed": false,
          "internalType": "string",
          "name": "description",
          "type": "string"
        }
      ],
      "name": "Claim",
      "type": "event"
    },
    {
      "anonymous": false,
      "inputs": [
        {
          "indexed": true,
          "internalType": "address",
          "name": "consumer",
          "type": "address"
        }
      ],
      "name": "ConsumerAdded",
      "type": "event"
    },
    {
      "anonymous": false,
      "inputs": [
        {
          "indexed": true,
          "internalType": "address",
          "name": "consumer",
          "type": "address"
        }
      ],
      "name": "ConsumerRemoved",
      "type": "event"
    },
    {
      "anonymous": false,
      "inputs": [
        {
          "indexed": true,
          "internalType": "address",
          "name": "recipient",
          "type": "address"
        },
        {
          "indexed": false,
          "internalType": "uint256",
          "name": "amount",
          "type": "uint256"
        }
      ],
      "name": "Deposit",
      "type": "event"
    },
    {
      "anonymous": false,
      "inputs": [
        {
          "indexed": true,
          "internalType": "address",
          "name": "inspector",
          "type": "address"
        }
      ],
      "name": "InspectorChanged",
      "type": "event"
    },
    {
      "anonymous": false,
      "inputs": [
        {
          "indexed": true,
          "internalType": "address",
          "name": "previousOwner",
          "type": "address"
        },
        {
          "indexed": true,
          "internalType": "address",
          "name": "newOwner",
          "type": "address"
        }
      ],
      "name": "OwnershipTransferred",
      "type": "event"
    },
    {
      "anonymous": false,
      "inputs": [
        {
          "indexed": true,
          "internalType": "address",
          "name": "recipient",
          "type": "address"
        },
        {
          "indexed": false,
          "internalType": "uint256",
          "name": "amount",
          "type": "uint256"
        }
      ],
      "name": "Refund",
      "type": "event"
    },
    {
      "anonymous": false,
      "inputs": [
        {
          "indexed": true,
          "internalType": "uint256",
          "name": "bill",
          "type": "uint256"
        }
      ],
      "name": "RejectClaim",
      "type": "event"
    },
    {
      "anonymous": false,
      "inputs": [
        {
          "indexed": true,
          "internalType": "address",
          "name": "treasury",
          "type": "address"
        }
      ],
      "name": "TreasuryChanged",
      "type": "event"
    },
    {
      "inputs": [],
      "name": "MAXIMUM_CLAIM_PACKAGE",
      "outputs": [
        {
          "internalType": "uint256",
          "name": "",
          "type": "uint256"
        }
      ],
      "stateMutability": "view",
      "type": "function"
    },
    {
      "inputs": [],
      "name": "MAXIMUM_CONSUMER_COUNT",
      "outputs": [
        {
          "internalType": "uint256",
          "name": "",
          "type": "uint256"
        }
      ],
      "stateMutability": "view",
      "type": "function"
    },
    {
      "inputs": [
        {
          "internalType": "uint256[]",
          "name": "_bills",
          "type": "uint256[]"
        },
        {
          "internalType": "uint256[]",
          "name": "gasFees",
          "type": "uint256[]"
        },
        {
          "internalType": "uint256[]",
          "name": "protocolFees",
          "type": "uint256[]"
        }
      ],
      "name": "acceptClaims",
      "outputs": [],
      "stateMutability": "nonpayable",
      "type": "function"
    },
    {
      "inputs": [
        {
          "internalType": "address",
          "name": "consumer",
          "type": "address"
        }
      ],
      "name": "addConsumer",
      "outputs": [],
      "stateMutability": "nonpayable",
      "type": "function"
    },
    {
      "inputs": [
        {
          "internalType": "address",
          "name": "",
          "type": "address"
        }
      ],
      "name": "balanceOf",
      "outputs": [
        {
          "internalType": "uint256",
          "name": "",
          "type": "uint256"
        }
      ],
      "stateMutability": "view",
      "type": "function"
    },
    {
      "inputs": [],
      "name": "billCount",
      "outputs": [
        {
          "internalType": "uint256",
          "name": "",
          "type": "uint256"
        }
      ],
      "stateMutability": "view",
      "type": "function"
    },
    {
      "inputs": [
        {
          "internalType": "uint256",
          "name": "",
          "type": "uint256"
        }
      ],
      "name": "bills",
      "outputs": [
        {
          "internalType": "uint256",
          "name": "id",
          "type": "uint256"
        },
        {
          "internalType": "address",
          "name": "claimant",
          "type": "address"
        },
        {
          "internalType": "address",
          "name": "account",
          "type": "address"
        },
        {
          "internalType": "uint256",
          "name": "gasFee",
          "type": "uint256"
        },
        {
          "internalType": "uint256",
          "name": "protocolFee",
          "type": "uint256"
        },
        {
          "internalType": "enum Balance.BillStatus",
          "name": "status",
          "type": "uint8"
        }
      ],
      "stateMutability": "view",
      "type": "function"
    },
    {
      "inputs": [
        {
          "internalType": "address",
          "name": "_inspector",
          "type": "address"
        }
      ],
      "name": "changeInspector",
      "outputs": [],
      "stateMutability": "nonpayable",
      "type": "function"
    },
    {
      "inputs": [
        {
          "internalType": "address payable",
          "name": "_treasury",
          "type": "address"
        }
      ],
      "name": "changeTreasury",
      "outputs": [],
      "stateMutability": "nonpayable",
      "type": "function"
    },
    {
      "inputs": [
        {
          "internalType": "address",
          "name": "account",
          "type": "address"
        },
        {
          "internalType": "uint256",
          "name": "gasFee",
          "type": "uint256"
        },
        {
          "internalType": "uint256",
          "name": "protocolFee",
          "type": "uint256"
        },
        {
          "internalType": "string",
          "name": "description",
          "type": "string"
        }
      ],
      "name": "claim",
      "outputs": [
        {
          "internalType": "uint256",
          "name": "",
          "type": "uint256"
        }
      ],
      "stateMutability": "nonpayable",
      "type": "function"
    },
    {
      "inputs": [
        {
          "internalType": "address",
          "name": "",
          "type": "address"
        }
      ],
      "name": "claimOf",
      "outputs": [
        {
          "internalType": "uint256",
          "name": "",
          "type": "uint256"
        }
      ],
      "stateMutability": "view",
      "type": "function"
    },
    {
      "inputs": [],
      "name": "consumers",
      "outputs": [
        {
          "internalType": "address[]",
          "name": "",
          "type": "address[]"
        }
      ],
      "stateMutability": "view",
      "type": "function"
    },
    {
      "inputs": [
        {
          "internalType": "address",
          "name": "recipient",
          "type": "address"
        }
      ],
      "name": "deposit",
      "outputs": [],
      "stateMutability": "payable",
      "type": "function"
    },
    {
      "inputs": [],
      "name": "inspector",
      "outputs": [
        {
          "internalType": "address",
          "name": "",
          "type": "address"
        }
      ],
      "stateMutability": "view",
      "type": "function"
    },
    {
      "inputs": [
        {
          "internalType": "address",
          "name": "account",
          "type": "address"
        }
      ],
      "name": "netBalanceOf",
      "outputs": [
        {
          "internalType": "uint256",
          "name": "",
          "type": "uint256"
        }
      ],
      "stateMutability": "view",
      "type": "function"
    },
    {
      "inputs": [],
      "name": "owner",
      "outputs": [
        {
          "internalType": "address",
          "name": "",
          "type": "address"
        }
      ],
      "stateMutability": "view",
      "type": "function"
    },
    {
      "inputs": [
        {
          "internalType": "uint256",
          "name": "amount",
          "type": "uint256"
        }
      ],
      "name": "refund",
      "outputs": [],
      "stateMutability": "nonpayable",
      "type": "function"
    },
    {
      "inputs": [
        {
          "internalType": "uint256[]",
          "name": "_bills",
          "type": "uint256[]"
        }
      ],
      "name": "rejectClaims",
      "outputs": [],
      "stateMutability": "nonpayable",
      "type": "function"
    },
    {
      "inputs": [
        {
          "internalType": "address",
          "name": "consumer",
          "type": "address"
        }
      ],
      "name": "removeConsumer",
      "outputs": [],
      "stateMutability": "nonpayable",
      "type": "function"
    },
    {
      "inputs": [],
      "name": "renounceOwnership",
      "outputs": [],
      "stateMutability": "nonpayable",
      "type": "function"
    },
    {
      "inputs": [
        {
          "internalType": "address",
          "name": "newOwner",
          "type": "address"
        }
      ],
      "name": "transferOwnership",
      "outputs": [],
      "stateMutability": "nonpayable",
      "type": "function"
    },
    {
      "inputs": [],
      "name": "treasury",
      "outputs": [
        {
          "internalType": "address payable",
          "name": "",
          "type": "address"
        }
      ],
      "stateMutability": "view",
      "type": "function"
    }
  ],
  "bytecode": "0x60806040523480156200001157600080fd5b5060405162001d1238038062001d128339810160408190526200003491620000c1565b6200003f3362000071565b600180546001600160a01b039384166001600160a01b0319918216179091556002805492909316911617905562000119565b600080546001600160a01b038381166001600160a01b0319831681178455604051919092169283917f8be0079c531659141344cd1fd0a4f28419497f9722a3daafe3b4186f6b6457e09190a35050565b60008060408385031215620000d557600080fd5b8251620000e28162000100565b6020840151909250620000f58162000100565b809150509250929050565b6001600160a01b03811681146200011657600080fd5b50565b611be980620001296000396000f3fe6080604052600436106101355760003560e01c806365e3527d116100ab578063e578a2251161006f578063e578a22514610386578063ed2cee9e146103a6578063eed7c45e146103c6578063f2fde38b146103e6578063f340fa0114610406578063fccd7f721461041957600080fd5b806365e3527d146102e657806370a0823114610306578063715018a6146103335780638da5cb5b14610348578063b14f2a391461036657600080fd5b8063328199b7116100fd578063328199b714610241578063332d950f1461024157806341dc341214610256578063435e29801461026c578063473f01751461028e57806361d027b3146102ae57600080fd5b80630b986a501461013a5780630e27e3df1461016d578063112940f91461018f578063278ecde1146101af57806328bdcde8146101cf575b600080fd5b34801561014657600080fd5b5061015a610155366004611789565b610446565b6040519081526020015b60405180910390f35b34801561017957600080fd5b5061018d610188366004611789565b61047a565b005b34801561019b57600080fd5b5061018d6101aa366004611789565b61055e565b3480156101bb57600080fd5b5061018d6101ca366004611926565b6106b7565b3480156101db57600080fd5b5061022f6101ea366004611926565b60076020526000908152604090208054600182015460028301546003840154600485015460059095015493946001600160a01b03938416949290931692909160ff1686565b60405161016496959493929190611a5a565b34801561024d57600080fd5b5061015a600a81565b34801561026257600080fd5b5061015a60085481565b34801561027857600080fd5b50610281610834565b604051610164919061193f565b34801561029a57600080fd5b5061018d6102a936600461189e565b6108e7565b3480156102ba57600080fd5b506001546102ce906001600160a01b031681565b6040516001600160a01b039091168152602001610164565b3480156102f257600080fd5b5061018d610301366004611861565b610ce6565b34801561031257600080fd5b5061015a610321366004611789565b60056020526000908152604090205481565b34801561033f57600080fd5b5061018d610f32565b34801561035457600080fd5b506000546001600160a01b03166102ce565b34801561037257600080fd5b5061018d610381366004611789565b610f68565b34801561039257600080fd5b5061015a6103a13660046117a6565b610fdc565b3480156103b257600080fd5b506002546102ce906001600160a01b031681565b3480156103d257600080fd5b5061018d6103e1366004611789565b6112a0565b3480156103f257600080fd5b5061018d610401366004611789565b611314565b61018d610414366004611789565b6113af565b34801561042557600080fd5b5061015a610434366004611789565b60066020526000908152604090205481565b6001600160a01b03811660009081526006602090815260408083205460059092528220546104749190611afe565b92915050565b6000546001600160a01b031633146104ad5760405162461bcd60e51b81526004016104a4906119e1565b60405180910390fd5b6104b86003826114e2565b61051b5760405162461bcd60e51b815260206004820152602e60248201527f42616c616e63653a3a616464436f6e73756d65723a20636f6e73756d6572206160448201526d1b1c9958591e481c995b5bdd995960921b60648201526084016104a4565b610526600382611507565b506040516001600160a01b038216907fe3f5ed5f263f1f01764a96edfc7d025f511ec5f7d180e8816908b78bcf74f09890600090a250565b6000546001600160a01b031633146105885760405162461bcd60e51b81526004016104a4906119e1565b6105936003826114e2565b156105f55760405162461bcd60e51b815260206004820152602c60248201527f42616c616e63653a3a616464436f6e73756d65723a20636f6e73756d6572206160448201526b1b1c9958591e48185919195960a21b60648201526084016104a4565b600a610601600361151c565b106106745760405162461bcd60e51b815260206004820152603c60248201527f42616c616e63653a3a616464436f6e73756d65723a20636f6e73756d6572206d60448201527f757374206e6f7420657863656564206d6178696d756d20636f756e740000000060648201526084016104a4565b61067f600382611526565b506040516001600160a01b038216907f28b26e7a3d20aedbc5f8f2ebf7da671c0491723a2b78f47a097b0e46dee0714290600090a250565b33816107165760405162461bcd60e51b815260206004820152602860248201527f42616c616e63653a3a726566756e643a206e65676174697665206f72207a65726044820152671bc81c99599d5b9960c21b60648201526084016104a4565b61071f81610446565b8211156107895760405162461bcd60e51b815260206004820152603260248201527f42616c616e63653a3a726566756e643a20726566756e6420616d6f756e742065604482015271786365656473206e65742062616c616e636560701b60648201526084016104a4565b6001600160a01b038116600090815260056020526040812080548492906107b1908490611afe565b90915550506040516001600160a01b0382169083156108fc029084906000818181858888f193505050501580156107ec573d6000803e3d6000fd5b50806001600160a01b03167fbb28353e4598c3b9199101a66e0989549b659a59a54d2c27fbb183f1932c8e6d8360405161082891815260200190565b60405180910390a25050565b60606000610842600361151c565b67ffffffffffffffff81111561085a5761085a611b88565b604051908082528060200260200182016040528015610883578160200160208202803683370190505b50905060005b610893600361151c565b8110156108e1576108a560038261153b565b8282815181106108b7576108b7611b72565b6001600160a01b0390921660209283029190910190910152806108d981611b15565b915050610889565b50919050565b6002546001600160a01b031633146109115760405162461bcd60e51b81526004016104a490611a16565b81518351148015610923575080518351145b61097d5760405162461bcd60e51b815260206004820152602560248201527f42616c616e63653a3a616363657074436c61696d733a206172697479206d69736044820152640dac2e8c6d60db1b60648201526084016104a4565b600a835111156109de5760405162461bcd60e51b815260206004820152602660248201527f42616c616e63653a3a616363657074436c61696d733a20746f6f206d616e7920604482015265636c61696d7360d01b60648201526084016104a4565b6000805b8451811015610ca45760008582815181106109ff576109ff611b72565b60200260200101519050600081118015610a1b57506008548111155b610a755760405162461bcd60e51b815260206004820152602560248201527f42616c616e63653a3a616363657074436c61696d733a2062696c6c206e6f7420604482015264199bdd5b9960da1b60648201526084016104a4565b6000858381518110610a8957610a89611b72565b602002602001015190506000858481518110610aa757610aa7611b72565b6020026020010151905060008183610abf9190611ae6565b6000858152600760205260408120600481015460038201549394509092610ae69190611ae6565b90506000600583015460ff166002811115610b0357610b03611b46565b14610b665760405162461bcd60e51b815260206004820152602d60248201527f42616c616e63653a3a616363657074436c61696d733a2062696c6c20616c726560448201526c18591e481c1c9bd8d95cdcd959609a1b60648201526084016104a4565b80831115610bd25760405162461bcd60e51b815260206004820152603360248201527f42616c616e63653a3a616363657074436c61696d733a20636c61696d20616d6f604482015272756e742065786365656473206d61782066656560681b60648201526084016104a4565b60058201805460ff19166001179055600382018590556004820184905560028201546001600160a01b031660009081526006602052604081208054839290610c1b908490611afe565b909155505060028201546001600160a01b031660009081526005602052604081208054859290610c4c908490611afe565b90915550610c5c90508389611ae6565b8254604051919950907f799d0ccabf9cc5c53a2860d6b8133855f77618de4233ce9bb031395090d1c08090600090a25050505050508080610c9c90611b15565b9150506109e2565b506001546040516001600160a01b039091169082156108fc029083906000818181858888f19350505050158015610cdf573d6000803e3d6000fd5b5050505050565b6002546001600160a01b03163314610d105760405162461bcd60e51b81526004016104a490611a16565b600a815110610d705760405162461bcd60e51b815260206004820152602660248201527f42616c616e63653a3a72656a656374436c61696d733a20746f6f206d616e7920604482015265636c61696d7360d01b60648201526084016104a4565b60005b8151811015610f2e576000828281518110610d9057610d90611b72565b60200260200101519050600081118015610dac57506008548111155b610e065760405162461bcd60e51b815260206004820152602560248201527f42616c616e63653a3a72656a656374436c61696d733a2062696c6c206e6f7420604482015264199bdd5b9960da1b60648201526084016104a4565b600081815260076020526040812090600582015460ff166002811115610e2e57610e2e611b46565b14610e915760405162461bcd60e51b815260206004820152602d60248201527f42616c616e63653a3a72656a656374436c61696d733a2062696c6c20616c726560448201526c18591e481c1c9bd8d95cdcd959609a1b60648201526084016104a4565b600081600401548260030154610ea79190611ae6565b60058301805460ff191660029081179091558301546001600160a01b0316600090815260066020526040812080549293508392909190610ee8908490611afe565b909155505081546040517f64133ae74e171ef7ce5b71e32115aba7117a4f1bd6ef67b768668f5af1af97ad90600090a25050508080610f2690611b15565b915050610d73565b5050565b6000546001600160a01b03163314610f5c5760405162461bcd60e51b81526004016104a4906119e1565b610f666000611547565b565b6000546001600160a01b03163314610f925760405162461bcd60e51b81526004016104a4906119e1565b600180546001600160a01b0319166001600160a01b0383169081179091556040517fc714d22a2f08b695f81e7c707058db484aa5b4d6b4c9fd64beb10fe85832f60890600090a250565b6000326001600160a01b0386161480610ffb5750610ffb6003326114e2565b6110515760405162461bcd60e51b815260206004820152602160248201527f42616c616e63653a2063616c6c6572206973206e6f74206120636f6e73756d656044820152603960f91b60648201526084016104a4565b600061105d8486611ae6565b9050600081116110be5760405162461bcd60e51b815260206004820152602660248201527f42616c616e63653a3a636c61696d3a206e65676174697665206f72207a65726f60448201526520636c61696d60d01b60648201526084016104a4565b6110c786610446565b81111561112f5760405162461bcd60e51b815260206004820152603060248201527f42616c616e63653a3a636c61696d3a20636c61696d20616d6f756e742065786360448201526f65656473206e65742062616c616e636560801b60648201526084016104a4565b6001600160a01b03861660009081526006602052604081208054839290611157908490611ae6565b90915550506008805490600061116c83611b15565b91905055506040518060c00160405280600854815260200161118b3390565b6001600160a01b039081168252881660208201526040810187905260608101869052608001600090526008546000908152600760209081526040918290208351815590830151600180830180546001600160a01b039384166001600160a01b0319918216179091559385015160028085018054929094169190951617909155606084015160038301556080840151600483015560a084015160058301805493949193909260ff1990911691849081111561124757611247611b46565b0217905550905050600854866001600160a01b03167f58fb02bcfedd338314c70bcf748b4f71a01259cf8956f31b34cb09acf29809cb8560405161128b919061198c565b60405180910390a35050600854949350505050565b6000546001600160a01b031633146112ca5760405162461bcd60e51b81526004016104a4906119e1565b600280546001600160a01b0319166001600160a01b0383169081179091556040517f5e226ef369891596b0fa96f74a9b8851142c6bdddb90ea625901b0d37a9af5f690600090a250565b6000546001600160a01b0316331461133e5760405162461bcd60e51b81526004016104a4906119e1565b6001600160a01b0381166113a35760405162461bcd60e51b815260206004820152602660248201527f4f776e61626c653a206e6577206f776e657220697320746865207a65726f206160448201526564647265737360d01b60648201526084016104a4565b6113ac81611547565b50565b6001600160a01b0381166114115760405162461bcd60e51b815260206004820152602360248201527f42616c616e63653a3a6465706f7369743a20696e76616c696420726563697069604482015262195b9d60ea1b60648201526084016104a4565b600034116114745760405162461bcd60e51b815260206004820152602a60248201527f42616c616e63653a3a6465706f7369743a206e65676174697665206f72207a656044820152691c9bc819195c1bdcda5d60b21b60648201526084016104a4565b6001600160a01b0381166000908152600560205260408120805434929061149c908490611ae6565b90915550506040513481526001600160a01b038216907fe1fffcc4923d04b559f4d29a8bfc6cda04eb5b0d3c460751c2402c5c5cc9109c9060200160405180910390a250565b6001600160a01b038116600090815260018301602052604081205415155b9392505050565b6000611500836001600160a01b038416611597565b6000610474825490565b6000611500836001600160a01b03841661168a565b600061150083836116d9565b600080546001600160a01b038381166001600160a01b0319831681178455604051919092169283917f8be0079c531659141344cd1fd0a4f28419497f9722a3daafe3b4186f6b6457e09190a35050565b600081815260018301602052604081205480156116805760006115bb600183611afe565b85549091506000906115cf90600190611afe565b90508181146116345760008660000182815481106115ef576115ef611b72565b906000526020600020015490508087600001848154811061161257611612611b72565b6000918252602080832090910192909255918252600188019052604090208390555b855486908061164557611645611b5c565b600190038181906000526020600020016000905590558560010160008681526020019081526020016000206000905560019350505050610474565b6000915050610474565b60008181526001830160205260408120546116d157508154600181810184556000848152602080822090930184905584548482528286019093526040902091909155610474565b506000610474565b60008260000182815481106116f0576116f0611b72565b9060005260206000200154905092915050565b600082601f83011261171457600080fd5b8135602067ffffffffffffffff82111561173057611730611b88565b8160051b61173f828201611ab5565b83815282810190868401838801850189101561175a57600080fd5b600093505b8584101561177d57803583526001939093019291840191840161175f565b50979650505050505050565b60006020828403121561179b57600080fd5b813561150081611b9e565b600080600080608085870312156117bc57600080fd5b84356117c781611b9e565b9350602085810135935060408601359250606086013567ffffffffffffffff808211156117f357600080fd5b818801915088601f83011261180757600080fd5b81358181111561181957611819611b88565b61182b601f8201601f19168501611ab5565b9150808252898482850101111561184157600080fd5b808484018584013760008482840101525080935050505092959194509250565b60006020828403121561187357600080fd5b813567ffffffffffffffff81111561188a57600080fd5b61189684828501611703565b949350505050565b6000806000606084860312156118b357600080fd5b833567ffffffffffffffff808211156118cb57600080fd5b6118d787838801611703565b945060208601359150808211156118ed57600080fd5b6118f987838801611703565b9350604086013591508082111561190f57600080fd5b5061191c86828701611703565b9150509250925092565b60006020828403121561193857600080fd5b5035919050565b6020808252825182820181905260009190848201906040850190845b818110156119805783516001600160a01b03168352928401929184019160010161195b565b50909695505050505050565b600060208083528351808285015260005b818110156119b95785810183015185820160400152820161199d565b818111156119cb576000604083870101525b50601f01601f1916929092016040019392505050565b6020808252818101527f4f776e61626c653a2063616c6c6572206973206e6f7420746865206f776e6572604082015260600190565b60208082526024908201527f42616c616e63653a2063616c6c6572206973206e6f742074686520696e73706560408201526331ba37b960e11b606082015260800190565b8681526001600160a01b03868116602083015285166040820152606081018490526080810183905260c0810160038310611aa457634e487b7160e01b600052602160045260246000fd5b8260a0830152979650505050505050565b604051601f8201601f1916810167ffffffffffffffff81118282101715611ade57611ade611b88565b604052919050565b60008219821115611af957611af9611b30565b500190565b600082821015611b1057611b10611b30565b500390565b6000600019821415611b2957611b29611b30565b5060010190565b634e487b7160e01b600052601160045260246000fd5b634e487b7160e01b600052602160045260246000fd5b634e487b7160e01b600052603160045260246000fd5b634e487b7160e01b600052603260045260246000fd5b634e487b7160e01b600052604160045260246000fd5b6001600160a01b03811681146113ac57600080fdfea2646970667358221220cf8565920bf1fe88b434ae1d45af6d461746e4d50a363a806b900710a058c90c64736f6c63430008060033",
  "linkReferences": {},
  "deployedLinkReferences": {}
}