{
  "_format": "hh-sol-artifact-1",
  "contractName": "Vesting",
  "sourceName": "contracts/investments/Vesting.sol",
  "abi": [
    {
      "anonymous": false,
      "inputs": [
        {
          "indexed": false,
          "internalType": "uint256",
          "name": "amount",
          "type": "uint256"
        }
      ],
      "name": "Claim",
      "type": "event"
    },
    {
      "anonymous": false,
      "inputs": [
        {
          "indexed": true,
          "internalType": "address",
          "name": "recipient",
          "type": "address"
        },
        {
          "indexed": false,
          "internalType": "uint256",
          "name": "amount",
          "type": "uint256"
        },
        {
          "indexed": false,
          "internalType": "uint256",
          "name": "duration",
          "type": "uint256"
        }
      ],
      "name": "Distribute",
      "type": "event"
    },
    {
      "anonymous": false,
      "inputs": [
        {
          "indexed": true,
          "internalType": "address",
          "name": "owner",
          "type": "address"
        }
      ],
      "name": "Initialized",
      "type": "event"
    },
    {
      "inputs": [],
      "name": "claim",
      "outputs": [],
      "stateMutability": "nonpayable",
      "type": "function"
    },
    {
      "inputs": [
        {
          "internalType": "address",
          "name": "recipient",
          "type": "address"
        },
        {
          "internalType": "uint256",
          "name": "amount",
          "type": "uint256"
        },
        {
          "internalType": "uint256",
          "name": "duration",
          "type": "uint256"
        }
      ],
      "name": "distribute",
      "outputs": [],
      "stateMutability": "nonpayable",
      "type": "function"
    },
    {
      "inputs": [],
      "name": "earned",
      "outputs": [
        {
          "internalType": "uint256",
          "name": "",
          "type": "uint256"
        }
      ],
      "stateMutability": "view",
      "type": "function"
    },
    {
      "inputs": [
        {
          "internalType": "address",
          "name": "_token",
          "type": "address"
        }
      ],
      "name": "init",
      "outputs": [],
      "stateMutability": "nonpayable",
      "type": "function"
    },
    {
      "inputs": [],
      "name": "initialized",
      "outputs": [
        {
          "internalType": "bool",
          "name": "",
          "type": "bool"
        }
      ],
      "stateMutability": "view",
      "type": "function"
    },
    {
      "inputs": [],
      "name": "lastClaim",
      "outputs": [
        {
          "internalType": "uint256",
          "name": "",
          "type": "uint256"
        }
      ],
      "stateMutability": "view",
      "type": "function"
    },
    {
      "inputs": [],
      "name": "lastTimeRewardApplicable",
      "outputs": [
        {
          "internalType": "uint256",
          "name": "",
          "type": "uint256"
        }
      ],
      "stateMutability": "view",
      "type": "function"
    },
    {
      "inputs": [],
      "name": "owner",
      "outputs": [
        {
          "internalType": "address",
          "name": "",
          "type": "address"
        }
      ],
      "stateMutability": "view",
      "type": "function"
    },
    {
      "inputs": [],
      "name": "periodFinish",
      "outputs": [
        {
          "internalType": "uint256",
          "name": "",
          "type": "uint256"
        }
      ],
      "stateMutability": "view",
      "type": "function"
    },
    {
      "inputs": [],
      "name": "rate",
      "outputs": [
        {
          "internalType": "uint256",
          "name": "",
          "type": "uint256"
        }
      ],
      "stateMutability": "view",
      "type": "function"
    },
    {
      "inputs": [],
      "name": "token",
      "outputs": [
        {
          "internalType": "contract GovernanceToken",
          "name": "",
          "type": "address"
        }
      ],
      "stateMutability": "view",
      "type": "function"
    }
  ],
  "bytecode": "0x608060405234801561001057600080fd5b506001600055610a6f806100256000396000f3fe608060405234801561001057600080fd5b50600436106100a95760003560e01c80638da5cb5b116100715780638da5cb5b1461010c578063a8adb5641461013c578063d6f1926214610145578063e2c92a521461014d578063ebe2b12b14610160578063fc0c546a1461016957600080fd5b8063158ef93e146100ae57806319ab453c146100d05780632c4e722e146100e55780634e71d92d146100fc57806380faa57d14610104575b600080fd5b6001546100bb9060ff1681565b60405190151581526020015b60405180910390f35b6100e36100de3660046108e2565b61017c565b005b6100ee60045481565b6040519081526020016100c7565b6100e361024d565b6100ee61044e565b6001546101249061010090046001600160a01b031681565b6040516001600160a01b0390911681526020016100c7565b6100ee60055481565b6100ee61048a565b6100e361015b366004610904565b610555565b6100ee60035481565b600254610124906001600160a01b031681565b60015460ff16156101e85760405162461bcd60e51b815260206004820152602b60248201527f56657374696e673a3a696e69743a20636f6e747261637420616c72656164792060448201526a1a5b9a5d1a585b1a5e995960aa1b60648201526084015b60405180910390fd5b600180546001600160a81b03191661010032908102919091178217909155600280546001600160a01b0319166001600160a01b0384161790556040517f908408e307fc569b417f6cbec5d5a06f44a0a505ac0479b47d421a4b2fd6a1e690600090a250565b60015460ff1661026f5760405162461bcd60e51b81526004016101df90610972565b600260005414156102c25760405162461bcd60e51b815260206004820152601f60248201527f5265656e7472616e637947756172643a207265656e7472616e742063616c6c0060448201526064016101df565b600260005560015461010090046001600160a01b031633146103265760405162461bcd60e51b815260206004820181905260248201527f56657374696e673a2063616c6c6572206973206e6f7420746865206f776e657260448201526064016101df565b600061033061048a565b90506000811161037a5760405162461bcd60e51b815260206004820152601560248201527456657374696e673a3a636c61696d3a20656d70747960581b60448201526064016101df565b61038261044e565b60055560025460015460405163a9059cbb60e01b81526001600160a01b03610100909204821660048201526024810184905291169063a9059cbb90604401602060405180830381600087803b1580156103da57600080fd5b505af11580156103ee573d6000803e3d6000fd5b505050506040513d601f19601f820116820180604052508101906104129190610937565b506040518181527f7bb2b3c10797baccb6f8c4791f1edd6ca2f0d028ee0eda64b01a9a57e3a653f79060200160405180910390a1506001600055565b60015460009060ff166104735760405162461bcd60e51b81526004016101df90610972565b4360035411610483575060035490565b435b905090565b60015460009060ff166104af5760405162461bcd60e51b81526004016101df90610972565b60035443116104da576005546104c361044e565b6104cd9190610a0c565b60045461048591906109ed565b6002546040516370a0823160e01b81523060048201526001600160a01b03909116906370a082319060240160206040518083038186803b15801561051d57600080fd5b505afa158015610531573d6000803e3d6000fd5b505050506040513d601f19601f820116820180604052508101906104859190610959565b60015461010090046001600160a01b031633146105b45760405162461bcd60e51b815260206004820181905260248201527f56657374696e673a2063616c6c6572206973206e6f7420746865206f776e657260448201526064016101df565b60015460ff166105d65760405162461bcd60e51b81526004016101df90610972565b6001600160a01b03831661063b5760405162461bcd60e51b815260206004820152602660248201527f56657374696e673a3a646973747269627574653a20696e76616c6964207265636044820152651a5c1a595b9d60d21b60648201526084016101df565b600081116106995760405162461bcd60e51b815260206004820152602560248201527f56657374696e673a3a646973747269627574653a20696e76616c69642064757260448201526430ba34b7b760d91b60648201526084016101df565b600082116106f55760405162461bcd60e51b815260206004820152602360248201527f56657374696e673a3a646973747269627574653a20696e76616c696420616d6f6044820152621d5b9d60ea1b60648201526084016101df565b600354156107565760405162461bcd60e51b815260206004820152602860248201527f56657374696e673a3a646973747269627574653a20616c7265616479206469736044820152671d1c9a589d5d195960c21b60648201526084016101df565b6002546040516323b872dd60e01b8152336004820152306024820152604481018490526001600160a01b03909116906323b872dd90606401602060405180830381600087803b1580156107a857600080fd5b505af11580156107bc573d6000803e3d6000fd5b505050506040513d601f19601f820116820180604052508101906107e09190610937565b5060018054610100600160a81b0319166101006001600160a01b03868116918202929092179092556002546040516317066a5760e21b815260048101939093521690635c19a95c90602401600060405180830381600087803b15801561084557600080fd5b505af1158015610859573d6000803e3d6000fd5b50505050808261086991906109cb565b60045561087681436109b3565b6003554360055560408051838152602081018390526001600160a01b038516917f7b6bd1e44b882fc3c6db03de18818ba27f347f200076803dce3e72303b0ca716910160405180910390a2505050565b80356001600160a01b03811681146108dd57600080fd5b919050565b6000602082840312156108f457600080fd5b6108fd826108c6565b9392505050565b60008060006060848603121561091957600080fd5b610922846108c6565b95602085013595506040909401359392505050565b60006020828403121561094957600080fd5b815180151581146108fd57600080fd5b60006020828403121561096b57600080fd5b5051919050565b60208082526021908201527f56657374696e673a20636f6e7472616374206e6f7420696e697469616c697a656040820152601960fa1b606082015260800190565b600082198211156109c6576109c6610a23565b500190565b6000826109e857634e487b7160e01b600052601260045260246000fd5b500490565b6000816000190483118215151615610a0757610a07610a23565b500290565b600082821015610a1e57610a1e610a23565b500390565b634e487b7160e01b600052601160045260246000fdfea26469706673582212205b52e9745f2fe3d2086f0bac55d09bbd9dcaccc323909fd370ccb39b4a7bada464736f6c63430008060033",
  "linkReferences": {},
  "deployedLinkReferences": {}
}