{
  "_format": "hh-sol-artifact-1",
  "contractName": "Vesting",
  "sourceName": "contracts/investments/Vesting.sol",
  "abi": [
    {
      "inputs": [],
      "name": "claim",
      "outputs": [],
      "stateMutability": "nonpayable",
      "type": "function"
    },
    {
      "inputs": [
        {
          "internalType": "address",
          "name": "recipient",
          "type": "address"
        },
        {
          "internalType": "uint256",
          "name": "amount",
          "type": "uint256"
        },
        {
          "internalType": "uint256",
          "name": "duration",
          "type": "uint256"
        }
      ],
      "name": "distribute",
      "outputs": [],
      "stateMutability": "nonpayable",
      "type": "function"
    },
    {
      "inputs": [],
      "name": "earned",
      "outputs": [
        {
          "internalType": "uint256",
          "name": "",
          "type": "uint256"
        }
      ],
      "stateMutability": "view",
      "type": "function"
    },
    {
      "inputs": [
        {
          "internalType": "address",
          "name": "_token",
          "type": "address"
        }
      ],
      "name": "init",
      "outputs": [],
      "stateMutability": "nonpayable",
      "type": "function"
    },
    {
      "inputs": [],
      "name": "initialized",
      "outputs": [
        {
          "internalType": "bool",
          "name": "",
          "type": "bool"
        }
      ],
      "stateMutability": "view",
      "type": "function"
    },
    {
      "inputs": [],
      "name": "lastClaim",
      "outputs": [
        {
          "internalType": "uint256",
          "name": "",
          "type": "uint256"
        }
      ],
      "stateMutability": "view",
      "type": "function"
    },
    {
      "inputs": [],
      "name": "lastTimeRewardApplicable",
      "outputs": [
        {
          "internalType": "uint256",
          "name": "",
          "type": "uint256"
        }
      ],
      "stateMutability": "view",
      "type": "function"
    },
    {
      "inputs": [],
      "name": "owner",
      "outputs": [
        {
          "internalType": "address",
          "name": "",
          "type": "address"
        }
      ],
      "stateMutability": "view",
      "type": "function"
    },
    {
      "inputs": [],
      "name": "periodFinish",
      "outputs": [
        {
          "internalType": "uint256",
          "name": "",
          "type": "uint256"
        }
      ],
      "stateMutability": "view",
      "type": "function"
    },
    {
      "inputs": [],
      "name": "rate",
      "outputs": [
        {
          "internalType": "uint256",
          "name": "",
          "type": "uint256"
        }
      ],
      "stateMutability": "view",
      "type": "function"
    },
    {
      "inputs": [],
      "name": "token",
      "outputs": [
        {
          "internalType": "contract GovernanceToken",
          "name": "",
          "type": "address"
        }
      ],
      "stateMutability": "view",
      "type": "function"
    }
  ],
  "bytecode": "0x608060405234801561001057600080fd5b506001600055610930806100256000396000f3fe608060405234801561001057600080fd5b50600436106100a95760003560e01c80638da5cb5b116100715780638da5cb5b1461010c578063a8adb5641461013c578063d6f1926214610145578063e2c92a521461014d578063ebe2b12b14610160578063fc0c546a1461016957600080fd5b8063158ef93e146100ae57806319ab453c146100d05780632c4e722e146100e55780634e71d92d146100fc57806380faa57d14610104575b600080fd5b6001546100bb9060ff1681565b60405190151581526020015b60405180910390f35b6100e36100de3660046107bc565b61017c565b005b6100ee60045481565b6040519081526020016100c7565b6100e3610222565b6100ee6103f0565b6001546101249061010090046001600160a01b031681565b6040516001600160a01b0390911681526020016100c7565b6100ee60055481565b6100ee61042c565b6100e361015b3660046107de565b610473565b6100ee60035481565b600254610124906001600160a01b031681565b60015460ff16156101e85760405162461bcd60e51b815260206004820152602b60248201527f56657374696e673a3a696e69743a20636f6e747261637420616c72656164792060448201526a1a5b9a5d1a585b1a5e995960aa1b60648201526084015b60405180910390fd5b600180546001600160a81b03191661010032021781179055600280546001600160a01b0319166001600160a01b0392909216919091179055565b60015460ff166102445760405162461bcd60e51b81526004016101df90610833565b600260005414156102975760405162461bcd60e51b815260206004820152601f60248201527f5265656e7472616e637947756172643a207265656e7472616e742063616c6c0060448201526064016101df565b600260005560015461010090046001600160a01b031633146102fb5760405162461bcd60e51b815260206004820181905260248201527f56657374696e673a2063616c6c6572206973206e6f7420746865206f776e657260448201526064016101df565b600061030561042c565b90506000811161034f5760405162461bcd60e51b815260206004820152601560248201527456657374696e673a3a636c61696d3a20656d70747960581b60448201526064016101df565b6103576103f0565b60055560025460015460405163a9059cbb60e01b81526001600160a01b03610100909204821660048201526024810184905291169063a9059cbb90604401602060405180830381600087803b1580156103af57600080fd5b505af11580156103c3573d6000803e3d6000fd5b505050506040513d601f19601f820116820180604052508101906103e79190610811565b50506001600055565b60015460009060ff166104155760405162461bcd60e51b81526004016101df90610833565b4360035411610425575060035490565b435b905090565b60015460009060ff166104515760405162461bcd60e51b81526004016101df90610833565b60055461045c6103f0565b61046691906108cd565b60045461042791906108ae565b60015461010090046001600160a01b031633146104d25760405162461bcd60e51b815260206004820181905260248201527f56657374696e673a2063616c6c6572206973206e6f7420746865206f776e657260448201526064016101df565b60015460ff166104f45760405162461bcd60e51b81526004016101df90610833565b6001600160a01b0383166105595760405162461bcd60e51b815260206004820152602660248201527f56657374696e673a3a646973747269627574653a20696e76616c6964207265636044820152651a5c1a595b9d60d21b60648201526084016101df565b600081116105b75760405162461bcd60e51b815260206004820152602560248201527f56657374696e673a3a646973747269627574653a20696e76616c69642064757260448201526430ba34b7b760d91b60648201526084016101df565b600082116106135760405162461bcd60e51b815260206004820152602360248201527f56657374696e673a3a646973747269627574653a20696e76616c696420616d6f6044820152621d5b9d60ea1b60648201526084016101df565b600354156106745760405162461bcd60e51b815260206004820152602860248201527f56657374696e673a3a646973747269627574653a20616c7265616479206469736044820152671d1c9a589d5d195960c21b60648201526084016101df565b6002546040516323b872dd60e01b8152336004820152306024820152604481018490526001600160a01b03909116906323b872dd90606401602060405180830381600087803b1580156106c657600080fd5b505af11580156106da573d6000803e3d6000fd5b505050506040513d601f19601f820116820180604052508101906106fe9190610811565b5060018054610100600160a81b0319166101006001600160a01b03868116918202929092179092556002546040516317066a5760e21b815260048101939093521690635c19a95c90602401600060405180830381600087803b15801561076357600080fd5b505af1158015610777573d6000803e3d6000fd5b505050508082610787919061088c565b6004556107948143610874565b60035550504360055550565b80356001600160a01b03811681146107b757600080fd5b919050565b6000602082840312156107ce57600080fd5b6107d7826107a0565b9392505050565b6000806000606084860312156107f357600080fd5b6107fc846107a0565b95602085013595506040909401359392505050565b60006020828403121561082357600080fd5b815180151581146107d757600080fd5b60208082526021908201527f56657374696e673a20636f6e7472616374206e6f7420696e697469616c697a656040820152601960fa1b606082015260800190565b60008219821115610887576108876108e4565b500190565b6000826108a957634e487b7160e01b600052601260045260246000fd5b500490565b60008160001904831182151516156108c8576108c86108e4565b500290565b6000828210156108df576108df6108e4565b500390565b634e487b7160e01b600052601160045260246000fdfea2646970667358221220920a94fe605e2712188aa29d22bc0accae39ff74769dfd733328c555fdcac72f64736f6c63430008060033",
  "linkReferences": {},
  "deployedLinkReferences": {}
}