{
  "_format": "hh-sol-artifact-1",
  "contractName": "ApprovableBalance",
  "sourceName": "contracts/ApprovableBalance.sol",
  "abi": [
    {
      "inputs": [
        {
          "internalType": "address",
          "name": "_token",
          "type": "address"
        },
        {
          "internalType": "address",
          "name": "_treasury",
          "type": "address"
        }
      ],
      "stateMutability": "nonpayable",
      "type": "constructor"
    },
    {
      "anonymous": false,
      "inputs": [
        {
          "indexed": true,
          "internalType": "address",
          "name": "account",
          "type": "address"
        },
        {
          "indexed": false,
          "internalType": "uint256",
          "name": "gasFee",
          "type": "uint256"
        },
        {
          "indexed": false,
          "internalType": "uint256",
          "name": "protocolFee",
          "type": "uint256"
        }
      ],
      "name": "Claim",
      "type": "event"
    },
    {
      "anonymous": false,
      "inputs": [
        {
          "indexed": true,
          "internalType": "address",
          "name": "consumer",
          "type": "address"
        }
      ],
      "name": "ConsumerAdded",
      "type": "event"
    },
    {
      "anonymous": false,
      "inputs": [
        {
          "indexed": true,
          "internalType": "address",
          "name": "consumer",
          "type": "address"
        }
      ],
      "name": "ConsumerRemoved",
      "type": "event"
    },
    {
      "anonymous": false,
      "inputs": [
        {
          "indexed": true,
          "internalType": "address",
          "name": "previousOwner",
          "type": "address"
        },
        {
          "indexed": true,
          "internalType": "address",
          "name": "newOwner",
          "type": "address"
        }
      ],
      "name": "OwnershipTransferred",
      "type": "event"
    },
    {
      "anonymous": false,
      "inputs": [
        {
          "indexed": true,
          "internalType": "address",
          "name": "token",
          "type": "address"
        }
      ],
      "name": "TokenChanged",
      "type": "event"
    },
    {
      "anonymous": false,
      "inputs": [
        {
          "indexed": true,
          "internalType": "address",
          "name": "treasury",
          "type": "address"
        }
      ],
      "name": "TreasuryChanged",
      "type": "event"
    },
    {
      "inputs": [],
      "name": "MAXIMUM_CONSUMER_COUNT",
      "outputs": [
        {
          "internalType": "uint256",
          "name": "",
          "type": "uint256"
        }
      ],
      "stateMutability": "view",
      "type": "function"
    },
    {
      "inputs": [
        {
          "internalType": "address",
          "name": "consumer",
          "type": "address"
        }
      ],
      "name": "addConsumer",
      "outputs": [],
      "stateMutability": "nonpayable",
      "type": "function"
    },
    {
      "inputs": [
        {
          "internalType": "address",
          "name": "_token",
          "type": "address"
        }
      ],
      "name": "changeToken",
      "outputs": [],
      "stateMutability": "nonpayable",
      "type": "function"
    },
    {
      "inputs": [
        {
          "internalType": "address",
          "name": "_treasury",
          "type": "address"
        }
      ],
      "name": "changeTreasury",
      "outputs": [],
      "stateMutability": "nonpayable",
      "type": "function"
    },
    {
      "inputs": [
        {
          "internalType": "address",
          "name": "account",
          "type": "address"
        },
        {
          "internalType": "uint256",
          "name": "gasFee",
          "type": "uint256"
        },
        {
          "internalType": "uint256",
          "name": "protocolFee",
          "type": "uint256"
        }
      ],
      "name": "claim",
      "outputs": [],
      "stateMutability": "nonpayable",
      "type": "function"
    },
    {
      "inputs": [],
      "name": "consumers",
      "outputs": [
        {
          "internalType": "address[]",
          "name": "",
          "type": "address[]"
        }
      ],
      "stateMutability": "view",
      "type": "function"
    },
    {
      "inputs": [],
      "name": "owner",
      "outputs": [
        {
          "internalType": "address",
          "name": "",
          "type": "address"
        }
      ],
      "stateMutability": "view",
      "type": "function"
    },
    {
      "inputs": [
        {
          "internalType": "address",
          "name": "consumer",
          "type": "address"
        }
      ],
      "name": "removeConsumer",
      "outputs": [],
      "stateMutability": "nonpayable",
      "type": "function"
    },
    {
      "inputs": [],
      "name": "renounceOwnership",
      "outputs": [],
      "stateMutability": "nonpayable",
      "type": "function"
    },
    {
      "inputs": [],
      "name": "token",
      "outputs": [
        {
          "internalType": "contract IERC20",
          "name": "",
          "type": "address"
        }
      ],
      "stateMutability": "view",
      "type": "function"
    },
    {
      "inputs": [
        {
          "internalType": "address",
          "name": "newOwner",
          "type": "address"
        }
      ],
      "name": "transferOwnership",
      "outputs": [],
      "stateMutability": "nonpayable",
      "type": "function"
    },
    {
      "inputs": [],
      "name": "treasury",
      "outputs": [
        {
          "internalType": "address",
          "name": "",
          "type": "address"
        }
      ],
      "stateMutability": "view",
      "type": "function"
    }
  ],
  "bytecode": "0x608060405234801561001057600080fd5b50604051610d7f380380610d7f83398101604081905261002f916100d5565b61003833610069565b600180546001600160a01b039384166001600160a01b03199182161790915560028054929093169116179055610108565b600080546001600160a01b038381166001600160a01b0319831681178455604051919092169283917f8be0079c531659141344cd1fd0a4f28419497f9722a3daafe3b4186f6b6457e09190a35050565b80516001600160a01b03811681146100d057600080fd5b919050565b600080604083850312156100e857600080fd5b6100f1836100b9565b91506100ff602084016100b9565b90509250929050565b610c68806101176000396000f3fe608060405234801561001057600080fd5b50600436106100b45760003560e01c806366829b161161007157806366829b161461014f578063715018a6146101625780638da5cb5b1461016a578063b14f2a391461017b578063f2fde38b1461018e578063fc0c546a146101a157600080fd5b80630e27e3df146100b9578063112940f9146100ce5780632bc43fd9146100e1578063328199b7146100f4578063435e29801461010f57806361d027b314610124575b600080fd5b6100cc6100c7366004610a97565b6101b4565b005b6100cc6100dc366004610a97565b6102a7565b6100cc6100ef366004610ab2565b610419565b6100fc606481565b6040519081526020015b60405180910390f35b6101176105ec565b6040516101069190610b0e565b600254610137906001600160a01b031681565b6040516001600160a01b039091168152602001610106565b6100cc61015d366004610a97565b61069f565b6100cc610713565b6000546001600160a01b0316610137565b6100cc610189366004610a97565b610749565b6100cc61019c366004610a97565b6107bd565b600154610137906001600160a01b031681565b6000546001600160a01b031633146101e75760405162461bcd60e51b81526004016101de90610b5b565b60405180910390fd5b6101f2600382610858565b6102645760405162461bcd60e51b815260206004820152603b60248201527f417070726f7661626c6542616c616e63653a3a72656d6f7665436f6e73756d6560448201527f723a20636f6e73756d657220616c72656164792072656d6f766564000000000060648201526084016101de565b61026f60038261087f565b506040516001600160a01b038216907fe3f5ed5f263f1f01764a96edfc7d025f511ec5f7d180e8816908b78bcf74f09890600090a250565b6000546001600160a01b031633146102d15760405162461bcd60e51b81526004016101de90610b5b565b6102dc600382610858565b156103485760405162461bcd60e51b815260206004820152603660248201527f417070726f7661626c6542616c616e63653a3a616464436f6e73756d65723a2060448201527518dbdb9cdd5b595c88185b1c9958591e48185919195960521b60648201526084016101de565b60646103546003610894565b106103d65760405162461bcd60e51b815260206004820152604660248201527f417070726f7661626c6542616c616e63653a3a616464436f6e73756d65723a2060448201527f636f6e73756d6572206d757374206e6f7420657863656564206d6178696d756d6064820152650818dbdd5b9d60d21b608482015260a4016101de565b6103e160038261089e565b506040516001600160a01b038216907f28b26e7a3d20aedbc5f8f2ebf7da671c0491723a2b78f47a097b0e46dee0714290600090a250565b326001600160a01b038416141561042f57505050565b61043a600332610858565b61049a5760405162461bcd60e51b815260206004820152602b60248201527f417070726f7661626c6542616c616e63653a2063616c6c6572206973206e6f7460448201526a10309031b7b739bab6b2b960a91b60648201526084016101de565b60006104a68284610b90565b9050600081116105115760405162461bcd60e51b815260206004820152603060248201527f417070726f7661626c6542616c616e63653a3a636c61696d3a206e656761746960448201526f7665206f72207a65726f20636c61696d60801b60648201526084016101de565b6001546002546040516323b872dd60e01b81526001600160a01b0387811660048301529182166024820152604481018490529116906323b872dd90606401602060405180830381600087803b15801561056957600080fd5b505af115801561057d573d6000803e3d6000fd5b505050506040513d601f19601f820116820180604052508101906105a19190610ae5565b5060408051848152602081018490526001600160a01b038616917f34fcbac0073d7c3d388e51312faf357774904998eeb8fca628b9e6f65ee1cbf7910160405180910390a250505050565b606060006105fa6003610894565b67ffffffffffffffff81111561061257610612610c1c565b60405190808252806020026020018201604052801561063b578160200160208202803683370190505b50905060005b61064b6003610894565b8110156106995761065d6003826108b3565b82828151811061066f5761066f610c06565b6001600160a01b03909216602092830291909101909101528061069181610bbf565b915050610641565b50919050565b6000546001600160a01b031633146106c95760405162461bcd60e51b81526004016101de90610b5b565b600180546001600160a01b0319166001600160a01b0383169081179091556040517f5d108ca248943e98e1886bbc2c38beda701271994a14354258a11692b81b73cf90600090a250565b6000546001600160a01b0316331461073d5760405162461bcd60e51b81526004016101de90610b5b565b61074760006108bf565b565b6000546001600160a01b031633146107735760405162461bcd60e51b81526004016101de90610b5b565b600280546001600160a01b0319166001600160a01b0383169081179091556040517fc714d22a2f08b695f81e7c707058db484aa5b4d6b4c9fd64beb10fe85832f60890600090a250565b6000546001600160a01b031633146107e75760405162461bcd60e51b81526004016101de90610b5b565b6001600160a01b03811661084c5760405162461bcd60e51b815260206004820152602660248201527f4f776e61626c653a206e6577206f776e657220697320746865207a65726f206160448201526564647265737360d01b60648201526084016101de565b610855816108bf565b50565b6001600160a01b038116600090815260018301602052604081205415155b90505b92915050565b6000610876836001600160a01b03841661090f565b6000610879825490565b6000610876836001600160a01b038416610a02565b60006108768383610a51565b600080546001600160a01b038381166001600160a01b0319831681178455604051919092169283917f8be0079c531659141344cd1fd0a4f28419497f9722a3daafe3b4186f6b6457e09190a35050565b600081815260018301602052604081205480156109f8576000610933600183610ba8565b855490915060009061094790600190610ba8565b90508181146109ac57600086600001828154811061096757610967610c06565b906000526020600020015490508087600001848154811061098a5761098a610c06565b6000918252602080832090910192909255918252600188019052604090208390555b85548690806109bd576109bd610bf0565b600190038181906000526020600020016000905590558560010160008681526020019081526020016000206000905560019350505050610879565b6000915050610879565b6000818152600183016020526040812054610a4957508154600181810184556000848152602080822090930184905584548482528286019093526040902091909155610879565b506000610879565b6000826000018281548110610a6857610a68610c06565b9060005260206000200154905092915050565b80356001600160a01b0381168114610a9257600080fd5b919050565b600060208284031215610aa957600080fd5b61087682610a7b565b600080600060608486031215610ac757600080fd5b610ad084610a7b565b95602085013595506040909401359392505050565b600060208284031215610af757600080fd5b81518015158114610b0757600080fd5b9392505050565b6020808252825182820181905260009190848201906040850190845b81811015610b4f5783516001600160a01b031683529284019291840191600101610b2a565b50909695505050505050565b6020808252818101527f4f776e61626c653a2063616c6c6572206973206e6f7420746865206f776e6572604082015260600190565b60008219821115610ba357610ba3610bda565b500190565b600082821015610bba57610bba610bda565b500390565b6000600019821415610bd357610bd3610bda565b5060010190565b634e487b7160e01b600052601160045260246000fd5b634e487b7160e01b600052603160045260246000fd5b634e487b7160e01b600052603260045260246000fd5b634e487b7160e01b600052604160045260246000fdfea2646970667358221220e3cc12b7bc50bc3f4b0edc7e0bcd903681f6fb3513e33c9062308a711f7d5c0f64736f6c63430008060033",
  "linkReferences": {},
  "deployedLinkReferences": {}
}