{
  "_format": "hh-sol-artifact-1",
  "contractName": "AutomateMock",
  "sourceName": "contracts/mock/AutomateMock.sol",
  "abi": [
    {
      "inputs": [
        {
          "internalType": "address",
          "name": "_balance",
          "type": "address"
        },
        {
          "internalType": "uint256",
          "name": "_protocolFee",
          "type": "uint256"
        }
      ],
      "stateMutability": "nonpayable",
      "type": "constructor"
    },
    {
      "anonymous": false,
      "inputs": [
        {
          "indexed": true,
          "internalType": "address",
          "name": "previousOwner",
          "type": "address"
        },
        {
          "indexed": true,
          "internalType": "address",
          "name": "newOwner",
          "type": "address"
        }
      ],
      "name": "OwnershipTransferred",
      "type": "event"
    },
    {
      "anonymous": false,
      "inputs": [
        {
          "indexed": false,
          "internalType": "address",
          "name": "account",
          "type": "address"
        }
      ],
      "name": "Paused",
      "type": "event"
    },
    {
      "anonymous": false,
      "inputs": [
        {
          "indexed": false,
          "internalType": "address",
          "name": "account",
          "type": "address"
        }
      ],
      "name": "Unpaused",
      "type": "event"
    },
    {
      "inputs": [],
      "name": "balance",
      "outputs": [
        {
          "internalType": "contract Balance",
          "name": "",
          "type": "address"
        }
      ],
      "stateMutability": "view",
      "type": "function"
    },
    {
      "inputs": [],
      "name": "owner",
      "outputs": [
        {
          "internalType": "address",
          "name": "",
          "type": "address"
        }
      ],
      "stateMutability": "view",
      "type": "function"
    },
    {
      "inputs": [],
      "name": "pause",
      "outputs": [],
      "stateMutability": "nonpayable",
      "type": "function"
    },
    {
      "inputs": [],
      "name": "paused",
      "outputs": [
        {
          "internalType": "bool",
          "name": "",
          "type": "bool"
        }
      ],
      "stateMutability": "view",
      "type": "function"
    },
    {
      "inputs": [],
      "name": "protocolFee",
      "outputs": [
        {
          "internalType": "uint256",
          "name": "",
          "type": "uint256"
        }
      ],
      "stateMutability": "view",
      "type": "function"
    },
    {
      "inputs": [],
      "name": "renounceOwnership",
      "outputs": [],
      "stateMutability": "nonpayable",
      "type": "function"
    },
    {
      "inputs": [
        {
          "internalType": "uint256",
          "name": "gasFee",
          "type": "uint256"
        },
        {
          "internalType": "uint256",
          "name": "x",
          "type": "uint256"
        },
        {
          "internalType": "uint256",
          "name": "y",
          "type": "uint256"
        }
      ],
      "name": "sum",
      "outputs": [
        {
          "internalType": "uint256",
          "name": "",
          "type": "uint256"
        }
      ],
      "stateMutability": "nonpayable",
      "type": "function"
    },
    {
      "inputs": [
        {
          "internalType": "address",
          "name": "newOwner",
          "type": "address"
        }
      ],
      "name": "transferOwnership",
      "outputs": [],
      "stateMutability": "nonpayable",
      "type": "function"
    },
    {
      "inputs": [],
      "name": "unpause",
      "outputs": [],
      "stateMutability": "nonpayable",
      "type": "function"
    }
  ],
  "bytecode": "0x608060405234801561001057600080fd5b506040516107ac3803806107ac83398101604081905261002f916100bf565b816100393361006f565b6000805460ff60a01b19169055600180546001600160a01b0319166001600160a01b0392909216919091179055600255506100f9565b600080546001600160a01b038381166001600160a01b0319831681178455604051919092169283917f8be0079c531659141344cd1fd0a4f28419497f9722a3daafe3b4186f6b6457e09190a35050565b600080604083850312156100d257600080fd5b82516001600160a01b03811681146100e957600080fd5b6020939093015192949293505050565b6106a4806101086000396000f3fe608060405234801561001057600080fd5b50600436106100935760003560e01c80638da5cb5b116100665780638da5cb5b146100d45780639450268b146100f9578063b0e21e8a1461011a578063b69ef8a814610123578063f2fde38b1461013657600080fd5b80633f4ba83a146100985780635c975abb146100a2578063715018a6146100c45780638456cb59146100cc575b600080fd5b6100a0610149565b005b600054600160a01b900460ff1660405190151581526020015b60405180910390f35b6100a0610186565b6100a06101ba565b6000546001600160a01b03165b6040516001600160a01b0390911681526020016100bb565b61010c610107366004610574565b6101ec565b6040519081526020016100bb565b61010c60025481565b6001546100e1906001600160a01b031681565b6100a061014436600461052b565b610236565b6000546001600160a01b0316331461017c5760405162461bcd60e51b815260040161017390610613565b60405180910390fd5b6101846102d1565b565b6000546001600160a01b031633146101b05760405162461bcd60e51b815260040161017390610613565b610184600061036e565b6000546001600160a01b031633146101e45760405162461bcd60e51b815260040161017390610613565b6101846103be565b6000610223846002546040518060400160405280601081526020016f4175746f6d6174654d6f636b2e73756d60801b815250610446565b5061022e8284610648565b949350505050565b6000546001600160a01b031633146102605760405162461bcd60e51b815260040161017390610613565b6001600160a01b0381166102c55760405162461bcd60e51b815260206004820152602660248201527f4f776e61626c653a206e6577206f776e657220697320746865207a65726f206160448201526564647265737360d01b6064820152608401610173565b6102ce8161036e565b50565b600054600160a01b900460ff166103215760405162461bcd60e51b815260206004820152601460248201527314185d5cd8589b194e881b9bdd081c185d5cd95960621b6044820152606401610173565b6000805460ff60a01b191690557f5db9ee0a495bf2e6ff9c91a7834c1ba4fdd244a5e8aa4e537bd38aeae4b073aa335b6040516001600160a01b03909116815260200160405180910390a1565b600080546001600160a01b038381166001600160a01b0319831681178455604051919092169283917f8be0079c531659141344cd1fd0a4f28419497f9722a3daafe3b4186f6b6457e09190a35050565b600054600160a01b900460ff161561040b5760405162461bcd60e51b815260206004820152601060248201526f14185d5cd8589b194e881c185d5cd95960821b6044820152606401610173565b6000805460ff60a01b1916600160a01b1790557f62e78cea01bee320cd4e420270b5ea74000d11b0c9f74754ebdbfc544b05a2586103513390565b60008054600160a01b900460ff16156104945760405162461bcd60e51b815260206004820152601060248201526f14185d5cd8589b194e881c185d5cd95960821b6044820152606401610173565b6001546001600160a01b031663e578a2256104b76000546001600160a01b031690565b8686866040518563ffffffff1660e01b81526004016104d994939291906105a0565b602060405180830381600087803b1580156104f357600080fd5b505af1158015610507573d6000803e3d6000fd5b505050506040513d601f19601f8201168201806040525081019061022e919061055b565b60006020828403121561053d57600080fd5b81356001600160a01b038116811461055457600080fd5b9392505050565b60006020828403121561056d57600080fd5b5051919050565b60008060006060848603121561058957600080fd5b505081359360208301359350604090920135919050565b60018060a01b038516815260006020858184015284604084015260806060840152835180608085015260005b818110156105e85785810183015185820160a0015282016105cc565b818111156105fa57600060a083870101525b50601f01601f19169290920160a0019695505050505050565b6020808252818101527f4f776e61626c653a2063616c6c6572206973206e6f7420746865206f776e6572604082015260600190565b6000821982111561066957634e487b7160e01b600052601160045260246000fd5b50019056fea2646970667358221220d5c8a862dd3126691f86fd70254eebd0c94923f68c92b6108f7b20e05ca732f264736f6c63430008060033",
  "linkReferences": {},
  "deployedLinkReferences": {}
}