{
  "_format": "hh-sol-artifact-1",
  "contractName": "BuyLiquidity",
  "sourceName": "contracts/automate/BuyLiquidity.sol",
  "abi": [
    {
      "inputs": [
        {
          "internalType": "address",
          "name": "_info",
          "type": "address"
        },
        {
          "internalType": "address payable",
          "name": "_terasury",
          "type": "address"
        },
        {
          "internalType": "address",
          "name": "_priceFeed",
          "type": "address"
        }
      ],
      "stateMutability": "nonpayable",
      "type": "constructor"
    },
    {
      "anonymous": false,
      "inputs": [
        {
          "indexed": true,
          "internalType": "address",
          "name": "previousOwner",
          "type": "address"
        },
        {
          "indexed": true,
          "internalType": "address",
          "name": "newOwner",
          "type": "address"
        }
      ],
      "name": "OwnershipTransferred",
      "type": "event"
    },
    {
      "anonymous": false,
      "inputs": [
        {
          "indexed": true,
          "internalType": "address",
          "name": "priceFeed",
          "type": "address"
        }
      ],
      "name": "PriceFeedChanged",
      "type": "event"
    },
    {
      "anonymous": false,
      "inputs": [
        {
          "indexed": true,
          "internalType": "address",
          "name": "info",
          "type": "address"
        }
      ],
      "name": "StorageChanged",
      "type": "event"
    },
    {
      "anonymous": false,
      "inputs": [
        {
          "indexed": true,
          "internalType": "address",
          "name": "treasury",
          "type": "address"
        }
      ],
      "name": "TreasuryChanged",
      "type": "event"
    },
    {
      "inputs": [
        {
          "internalType": "uint256",
          "name": "amount",
          "type": "uint256"
        },
        {
          "internalType": "address",
          "name": "router",
          "type": "address"
        },
        {
          "components": [
            {
              "internalType": "address[]",
              "name": "path",
              "type": "address[]"
            },
            {
              "internalType": "uint256",
              "name": "outMin",
              "type": "uint256"
            }
          ],
          "internalType": "struct BuyLiquidity.Swap",
          "name": "swap0",
          "type": "tuple"
        },
        {
          "components": [
            {
              "internalType": "address[]",
              "name": "path",
              "type": "address[]"
            },
            {
              "internalType": "uint256",
              "name": "outMin",
              "type": "uint256"
            }
          ],
          "internalType": "struct BuyLiquidity.Swap",
          "name": "swap1",
          "type": "tuple"
        },
        {
          "internalType": "contract IPair",
          "name": "to",
          "type": "address"
        },
        {
          "internalType": "uint256",
          "name": "deadline",
          "type": "uint256"
        }
      ],
      "name": "buyLiquidity",
      "outputs": [],
      "stateMutability": "payable",
      "type": "function"
    },
    {
      "inputs": [
        {
          "internalType": "address",
          "name": "_priceFeed",
          "type": "address"
        }
      ],
      "name": "changePrireFeed",
      "outputs": [],
      "stateMutability": "nonpayable",
      "type": "function"
    },
    {
      "inputs": [
        {
          "internalType": "address",
          "name": "_info",
          "type": "address"
        }
      ],
      "name": "changeStorage",
      "outputs": [],
      "stateMutability": "nonpayable",
      "type": "function"
    },
    {
      "inputs": [
        {
          "internalType": "address payable",
          "name": "_treasury",
          "type": "address"
        }
      ],
      "name": "changeTreasury",
      "outputs": [],
      "stateMutability": "nonpayable",
      "type": "function"
    },
    {
      "inputs": [],
      "name": "fee",
      "outputs": [
        {
          "internalType": "uint256",
          "name": "",
          "type": "uint256"
        }
      ],
      "stateMutability": "view",
      "type": "function"
    },
    {
      "inputs": [],
      "name": "info",
      "outputs": [
        {
          "internalType": "contract Storage",
          "name": "",
          "type": "address"
        }
      ],
      "stateMutability": "view",
      "type": "function"
    },
    {
      "inputs": [],
      "name": "owner",
      "outputs": [
        {
          "internalType": "address",
          "name": "",
          "type": "address"
        }
      ],
      "stateMutability": "view",
      "type": "function"
    },
    {
      "inputs": [],
      "name": "priceFeed",
      "outputs": [
        {
          "internalType": "contract IPriceFeed",
          "name": "",
          "type": "address"
        }
      ],
      "stateMutability": "view",
      "type": "function"
    },
    {
      "inputs": [],
      "name": "renounceOwnership",
      "outputs": [],
      "stateMutability": "nonpayable",
      "type": "function"
    },
    {
      "inputs": [
        {
          "internalType": "address",
          "name": "newOwner",
          "type": "address"
        }
      ],
      "name": "transferOwnership",
      "outputs": [],
      "stateMutability": "nonpayable",
      "type": "function"
    },
    {
      "inputs": [],
      "name": "treasury",
      "outputs": [
        {
          "internalType": "address payable",
          "name": "",
          "type": "address"
        }
      ],
      "stateMutability": "view",
      "type": "function"
    }
  ],
  "bytecode": "0x60806040523480156200001157600080fd5b5060405162001984380380620019848339810160408190526200003491620000d2565b6200003f3362000082565b600180546001600160a01b039485166001600160a01b0319918216179091556002805493851693821693909317909255600380549190931691161790556200013f565b600080546001600160a01b038381166001600160a01b0319831681178455604051919092169283917f8be0079c531659141344cd1fd0a4f28419497f9722a3daafe3b4186f6b6457e09190a35050565b600080600060608486031215620000e857600080fd5b8351620000f58162000126565b6020850151909350620001088162000126565b60408501519092506200011b8162000126565b809150509250925092565b6001600160a01b03811681146200013c57600080fd5b50565b611835806200014f6000396000f3fe60806040526004361061009c5760003560e01c8063741bef1a11610064578063741bef1a146101485780638da5cb5b14610168578063b14f2a3914610186578063c50c97d0146101a6578063ddca3f43146101c6578063f2fde38b146101e957600080fd5b8063370158ea146100a15780633c65f2d1146100de57806361d027b3146101005780636a103af714610120578063715018a614610133575b600080fd5b3480156100ad57600080fd5b506001546100c1906001600160a01b031681565b6040516001600160a01b0390911681526020015b60405180910390f35b3480156100ea57600080fd5b506100fe6100f93660046114b9565b610209565b005b34801561010c57600080fd5b506002546100c1906001600160a01b031681565b6100fe61012e366004611535565b610286565b34801561013f57600080fd5b506100fe610f3c565b34801561015457600080fd5b506003546100c1906001600160a01b031681565b34801561017457600080fd5b506000546001600160a01b03166100c1565b34801561019257600080fd5b506100fe6101a13660046114b9565b610f72565b3480156101b257600080fd5b506100fe6101c13660046114b9565b610fe6565b3480156101d257600080fd5b506101db61105a565b6040519081526020016100d5565b3480156101f557600080fd5b506100fe6102043660046114b9565b611213565b6000546001600160a01b0316331461023c5760405162461bcd60e51b815260040161023390611650565b60405180910390fd5b600380546001600160a01b0319166001600160a01b0383169081179091556040517f70880247142cf113e15f57599afcb48f4cdd196159d882cda54475da68ea996190600090a250565b600154604080517f4446483a436f6e74726163743a4275794c69717569646974793a616c6c6f7765602082015267322937baba32b91d60c11b918101919091526bffffffffffffffffffffffff19606088901b1660488201526001600160a01b0390911690637ae1cfca90605c01604051602081830303815290604052805190602001206040518263ffffffff1660e01b815260040161032891815260200190565b60206040518083038186803b15801561034057600080fd5b505afa158015610354573d6000803e3d6000fd5b505050506040513d601f19601f8201168201806040525081019061037891906114fa565b6103df5760405162461bcd60e51b815260206004820152603260248201527f4275794c69717569646974793a3a6275794c69717569646974793a20696e76616044820152716c696420726f75746572206164647265737360701b6064820152608401610233565b825180516000906103f2576103f26117be565b60200260200101516001600160a01b0316846000015160008151811061041a5761041a6117be565b60200260200101516001600160a01b0316146104925760405162461bcd60e51b815260206004820152603160248201527f4275794c69717569646974793a3a6275794c697175646974793a20737461727460448201527020746f6b656e206e6f7420657175616c7360781b6064820152608401610233565b600061049c61105a565b9050803410156105145760405162461bcd60e51b815260206004820152603f60248201527f4275794c69717569646974793a3a6275794c697175646974793a20696e73756660448201527f66696369656e742066756e647320746f2070617920636f6d6d697373696f6e006064820152608401610233565b6002546040516001600160a01b039091169082156108fc029083906000818181858888f1935050505015801561054e573d6000803e3d6000fd5b508034111561058f57336108fc6105658334611791565b6040518115909202916000818181858888f1935050505015801561058d573d6000803e3d6000fd5b505b6000836001600160a01b0316630dfe16816040518163ffffffff1660e01b815260040160206040518083038186803b1580156105ca57600080fd5b505afa1580156105de573d6000803e3d6000fd5b505050506040513d601f19601f8201168201806040525081019061060291906114dd565b865180519192506001600160a01b0383169161062090600190611791565b81518110610630576106306117be565b60200260200101516001600160a01b0316146106a05760405162461bcd60e51b815260206004820152602960248201527f4275794c69717569646974793a3a6275794c697175646974793a20696e76616c6044820152680696420746f6b656e360bc1b6064820152608401610233565b6000846001600160a01b031663d21220a76040518163ffffffff1660e01b815260040160206040518083038186803b1580156106db57600080fd5b505afa1580156106ef573d6000803e3d6000fd5b505050506040513d601f19601f8201168201806040525081019061071391906114dd565b865180519192506001600160a01b0383169161073190600190611791565b81518110610741576107416117be565b60200260200101516001600160a01b0316146107b15760405162461bcd60e51b815260206004820152602960248201527f4275794c69717569646974793a3a6275794c697175646974793a20696e76616c604482015268696420746f6b656e3160b81b6064820152608401610233565b865180516000906107c4576107c46117be565b60209081029190910101516040516323b872dd60e01b8152336004820152306024820152604481018b90526001600160a01b03909116906323b872dd90606401602060405180830381600087803b15801561081e57600080fd5b505af1158015610832573d6000803e3d6000fd5b505050506040513d601f19601f8201168201806040525081019061085691906114fa565b508651805160009061086a5761086a6117be565b602090810291909101015160405163095ea7b360e01b81526001600160a01b038a81166004830152602482018c90529091169063095ea7b390604401602060405180830381600087803b1580156108c057600080fd5b505af11580156108d4573d6000803e3d6000fd5b505050506040513d601f19601f820116820180604052508101906108f891906114fa565b50600061090660028b611750565b905061091d89828a602001518b60000151896112ae565b6000610929828c611791565b90506109408a828a602001518b600001518a6112ae565b6040516370a0823160e01b81523060048201526001600160a01b038516906370a082319060240160206040518083038186803b15801561097f57600080fd5b505afa158015610993573d6000803e3d6000fd5b505050506040513d601f19601f820116820180604052508101906109b7919061151c565b6040516370a0823160e01b81523060048201529092506001600160a01b038416906370a082319060240160206040518083038186803b1580156109f957600080fd5b505afa158015610a0d573d6000803e3d6000fd5b505050506040513d601f19601f82011682018060405250810190610a31919061151c565b60405163095ea7b360e01b81526001600160a01b038c81166004830152602482018590529192509085169063095ea7b390604401602060405180830381600087803b158015610a7f57600080fd5b505af1158015610a93573d6000803e3d6000fd5b505050506040513d601f19601f82011682018060405250810190610ab791906114fa565b5060405163095ea7b360e01b81526001600160a01b038b811660048301526024820183905284169063095ea7b390604401602060405180830381600087803b158015610b0257600080fd5b505af1158015610b16573d6000803e3d6000fd5b505050506040513d601f19601f82011682018060405250810190610b3a91906114fa565b5060405162e8e33760e81b81526001600160a01b0385811660048301528481166024830152604482018490526064820183905260006084830181905260a48301523360c483015260e482018890528b169063e8e337009061010401606060405180830381600087803b158015610baf57600080fd5b505af1158015610bc3573d6000803e3d6000fd5b505050506040513d601f19601f82011682018060405250810190610be791906115d2565b50506040516370a0823160e01b8152306004820152600091506001600160a01b038616906370a082319060240160206040518083038186803b158015610c2c57600080fd5b505afa158015610c40573d6000803e3d6000fd5b505050506040513d601f19601f82011682018060405250810190610c64919061151c565b90508015610cee5760405163a9059cbb60e01b8152336004820152602481018290526001600160a01b0386169063a9059cbb90604401602060405180830381600087803b158015610cb457600080fd5b505af1158015610cc8573d6000803e3d6000fd5b505050506040513d601f19601f82011682018060405250810190610cec91906114fa565b505b6040516370a0823160e01b81523060048201526001600160a01b038516906370a082319060240160206040518083038186803b158015610d2d57600080fd5b505afa158015610d41573d6000803e3d6000fd5b505050506040513d601f19601f82011682018060405250810190610d65919061151c565b90508015610def5760405163a9059cbb60e01b8152336004820152602481018290526001600160a01b0385169063a9059cbb90604401602060405180830381600087803b158015610db557600080fd5b505af1158015610dc9573d6000803e3d6000fd5b505050506040513d601f19601f82011682018060405250810190610ded91906114fa565b505b89518051600090610e0257610e026117be565b60209081029190910101516040516370a0823160e01b81523060048201526001600160a01b03909116906370a082319060240160206040518083038186803b158015610e4d57600080fd5b505afa158015610e61573d6000803e3d6000fd5b505050506040513d601f19601f82011682018060405250810190610e85919061151c565b90508015610f2e5789518051600090610ea057610ea06117be565b602090810291909101015160405163a9059cbb60e01b8152336004820152602481018390526001600160a01b039091169063a9059cbb90604401602060405180830381600087803b158015610ef457600080fd5b505af1158015610f08573d6000803e3d6000fd5b505050506040513d601f19601f82011682018060405250810190610f2c91906114fa565b505b505050505050505050505050565b6000546001600160a01b03163314610f665760405162461bcd60e51b815260040161023390611650565b610f70600061137b565b565b6000546001600160a01b03163314610f9c5760405162461bcd60e51b815260040161023390611650565b600280546001600160a01b0319166001600160a01b0383169081179091556040517fc714d22a2f08b695f81e7c707058db484aa5b4d6b4c9fd64beb10fe85832f60890600090a250565b6000546001600160a01b031633146110105760405162461bcd60e51b815260040161023390611650565b600180546001600160a01b0319166001600160a01b0383169081179091556040517f8cbb7a6ee88dbf214a9b660a9f1af063e42a24cbfe26a046a718b3f621baa53990600090a250565b60015460405163bd02d0f560e01b81527fed3a30f9a1639759f8c23859293de095ace4c3da0699fccc56863cec92430bf1600482015260009182916001600160a01b039091169063bd02d0f59060240160206040518083038186803b1580156110c257600080fd5b505afa1580156110d6573d6000803e3d6000fd5b505050506040513d601f19601f820116820180604052508101906110fa919061151c565b90508061110957600091505090565b60035460408051633fabe5a360e21b815290516000926001600160a01b03169163feaf968c9160048083019260a0929190829003018186803b15801561114e57600080fd5b505afa158015611162573d6000803e3d6000fd5b505050506040513d601f19601f820116820180604052508101906111869190611600565b505050915050600081136111ef5760405162461bcd60e51b815260206004820152602a60248201527f4275794c69717569646974793a3a6665653a20696e76616c69642066656520746044820152696f6b656e20707269636560b01b6064820152608401610233565b8061120283670de0b6b3a7640000611772565b61120c9190611750565b9250505090565b6000546001600160a01b0316331461123d5760405162461bcd60e51b815260040161023390611650565b6001600160a01b0381166112a25760405162461bcd60e51b815260206004820152602660248201527f4f776e61626c653a206e6577206f776e657220697320746865207a65726f206160448201526564647265737360d01b6064820152608401610233565b6112ab8161137b565b50565b81600183516112bd9190611791565b815181106112cd576112cd6117be565b60200260200101516001600160a01b0316826000815181106112f1576112f16117be565b60200260200101516001600160a01b0316141561130d57611374565b604051635c11d79560e01b81526001600160a01b03861690635c11d795906113419087908790879030908890600401611685565b600060405180830381600087803b15801561135b57600080fd5b505af115801561136f573d6000803e3d6000fd5b505050505b5050505050565b600080546001600160a01b038381166001600160a01b0319831681178455604051919092169283917f8be0079c531659141344cd1fd0a4f28419497f9722a3daafe3b4186f6b6457e09190a35050565b6000604082840312156113dd57600080fd5b6113e56116f6565b9050813567ffffffffffffffff808211156113ff57600080fd5b818401915084601f83011261141357600080fd5b8135602082821115611427576114276117d4565b8160051b925061143881840161171f565b8281528181019085830185870184018a101561145357600080fd5b600096505b84871015611482578035955061146d866117ea565b85835260019690960195918301918301611458565b50808752505080860135818601525050505092915050565b805169ffffffffffffffffffff811681146114b457600080fd5b919050565b6000602082840312156114cb57600080fd5b81356114d6816117ea565b9392505050565b6000602082840312156114ef57600080fd5b81516114d6816117ea565b60006020828403121561150c57600080fd5b815180151581146114d657600080fd5b60006020828403121561152e57600080fd5b5051919050565b60008060008060008060c0878903121561154e57600080fd5b863595506020870135611560816117ea565b9450604087013567ffffffffffffffff8082111561157d57600080fd5b6115898a838b016113cb565b9550606089013591508082111561159f57600080fd5b506115ac89828a016113cb565b93505060808701356115bd816117ea565b8092505060a087013590509295509295509295565b6000806000606084860312156115e757600080fd5b8351925060208401519150604084015190509250925092565b600080600080600060a0868803121561161857600080fd5b6116218661149a565b94506020860151935060408601519250606086015191506116446080870161149a565b90509295509295909350565b6020808252818101527f4f776e61626c653a2063616c6c6572206973206e6f7420746865206f776e6572604082015260600190565b600060a082018783526020878185015260a0604085015281875180845260c086019150828901935060005b818110156116d55784516001600160a01b0316835293830193918301916001016116b0565b50506001600160a01b03969096166060850152505050608001529392505050565b6040805190810167ffffffffffffffff81118282101715611719576117196117d4565b60405290565b604051601f8201601f1916810167ffffffffffffffff81118282101715611748576117486117d4565b604052919050565b60008261176d57634e487b7160e01b600052601260045260246000fd5b500490565b600081600019048311821515161561178c5761178c6117a8565b500290565b6000828210156117a3576117a36117a8565b500390565b634e487b7160e01b600052601160045260246000fd5b634e487b7160e01b600052603260045260246000fd5b634e487b7160e01b600052604160045260246000fd5b6001600160a01b03811681146112ab57600080fdfea264697066735822122031c3e596a5f951dcc18be52d7af22bb70b51e2526f8dec95529fef9d82d5506664736f6c63430008060033",
  "linkReferences": {},
  "deployedLinkReferences": {}
}