{
  "_format": "hh-sol-artifact-1",
  "contractName": "Delegator",
  "sourceName": "contracts/governance/Delegator.sol",
  "abi": [
    {
      "inputs": [
        {
          "internalType": "address",
          "name": "_token",
          "type": "address"
        },
        {
          "internalType": "address",
          "name": "governor",
          "type": "address"
        }
      ],
      "stateMutability": "nonpayable",
      "type": "constructor"
    },
    {
      "anonymous": false,
      "inputs": [
        {
          "indexed": true,
          "internalType": "address",
          "name": "previousOwner",
          "type": "address"
        },
        {
          "indexed": true,
          "internalType": "address",
          "name": "newOwner",
          "type": "address"
        }
      ],
      "name": "OwnershipTransferred",
      "type": "event"
    },
    {
      "inputs": [
        {
          "internalType": "uint256",
          "name": "amount",
          "type": "uint256"
        }
      ],
      "name": "lock",
      "outputs": [],
      "stateMutability": "nonpayable",
      "type": "function"
    },
    {
      "inputs": [],
      "name": "owner",
      "outputs": [
        {
          "internalType": "address",
          "name": "",
          "type": "address"
        }
      ],
      "stateMutability": "view",
      "type": "function"
    },
    {
      "inputs": [],
      "name": "renounceOwnership",
      "outputs": [],
      "stateMutability": "nonpayable",
      "type": "function"
    },
    {
      "inputs": [],
      "name": "token",
      "outputs": [
        {
          "internalType": "contract GovernanceToken",
          "name": "",
          "type": "address"
        }
      ],
      "stateMutability": "view",
      "type": "function"
    },
    {
      "inputs": [
        {
          "internalType": "address",
          "name": "newOwner",
          "type": "address"
        }
      ],
      "name": "transferOwnership",
      "outputs": [],
      "stateMutability": "nonpayable",
      "type": "function"
    },
    {
      "inputs": [
        {
          "internalType": "address",
          "name": "recipient",
          "type": "address"
        },
        {
          "internalType": "uint256",
          "name": "amount",
          "type": "uint256"
        }
      ],
      "name": "unlock",
      "outputs": [],
      "stateMutability": "nonpayable",
      "type": "function"
    }
  ],
  "bytecode": "0x608060405234801561001057600080fd5b5060405161063338038061063383398101604081905261002f9161011b565b610038336100af565b600180546001600160a01b0319166001600160a01b038481169182179092556040516317066a5760e21b8152918316600483015290635c19a95c90602401600060405180830381600087803b15801561009057600080fd5b505af11580156100a4573d6000803e3d6000fd5b50505050505061014e565b600080546001600160a01b038381166001600160a01b0319831681178455604051919092169283917f8be0079c531659141344cd1fd0a4f28419497f9722a3daafe3b4186f6b6457e09190a35050565b80516001600160a01b038116811461011657600080fd5b919050565b6000806040838503121561012e57600080fd5b610137836100ff565b9150610145602084016100ff565b90509250929050565b6104d68061015d6000396000f3fe608060405234801561001057600080fd5b50600436106100625760003560e01c8063715018a6146100675780637eee288d146100715780638da5cb5b14610084578063dd467064146100ad578063f2fde38b146100c0578063fc0c546a146100d3575b600080fd5b61006f6100e6565b005b61006f61007f366004610406565b610125565b6000546001600160a01b03165b6040516001600160a01b03909116815260200160405180910390f35b61006f6100bb366004610452565b61024f565b61006f6100ce3660046103e4565b6102dd565b600154610091906001600160a01b031681565b6000546001600160a01b031633146101195760405162461bcd60e51b81526004016101109061046b565b60405180910390fd5b6101236000610378565b565b6000546001600160a01b0316331461014f5760405162461bcd60e51b81526004016101109061046b565b6001600160a01b0382166101c45760405162461bcd60e51b815260206004820152603660248201527f44656c656761746f723a3a756e6c6f636b3a2063616e6e6f74207472616e7366604482015275657220746f20746865207a65726f206164647265737360501b6064820152608401610110565b60015460405163a9059cbb60e01b81526001600160a01b038481166004830152602482018490529091169063a9059cbb90604401602060405180830381600087803b15801561021257600080fd5b505af1158015610226573d6000803e3d6000fd5b505050506040513d601f19601f8201168201806040525081019061024a9190610430565b505050565b6001546040516323b872dd60e01b8152336004820152306024820152604481018390526001600160a01b03909116906323b872dd90606401602060405180830381600087803b1580156102a157600080fd5b505af11580156102b5573d6000803e3d6000fd5b505050506040513d601f19601f820116820180604052508101906102d99190610430565b5050565b6000546001600160a01b031633146103075760405162461bcd60e51b81526004016101109061046b565b6001600160a01b03811661036c5760405162461bcd60e51b815260206004820152602660248201527f4f776e61626c653a206e6577206f776e657220697320746865207a65726f206160448201526564647265737360d01b6064820152608401610110565b61037581610378565b50565b600080546001600160a01b038381166001600160a01b0319831681178455604051919092169283917f8be0079c531659141344cd1fd0a4f28419497f9722a3daafe3b4186f6b6457e09190a35050565b80356001600160a01b03811681146103df57600080fd5b919050565b6000602082840312156103f657600080fd5b6103ff826103c8565b9392505050565b6000806040838503121561041957600080fd5b610422836103c8565b946020939093013593505050565b60006020828403121561044257600080fd5b815180151581146103ff57600080fd5b60006020828403121561046457600080fd5b5035919050565b6020808252818101527f4f776e61626c653a2063616c6c6572206973206e6f7420746865206f776e657260408201526060019056fea2646970667358221220990515b6ccc29d25a8ff915236e450cddd40358eb768b69292b316aa3133573d64736f6c63430008060033",
  "linkReferences": {},
  "deployedLinkReferences": {}
}