{
  "_format": "hh-sol-artifact-1",
  "contractName": "RouterMock",
  "sourceName": "contracts/automate/dex/mock/RouterMock.sol",
  "abi": [
    {
      "inputs": [
        {
          "internalType": "address",
          "name": "_lpToken",
          "type": "address"
        }
      ],
      "stateMutability": "nonpayable",
      "type": "constructor"
    },
    {
      "inputs": [
        {
          "internalType": "address",
          "name": "tokenA",
          "type": "address"
        },
        {
          "internalType": "address",
          "name": "tokenB",
          "type": "address"
        },
        {
          "internalType": "uint256",
          "name": "amountADesired",
          "type": "uint256"
        },
        {
          "internalType": "uint256",
          "name": "amountBDesired",
          "type": "uint256"
        },
        {
          "internalType": "uint256",
          "name": "",
          "type": "uint256"
        },
        {
          "internalType": "uint256",
          "name": "",
          "type": "uint256"
        },
        {
          "internalType": "address",
          "name": "to",
          "type": "address"
        },
        {
          "internalType": "uint256",
          "name": "",
          "type": "uint256"
        }
      ],
      "name": "addLiquidity",
      "outputs": [
        {
          "internalType": "uint256",
          "name": "amountA",
          "type": "uint256"
        },
        {
          "internalType": "uint256",
          "name": "amountB",
          "type": "uint256"
        },
        {
          "internalType": "uint256",
          "name": "liquidity",
          "type": "uint256"
        }
      ],
      "stateMutability": "nonpayable",
      "type": "function"
    },
    {
      "inputs": [
        {
          "internalType": "uint256",
          "name": "amountIn",
          "type": "uint256"
        },
        {
          "internalType": "address[]",
          "name": "path",
          "type": "address[]"
        }
      ],
      "name": "getAmountsOut",
      "outputs": [
        {
          "internalType": "uint256[]",
          "name": "amounts",
          "type": "uint256[]"
        }
      ],
      "stateMutability": "view",
      "type": "function"
    },
    {
      "inputs": [],
      "name": "lpToken",
      "outputs": [
        {
          "internalType": "address",
          "name": "",
          "type": "address"
        }
      ],
      "stateMutability": "view",
      "type": "function"
    },
    {
      "inputs": [
        {
          "internalType": "address",
          "name": "",
          "type": "address"
        }
      ],
      "name": "prices",
      "outputs": [
        {
          "internalType": "uint256",
          "name": "",
          "type": "uint256"
        }
      ],
      "stateMutability": "view",
      "type": "function"
    },
    {
      "inputs": [
        {
          "internalType": "address",
          "name": "token",
          "type": "address"
        },
        {
          "internalType": "uint256",
          "name": "price",
          "type": "uint256"
        }
      ],
      "name": "setPrice",
      "outputs": [],
      "stateMutability": "nonpayable",
      "type": "function"
    },
    {
      "inputs": [
        {
          "internalType": "uint256",
          "name": "amountIn",
          "type": "uint256"
        },
        {
          "internalType": "uint256",
          "name": "amountOutMin",
          "type": "uint256"
        },
        {
          "internalType": "address[]",
          "name": "path",
          "type": "address[]"
        },
        {
          "internalType": "address",
          "name": "to",
          "type": "address"
        },
        {
          "internalType": "uint256",
          "name": "",
          "type": "uint256"
        }
      ],
      "name": "swapExactTokensForTokens",
      "outputs": [
        {
          "internalType": "uint256[]",
          "name": "amounts",
          "type": "uint256[]"
        }
      ],
      "stateMutability": "nonpayable",
      "type": "function"
    },
    {
      "inputs": [
        {
          "internalType": "uint256",
          "name": "amountIn",
          "type": "uint256"
        },
        {
          "internalType": "uint256",
          "name": "amountOutMin",
          "type": "uint256"
        },
        {
          "internalType": "address[]",
          "name": "path",
          "type": "address[]"
        },
        {
          "internalType": "address",
          "name": "to",
          "type": "address"
        },
        {
          "internalType": "uint256",
          "name": "deadline",
          "type": "uint256"
        }
      ],
      "name": "swapExactTokensForTokensSupportingFeeOnTransferTokens",
      "outputs": [],
      "stateMutability": "nonpayable",
      "type": "function"
    }
  ],
  "bytecode": "0x608060405234801561001057600080fd5b50604051610a46380380610a4683398101604081905261002f91610054565b600080546001600160a01b0319166001600160a01b0392909216919091179055610084565b60006020828403121561006657600080fd5b81516001600160a01b038116811461007d57600080fd5b9392505050565b6109b3806100936000396000f3fe608060405234801561001057600080fd5b506004361061007c5760003560e01c80635fcbd2851161005b5780635fcbd285146100e9578063cfed246b14610114578063d06ca61f14610142578063e8e337001461015557600080fd5b8062e4768b1461008157806338ed1739146100ad5780635c11d795146100d6575b600080fd5b6100ab61008f3660046106e0565b6001600160a01b03909116600090815260016020526040902055565b005b6100c06100bb366004610804565b610183565b6040516100cd91906108a6565b60405180910390f35b6100ab6100e4366004610804565b610366565b6000546100fc906001600160a01b031681565b6040516001600160a01b0390911681526020016100cd565b61013461012236600461064a565b60016020526000908152604090205481565b6040519081526020016100cd565b6100c061015036600461072c565b61037d565b61016861016336600461066c565b610478565b604080519384526020840192909252908201526060016100cd565b60608484600081811061019857610198610951565b90506020020160208101906101ad919061064a565b6040516323b872dd60e01b8152336004820152306024820152604481018990526001600160a01b0391909116906323b872dd90606401602060405180830381600087803b1580156101fd57600080fd5b505af1158015610211573d6000803e3d6000fd5b505050506040513d601f19601f82011682018060405250810190610235919061070a565b50600060018187876102478482610909565b81811061025657610256610951565b905060200201602081019061026b919061064a565b6001600160a01b0316815260208101919091526040016000205490508585610294600182610909565b8181106102a3576102a3610951565b90506020020160208101906102b8919061064a565b6001600160a01b031663a9059cbb85836102d257896102dc565b6102dc8b856108ea565b6040516001600160e01b031960e085901b1681526001600160a01b0390921660048301526024820152604401602060405180830381600087803b15801561032257600080fd5b505af1158015610336573d6000803e3d6000fd5b505050506040513d601f19601f8201168201806040525081019061035a919061070a565b50509695505050505050565b610374868686868686610183565b50505050505050565b6060815167ffffffffffffffff81111561039957610399610967565b6040519080825280602002602001820160405280156103c2578160200160208202803683370190505b50905060005b825181101561047157600183516103df9190610909565b81146103eb5783610442565b6001600084600186516103fe9190610909565b8151811061040e5761040e610951565b60200260200101516001600160a01b03166001600160a01b03168152602001908152602001600020548461044291906108ea565b82828151811061045457610454610951565b60209081029190910101528061046981610920565b9150506103c8565b5092915050565b6040516323b872dd60e01b815233600482015230602482015260448101879052869060009081906001600160a01b038c16906323b872dd90606401602060405180830381600087803b1580156104cd57600080fd5b505af11580156104e1573d6000803e3d6000fd5b505050506040513d601f19601f82011682018060405250810190610505919061070a565b506040516323b872dd60e01b8152336004820152306024820152604481018990528892506001600160a01b038b16906323b872dd90606401602060405180830381600087803b15801561055757600080fd5b505af115801561056b573d6000803e3d6000fd5b505050506040513d601f19601f8201168201806040525081019061058f919061070a565b505060005460405163a9059cbb60e01b81526001600160a01b038681166004830152678ac7230489e800006024830181905292169063a9059cbb90604401602060405180830381600087803b1580156105e757600080fd5b505af11580156105fb573d6000803e3d6000fd5b505050506040513d601f19601f8201168201806040525081019061061f919061070a565b50985098509895505050505050565b80356001600160a01b038116811461064557600080fd5b919050565b60006020828403121561065c57600080fd5b6106658261062e565b9392505050565b600080600080600080600080610100898b03121561068957600080fd5b6106928961062e565b97506106a060208a0161062e565b965060408901359550606089013594506080890135935060a089013592506106ca60c08a0161062e565b915060e089013590509295985092959890939650565b600080604083850312156106f357600080fd5b6106fc8361062e565b946020939093013593505050565b60006020828403121561071c57600080fd5b8151801515811461066557600080fd5b6000806040838503121561073f57600080fd5b8235915060208084013567ffffffffffffffff8082111561075f57600080fd5b818601915086601f83011261077357600080fd5b81358181111561078557610785610967565b8060051b604051601f19603f830116810181811085821117156107aa576107aa610967565b604052828152858101935084860182860187018b10156107c957600080fd5b600095505b838610156107f3576107df8161062e565b8552600195909501949386019386016107ce565b508096505050505050509250929050565b60008060008060008060a0878903121561081d57600080fd5b8635955060208701359450604087013567ffffffffffffffff8082111561084357600080fd5b818901915089601f83011261085757600080fd5b81358181111561086657600080fd5b8a60208260051b850101111561087b57600080fd5b6020830196508095505050506108936060880161062e565b9150608087013590509295509295509295565b6020808252825182820181905260009190848201906040850190845b818110156108de578351835292840192918401916001016108c2565b50909695505050505050565b60008160001904831182151516156109045761090461093b565b500290565b60008282101561091b5761091b61093b565b500390565b60006000198214156109345761093461093b565b5060010190565b634e487b7160e01b600052601160045260246000fd5b634e487b7160e01b600052603260045260246000fd5b634e487b7160e01b600052604160045260246000fdfea26469706673582212208204ba46bd6064c698a7a185739dec1688242472659d1ae0f2a45a8d0c94c12864736f6c63430008060033",
  "linkReferences": {},
  "deployedLinkReferences": {}
}