{
  "_format": "hh-sol-artifact-1",
  "contractName": "RouterMock",
  "sourceName": "contracts/automate/dex/mock/RouterMock.sol",
  "abi": [
    {
      "inputs": [
        {
          "internalType": "address",
          "name": "_lpToken",
          "type": "address"
        }
      ],
      "stateMutability": "nonpayable",
      "type": "constructor"
    },
    {
      "inputs": [
        {
          "internalType": "address",
          "name": "tokenA",
          "type": "address"
        },
        {
          "internalType": "address",
          "name": "tokenB",
          "type": "address"
        },
        {
          "internalType": "uint256",
          "name": "amountADesired",
          "type": "uint256"
        },
        {
          "internalType": "uint256",
          "name": "amountBDesired",
          "type": "uint256"
        },
        {
          "internalType": "uint256",
          "name": "",
          "type": "uint256"
        },
        {
          "internalType": "uint256",
          "name": "",
          "type": "uint256"
        },
        {
          "internalType": "address",
          "name": "to",
          "type": "address"
        },
        {
          "internalType": "uint256",
          "name": "",
          "type": "uint256"
        }
      ],
      "name": "addLiquidity",
      "outputs": [
        {
          "internalType": "uint256",
          "name": "amountA",
          "type": "uint256"
        },
        {
          "internalType": "uint256",
          "name": "amountB",
          "type": "uint256"
        },
        {
          "internalType": "uint256",
          "name": "liquidity",
          "type": "uint256"
        }
      ],
      "stateMutability": "nonpayable",
      "type": "function"
    },
    {
      "inputs": [],
      "name": "lpToken",
      "outputs": [
        {
          "internalType": "address",
          "name": "",
          "type": "address"
        }
      ],
      "stateMutability": "view",
      "type": "function"
    },
    {
      "inputs": [
        {
          "internalType": "uint256",
          "name": "amountIn",
          "type": "uint256"
        },
        {
          "internalType": "uint256",
          "name": "amountOutMin",
          "type": "uint256"
        },
        {
          "internalType": "address[]",
          "name": "path",
          "type": "address[]"
        },
        {
          "internalType": "address",
          "name": "to",
          "type": "address"
        },
        {
          "internalType": "uint256",
          "name": "",
          "type": "uint256"
        }
      ],
      "name": "swapExactTokensForTokens",
      "outputs": [
        {
          "internalType": "uint256[]",
          "name": "amounts",
          "type": "uint256[]"
        }
      ],
      "stateMutability": "nonpayable",
      "type": "function"
    },
    {
      "inputs": [
        {
          "internalType": "uint256",
          "name": "amountIn",
          "type": "uint256"
        },
        {
          "internalType": "uint256",
          "name": "amountOutMin",
          "type": "uint256"
        },
        {
          "internalType": "address[]",
          "name": "path",
          "type": "address[]"
        },
        {
          "internalType": "address",
          "name": "to",
          "type": "address"
        },
        {
          "internalType": "uint256",
          "name": "deadline",
          "type": "uint256"
        }
      ],
      "name": "swapExactTokensForTokensSupportingFeeOnTransferTokens",
      "outputs": [],
      "stateMutability": "nonpayable",
      "type": "function"
    }
  ],
  "bytecode": "0x608060405234801561001057600080fd5b506040516106e63803806106e683398101604081905261002f91610054565b600080546001600160a01b0319166001600160a01b0392909216919091179055610084565b60006020828403121561006657600080fd5b81516001600160a01b038116811461007d57600080fd5b9392505050565b610653806100936000396000f3fe608060405234801561001057600080fd5b506004361061004c5760003560e01c806338ed1739146100515780635c11d7951461007a5780635fcbd2851461008f578063e8e33700146100ba575b600080fd5b61006461005f3660046104fc565b6100e8565b604051610071919061059e565b60405180910390f35b61008d6100883660046104fc565b61025b565b005b6000546100a2906001600160a01b031681565b6040516001600160a01b039091168152602001610071565b6100cd6100c8366004610466565b610272565b60408051938452602084019290925290820152606001610071565b6060848460008181106100fd576100fd610607565b90506020020160208101906101129190610444565b6040516323b872dd60e01b8152336004820152306024820152604481018990526001600160a01b0391909116906323b872dd90606401602060405180830381600087803b15801561016257600080fd5b505af1158015610176573d6000803e3d6000fd5b505050506040513d601f19601f8201168201806040525081019061019a91906104da565b5084846101a86001826105e2565b8181106101b7576101b7610607565b90506020020160208101906101cc9190610444565b60405163a9059cbb60e01b81526001600160a01b03858116600483015260248201899052919091169063a9059cbb90604401602060405180830381600087803b15801561021857600080fd5b505af115801561022c573d6000803e3d6000fd5b505050506040513d601f19601f8201168201806040525081019061025091906104da565b509695505050505050565b6102698686868686866100e8565b50505050505050565b6040516323b872dd60e01b815233600482015230602482015260448101879052869060009081906001600160a01b038c16906323b872dd90606401602060405180830381600087803b1580156102c757600080fd5b505af11580156102db573d6000803e3d6000fd5b505050506040513d601f19601f820116820180604052508101906102ff91906104da565b506040516323b872dd60e01b8152336004820152306024820152604481018990528892506001600160a01b038b16906323b872dd90606401602060405180830381600087803b15801561035157600080fd5b505af1158015610365573d6000803e3d6000fd5b505050506040513d601f19601f8201168201806040525081019061038991906104da565b505060005460405163a9059cbb60e01b81526001600160a01b038681166004830152678ac7230489e800006024830181905292169063a9059cbb90604401602060405180830381600087803b1580156103e157600080fd5b505af11580156103f5573d6000803e3d6000fd5b505050506040513d601f19601f8201168201806040525081019061041991906104da565b50985098509895505050505050565b80356001600160a01b038116811461043f57600080fd5b919050565b60006020828403121561045657600080fd5b61045f82610428565b9392505050565b600080600080600080600080610100898b03121561048357600080fd5b61048c89610428565b975061049a60208a01610428565b965060408901359550606089013594506080890135935060a089013592506104c460c08a01610428565b915060e089013590509295985092959890939650565b6000602082840312156104ec57600080fd5b8151801515811461045f57600080fd5b60008060008060008060a0878903121561051557600080fd5b8635955060208701359450604087013567ffffffffffffffff8082111561053b57600080fd5b818901915089601f83011261054f57600080fd5b81358181111561055e57600080fd5b8a60208260051b850101111561057357600080fd5b60208301965080955050505061058b60608801610428565b9150608087013590509295509295509295565b6020808252825182820181905260009190848201906040850190845b818110156105d6578351835292840192918401916001016105ba565b50909695505050505050565b60008282101561060257634e487b7160e01b600052601160045260246000fd5b500390565b634e487b7160e01b600052603260045260246000fdfea2646970667358221220ec1b83cf045485281693dbd33f2125d9a246cd9cc7397503e4c2a703a73d6d9664736f6c63430008060033",
  "linkReferences": {},
  "deployedLinkReferences": {}
}