{
  "_format": "hh-sol-artifact-1",
  "contractName": "GovernorBravo",
  "sourceName": "contracts/governance/GovernorBravo.sol",
  "abi": [
    {
      "anonymous": false,
      "inputs": [
        {
          "indexed": false,
          "internalType": "address",
          "name": "oldAdmin",
          "type": "address"
        },
        {
          "indexed": false,
          "internalType": "address",
          "name": "newAdmin",
          "type": "address"
        }
      ],
      "name": "NewAdmin",
      "type": "event"
    },
    {
      "anonymous": false,
      "inputs": [
        {
          "indexed": false,
          "internalType": "address",
          "name": "oldImplementation",
          "type": "address"
        },
        {
          "indexed": false,
          "internalType": "address",
          "name": "newImplementation",
          "type": "address"
        }
      ],
      "name": "NewImplementation",
      "type": "event"
    },
    {
      "anonymous": false,
      "inputs": [
        {
          "indexed": false,
          "internalType": "address",
          "name": "oldPendingAdmin",
          "type": "address"
        },
        {
          "indexed": false,
          "internalType": "address",
          "name": "newPendingAdmin",
          "type": "address"
        }
      ],
      "name": "NewPendingAdmin",
      "type": "event"
    },
    {
      "anonymous": false,
      "inputs": [
        {
          "indexed": false,
          "internalType": "uint256",
          "name": "id",
          "type": "uint256"
        }
      ],
      "name": "ProposalCanceled",
      "type": "event"
    },
    {
      "anonymous": false,
      "inputs": [
        {
          "indexed": false,
          "internalType": "uint256",
          "name": "id",
          "type": "uint256"
        },
        {
          "indexed": false,
          "internalType": "address",
          "name": "proposer",
          "type": "address"
        },
        {
          "indexed": false,
          "internalType": "address[]",
          "name": "targets",
          "type": "address[]"
        },
        {
          "indexed": false,
          "internalType": "uint256[]",
          "name": "values",
          "type": "uint256[]"
        },
        {
          "indexed": false,
          "internalType": "string[]",
          "name": "signatures",
          "type": "string[]"
        },
        {
          "indexed": false,
          "internalType": "bytes[]",
          "name": "calldatas",
          "type": "bytes[]"
        },
        {
          "indexed": false,
          "internalType": "uint256",
          "name": "startBlock",
          "type": "uint256"
        },
        {
          "indexed": false,
          "internalType": "uint256",
          "name": "endBlock",
          "type": "uint256"
        },
        {
          "indexed": false,
          "internalType": "string",
          "name": "description",
          "type": "string"
        }
      ],
      "name": "ProposalCreated",
      "type": "event"
    },
    {
      "anonymous": false,
      "inputs": [
        {
          "indexed": false,
          "internalType": "uint256",
          "name": "id",
          "type": "uint256"
        }
      ],
      "name": "ProposalExecuted",
      "type": "event"
    },
    {
      "anonymous": false,
      "inputs": [
        {
          "indexed": false,
          "internalType": "uint256",
          "name": "id",
          "type": "uint256"
        },
        {
          "indexed": false,
          "internalType": "uint256",
          "name": "eta",
          "type": "uint256"
        }
      ],
      "name": "ProposalQueued",
      "type": "event"
    },
    {
      "anonymous": false,
      "inputs": [
        {
          "indexed": false,
          "internalType": "uint256",
          "name": "oldProposalThreshold",
          "type": "uint256"
        },
        {
          "indexed": false,
          "internalType": "uint256",
          "name": "newProposalThreshold",
          "type": "uint256"
        }
      ],
      "name": "ProposalThresholdSet",
      "type": "event"
    },
    {
      "anonymous": false,
      "inputs": [
        {
          "indexed": true,
          "internalType": "address",
          "name": "voter",
          "type": "address"
        },
        {
          "indexed": false,
          "internalType": "uint256",
          "name": "proposalId",
          "type": "uint256"
        },
        {
          "indexed": false,
          "internalType": "uint8",
          "name": "support",
          "type": "uint8"
        },
        {
          "indexed": false,
          "internalType": "uint256",
          "name": "votes",
          "type": "uint256"
        },
        {
          "indexed": false,
          "internalType": "string",
          "name": "reason",
          "type": "string"
        }
      ],
      "name": "VoteCast",
      "type": "event"
    },
    {
      "anonymous": false,
      "inputs": [
        {
          "indexed": false,
          "internalType": "uint256",
          "name": "oldVotingDelay",
          "type": "uint256"
        },
        {
          "indexed": false,
          "internalType": "uint256",
          "name": "newVotingDelay",
          "type": "uint256"
        }
      ],
      "name": "VotingDelaySet",
      "type": "event"
    },
    {
      "anonymous": false,
      "inputs": [
        {
          "indexed": false,
          "internalType": "uint256",
          "name": "oldVotingPeriod",
          "type": "uint256"
        },
        {
          "indexed": false,
          "internalType": "uint256",
          "name": "newVotingPeriod",
          "type": "uint256"
        }
      ],
      "name": "VotingPeriodSet",
      "type": "event"
    },
    {
      "inputs": [],
      "name": "BALLOT_TYPEHASH",
      "outputs": [
        {
          "internalType": "bytes32",
          "name": "",
          "type": "bytes32"
        }
      ],
      "stateMutability": "view",
      "type": "function"
    },
    {
      "inputs": [],
      "name": "DOMAIN_TYPEHASH",
      "outputs": [
        {
          "internalType": "bytes32",
          "name": "",
          "type": "bytes32"
        }
      ],
      "stateMutability": "view",
      "type": "function"
    },
    {
      "inputs": [],
      "name": "MAX_PROPOSAL_THRESHOLD",
      "outputs": [
        {
          "internalType": "uint256",
          "name": "",
          "type": "uint256"
        }
      ],
      "stateMutability": "view",
      "type": "function"
    },
    {
      "inputs": [],
      "name": "MAX_VOTING_DELAY",
      "outputs": [
        {
          "internalType": "uint256",
          "name": "",
          "type": "uint256"
        }
      ],
      "stateMutability": "view",
      "type": "function"
    },
    {
      "inputs": [],
      "name": "MAX_VOTING_PERIOD",
      "outputs": [
        {
          "internalType": "uint256",
          "name": "",
          "type": "uint256"
        }
      ],
      "stateMutability": "view",
      "type": "function"
    },
    {
      "inputs": [],
      "name": "MIN_PROPOSAL_THRESHOLD",
      "outputs": [
        {
          "internalType": "uint256",
          "name": "",
          "type": "uint256"
        }
      ],
      "stateMutability": "view",
      "type": "function"
    },
    {
      "inputs": [],
      "name": "MIN_VOTING_DELAY",
      "outputs": [
        {
          "internalType": "uint256",
          "name": "",
          "type": "uint256"
        }
      ],
      "stateMutability": "view",
      "type": "function"
    },
    {
      "inputs": [],
      "name": "MIN_VOTING_PERIOD",
      "outputs": [
        {
          "internalType": "uint256",
          "name": "",
          "type": "uint256"
        }
      ],
      "stateMutability": "view",
      "type": "function"
    },
    {
      "inputs": [],
      "name": "_acceptAdmin",
      "outputs": [],
      "stateMutability": "nonpayable",
      "type": "function"
    },
    {
      "inputs": [
        {
          "internalType": "address",
          "name": "newPendingAdmin",
          "type": "address"
        }
      ],
      "name": "_setPendingAdmin",
      "outputs": [],
      "stateMutability": "nonpayable",
      "type": "function"
    },
    {
      "inputs": [
        {
          "internalType": "uint256",
          "name": "newProposalThreshold",
          "type": "uint256"
        }
      ],
      "name": "_setProposalThreshold",
      "outputs": [],
      "stateMutability": "nonpayable",
      "type": "function"
    },
    {
      "inputs": [
        {
          "internalType": "uint256",
          "name": "newVotingDelay",
          "type": "uint256"
        }
      ],
      "name": "_setVotingDelay",
      "outputs": [],
      "stateMutability": "nonpayable",
      "type": "function"
    },
    {
      "inputs": [
        {
          "internalType": "uint256",
          "name": "newVotingPeriod",
          "type": "uint256"
        }
      ],
      "name": "_setVotingPeriod",
      "outputs": [],
      "stateMutability": "nonpayable",
      "type": "function"
    },
    {
      "inputs": [],
      "name": "admin",
      "outputs": [
        {
          "internalType": "address",
          "name": "",
          "type": "address"
        }
      ],
      "stateMutability": "view",
      "type": "function"
    },
    {
      "inputs": [
        {
          "internalType": "uint256",
          "name": "proposalId",
          "type": "uint256"
        }
      ],
      "name": "cancel",
      "outputs": [],
      "stateMutability": "nonpayable",
      "type": "function"
    },
    {
      "inputs": [
        {
          "internalType": "uint256",
          "name": "proposalId",
          "type": "uint256"
        },
        {
          "internalType": "uint8",
          "name": "support",
          "type": "uint8"
        }
      ],
      "name": "castVote",
      "outputs": [],
      "stateMutability": "nonpayable",
      "type": "function"
    },
    {
      "inputs": [
        {
          "internalType": "uint256",
          "name": "proposalId",
          "type": "uint256"
        },
        {
          "internalType": "uint8",
          "name": "support",
          "type": "uint8"
        },
        {
          "internalType": "uint8",
          "name": "v",
          "type": "uint8"
        },
        {
          "internalType": "bytes32",
          "name": "r",
          "type": "bytes32"
        },
        {
          "internalType": "bytes32",
          "name": "s",
          "type": "bytes32"
        }
      ],
      "name": "castVoteBySig",
      "outputs": [],
      "stateMutability": "nonpayable",
      "type": "function"
    },
    {
      "inputs": [
        {
          "internalType": "uint256",
          "name": "proposalId",
          "type": "uint256"
        },
        {
          "internalType": "uint8",
          "name": "support",
          "type": "uint8"
        },
        {
          "internalType": "string",
          "name": "reason",
          "type": "string"
        }
      ],
      "name": "castVoteWithReason",
      "outputs": [],
      "stateMutability": "nonpayable",
      "type": "function"
    },
    {
      "inputs": [
        {
          "internalType": "uint256",
          "name": "proposalId",
          "type": "uint256"
        }
      ],
      "name": "execute",
      "outputs": [],
      "stateMutability": "payable",
      "type": "function"
    },
    {
      "inputs": [
        {
          "internalType": "uint256",
          "name": "proposalId",
          "type": "uint256"
        }
      ],
      "name": "getActions",
      "outputs": [
        {
          "internalType": "address[]",
          "name": "targets",
          "type": "address[]"
        },
        {
          "internalType": "uint256[]",
          "name": "values",
          "type": "uint256[]"
        },
        {
          "internalType": "string[]",
          "name": "signatures",
          "type": "string[]"
        },
        {
          "internalType": "bytes[]",
          "name": "calldatas",
          "type": "bytes[]"
        }
      ],
      "stateMutability": "view",
      "type": "function"
    },
    {
      "inputs": [
        {
          "internalType": "uint256",
          "name": "proposalId",
          "type": "uint256"
        },
        {
          "internalType": "address",
          "name": "voter",
          "type": "address"
        }
      ],
      "name": "getReceipt",
      "outputs": [
        {
          "components": [
            {
              "internalType": "bool",
              "name": "hasVoted",
              "type": "bool"
            },
            {
              "internalType": "uint8",
              "name": "support",
              "type": "uint8"
            },
            {
              "internalType": "uint96",
              "name": "votes",
              "type": "uint96"
            }
          ],
          "internalType": "struct GovernorBravoDelegateStorageV1.Receipt",
          "name": "",
          "type": "tuple"
        }
      ],
      "stateMutability": "view",
      "type": "function"
    },
    {
      "inputs": [],
      "name": "governanceToken",
      "outputs": [
        {
          "internalType": "contract GovernanceTokenInterface",
          "name": "",
          "type": "address"
        }
      ],
      "stateMutability": "view",
      "type": "function"
    },
    {
      "inputs": [],
      "name": "implementation",
      "outputs": [
        {
          "internalType": "address",
          "name": "",
          "type": "address"
        }
      ],
      "stateMutability": "view",
      "type": "function"
    },
    {
      "inputs": [],
      "name": "initialProposalId",
      "outputs": [
        {
          "internalType": "uint256",
          "name": "",
          "type": "uint256"
        }
      ],
      "stateMutability": "view",
      "type": "function"
    },
    {
      "inputs": [
        {
          "internalType": "address",
          "name": "timelock_",
          "type": "address"
        },
        {
          "internalType": "address",
          "name": "governanceToken_",
          "type": "address"
        },
        {
          "internalType": "uint256",
          "name": "votingPeriod_",
          "type": "uint256"
        },
        {
          "internalType": "uint256",
          "name": "votingDelay_",
          "type": "uint256"
        },
        {
          "internalType": "uint256",
          "name": "proposalThreshold_",
          "type": "uint256"
        }
      ],
      "name": "initialize",
      "outputs": [],
      "stateMutability": "nonpayable",
      "type": "function"
    },
    {
      "inputs": [
        {
          "internalType": "address",
          "name": "",
          "type": "address"
        }
      ],
      "name": "latestProposalIds",
      "outputs": [
        {
          "internalType": "uint256",
          "name": "",
          "type": "uint256"
        }
      ],
      "stateMutability": "view",
      "type": "function"
    },
    {
      "inputs": [],
      "name": "name",
      "outputs": [
        {
          "internalType": "string",
          "name": "",
          "type": "string"
        }
      ],
      "stateMutability": "view",
      "type": "function"
    },
    {
      "inputs": [],
      "name": "pendingAdmin",
      "outputs": [
        {
          "internalType": "address",
          "name": "",
          "type": "address"
        }
      ],
      "stateMutability": "view",
      "type": "function"
    },
    {
      "inputs": [],
      "name": "proposalCount",
      "outputs": [
        {
          "internalType": "uint256",
          "name": "",
          "type": "uint256"
        }
      ],
      "stateMutability": "view",
      "type": "function"
    },
    {
      "inputs": [],
      "name": "proposalMaxOperations",
      "outputs": [
        {
          "internalType": "uint256",
          "name": "",
          "type": "uint256"
        }
      ],
      "stateMutability": "view",
      "type": "function"
    },
    {
      "inputs": [],
      "name": "proposalThreshold",
      "outputs": [
        {
          "internalType": "uint256",
          "name": "",
          "type": "uint256"
        }
      ],
      "stateMutability": "view",
      "type": "function"
    },
    {
      "inputs": [
        {
          "internalType": "uint256",
          "name": "",
          "type": "uint256"
        }
      ],
      "name": "proposals",
      "outputs": [
        {
          "internalType": "uint256",
          "name": "id",
          "type": "uint256"
        },
        {
          "internalType": "address",
          "name": "proposer",
          "type": "address"
        },
        {
          "internalType": "uint256",
          "name": "eta",
          "type": "uint256"
        },
        {
          "internalType": "uint256",
          "name": "startBlock",
          "type": "uint256"
        },
        {
          "internalType": "uint256",
          "name": "endBlock",
          "type": "uint256"
        },
        {
          "internalType": "uint256",
          "name": "forVotes",
          "type": "uint256"
        },
        {
          "internalType": "uint256",
          "name": "againstVotes",
          "type": "uint256"
        },
        {
          "internalType": "uint256",
          "name": "abstainVotes",
          "type": "uint256"
        },
        {
          "internalType": "bool",
          "name": "canceled",
          "type": "bool"
        },
        {
          "internalType": "bool",
          "name": "executed",
          "type": "bool"
        }
      ],
      "stateMutability": "view",
      "type": "function"
    },
    {
      "inputs": [
        {
          "internalType": "address[]",
          "name": "targets",
          "type": "address[]"
        },
        {
          "internalType": "uint256[]",
          "name": "values",
          "type": "uint256[]"
        },
        {
          "internalType": "string[]",
          "name": "signatures",
          "type": "string[]"
        },
        {
          "internalType": "bytes[]",
          "name": "calldatas",
          "type": "bytes[]"
        },
        {
          "internalType": "string",
          "name": "description",
          "type": "string"
        }
      ],
      "name": "propose",
      "outputs": [
        {
          "internalType": "uint256",
          "name": "",
          "type": "uint256"
        }
      ],
      "stateMutability": "nonpayable",
      "type": "function"
    },
    {
      "inputs": [
        {
          "internalType": "uint256",
          "name": "proposalId",
          "type": "uint256"
        }
      ],
      "name": "queue",
      "outputs": [],
      "stateMutability": "nonpayable",
      "type": "function"
    },
    {
      "inputs": [],
      "name": "quorumVotes",
      "outputs": [
        {
          "internalType": "uint256",
          "name": "",
          "type": "uint256"
        }
      ],
      "stateMutability": "view",
      "type": "function"
    },
    {
      "inputs": [
        {
          "internalType": "uint256",
          "name": "proposalId",
          "type": "uint256"
        }
      ],
      "name": "state",
      "outputs": [
        {
          "internalType": "enum GovernorBravoDelegateStorageV1.ProposalState",
          "name": "",
          "type": "uint8"
        }
      ],
      "stateMutability": "view",
      "type": "function"
    },
    {
      "inputs": [],
      "name": "timelock",
      "outputs": [
        {
          "internalType": "contract TimelockInterface",
          "name": "",
          "type": "address"
        }
      ],
      "stateMutability": "view",
      "type": "function"
    },
    {
      "inputs": [],
      "name": "votingDelay",
      "outputs": [
        {
          "internalType": "uint256",
          "name": "",
          "type": "uint256"
        }
      ],
      "stateMutability": "view",
      "type": "function"
    },
    {
      "inputs": [],
      "name": "votingPeriod",
      "outputs": [
        {
          "internalType": "uint256",
          "name": "",
          "type": "uint256"
        }
      ],
      "stateMutability": "view",
      "type": "function"
    }
  ],
  "bytecode": "0x608060405234801561001057600080fd5b5061398c806100206000396000f3fe6080604052600436106102305760003560e01c8063791f5d231161012e578063da95691a116100ab578063e9c714f21161006f578063e9c714f21461081c578063f851a44014610831578063f96dae0a14610851578063fc4eee4214610871578063fe0d94c11461088757600080fd5b8063da95691a146106c9578063ddf0b009146106e9578063deaaa7cc14610709578063e23a9a521461073d578063e48083fe1461080757600080fd5b8063b58131b0116100f2578063b58131b01461063d578063b71d1a0c14610653578063d13f90b414610673578063d33219b414610693578063da35c664146106b357600080fd5b8063791f5d23146105bd5780637b3c71d3146105db5780637bdbe4d0146105fb578063a64e024a14610610578063b11262631461062757600080fd5b806324bc1a64116101bc5780633bccf4fd116101805780633bccf4fd146105105780633e4f49e61461053057806340e58ee51461055d578063567813881461057d5780635c60da1b1461059d57600080fd5b806324bc1a641461045657806325fd935a146104745780632678224714610492578063328dd982146104ca5780633932abb1146104fa57600080fd5b806317977c611161020357806317977c611461039f57806317ba1b8b146103cc5780631dfb1b5a146103ec57806320606b701461040c578063215809ca1461044057600080fd5b8063013cf08b1461023557806302a251a31461030e57806306fdde03146103325780630ea2d98c1461037d575b600080fd5b34801561024157600080fd5b506102b36102503660046132b6565b600a60208190526000918252604090912080546001820154600283015460078401546008850154600986015496860154600b870154600c9097015495976001600160a01b0390951696939592949193919290919060ff808216916101009004168a565b604080519a8b526001600160a01b0390991660208b0152978901969096526060880194909452608087019290925260a086015260c085015260e084015215156101008301521515610120820152610140015b60405180910390f35b34801561031a57600080fd5b5061032460045481565b604051908152602001610305565b34801561033e57600080fd5b506103706040518060400160405280601281526020017144464820476f7665726e6f7220427261766f60701b81525081565b60405161030591906136b7565b34801561038957600080fd5b5061039d6103983660046132b6565b61089a565b005b3480156103ab57600080fd5b506103246103ba3660046130ca565b600b6020526000908152604090205481565b3480156103d857600080fd5b5061039d6103e73660046132b6565b6109d3565b3480156103f857600080fd5b5061039d6104073660046132b6565b610b1c565b34801561041857600080fd5b506103247f8cad95687ba82c2ce50e74f7b754645e5117c3a5bec8151c0726d5857980a86681565b34801561044c57600080fd5b5061032461168081565b34801561046257600080fd5b506103246954b40b1f852bda00000081565b34801561048057600080fd5b5061032469152d02c7e14af680000081565b34801561049e57600080fd5b506001546104b2906001600160a01b031681565b6040516001600160a01b039091168152602001610305565b3480156104d657600080fd5b506104ea6104e53660046132b6565b610c43565b6040516103059493929190613637565b34801561050657600080fd5b5061032460035481565b34801561051c57600080fd5b5061039d61052b3660046133a5565b610ed4565b34801561053c57600080fd5b5061055061054b3660046132b6565b61114c565b604051610305919061368f565b34801561056957600080fd5b5061039d6105783660046132b6565b61131d565b34801561058957600080fd5b5061039d6105983660046132fb565b61163c565b3480156105a957600080fd5b506002546104b2906001600160a01b031681565b3480156105c957600080fd5b50610324690a968163f0a57b40000081565b3480156105e757600080fd5b5061039d6105f636600461331e565b6116a7565b34801561060757600080fd5b50610324600a81565b34801561061c57600080fd5b5061032462013b0081565b34801561063357600080fd5b50610324619d8081565b34801561064957600080fd5b5061032460055481565b34801561065f57600080fd5b5061039d61066e3660046130ca565b6116f7565b34801561067f57600080fd5b5061039d61068e3660046130e5565b6117be565b34801561069f57600080fd5b506008546104b2906001600160a01b031681565b3480156106bf57600080fd5b5061032460075481565b3480156106d557600080fd5b506103246106e4366004613132565b611a91565b3480156106f557600080fd5b5061039d6107043660046132b6565b612069565b34801561071557600080fd5b506103247f150214d74d59b7d1e90c73fc22ef3d991dd0a76b046543d4d80ab92d2a50328f81565b34801561074957600080fd5b506107d76107583660046132cf565b6040805160608101825260008082526020820181905291810191909152506000918252600a602090815260408084206001600160a01b03939093168452600d9092018152918190208151606081018352905460ff8082161515835261010082041693820193909352620100009092046001600160601b03169082015290565b6040805182511515815260208084015160ff1690820152918101516001600160601b031690820152606001610305565b34801561081357600080fd5b50610324600181565b34801561082857600080fd5b5061039d6123aa565b34801561083d57600080fd5b506000546104b2906001600160a01b031681565b34801561085d57600080fd5b506009546104b2906001600160a01b031681565b34801561087d57600080fd5b5061032460065481565b61039d6108953660046132b6565b6124d4565b6000546001600160a01b0316331461090d5760405162461bcd60e51b815260206004820152602b60248201527f476f7665726e6f72427261766f3a3a5f736574566f74696e67506572696f643a60448201526a2061646d696e206f6e6c7960a81b60648201526084015b60405180910390fd5b6116808110158015610922575062013b008111155b61098d5760405162461bcd60e51b815260206004820152603660248201527f476f7665726e6f72427261766f3a3a5f736574566f74696e67506572696f643a604482015275081a5b9d985b1a59081d9bdd1a5b99c81c195c9a5bd960521b6064820152608401610904565b600480549082905560408051828152602081018490527f7e3f7f0708a84de9203036abaa450dccc85ad5ff52f78c170f3edb55cf5e882891015b60405180910390a15050565b6000546001600160a01b03163314610a465760405162461bcd60e51b815260206004820152603060248201527f476f7665726e6f72427261766f3a3a5f73657450726f706f73616c546872657360448201526f686f6c643a2061646d696e206f6e6c7960801b6064820152608401610904565b690a968163f0a57b4000008110158015610a6a575069152d02c7e14af68000008111155b610ade576040805162461bcd60e51b81526020600482015260248101919091527f476f7665726e6f72427261766f3a3a5f73657450726f706f73616c546872657360448201527f686f6c643a20696e76616c69642070726f706f73616c207468726573686f6c646064820152608401610904565b600580549082905560408051828152602081018490527fccb45da8d5717e6c4544694297c4ba5cf151d455c9bb0ed4fc7a38411bc0546191016109c7565b6000546001600160a01b03163314610b895760405162461bcd60e51b815260206004820152602a60248201527f476f7665726e6f72427261766f3a3a5f736574566f74696e6744656c61793a2060448201526961646d696e206f6e6c7960b01b6064820152608401610904565b60018110158015610b9c5750619d808111155b610c055760405162461bcd60e51b815260206004820152603460248201527f476f7665726e6f72427261766f3a3a5f736574566f74696e6744656c61793a20604482015273696e76616c696420766f74696e672064656c617960601b6064820152608401610904565b600380549082905560408051828152602081018490527fc565b045403dc03c2eea82b81a0465edad9e2e7fc4d97e11421c209da93d7a9391016109c7565b6060806060806000600a600087815260200190815260200160002090508060030181600401826005018360060183805480602002602001604051908101604052809291908181526020018280548015610cc557602002820191906000526020600020905b81546001600160a01b03168152600190910190602001808311610ca7575b5050505050935082805480602002602001604051908101604052809291908181526020018280548015610d1757602002820191906000526020600020905b815481526020019060010190808311610d03575b5050505050925081805480602002602001604051908101604052809291908181526020016000905b82821015610deb578382906000526020600020018054610d5e9061388e565b80601f0160208091040260200160405190810160405280929190818152602001828054610d8a9061388e565b8015610dd75780601f10610dac57610100808354040283529160200191610dd7565b820191906000526020600020905b815481529060010190602001808311610dba57829003601f168201915b505050505081526020019060010190610d3f565b50505050915080805480602002602001604051908101604052809291908181526020016000905b82821015610ebe578382906000526020600020018054610e319061388e565b80601f0160208091040260200160405190810160405280929190818152602001828054610e5d9061388e565b8015610eaa5780601f10610e7f57610100808354040283529160200191610eaa565b820191906000526020600020905b815481529060010190602001808311610e8d57829003601f168201915b505050505081526020019060010190610e12565b5050505090509450945094509450509193509193565b604080518082018252601281527144464820476f7665726e6f7220427261766f60701b60209182015281517f8cad95687ba82c2ce50e74f7b754645e5117c3a5bec8151c0726d5857980a866818301527fab90ebd86f4e7b59de9def3b3a1843f9734e3d457608d13990d7511aae69207781840152466060820152306080808301919091528351808303909101815260a0820184528051908301207f150214d74d59b7d1e90c73fc22ef3d991dd0a76b046543d4d80ab92d2a50328f60c083015260e0820189905260ff8816610100808401919091528451808403909101815261012083019094528351939092019290922061190160f01b6101408401526101428301829052610162830181905290916000906101820160408051601f198184030181528282528051602091820120600080855291840180845281905260ff8a169284019290925260608301889052608083018790529092509060019060a0016020604051602081039080840390855afa158015611056573d6000803e3d6000fd5b5050604051601f1901519150506001600160a01b0381166110d15760405162461bcd60e51b815260206004820152602f60248201527f476f7665726e6f72427261766f3a3a63617374566f746542795369673a20696e60448201526e76616c6964207369676e617475726560881b6064820152608401610904565b806001600160a01b03167fb8e138887d0aa13bab447e82de9d5c1777041ecd21ca36ba824ff1e6c07ddda48a8a611109858e8e612720565b6040805193845260ff90921660208401526001600160601b03169082015260806060820181905260009082015260a00160405180910390a2505050505050505050565b60008160075410158015611161575060065482115b6111bf5760405162461bcd60e51b815260206004820152602960248201527f476f7665726e6f72427261766f3a3a73746174653a20696e76616c69642070726044820152681bdc1bdcd85b081a5960ba1b6064820152608401610904565b6000828152600a60205260409020600c81015460ff16156111e35750600292915050565b806007015443116111f75750600092915050565b8060080154431161120b5750600192915050565b80600a0154816009015411158061122f57506954b40b1f852bda0000008160090154105b1561123d5750600392915050565b600281015461124f5750600492915050565b600c810154610100900460ff161561126a5750600792915050565b600860009054906101000a90046001600160a01b03166001600160a01b031663c1a287e26040518163ffffffff1660e01b815260040160206040518083038186803b1580156112b857600080fd5b505afa1580156112cc573d6000803e3d6000fd5b505050506040513d601f19601f820116820180604052508101906112f09190613226565b81600201546112ff919061382f565b421061130e5750600692915050565b50600592915050565b50919050565b60076113288261114c565b6007811115611339576113396138f4565b14156113a65760405162461bcd60e51b815260206004820152603660248201527f476f7665726e6f72427261766f3a3a63616e63656c3a2063616e6e6f742063616044820152751b98d95b08195e1958dd5d1959081c1c9bdc1bdcd85b60521b6064820152608401610904565b6000818152600a6020526040902060018101546001600160a01b031633148061147c57506005546009546001838101546001600160a01b039283169263782d6fe1929116906113f59043613847565b6040516001600160e01b031960e085901b1681526001600160a01b039092166004830152602482015260440160206040518083038186803b15801561143957600080fd5b505afa15801561144d573d6000803e3d6000fd5b505050506040513d601f19601f8201168201806040525081019061147191906133f3565b6001600160601b0316105b6114e05760405162461bcd60e51b815260206004820152602f60248201527f476f7665726e6f72427261766f3a3a63616e63656c3a2070726f706f7365722060448201526e18589bdd99481d1a1c995cda1bdb19608a1b6064820152608401610904565b600c8101805460ff1916600117905560005b600382015481101561160b576008546003830180546001600160a01b039092169163591fcdfe91908490811061152a5761152a61390a565b6000918252602090912001546004850180546001600160a01b0390921691859081106115585761155861390a565b90600052602060002001548560050185815481106115785761157861390a565b906000526020600020018660060186815481106115975761159761390a565b9060005260206000200187600201546040518663ffffffff1660e01b81526004016115c69594939291906135fe565b600060405180830381600087803b1580156115e057600080fd5b505af11580156115f4573d6000803e3d6000fd5b505050508080611603906138c3565b9150506114f2565b506040518281527f789cf55be980739dad1d0699b93b58e806b51c9d96619bfa8fe0a28abaa7b30c906020016109c7565b337fb8e138887d0aa13bab447e82de9d5c1777041ecd21ca36ba824ff1e6c07ddda4838361166b848383612720565b6040805193845260ff90921660208401526001600160601b03169082015260806060820181905260009082015260a00160405180910390a25050565b337fb8e138887d0aa13bab447e82de9d5c1777041ecd21ca36ba824ff1e6c07ddda485856116d6848383612720565b86866040516116e9959493929190613762565b60405180910390a250505050565b6000546001600160a01b031633146117645760405162461bcd60e51b815260206004820152602a60248201527f476f7665726e6f72427261766f3a5f73657450656e64696e6741646d696e3a2060448201526961646d696e206f6e6c7960b01b6064820152608401610904565b600180546001600160a01b038381166001600160a01b031983168117909355604080519190921680825260208201939093527fca4f2f25d0898edd99413412fb94012f9e54ec8142f9b093e7720646a95b16a991016109c7565b6008546001600160a01b0316156118335760405162461bcd60e51b815260206004820152603360248201527f476f7665726e6f72427261766f3a3a696e697469616c697a653a2063616e206f6044820152726e6c7920696e697469616c697a65206f6e636560681b6064820152608401610904565b6001600160a01b0385166118935760405162461bcd60e51b8152602060048201526033602482015260008051602061393783398151915260448201527269642074696d656c6f636b206164647265737360681b6064820152608401610904565b6001600160a01b0384166118fd5760405162461bcd60e51b815260206004820152603b602482015260008051602061393783398151915260448201527f696420676f7665726e616e636520746f6b656e206164647265737300000000006064820152608401610904565b6116808310158015611912575062013b008311155b6119655760405162461bcd60e51b8152602060048201526030602482015260008051602061393783398151915260448201526f1a59081d9bdd1a5b99c81c195c9a5bd960821b6064820152608401610904565b600182101580156119785750619d808211155b6119ca5760405162461bcd60e51b815260206004820152602f602482015260008051602061393783398151915260448201526e696420766f74696e672064656c617960881b6064820152608401610904565b690a968163f0a57b40000081101580156119ee575069152d02c7e14af68000008111155b611a465760405162461bcd60e51b815260206004820152603560248201526000805160206139378339815191526044820152741a59081c1c9bdc1bdcd85b081d1a1c995cda1bdb19605a1b6064820152608401610904565b600080546001600160a01b039687166001600160a01b031991821681179092556008805482169092179091556009805495909616941693909317909355600455600391909155600555565b600060065460001415611b005760405162461bcd60e51b815260206004820152603160248201527f476f7665726e6f72427261766f3a3a70726f706f73653a20476f7665726e6f7260448201527020427261766f206e6f742061637469766560781b6064820152608401610904565b6005546009546001600160a01b031663782d6fe133611b20600143613847565b6040516001600160e01b031960e085901b1681526001600160a01b039092166004830152602482015260440160206040518083038186803b158015611b6457600080fd5b505afa158015611b78573d6000803e3d6000fd5b505050506040513d601f19601f82011682018060405250810190611b9c91906133f3565b6001600160601b031611611c185760405162461bcd60e51b815260206004820152603f60248201527f476f7665726e6f72427261766f3a3a70726f706f73653a2070726f706f73657260448201527f20766f7465732062656c6f772070726f706f73616c207468726573686f6c64006064820152608401610904565b84518651148015611c2a575083518651145b8015611c37575082518651145b611cb75760405162461bcd60e51b8152602060048201526044602482018190527f476f7665726e6f72427261766f3a3a70726f706f73653a2070726f706f73616c908201527f2066756e6374696f6e20696e666f726d6174696f6e206172697479206d69736d6064820152630c2e8c6d60e31b608482015260a401610904565b8551611d1a5760405162461bcd60e51b815260206004820152602c60248201527f476f7665726e6f72427261766f3a3a70726f706f73653a206d7573742070726f60448201526b7669646520616374696f6e7360a01b6064820152608401610904565b600a86511115611d7d5760405162461bcd60e51b815260206004820152602860248201527f476f7665726e6f72427261766f3a3a70726f706f73653a20746f6f206d616e7960448201526720616374696f6e7360c01b6064820152608401610904565b336000908152600b60205260409020548015611efe576000611d9e8261114c565b90506001816007811115611db457611db46138f4565b1415611e4e5760405162461bcd60e51b815260206004820152605860248201527f476f7665726e6f72427261766f3a3a70726f706f73653a206f6e65206c69766560448201527f2070726f706f73616c207065722070726f706f7365722c20666f756e6420616e60648201527f20616c7265616479206163746976652070726f706f73616c0000000000000000608482015260a401610904565b6000816007811115611e6257611e626138f4565b1415611efc5760405162461bcd60e51b815260206004820152605960248201527f476f7665726e6f72427261766f3a3a70726f706f73653a206f6e65206c69766560448201527f2070726f706f73616c207065722070726f706f7365722c20666f756e6420616e60648201527f20616c72656164792070656e64696e672070726f706f73616c00000000000000608482015260a401610904565b505b600060035443611f0e919061382f565b9050600060045482611f20919061382f565b600780549192506000611f32836138c3565b90915550506007546000818152600a602090815260409091209182556001820180546001600160a01b031916331790558a51611f76916003840191908d0190612be9565b508851611f8c90600483019060208c0190612c4e565b508751611fa290600583019060208b0190612c89565b508651611fb890600683019060208a0190612ce2565b508281600701819055508181600801819055508060000154600b60008360010160009054906101000a90046001600160a01b03166001600160a01b03166001600160a01b03168152602001908152602001600020819055507f7d84a6263ae0d98d3329bd7b46bb4e8d6f98cd35a7adb45c274c8b7fd5ebd5e08160000154338c8c8c8c89898e604051612053999897969594939291906136ca565b60405180910390a1549998505050505050505050565b60046120748261114c565b6007811115612085576120856138f4565b146121065760405162461bcd60e51b8152602060048201526044602482018190527f476f7665726e6f72427261766f3a3a71756575653a2070726f706f73616c2063908201527f616e206f6e6c79206265207175657565642069662069742069732073756363656064820152631959195960e21b608482015260a401610904565b6000818152600a602090815260408083206008548251630d48571f60e31b815292519194936001600160a01b0390911692636a42b8f89260048083019392829003018186803b15801561215857600080fd5b505afa15801561216c573d6000803e3d6000fd5b505050506040513d601f19601f820116820180604052508101906121909190613226565b61219a904261382f565b905060005b6003830154811015612364576123528360030182815481106121c3576121c361390a565b6000918252602090912001546004850180546001600160a01b0390921691849081106121f1576121f161390a565b90600052602060002001548560050184815481106122115761221161390a565b9060005260206000200180546122269061388e565b80601f01602080910402602001604051908101604052809291908181526020018280546122529061388e565b801561229f5780601f106122745761010080835404028352916020019161229f565b820191906000526020600020905b81548152906001019060200180831161228257829003601f168201915b50505050508660060185815481106122b9576122b961390a565b9060005260206000200180546122ce9061388e565b80601f01602080910402602001604051908101604052809291908181526020018280546122fa9061388e565b80156123475780601f1061231c57610100808354040283529160200191612347565b820191906000526020600020905b81548152906001019060200180831161232a57829003601f168201915b505050505086612a14565b8061235c816138c3565b91505061219f565b506002820181905560408051848152602081018390527f9a2e42fd6722813d69113e7d0079d3d940171428df7373df9c7f7617cfda2892910160405180910390a1505050565b6001546001600160a01b0316331480156123c357503315155b6124265760405162461bcd60e51b815260206004820152602e60248201527f476f7665726e6f72427261766f3a5f61636365707441646d696e3a2070656e6460448201526d696e672061646d696e206f6e6c7960901b6064820152608401610904565b60008054600180546001600160a01b038082166001600160a01b031980861682179096559490911690915560408051919092168082526020820184905292917ff9ffabca9c8276e99321725bcb43fb076a6c66a54b7f21c4e8146d8519b417dc910160405180910390a1600154604080516001600160a01b03808516825290921660208301527fca4f2f25d0898edd99413412fb94012f9e54ec8142f9b093e7720646a95b16a991016109c7565b60056124df8261114c565b60078111156124f0576124f06138f4565b146125715760405162461bcd60e51b815260206004820152604560248201527f476f7665726e6f72427261766f3a3a657865637574653a2070726f706f73616c60448201527f2063616e206f6e6c7920626520657865637574656420696620697420697320716064820152641d595d595960da1b608482015260a401610904565b6000818152600a60205260408120600c8101805461ff001916610100179055905b60038201548110156126ef576008546004830180546001600160a01b0390921691630825f38f9190849081106125ca576125ca61390a565b90600052602060002001548460030184815481106125ea576125ea61390a565b6000918252602090912001546004860180546001600160a01b0390921691869081106126185761261861390a565b90600052602060002001548660050186815481106126385761263861390a565b906000526020600020018760060187815481106126575761265761390a565b9060005260206000200188600201546040518763ffffffff1660e01b81526004016126869594939291906135fe565b6000604051808303818588803b15801561269f57600080fd5b505af11580156126b3573d6000803e3d6000fd5b50505050506040513d6000823e601f3d908101601f191682016040526126dc919081019061323f565b50806126e7816138c3565b915050612592565b506040518281527f712ae1383f79ac853f8d882153778e0260ef8f03b504e2866e0593e04d2b291f906020016109c7565b6000600161272d8461114c565b600781111561273e5761273e6138f4565b146127a55760405162461bcd60e51b815260206004820152603160248201527f476f7665726e6f72427261766f3a3a63617374566f7465496e7465726e616c3a604482015270081d9bdd1a5b99c81a5cc818db1bdcd959607a1b6064820152608401610904565b60028260ff1611156128145760405162461bcd60e51b815260206004820152603260248201527f476f7665726e6f72427261766f3a3a63617374566f7465496e7465726e616c3a60448201527120696e76616c696420766f7465207479706560701b6064820152608401610904565b6000838152600a602090815260408083206001600160a01b0388168452600d8101909252909120805460ff16156128aa5760405162461bcd60e51b815260206004820152603460248201527f476f7665726e6f72427261766f3a3a63617374566f7465496e7465726e616c3a604482015273081d9bdd195c88185b1c9958591e481d9bdd195960621b6064820152608401610904565b600954600783015460405163782d6fe160e01b81526000926001600160a01b03169163782d6fe1916128f4918b916004016001600160a01b03929092168252602082015260400190565b60206040518083038186803b15801561290c57600080fd5b505afa158015612920573d6000803e3d6000fd5b505050506040513d601f19601f8201168201806040525081019061294491906133f3565b905060ff851661297157806001600160601b031683600a0154612967919061382f565b600a8401556129cb565b8460ff16600114156129a057806001600160601b03168360090154612996919061382f565b60098401556129cb565b8460ff16600214156129cb57806001600160601b031683600b01546129c5919061382f565b600b8401555b81546001600160601b03821662010000026dffffffffffffffffffffffff00001960ff88166101000261ffff199093169290921760011791909116179091559150509392505050565b6008546040516001600160a01b039091169063f2b0653790612a4290889088908890889088906020016135b2565b604051602081830303815290604052805190602001206040518263ffffffff1660e01b8152600401612a7691815260200190565b60206040518083038186803b158015612a8e57600080fd5b505afa158015612aa2573d6000803e3d6000fd5b505050506040513d601f19601f82011682018060405250810190612ac69190613204565b15612b575760405162461bcd60e51b815260206004820152605560248201527f476f7665726e6f72427261766f3a3a71756575654f72526576657274496e746560448201527f726e616c3a206964656e746963616c2070726f706f73616c20616374696f6e20606482015274616c7265616479207175657565642061742065746160581b608482015260a401610904565b600854604051633a66f90160e01b81526001600160a01b0390911690633a66f90190612b8f90889088908890889088906004016135b2565b602060405180830381600087803b158015612ba957600080fd5b505af1158015612bbd573d6000803e3d6000fd5b505050506040513d601f19601f82011682018060405250810190612be19190613226565b505050505050565b828054828255906000526020600020908101928215612c3e579160200282015b82811115612c3e57825182546001600160a01b0319166001600160a01b03909116178255602090920191600190910190612c09565b50612c4a929150612d3b565b5090565b828054828255906000526020600020908101928215612c3e579160200282015b82811115612c3e578251825591602001919060010190612c6e565b828054828255906000526020600020908101928215612cd6579160200282015b82811115612cd65782518051612cc6918491602090910190612d50565b5091602001919060010190612ca9565b50612c4a929150612dc3565b828054828255906000526020600020908101928215612d2f579160200282015b82811115612d2f5782518051612d1f918491602090910190612d50565b5091602001919060010190612d02565b50612c4a929150612de0565b5b80821115612c4a5760008155600101612d3c565b828054612d5c9061388e565b90600052602060002090601f016020900481019282612d7e5760008555612c3e565b82601f10612d9757805160ff1916838001178555612c3e565b82800160010185558215612c3e5791820182811115612c3e578251825591602001919060010190612c6e565b80821115612c4a576000612dd78282612dfd565b50600101612dc3565b80821115612c4a576000612df48282612dfd565b50600101612de0565b508054612e099061388e565b6000825580601f10612e19575050565b601f016020900490600052602060002090810190612e379190612d3b565b50565b6000612e4d612e4884613807565b6137b2565b9050828152838383011115612e6157600080fd5b828260208301376000602084830101529392505050565b80356001600160a01b0381168114612e8f57600080fd5b919050565b600082601f830112612ea557600080fd5b81356020612eb5612e48836137e3565b80838252828201915082860187848660051b8901011115612ed557600080fd5b60005b85811015612efb57612ee982612e78565b84529284019290840190600101612ed8565b5090979650505050505050565b600082601f830112612f1957600080fd5b81356020612f29612e48836137e3565b80838252828201915082860187848660051b8901011115612f4957600080fd5b60005b85811015612efb57813567ffffffffffffffff811115612f6b57600080fd5b8801603f81018a13612f7c57600080fd5b612f8d8a8783013560408401612e3a565b8552509284019290840190600101612f4c565b600082601f830112612fb157600080fd5b81356020612fc1612e48836137e3565b80838252828201915082860187848660051b8901011115612fe157600080fd5b6000805b8681101561302457823567ffffffffffffffff811115613003578283fd5b6130118b88838d0101613092565b8652509385019391850191600101612fe5565b509198975050505050505050565b600082601f83011261304357600080fd5b81356020613053612e48836137e3565b80838252828201915082860187848660051b890101111561307357600080fd5b60005b85811015612efb57813584529284019290840190600101613076565b600082601f8301126130a357600080fd5b6130b283833560208501612e3a565b9392505050565b803560ff81168114612e8f57600080fd5b6000602082840312156130dc57600080fd5b6130b282612e78565b600080600080600060a086880312156130fd57600080fd5b61310686612e78565b945061311460208701612e78565b94979496505050506040830135926060810135926080909101359150565b600080600080600060a0868803121561314a57600080fd5b853567ffffffffffffffff8082111561316257600080fd5b61316e89838a01612e94565b9650602088013591508082111561318457600080fd5b61319089838a01613032565b955060408801359150808211156131a657600080fd5b6131b289838a01612fa0565b945060608801359150808211156131c857600080fd5b6131d489838a01612f08565b935060808801359150808211156131ea57600080fd5b506131f788828901613092565b9150509295509295909350565b60006020828403121561321657600080fd5b815180151581146130b257600080fd5b60006020828403121561323857600080fd5b5051919050565b60006020828403121561325157600080fd5b815167ffffffffffffffff81111561326857600080fd5b8201601f8101841361327957600080fd5b8051613287612e4882613807565b81815285602083850101111561329c57600080fd5b6132ad82602083016020860161385e565b95945050505050565b6000602082840312156132c857600080fd5b5035919050565b600080604083850312156132e257600080fd5b823591506132f260208401612e78565b90509250929050565b6000806040838503121561330e57600080fd5b823591506132f2602084016130b9565b6000806000806060858703121561333457600080fd5b84359350613344602086016130b9565b9250604085013567ffffffffffffffff8082111561336157600080fd5b818701915087601f83011261337557600080fd5b81358181111561338457600080fd5b88602082850101111561339657600080fd5b95989497505060200194505050565b600080600080600060a086880312156133bd57600080fd5b853594506133cd602087016130b9565b93506133db604087016130b9565b94979396509394606081013594506080013592915050565b60006020828403121561340557600080fd5b81516001600160601b03811681146130b257600080fd5b600081518084526020808501945080840160005b838110156134555781516001600160a01b031687529582019590820190600101613430565b509495945050505050565b600081518084526020808501808196508360051b8101915082860160005b858110156134a85782840389526134968483516134e5565b9885019893509084019060010161347e565b5091979650505050505050565b600081518084526020808501945080840160005b83811015613455578151875295820195908201906001016134c9565b600081518084526134fd81602086016020860161385e565b601f01601f19169290920160200192915050565b8054600090600181811c908083168061352b57607f831692505b602080841082141561354d57634e487b7160e01b600052602260045260246000fd5b8388528180156135645760018114613578576135a6565b60ff198616898301526040890196506135a6565b876000528160002060005b8681101561359e5781548b8201850152908501908301613583565b8a0183019750505b50505050505092915050565b60018060a01b038616815284602082015260a0604082015260006135d960a08301866134e5565b82810360608401526135eb81866134e5565b9150508260808301529695505050505050565b60018060a01b038616815284602082015260a06040820152600061362560a0830186613511565b82810360608401526135eb8186613511565b60808152600061364a608083018761341c565b828103602084015261365c81876134b5565b905082810360408401526136708186613460565b905082810360608401526136848185613460565b979650505050505050565b60208101600883106136b157634e487b7160e01b600052602160045260246000fd5b91905290565b6020815260006130b260208301846134e5565b8981526001600160a01b0389166020820152610120604082018190526000906136f58382018b61341c565b90508281036060840152613709818a6134b5565b9050828103608084015261371d8189613460565b905082810360a08401526137318188613460565b90508560c08401528460e084015282810361010084015261375281856134e5565b9c9b505050505050505050505050565b85815260ff851660208201526001600160601b038416604082015260806060820152816080820152818360a0830137600081830160a090810191909152601f909201601f19160101949350505050565b604051601f8201601f1916810167ffffffffffffffff811182821017156137db576137db613920565b604052919050565b600067ffffffffffffffff8211156137fd576137fd613920565b5060051b60200190565b600067ffffffffffffffff82111561382157613821613920565b50601f01601f191660200190565b60008219821115613842576138426138de565b500190565b600082821015613859576138596138de565b500390565b60005b83811015613879578181015183820152602001613861565b83811115613888576000848401525b50505050565b600181811c908216806138a257607f821691505b6020821081141561131757634e487b7160e01b600052602260045260246000fd5b60006000198214156138d7576138d76138de565b5060010190565b634e487b7160e01b600052601160045260246000fd5b634e487b7160e01b600052602160045260246000fd5b634e487b7160e01b600052603260045260246000fd5b634e487b7160e01b600052604160045260246000fdfe476f7665726e6f72427261766f3a3a696e697469616c697a653a20696e76616ca2646970667358221220a44db31a0b03657b2afe4fc38613d8d7701156795e265b87918adf9d6fed40c064736f6c63430008060033",
  "linkReferences": {},
  "deployedLinkReferences": {}
}